:10000000F8FF0020110400007B1500007B150000A4
:100010007B1500007B1500007B1500007B150000A0
:100020007B1500007B1500007B1500007B15000090
:100030007B1500007B1500007B1500007B15000080
:100040007B1500007B1500007B1500007B15000070
:10040000FFFFFFFFFFFFFFFFFFFFFFFFFEFFFFFFFD
:1004100062B608F03DF8FEE710B400210022002388
:100420001900C9B2022926DA00231A00D2B2142A0E
:1004300011DAC9B2802303FB0103D2B20024D454E1
:10044000C9B2802303FB0103D2B29B1A002483F8B4
:100450007F40521CEAE714231A00D2B26B2A08DA52
:10046000C9B2802303FB0103D2B2FF24D454521C2F
:10047000F3E7491CD5E700231900C9B280290BDA3C
:10048000FF23C9B20C1884F800310023C9B20C183C
:1004900084F88031491CF0E74023A0F81832162375
:1004A000A0F81A321E23A0F81C320423A0F8203230
:1004B0000023A0F81E3200231900C9B20F291FDA49
:1004C0000023C9B210EB4104A4F822320023C9B2C0
:1004D00010EB4104A4F85E324023C9B210EB410492
:1004E000A4F840320023C9B210EB4104A4F87C32D6
:1004F0000023C9B210EB4104A4F89A32491CDCE78E
:10050000002380F8D432002380F8D532002319006C
:10051000C9B20A2907DA3223C9B210EB4104A4F8A0
:10052000B832491CF4E74623A0F8D6321C23A0F8C1
:1005300022326423A0F85E3200231900C9B20429D4
:100540000BDAFF23C9B20C1884F810320023C9B2A9
:100550000C1884F81432491CF0E700231900C9B2C2
:10056000102906DA0023C9B20C1884F80032491C9D
:10057000F5E7002380F8D832002380F8D932002331
:1005800080F8DA32002380F8DB32002380F8DC3296
:100590000023A0F8CC320023A0F8CE320023A0F82C
:1005A000D0320023A0F8D23210BC70472DE9F043BE
:1005B000002200230024FF25FF2600275FF0960C71
:1005C0005FF0960E5FF000084246D2B2802A59DAF8
:1005D000D2B212F80080D2B212EB000989F8008181
:1005E000D2B212EB000898F80081DBB2434505D285
:1005F000D2B212EB000898F800814346D2B212EB57
:10060000000898F80081EDB2A84505D2D2B212EBED
:10061000000898F800814546D2B212F80180D2B2A3
:1006200012EB010989F80081D2B212EB010898F8A7
:100630000081E4B2444505D2D2B212EB010898F829
:1006400000814446D2B212EB010898F80081F6B25C
:10065000B04505D2D2B212EB010898F800814646A7
:10066000D2B212F80080D2B212EB000989F8808071
:10067000D2B212F80180D2B212EB010989F880805F
:10068000521CA2E790F8128280F8138290F811822F
:1006900080F8128290F8108280F8118290F8168209
:1006A00080F8178290F8158280F8168290F81482EC
:1006B00080F8158280F8103280F8145291F8128276
:1006C00081F8138291F8118281F8128291F81082D8
:1006D00081F8118291F8168281F8178291F81582BB
:1006E00081F8168291F8148281F8158281F81042FF
:1006F00081F8146290F8138290F8129219EB0808AE
:1007000090F8119218EB090890F8109218EB09086C
:1007100090F8179218EB090890F8169218EB090850
:1007200090F8159218EB090890F8149218EB090844
:100730001FFA88F85FEAD8084746BFB2FF2F02DAEF
:10074000B846C44602E04FF0FF08C44691F8138251
:1007500091F8129219EB080891F8119218EB090818
:1007600091F8109218EB090891F8179218EB090804
:1007700091F8169218EB090891F8159218EB0908F0
:1007800091F8149218EB09081FFA88F85FEAD80864
:100790004746BFB2FF2F02DAB846C64602E04FF026
:1007A000FF08C6465FFA8CFCBCF1B40F02DA5FF0BA
:1007B000B40C07E05FFA8CFCBCF1C40F02DB5FF005
:1007C000C30CFFE75FF000084246D2B2802A27DA66
:1007D000D2B212EB000898F800815FFA8CFCE04579
:1007E00002D35FF0010801E05FF00008D2B212EB23
:1007F000000989F88081D2B212EB010898F80081D3
:100800005FFA8EFEF04502D35FF0010801E05FF071
:100810000008D2B212EB010989F88081521CD4E79A
:10082000BDE8F08310B4002200231A00D2B27F2A60
:1008300040DAD2B2131893F88131002B19D1D2B219
:10084000131893F88131D2B2141894F88041A3425E
:100850000FD0D2B2131893F88131D2B2141894F891
:100860008241A34205D00123D2B2141884F8813109
:100870001EE0D2B2131893F88131012B18D1D2B2F5
:10088000131893F88131D2B2141894F88041A3421E
:100890000ED0D2B2131893F88131D2B2141894F852
:1008A0008241A34204D00023D2B2141884F88131CB
:1008B000521CBBE710BC704710B4002200231A0082
:1008C00012B2802A0DDA12B2135C12B2141884F834
:1008D000803012B2535C12B2541884F88030521C2B
:1008E000EEE710BC7047F8B504000D0016000027B5
:1008F0000520070029002000FFF7DEFF7F1EFFB262
:10090000002FF7D10F20070029002000FFF74EFE2F
:1009100029002000FFF786FF3100200000F0DCF8FE
:10092000280000F04DFA7F1EFFB2002FECD1B4F882
:100930005E02B4F82212401AA4F8D602B5F85E029C
:10094000B5F82212401AA5F8D602F1BD70B5040020
:100950000D00160029002000FFF728FE29002000C6
:10096000FFF760FF3100200000F0B6F8280000F02B
:1009700027FA200000F0EAFB200000F00CFC94F8BD
:10098000DA02012817D0B4F91E02012803D102208F
:10099000A4F81E0206E0B4F91E02032802D10020CA
:1009A000A4F81E02B4F84002484908800021432000
:1009B00000F091FC54E094F8D90201280AD1B4F96E
:1009C0002202B4F95E120818022190FBF1F03F49AF
:1009D000088045E094F8DB02012841D13C480078CA
:1009E0003B49487003203A490870B4F91E020028B8
:1009F0000DD10120A4F81E02B4F92202B4F95E124E
:100A00000818022190FBF1F03049088028E0B4F981
:100A10001E02022824D10320A4F81E02B4F94C02BD
:100A2000403810F1050F06DAB4F81C02D0F140008E
:100A30002649088014E0B4F94C024038062805DB4A
:100A4000B4F81C0240302149088009E0B4F92202C0
:100A5000B4F95E120818022190FBF1F01B490880DE
:100A60001C4890F8D40001282FD02900200000F065
:100A70001CFB002828D0022813D026D2B4F840024C
:100A8000B4F81A120818A4F8400211480078104966
:100A9000487004200E4908700121432000F01BFC1F
:100AA00013E0B4F84002B4F81A12401AA4F8400255
:100AB000074800780649487004200549087001215C
:100AC000432000F008FC00E0FFE770BD1004FF1FAA
:100AD000DC16FF1F5817FF1FF0B5B0F940221300B6
:100AE000002400250026002780F8DA72002780F80D
:100AF000DB72002780F8D972012780F8D4720127B1
:100B000080F8D5721E0036B2042E18DB36B23718C4
:100B100097F87E71002F10D136B2371897F87F7191
:100B2000002F0AD136B2371897F88071012F04D1FF
:100B30003400002780F8D47201E0761EE3E736B275
:100B4000032E03D13400012780F8D4721E0036B280
:100B50007D2E18DA36B2371897F88071012F10D130
:100B600036B2371897F88171002F0AD136B237188C
:100B700097F88271002F04D13500002780F8D572D4
:100B800001E0761CE3E736B27D2E03D13500012764
:100B900080F8D5720E273E0036B2012E33DB36B216
:100BA00010EB4607B7F8207236B210EB460CACF8E3
:100BB000227236B210EB4607B7F85C7236B210EB11
:100BC000460CACF85E7236B210EB4607B7F83E72D0
:100BD00036B210EB460CACF8407236B210EB46075A
:100BE000B7F87A7236B210EB460CACF87C7236B2BB
:100BF00010EB4607B7F8987236B210EB460CACF81B
:100C00009A72761EC8E790F8D472012F20D190F81E
:100C1000D572002F1CD1012780F8D972B0F8B872B4
:100C2000EF1BA0F82272A0F85E52B0F91872B0F96A
:100C300022C2B0F95EE21EEB0C0CB7EB6C0F07DAC8
:100C4000B0F82472A0F82272B0F86072A0F85E7258
:100C500090F8D472002F20D190F8D572012F1CD1BA
:100C6000012780F8D972B0F8B8723F19A0F85E7207
:100C7000A0F82242B0F92272B0F95EC21CEB07075D
:100C80007F10B0F918C2674507DAB0F82472A0F8EF
:100C90002272B0F86072A0F85E7290F8D972002FDC
:100CA00034D190F8D472002F10D190F8D572002F63
:100CB0000CD1A0F82242A0F85E52002780F8DA7228
:100CC00090F8D8727F1C80F8D8721FE0012780F856
:100CD000DA721BB21F1897F88071012F13D11BB263
:100CE0001F1897F87B71012F0DD11BB21F1897F8B1
:100CF0008571012F07D1012780F8DB72A0F822420D
:100D0000A0F85E5202E0002780F8D87290F8DA72FC
:100D1000012F54D0B0F95E72B0F922C2B7EB0C07C4
:100D2000142F4CDBB0F92272B0F95EC21CEB07073E
:100D30005FF0020C97FBFCF7A0F84072B0F840722D
:100D4000B0F818C2B7EB0C07A0F87C72B0F87C7250
:100D5000B0F88CC2B7EB0C07A0F89A722DB224B28F
:100D60002F1B5B2F2BDAB0F8C872A0F8CA72B0F84C
:100D7000C672A0F8C872B0F8C472A0F8C672B0F813
:100D8000C272A0F8C472B0F8C072A0F8C272B0F813
:100D9000BE72A0F8C072B0F8BC72A0F8BE72B0F813
:100DA000BA72A0F8BC72B0F8B872A0F8BA72B0F813
:100DB0005E72B0F822C2B7EB0C07A0F8B872F0BDB3
:100DC000F0B4B0F940120A000023002400250026E8
:100DD00080F8DA62002680F8DB62002680F8D962AB
:100DE000012680F8D462012680F8D56215002DB264
:100DF000042D18DB2DB22E1896F87E61002E10D12E
:100E00002DB22E1896F87F61002E0AD12DB22E1821
:100E100096F88061012E04D12B00002680F8D46260
:100E200001E06D1EE3E71BB2032B02D1012680F81F
:100E3000D46215002DB27D2D18DA2DB22E1896F839
:100E40008061012E10D12DB22E1896F88161002EEE
:100E50000AD12DB22E1896F88261002E04D12C00F2
:100E6000002680F8D56201E06D1CE3E724B27D2CFA
:100E700002D1012680F8D5620E2635002DB2012D53
:100E800033DB2DB210EB4506B6F820622DB210EB25
:100E90004507A7F822622DB210EB4506B6F85C6252
:100EA0002DB210EB4507A7F85E622DB210EB450698
:100EB000B6F83E622DB210EB4507A7F840622DB29E
:100EC00010EB4506B6F87A622DB210EB4507A7F88D
:100ED0007C622DB210EB4506B6F898622DB210EB8D
:100EE0004507A7F89A626D1EC8E790F8D462012EF4
:100EF00020D190F8D562002E1CD1012680F8D9624D
:100F0000B0F8B862A61BA0F82262A0F85E42B0F961
:100F10001862B0F92272B0F95EC21CEB0707B6EB9B
:100F2000670F07DAB0F82462A0F82262B0F86062B6
:100F3000A0F85E6290F8D462002E1FD190F8D562BE
:100F4000012E1BD1012680F8D962B0F8B862F618DC
:100F5000A0F85E62A0F82232B0F92262B0F95E72A7
:100F6000BE197610B0F91872BE4207DAB0F82462E2
:100F7000A0F82262B0F86062A0F85E6290F8D962D0
:100F8000002E3DD190F8D462002E0BD190F8D5629E
:100F9000002E07D1A0F82232A0F85E42002680F889
:100FA000DA622DE0012680F8DA6212B2161896F89D
:100FB0008061012E0FD112B2161896F87D61012EB4
:100FC00009D112B2161896F88361012E03D10126B9
:100FD00080F8DB6214E012B2161896F88061002ED9
:100FE0000ED112B2161896F87B61002E08D112B2FB
:100FF000161896F88561002E02D1002680F8D86276
:1010000090F8DA62012E4ED0B0F95E62B0F9227229
:10101000F61B142E47DBB0F92262B0F95E72BE19DE
:10102000022796FBF7F6A0F84062B0F84062B0F8ED
:101030001872F61BA0F87C62B0F87C62B0F88C7273
:10104000F61BA0F89A6224B21BB2E61A792E2ADAAD
:10105000B0F8C862A0F8CA62B0F8C662A0F8C86268
:10106000B0F8C462A0F8C662B0F8C262A0F8C46268
:10107000B0F8C062A0F8C262B0F8BE62A0F8C06268
:10108000B0F8BC62A0F8BE62B0F8BA62A0F8BC6268
:10109000B0F8B862A0F8BA62B0F85E62B0F8227236
:1010A000F61BA0F8B862F0BC7047020092F8DA02B2
:1010B000002849D191F8DA02002845D1B2F9B802E6
:1010C000B2F9C432C01A10F10C0F3BDAB2F92202A5
:1010D000B2F92E32C01A0A2815DBB2F95E02B2F953
:1010E0006A32C01A012805DBB2F95E02B2F96A322F
:1010F000C01A04E0B2F96A02B2F95E32C01A0528D9
:1011000001DA012021E0B2F96A02B2F95E32C01AB6
:101110000A2815DBB2F92202B2F92E32C01A0128D0
:1011200005DBB2F92202B2F92E32C01A04E0B2F99C
:101130002E02B2F92232C01A052801DA022004E098
:10114000002002E0002000E00020704710B40021E1
:101150000022002300242300DBB20F2B0DDADBB2C8
:1011600010EB4304B4F822426118DBB210EB4304E5
:10117000B4F85E42A2185B1CEEE709B20F2491FBA3
:10118000F4F4A0F8CC4212B20F2492FBF4F4A0F8CD
:10119000D04210BC704770B40022002300210F29F8
:1011A00023DA10EB4104B4F92242B0F9CC52641BAB
:1011B00010EB4105B5F92252B0F9CC62AD1B6C437E
:1011C00004FA82F210EB4104B4F95E42B0F9D05255
:1011D000641B10EB4105B5F95E52B0F9D062AD1B4E
:1011E0006C4304FA83F3491CD9E712B20F2192FB36
:1011F000F1F1A0F8CE121BB20F2193FBF1F1A0F890
:10120000D21270BC704750F8041B61B150F8042B27
:10121000D30744BFA9F101039A180023091F42F81C
:10122000043BFAD1EFE7704770B504000D001600DB
:101230004FF480712000C0B200F0C8F86DB2002DEC
:1012400011D16048E4B2611150F821005D49E4B267
:10125000621151F822104969012214F01F039A40CB
:101260009143416136E05748E4B2611150F82100E2
:101270005449E4B2621151F822104969012214F074
:101280001F039A4011434161F6B2002E11D14D481F
:10129000E4B2611150F821000068012114F01F022E
:1012A000914088434749E4B2621151F82210086026
:1012B00010E04448E4B2611150F8210000680121B7
:1012C00014F01F02914008433E49E4B2621151F804
:1012D0002210086070BD38B504000D003948E4B232
:1012E000611150F82100406914F01F010200CA404A
:1012F000D00703D46321344800F0D5F8EDB2002DB7
:1013000011D13048E4B2611150F821000068012188
:1013100014F01F02914088432A49E4B2621151F847
:101320002210086010E02748E4B2611150F8210053
:101330000068012114F01F02914008432149E4B2E2
:10134000621151F82210086031BD10B504001D482B
:10135000E4B2611150F82100406914F01F0102004D
:10136000CA40D00703D47B21174800F09CF81548E9
:10137000E4B2611150F82100012114F01F029140E4
:10138000C16010BD10B504000E48E4B2611150F800
:101390002100406914F01F010200CA40D00703D5A4
:1013A0008C21094800F07FF80648E4B2611150F83A
:1013B0002100006914F01F010200CA4012F0010070
:1013C00010BD0000800DFF1F0089000010B4294AE5
:1013D00012684FF40073C0B24409A3401A43254B6E
:1013E0001A60254AC0B2431152F82320012310F09D
:1013F0001F04A340C2F8A0301F4AC0B2431152F8E4
:101400002320C0B210F01F0342F8231010BC704715
:1014100010B4184A12684FF40073C0B24409A340D4
:101420001A43144B1A60144AC0B2431152F82320D5
:10143000012310F01F04A340C2F8A03031F4E06192
:101440000D4AC0B2431152F82320C0B210F01F035E
:1014500052F8232012F4E0621143074AC0B243114C
:1014600052F82320C0B210F01F0342F8231010BC22
:101470007047000038800440F80DFF1FDFF800F0CF
:10148000AD0EFF1FDFF800F0D10EFF1FBFF34F8F2F
:101490004648006810F4E060454908434349086045
:1014A000BFF34F8FFEE738B504000D00002000F0B9
:1014B0008DF82A0021003F4800F0C0F8002000F01D
:1014C000A2F84FF47A7000F0E6F8F2E738B50400BD
:1014D0000D00210049B2042000F024FA200032BDA2
:1014E00010B50024042000F057FB042000F08AFB14
:1014F000002841D1002000F069F8042000F082FBB0
:10150000012801D101200400002000F07CF82A48C5
:1015100000F094F84FF4FA7000F0BDF8E4B2012C3A
:10152000EBD1042000F06EFB0028E6D1042000F08F
:1015300069FB002806D1002000F065F8642000F067
:10154000AAF8F3E7042000F05DFB012806D1002093
:1015500000F059F8322000F09EF8F3E7174800F049
:101560006DF8FFF78BFF642000F095F80020FFF77F
:1015700089FFFFF78BFFC0E710BD10B51048046866
:10158000012000F023F8012000F03DF80D48E4B2FE
:101590000F2101FB0402E4B221000B4800F04EF8D9
:1015A0004FF47A7000F077F8EDE700000CED00E002
:1015B0000400FA0598890000708A0000F089000094
:1015C00004ED00E06806FF1F6487000010B504000A
:1015D00064B2042C07DA01220121174864B2205CAE
:1015E000FFF722FE0EE0042004002000441E40B25B
:1015F000002807D0012201210F4864B2205CFFF7C8
:1016000013FEF2E710BD10B5040064B2042C05DA35
:10161000094864B2205CFFF798FE0CE00420040047
:101620002000441E40B2002805D0034864B2205C6C
:10163000FFF78BFEF4E710BD380EFF1F0EB400B5A8
:1016400082B003A90091024600AB0121034878440F
:101650000A3000F0EFFA06BC5DF810FBF1730000F1
:1016600010B50400002C15D0B4F1807F03D32921DC
:101670000F48FFF718FF00200E4908600E4804606D
:1016800000200E49086005200A49086009480068E2
:10169000C003FBD510BD10B504002000441E002877
:1016A00004D007480068FFF7DBFFF6E710BD000035
:1016B0001888000010E000E014E000E018E000E00E
:1016C000F41DFF1F012110F01F029140DFF8AC2430
:1016D00040B2430942F8231070472DE9F843040053
:1016E0000D0064B2002C08D0022C2CD018D3042C8E
:1016F0004FD03BD3052C5FD071E0DFF88404006845
:1017000050F48060DFF8781408604FF44071662070
:10171000FFF75CFE4FF440716720FFF757FE5EE075
:10172000DFF85C04006850F40060DFF854140860CF
:101730004FF440714320FFF749FE4FF440714420BD
:10174000FFF744FE4BE0DFF83804006850F48050A7
:10175000DFF82C1408604FF440716320FFF736FE69
:101760004FF440716220FFF731FE38E0DFF81004DB
:10177000006850F40050DFF8081408604FF440711E
:101780005020FFF723FE4FF440715120FFF71EFE5B
:1017900025E0DFF8F003006850F48060DFF8E41320
:1017A00008604FF440714E20FFF710FE4FF4407177
:1017B0004F20FFF70BFE12E0DFF8C803006850F47B
:1017C0000060DFF8C01308604FF440718920FFF714
:1017D000FDFD4FF440718820FFF7F8FDFFE7DFF8CB
:1017E000A80364B250F82400C07810F0F300DFF8CA
:1017F000981364B251F82410C870DFF88C0364B2F7
:1018000050F824008078DFF8801364B251F8241077
:10181000887064B2002C02D064B2012C07D1DFF8CA
:101820006C0300684FF47A714843814606E0DFF8A4
:10183000600300684FF47A71484381462801B9FB80
:10184000F0F00600B6B2B6F5005F02DB41F6FF70BD
:101850000600B9FBF5F0B6B2B0EB06100700BFB258
:10186000202F04DBDC21DFF82C03FFF71CFEDFF860
:10187000180364B250F82400007810F0E0008046AD
:10188000C6F3042050EA0800DFF8FC1264B251F8F5
:1018900024100870DFF8F00264B250F8240046709B
:1018A000DFF8E40264B250F82400807A10F0E0001F
:1018B000804617F01F0050EA0800DFF8CC1264B22F
:1018C00051F824108872DFF8C00264B250F8240086
:1018D000007C50F08800DFF8B01264B251F8241098
:1018E0000874DFF8A40264B250F82400C07850F005
:1018F0000C00DFF8941264B251F82410C870BDE8EF
:10190000F183DFF8842240B252F820201279920647
:10191000F7D5DFF8742240B252F8202092F9072060
:101920000A707047DFF8602240B252F82020127926
:101930001206F7D5DFF8502240B252F82020D171BC
:1019400070470100DFF8400249B250F82100807D65
:10195000002801D0012000E00020704710B50400ED
:10196000894864B250F82400C07850F020008649BD
:1019700064B251F82410C87064B260002D3040B2D7
:10198000FFF7A0FE10BD70B504000D0016006DB28B
:10199000002D08D0022D2BD04FD3042D00F0C7808E
:1019A000C0F08880E8E0F6B2002E0DD0764864B230
:1019B00050F82400C07850F08000734964B251F8A8
:1019C0002410C870C0B20CE06F4864B250F8240014
:1019D000C07810F07F006C4964B251F82410C870D0
:1019E000C0B264B260002D3040B2FFF76BFEC3E0BE
:1019F000F6B2002E0DD0644864B250F82400C078CE
:101A000050F02000604964B251F82410C870C0B290
:101A10000CE05D4864B250F82400C07810F0DF009C
:101A2000594964B251F82410C870C0B264B2600061
:101A30002D3040B2FFF746FE9EE0F6B2002E0DD0EC
:101A4000514864B250F82400C07850F080004E49EC
:101A500064B251F82410C870C0B20CE04A4864B2B5
:101A600050F82400C07810F07F00474964B251F864
:101A70002410C870C0B2F6B2002E0DD0424864B235
:101A800050F82400C07A50F080003F4964B251F809
:101A90002410C872C0B20CE03B4864B250F8240075
:101AA000C07A10F07F00384964B251F82410C8722F
:101AB000C0B261E0F6B2002E0DD0334864B250F8E7
:101AC0002400C07850F020002F4964B251F824104F
:101AD000C870C0B20CE02C4864B250F82400C07842
:101AE00010F0DF00284964B251F82410C870C0B269
:101AF000F6B2002E0DD0244864B250F82400C07A0B
:101B000050F02000204964B251F82410C872C0B2CD
:101B10000CE01D4864B250F82400C07A10F0DF00D9
:101B2000194964B251F82410C872C0B224E0F6B268
:101B3000002E0DD0144864B250F82400C07850F044
:101B40001000114964B251F82410C870C0B20CE002
:101B50000D4864B250F82400C07810F0EF000A4934
:101B600064B251F82410C870C0B264B260002D3065
:101B700040B2FFF7A7FDFFE770BD000000E100E005
:101B800034800440288004400C0EFF1FF41DFF1F0A
:101B9000FC1DFF1F5488000010B5040064B2082C1F
:101BA0000DDA00220021224864B2205CFFF73CFBE2
:101BB00003211F4864B2205CFFF72AFC14E00820D0
:101BC00004002000441E40B200280DD00022002155
:101BD000174864B2205CFFF727FB0321144864B266
:101BE000205CFFF715FCECE710BD10B504001048B1
:101BF00064B2205CFFF7C6FB002801D1002000E0A2
:101C0000012010BD10B50400200040B2FFF7EDFF29
:101C100000280AD10A20FFF73EFD200040B2FFF75E
:101C2000E4FF002801D1002000E0012010BD0000E9
:101C3000300EFF1F2DE9F04FA1B08246002017465D
:101C40001D4602910B900DF1440B6FF000490AE024
:101C500017F8011B0298D0470290002800F0A882D4
:101C60000B98401C0B90387808B90B98A2E22528F5
:101C7000EED10020059006900790089009900A90F8
:101C800001E040F0010017F8011F2029F9D02329B5
:101C90000DD02B2904D02D2906D030290AD00CE0F4
:101CA00040F0020080B2EEE740F00400FAE740F0B6
:101CB0000800F7E740F01000F4E72A290ED1296860
:101CC000296051F8042B2960002A0D9204D5514255
:101CD00040F004000D9180B27F1C11E000210D91B5
:101CE00009E00D99494505D001EB810302EB430161
:101CF00030390D917F1C3A78A2F130010A29F0D3D6
:101D000039782E2903D04FF0FF310C911DE017F8E0
:101D1000011F2A2907D1296829607F1C51F8042B4B
:101D200029600C9211E000210C9109E00C994945C1
:101D300005D001EB810302EB430130390C917F1C8C
:101D40003A78A2F130010A29F0D3ADF838000FF645
:101D50005C40397800F038FE08B117F8010B8DF8B7
:101D60003A009DF83A00682802BF39786829622055
:101D700005D06C2804BF38786C2803D171208DF809
:101D80003A007F1C11A8049017F8014BB4F125000C
:101D90002AD01C3800F0CC80001F022840F2C880F6
:101DA000133800F0EE80093800F0C280801E00F089
:101DB0004F81401E00F02481401E022840F2B8806E
:101DC000001F00F01D81401F00F08380401E00F0C6
:101DD000D880401E29D0C01E0CD0801E00F0D180BB
:101DE000C01E00F0CE803DE10120059025208DF839
:101DF000440043E12868286050F8044B28600394AD
:101E0000DDF83080B8F1000F04D5204600F0E8FD81
:101E1000804607E042460021204600F0FDFD08B163
:101E2000A0EB0408CDF8188028E1296829604FF05C
:101E30003C0851F8040B29600021CDE9000111A8EC
:101E40000390DDE90001049C11B908B90C9AC2B1F4
:101E50000206120FA0EB02123032D2B23A2AA8BF09
:101E600027320009A8F1010340EA017009091A5557
:101E700008BF0028984604D0039A08EB04039A424E
:101E8000E6D308EB04000390C8F13C010C980691DE
:101E9000814209DA401A08904FF6EF71BDF8380018
:101EA0000840ADF83800E9E0002840F1E7809DF8EF
:101EB000380000F01400102840F0E0800D98059ADA
:101EC000801A089A801A401A0128C0F2D780089018
:101ED000D4E09DF83A0062281AD0682806D06A2813
:101EE0000CD06C281CD0712808D019E02868286014
:101EF00050F8041B28600B980880BFE02868286011
:101F000050F8042B28600B98C117C2E90001B5E016
:101F10002868286050F8041B28600B980870ADE012
:101F20002868286050F8041B28600B980860A5E01A
:101F30002868C01D20F007022A60D2E9000108329B
:101F40002A60CDE90001002903D5012005902D204C
:101F50000CE0BDF83800810703D5012005902B2047
:101F600004E0C00704D50120059020208DF844002E
:101F7000059911A808180390214600A800F0D8F987
:101F80007CE09DF83A206C2A0DD0712A18BF6A2A8D
:101F900009D12868C01D20F007032B60D3E9000198
:101FA00008332B6005E02968296051F8040B29608B
:101FB0000021CDE90001682A08BF80B207D0622A5B
:101FC00008BFC0B203D0742A18BF7A2A02D10021F8
:101FD000CDE900019DF83800000730D5DDE90001AA
:101FE000002908BF00282AD044F02000782826D1F4
:101FF00030208DF844008BF80140022005901EE04F
:102000009DF83A00294600F0D8F8CDE900010029F2
:1020100004DA0598411C05912D210EE0BDF8380029
:10202000810704D50598411C05912B2105E0C007C7
:1020300005D50598411C0591202100F80B10059944
:1020400011A808180390214600A800F0EDF815E04B
:10205000012005902868286050F8041B28608DF83E
:1020600044100BE0012005902520002C8DF8440041
:1020700004D00598411C059100F80B400D98059976
:10208000401A0899401A0699401A0999401A079966
:10209000401A0A99A0EB01089DF8380040070FD4B8
:1020A00020208DF84000002408E0012310AA00A998
:1020B000504600F064FC00287AD1641C4445F4DBEF
:1020C000059C11AE0AE016F8011B0298D047029059
:1020D00000286DD00B98401C0B90641E002CF2D190
:1020E00030208DF840000026089C08E0012310AA4B
:1020F00000A9504600F043FC002859D1761CA642A6
:10210000F4DB069C039E0AE016F8011B0298D047F8
:10211000029000284CD00B98401C0B90641E002CA1
:10212000F2D130208DF840000026099C07E0012301
:1021300010AA00A9504600F022FCC8BB761CA6429B
:10214000F5DB03980699079C0E1809E016F8011BA9
:102150000298D047029058B30B98401C0B90641E15
:10216000002CF3D130208DF8400000260A9C07E0B7
:10217000012310AA00A9504600F001FCC0B9761C4A
:10218000A642F5DB9DF8380040077FF56CAD2020B6
:102190008DF84000002400E0641C4445BFF663ADA8
:1021A000012310AA00A9504600F0E9FB0028F3D053
:1021B0004FF0FF3021B0BDE8F08F622826D06828AC
:1021C0001DD06A2808D06C2827D0712804D0742824
:1021D00023D07A280CD020E00868C01D20F007002A
:1021E0000860D0E90023083008601946104670479F
:1021F0000A680A6052F8040B0A60002170470A68F6
:102200000A6052F8040B0A6000B20BE00A680A6028
:1022100052F8040B0A6040B204E00A680A6052F8FF
:10222000040B0A60C11770472DE9FA4E05460A46AD
:102230002F696F2A08BF082405D041F020007828B4
:1022400014BF0A2410243C26D5E90001642A18BFD3
:10225000692A81468A4605D1002903DAD9F10009A5
:102260006AEB4A0ABAF1000F08BFB9F1000F0CD1AE
:10227000286B50B9082C36D195F83800000732D5B4
:1022800030203B2687F83B002DE0E31748465146B7
:10229000224600F0EDFBA4FB0023A9EB0202303242
:1022A000D2B2A6F1010B3A2A5E4603DB9DF800305C
:1022B000513B9A1881465FEA010A0BF8072008BFD4
:1022C000B9F1000F03D0E868F1198842DDD3082C7A
:1022D00009D195F83800000705D5F05D302802D007
:1022E000761E3020F055C6F13C00A861F119E96076
:1022F000296B884208DA081A28624FF6EF71288F96
:1023000008402887BDE8F38E00290ED595F83810CF
:1023100001F01401102908D1696B6A69891A2A6AC7
:10232000891A081A0128A8BF2862BDE8F38E0000A8
:102330002DE9F24F04468EB0D4E90001CDE9020147
:1023400004AF9DF8380040F0200BBBF1610F0AD0BC
:10235000206B002848BF062004D408BFBBF1670FDC
:1023600001D1012020636168C1F30A5040F2FF727D
:1023700090421CD1080304BF2068002809D1032023
:10238000A0619DF8380061381A2836D30FF2306109
:1023900008E00320A0619DF8380061381A2829D38D
:1023A0000FF21461E068032200F0DAFBBEE10128BD
:1023B00016DA204600F00FFC012811DB0025002072
:1023C000BBF1610F20D1E168302201F8012B4A1CDA
:1023D000E2609DF83820612A0CBF782258220FE075
:1023E000626840F2FE3161F31E52451A62604FF09E
:1023F000FF30E5E70FF2BC51D4E70FF2C051D1E74F
:102400000A706169891C616110B90026002584E1A8
:10241000BBF1610F40F09780206B00284CBF212654
:10242000461CDDE90201D4E900AB0022002300F0E4
:10243000F3FB36B23ABF8BF00040CDE902A0CDE904
:1024400002AB06F101082D1F8DF810200DF11107C8
:1024500000E0C71DB8F1010F33DBDDE90201002206
:10246000002300F0F1FB2CD21C2102A800F004FC98
:10247000DDE9020100F08CFCA8F10708B8F1010FBA
:10248000814609DB00F0B0FC02460B46DDE90201A3
:1024900000F0C2FCCDE90201F81D072105E009F0BA
:1024A0000F0200F8012D4FEA2919B9F1010F01DBE4
:1024B000491EF4D5491E5CBF002200F8012DF9D554
:1024C000C7E70DF11100391AB142B8BF0E4636B256
:1024D00030000DF111072FD4884206DA04A9411803
:1024E00049780829A8BF0F2100DA002104AA821820
:1024F00000E0761E12F80139401E8B42F9D00F29F8
:1025000004D104A941184A78521C4A70002802D507
:1025100004AF761C2D1D36B2701E0DD4C1190A7879
:102520003032D2B23A2A03DB9DF838303A3B9A185F
:10253000401E01F80129F2D5206B002840F1ED8002
:10254000701E2063E9E0DDE902010022002300F0B3
:1025500063FB3CBF81F00041CDE902012DB247F29F
:10256000975068434B49DFF8309190FBF1F52DB25D
:10257000C5F1070ABAF1010F90461CDBDDE90267DD
:102580005FEACA7007D542464B463046394600F0EE
:1025900003FD06460F464FEA6A0A40464946424650
:1025A0004B4600F0F9FCBAF1000F80468946E7D1AE
:1025B000CDE9026724E0CAF1000A0026374F14E093
:1025C0005FEACA7007D542464B463046394600F0AE
:1025D000E3FC06460F464FEA6A0A40464946424631
:1025E0004B4600F0D9FC80468946BAF1000FE7D18E
:1025F000DDE9020132463B4600F0A0FDCDE90201D3
:10260000BBF1660F216BDFF898900CBF05F10A0053
:1026100006204618142EA8BF132630208DF810006F
:102620000DF11107012E3DDBDDE9020100F0C6FBD3
:1026300007F1080104220A23B0FBF3F303EB83073D
:10264000A0EB4700303001F8010D0A20B3FBF0F099
:1026500000EB8007A3EB47033033521E01F8013D26
:10266000E9D1083E012E01F10807DBDBDDE90201BB
:1026700000F0A4FB00F0C2FB02460B46DDE90201BC
:1026800000F0CAFB00224B4600F086FCCDE90201B7
:10269000CAE700BFA0860100000024400000F03F10
:1026A00084D797410DF11100381A0DF1110702E09E
:1026B000401E6D1E7F1C39783029F9D0BBF1660FA2
:1026C00002D12DB2691C04E0BBF1650F0CBF0121E2
:1026D0000021226B8E1836B2B042B8BF064636B221
:1026E00031001AD4814204DAC85D3528A8BF3920E8
:1026F00000DA3020CA19521E00E0761E12F80139A5
:10270000491E8342F9D0392802D1C85D401CC85502
:10271000002902D57F1E761C6D1C2DB29DF8381045
:10272000009533B23A46204600F003F80FB0BDE8FA
:10273000F08F2DE9F04786B006468A4690461D4642
:1027400000F03DFE406A376B90F80090012D02DAF0
:1027500001250FF270284AF02000BDF938406628A4
:1027600008BF641C12D0672876D114F1040F79DBFE
:10277000BC4277DA96F83800641C000702D4BD42E8
:10278000B8BF2F4624B23F1B48BF002724B2F068D1
:10279000B169012C21DA4A1C30230B54012F03DAD2
:1027A00096F83810090702D502F80090521CE7424B
:1027B000B8BF7C4224B26142E719AF42B261B8BFF0
:1027C0003D4671622DB2F5612A46B369414618183B
:1027D00000F0C6F9781BB062BAE00818A54216DA14
:1027E0002A46414600F0BCF9B1696918601BB16125
:1027F000012F706203DA96F83800000705D5F068FB
:1028000001F80090F069401CF061B762A0E0224638
:10281000414600F0A5F9B06920182D1B012F03DAFD
:1028200096F83810090703D5F16800F80190401CAC
:10283000B0612DB2AF42B8BF3D46F068B3692DB26A
:102840002A4604EB0801181800F08AF9B069281824
:10285000B061781B70627BE0BAF1610F14D14FF068
:10286000700A16E0BD4204DA96F83810090758BF1E
:102870002F467F1E48BF0027BAF1670F14BF4FF0E5
:10288000450A4FF0650A04E0BAF1410F08BF4FF066
:10289000500AB169F06818F8013B0B544A1C012F2B
:1028A00005DA96F83810090758BFB26115D502F855
:1028B0000090531C012FB3610FDB6D1E2DB2AF4290
:1028C000B8BF3D462DB22A464146181800F048F9D7
:1028D000B0692818B061781B7062F068B16901EBCB
:1028E0000008200008F801AB03D42B2008F8010BE6
:1028F00003E02D2108F8011B6442002502AF08E027
:102900000A2200A800F074FD019807F8010B6D1C65
:10291000009C21B20129F3DA022D06DA4AF02000E8
:10292000652804BF302008F8010B4DB9302008F8A5
:10293000010B07E06D1E02A8285C303008F8010B7F
:10294000012DF7DAF068B1690818A8EB0000F06112
:1029500096F8380000F0140010280DD17069B169A4
:102960000818716A0818F1690818B16A0818716BBB
:102970008842BCBF081A306206B0BDE8F087F8B5DF
:1029800004460D4616461F46002004E0E86A401C37
:10299000E8627F1E002047B116F8011BA868A04717
:1029A000A8600028F2D14FF0FF30F2BD686A6C7465
:1029B0007A4C00006E616E004E414E00696E6600FA
:1029C000494E4600300000000278C9B28A421AB16E
:1029D0001CBF10F8012FF9E718BF00207047000056
:1029E00000F10103810704D010F8011B89B18107B0
:1029F000FAD10268B2F10131914311F0803F04BF76
:102A000050F8042FF6E710F8011B11B110F8011B64
:102A1000FBE7C01A70470000C9B2830706D0521EF8
:102A200022D310F8013B9942F7D11FE0083A13D3A3
:102A300002F1040241EA012141EA014150F8043B5C
:102A4000121F21BF4B40A3F1013C2CEA030C1CF0E8
:102A5000803FF3D0C9B2001F083210F8013B521E6C
:102A600028BF91EA030FF8D818BF0120401E704715
:102A70001B4213D1094236D12AB18446B0FBF2F091
:102A800002FB10C2704700F0BBBCFCD30022002345
:102A900070470B000200002100207047904271EB4C
:102AA000030CF6D370B5B1FA81F4B3FA83F52C1B9D
:102AB000A340C4F1200532FA05F63343A2405FF08B
:102AC0000046E64002E05B085FEA3202841A71EBDE
:102AD000030524BF204629467641F4D302000B00AB
:102AE0003000002170BD012ACFD970B5140C20D060
:102AF000B1FA81F4B2FA82F5C4F120046419B4F198
:102B00002006D6D3B2405FF00044F440002502E036
:102B100052085FEA3303C61A71EB020E24BF304637
:102B2000714664416D41F3D302000B00200029007F
:102B300070BD0C46B1FBF2F102FB11452D0445EAD4
:102B40001045B5FBF2F402FB145580B240EA05458E
:102B5000B5FBF2F002FB105240EA044070BD0000E9
:102B600062B38B0708D0521E11F8013B00F8013BFD
:102B700000F024808B07F6D1830740F0208000BF4F
:102B8000103A07D330B4B1E83810103AA0E8381042
:102B9000F9D230BC530724BFB1E80810A0E80810F0
:102BA00044BF51F8043B40F8043BD20724BF31F83E
:102BB000022B20F8022B44BF0B7803707047083AB1
:102BC00007D3B1E80810083A40F8043B40F804CBBA
:102BD000F7D25307E4E730B4436803F00042012121
:102BE0001B031B0B436004BF0368002B08D10DE0DF
:102BF0000368DD0F45EA440444605B000360491E3E
:102C00004468E302F4D523031B0B436043681A4373
:102C10004260084630BC70474FF4001C1CEB410F6B
:102C200094BF1CEB430F09E041EA030C50EA4C0C43
:102C300052EA0C0C03D2994208BF9042704714BF6D
:102C40008B428242704700004FF4001C1CEB410F86
:102C500094BF1CEB430F09E041EA030C50EA4C0C13
:102C600052EA0C0C03D28B4208BF8242704714BF59
:102C7000994290427047000070B504460D46606866
:102C8000C0F30A5040F2FF71884207D16068000328
:102C900004BF2068002817D0022070BD20B920464C
:102CA000FFF799FF012868DA012D0FDB40F2FF7171
:102CB000091A8D420AD3606800284CBF9FED300B83
:102CC0009FED310B84ED000B012070BD4142A94204
:102CD000616806DA6FF31E51401941EA00506060E6
:102CE00042E0401E63684519012205F1350062F398
:102CF0001F53352801F00041636003D36160002059
:102D0000206070BD002215F11F0F04DA22682360D5
:102D1000002020356060684214D0521E2568924120
:102D2000C0F12003D2439D4045EAD272256825FABE
:102D300000F6656805FA03F333432360636823FAFA
:102D400000F5656060680843B2F1004F606003D829
:102D50000DD12078C0070AD52068401C206020686B
:102D600028B96068401C60604FF0FF3070BD60683B
:102D7000884204BF20680028F6D1002070BD00BF43
:102D8000000000000000F0FF000000000000F07FE5
:102D9000F446400D40EAC120490006D200F014F884
:102DA000004248BF6FF00040604700F00DF84FF060
:102DB000004188428CBF084640426047400D40EACF
:102DC000C120490080F00D8040F00040490DA1F580
:102DD0008061491C05D4D1F11F0154BFC840C01700
:102DE00070474FF000007047010040F10980F44641
:102DF000404200F005F851F000416047010000BF7B
:102E000009D0B0FA80F18840C91CC1F58461090578
:102E100001EBD0214005704770B44FF0004591EAB6
:102E2000030F44BF6B4000F0EDBA00BF841A71EB92
:102E3000030604D26E40001BB141121973414FF4D6
:102E4000001C1CEB410F34BF7CEB430684E00C0DEF
:102E5000A4EB1356362E7DDC012E43DC45EAC3235A
:102E600043EA525312BFD20292025B08240545EA9C
:102E7000C12141EA5051D2EBC020994125D407D15C
:102E8000B0FA80F610FA06F164D00020203608E08F
:102E9000B1FA81F6B140C6F1200220FA02F21143E4
:102EA000B0404FEAF474B4EB465434F001064FEAF4
:102EB00074040AD8D6F50016760D04F00044F040EC
:102EC00061FA06F25040F1404840C00A40EA4150E1
:102ED00021F0004128BF5FEA500550F1000044EBAB
:102EE000D12137E045EAC323DB0A45EAC121C90AFB
:102EF000B6F120050EDD42EA0242120CC5F12006B1
:102F000003FA06F6EB4042EA06056D42984161F18C
:102F100000010DE062FA06F5F240554063FA06FC46
:102F200082EA0C02F3405A406D42904161EB03018A
:102F300011F4801F05D1641E620502D06D0040416E
:102F4000494121F48011430875F1004350F100001C
:102F500041EB045170BC70471CEB410F15D223F0BC
:102F6000004352EA43060BD04FEA4C0CBCEB410F36
:102F700004D80C0D661E342EB7DDEBE7801A99419C
:102F800050EA410608BF0021E4E708BF1CEB430FED
:102F900028BF6FF00001DDE7B0B581EA030C0CF04B
:102FA000004C40F2FF7515EA11541DBF15EA135786
:102FB000AC42AF4239E0E41923EA455343F48013AD
:102FC000C90241F0004141EA505EC7021100A7FB6F
:102FD000020200284FF00000EEFB01204FF000013C
:102FE000E3FB072118BF42F00102401800214941CC
:102FF000E3FB0E01A4F580640F0302D252004041AE
:10300000494154F101046CDD470872F1004250F16E
:10301000000051EB0451A1F580115CBF41EA0C01A5
:10302000B0BD4CEA05510020B0BD05EA1357AC42D3
:1030300014BFAF4241E050EA410E1CBF52EA430EBA
:1030400002E061460020B0BD24423C441BD15FEA4F
:10305000070EF6D0090302BF01460020AEF1140EA0
:10306000B1FA81F7AEEB070401FA07FE0C37C7F19E
:10307000200100FA07F7C8404EEA000E23EA455344
:1030800043F48013A2E733F00043B3FA83F704BF9D
:10309000B2FA82FE77440B3FE41BB7F1200E2FBF3C
:1030A00002FA0EF3BB40C7F1200E22FA0EFE38BF23
:1030B00043EA0E03BA40641C82E750EA410E14BF93
:1030C00052EA430E6FF000014FF4001717EB430F65
:1030D0008ABF194617EB410FB5E74CEA05510020AE
:1030E000B0BDD4F10104B4F120070FDAC4F1200718
:1030F000520828BF42F0010210FA07F501FA07F75B
:10310000E1BF2A43E0403843E1400FE0352C98DC32
:10311000C7F1200452EA400220FA07F218BF42F039
:10312000010231FA07F0A1400A43002172F1004286
:1031300050F1000051EB0C01B0BD0000F0B540F2C1
:10314000FF7581EA030C0CF0004C15EA11541DBF09
:1031500015EA1357AC42AF42E5E0BC41C1F313019D
:10316000C3F31303801A994143F4801304D2641EFD
:103170004000494180185941C90241EA5051B1FB10
:10318000F3F603FB1611A2FB0675D7EBC020A9418D
:1031900002D2761E80185941C90241EA5051B1FB52
:1031A000F3FE03FB1E11A2FB0E75D7EBC020A94155
:1031B00003D2AEF1010E80185941890241EA9051C3
:1031C000760546EA8E2EB1FBF3F603FB1611A2FB41
:1031D0000675D7EB8020A94102D2761E801859418E
:1031E000C90241EA50514EEA060EB1FBF3F603FB69
:1031F0001611A2FB0675D7EBC020A94102D2761E9C
:1032000080185941C90241EA5051B1FBF3F703FB61
:103210001711A2FB0735D3EBC020A94167F10007C6
:103220000CBF004247F0010766F3D5274FEA1E3175
:10323000B80814F5806412DDBD0775F1004250EB4B
:103240000E5051EB045111F5801F5CBF41EA0C0197
:10325000F0BD4CF07F6141F0E0410020F0BDBD07C2
:103260006D0840EA0E5041F48011D4F10104B4F12C
:1032700020060ADAC4F120060200E04001FA06F353
:10328000E1401843B24015430EE0342C13DCC6F184
:10329000200445EA40056D0820FA06F2154321FA9C
:1032A00006F0A1400D43002175F1004250F10000ED
:1032B00051EB0C01F0BD00205FEA0C01F0BDCFB96D
:1032C00092185B41B3FA83F704BFB2FA82F6BF19D2
:1032D0000B3FB7F120062FBF02FA06F3BB40C7F140
:1032E000200622FA06F638BF3343BA401CB1E4196F
:1032F000641E33E77F4231F00041B1FA81F404BF2C
:10330000B0FA80F6A4190B3CB4F120062FBF00FAE6
:1033100006F1A140C4F1200620FA06F638BF314379
:10332000A0403C1B1AE7AC421ABF05EA1357AF4254
:1033300012E050EA41061CBF52EA4306BFE750EADA
:103340004107304661461CBF41EA0551F0BD52EAD3
:10335000430C08BFC143F0BD00204FF4001616EB2C
:10336000410F98BF16EB430F08BF16EB410F24BF68
:10337000C14305E016EB430F0CBF61464CEA055113
:10338000F0BD000080B5134800F0A6F80FF2480128
:10339000016041608160C1600161416181610FF242
:1033A0003C0242628162C162016341630FF23002FA
:1033B00082630FF23402C2630164416401BD10B53F
:1033C000044800F089F80446206808B9FFF7DAFFDE
:1033D000204610BD5C1EFF1F000000002E000000F4
:1033E00066616C7365000000747275650000000012
:1033F00091FBF2F303FB1211C0E9003170470000AA
:1034000070470000841A71EB030603D2001BB14120
:10341000121973414FF4001C1CEB410F34BF7CEBBD
:10342000430443E00C0DA4EB1356352E50DC45EA63
:10343000C323DB0A45EAC121C912B6F120050DDD1F
:1034400063FA05F6EB4086EA0305124218BF45F021
:103450000105C01851F100010CD213E062FA06F523
:10346000F2405540F3415A40B340F3405A4080186F
:10347000594107D349085FEA30005FEA350528BFA4
:1034800045F0010501F58011420875F1004250F147
:10349000000041EB045170BC4FF4001C1CEB410FC9
:1034A00038BF70470020090D090570471CEB410F1C
:1034B00010D252EA43060BD0BCEB410F05D80C0DDD
:1034C000AB43661E342EB5DD02E0AB438018594194
:1034D00070BC704770BC70477047000089B24FF4F1
:1034E000807291FBF2F2DFF8503DC0B203F8102079
:1034F00089B24FF4807291FBF2F303FB1213DFF8F1
:10350000382DC0B212EB40025370704770B5040002
:1035100000260025AA20DFF8241DF6B27054761C80
:10352000AA20DFF8181DF6B27054761C0220DFF8CE
:103530000C1DF6B27054761C0020DFF8001DF6B2A8
:103540007054761C2078DFF8F41CF6B27054641CBA
:10355000761C2078DFF8E41CF6B27054641C761CEC
:103560002078DFF8D81CF6B27054641C761C2078E2
:10357000DFF8C81CF6B27054641C761C2078DFF8A3
:10358000BC1CF6B27054641C761C2078DFF8AC1CAE
:10359000F6B27054641C761C2078DFF8A01CF6B2DA
:1035A0007054641C761C2078DFF8901CF6B27054BE
:1035B000641C761C2078DFF8841CF6B27054641CFE
:1035C000761C2078DFF8741CF6B27054641C761CEC
:1035D0002078DFF8681CF6B27054641C761C2078E2
:1035E000DFF8581CF6B27054641C761C2078DFF8A3
:1035F0004C1CF6B27054641C761C2078DFF83C1C1E
:10360000F6B27054641C761C2078DFF8301CF6B2D9
:103610007054641C761C2078DFF8201CF6B27054BD
:10362000641C761C2078DFF8141CF6B27054641CFD
:10363000761C2078DFF8041CF6B27054641C761CEB
:10364000301FDFF8F81BC870002005000020C0B252
:10365000F6B2B04206D2DFF8E41BC0B2415C4D19AD
:10366000401CF4E7DFF8D40BF6B23554761CF6B202
:103670003200DFF8C81B022000F0AAFF70BD38B589
:1036800004000D00EDB22A002100022000F0A0FF8E
:1036900031BD10B50400DFF8AC0B007800280AD16A
:1036A000E4B2AA2C07D10120DFF8981B0870DFF8DC
:1036B000980B04707DE0DFF88C0B007801280AD1AC
:1036C000E4B2AF2C07D10220DFF8781B0870DFF8D6
:1036D000780B44706DE0DFF86C0B007802280AD19B
:1036E000E4B2F12C07DA0320DFF8581B0870DFF88A
:1036F000580B84705DE0DFF84C0B0078032811D183
:10370000E4B2322C0EDA0420DFF8381B0870DFF840
:10371000380BC470DFF8340B04700020DFF8301B66
:10372000087046E0DFF81C0B0078042823D1DFF88E
:103730001C0B007800281ED0DFF8100B0078401E0C
:10374000DFF8081B0870DFF8000BDFF8041B0978AE
:1037500008180471DFF8F80A0078401CDFF8F01A46
:103760000870DFF8E80A0078002822D10520DFF889
:10377000D41A08701DE0DFF8CC0A0078052814D1AF
:103780000020DFF8C01A0870DFF8BC0ADFF8C01AA2
:10379000097808180471DFF8B80A0078411DC9B229
:1037A000DFF8A40A00F006F803E00020DFF8941A1E
:1037B000087010BDF8B504000D0000260027002099
:1037C000C0B2EDB2691E884204DAC0B2015D8E1942
:1037D000401CF5E7EDB2281910F8010CF6B286424C
:1037E00040F092832078AA2802D16078AF2800D0D8
:1037F0008AE3A07801282FD1207902280DD1DFF8A3
:10380000540A0078002804D10120DFF8481A087013
:1038100003E00020DFF83C1A08702079012803D16A
:103820000120DFF8341A08702079042803D102201F
:10383000DFF8241A08702079052803D10320DFF867
:10384000181A08702079062801D100F062FC20794E
:10385000072801D100F07EFBA078102840F083817A
:103860002079617951EA00200700BFB24FF6FF705E
:10387000874227D0BFB2DFF8E409C019FFF7B4FAD6
:10388000DFF8DC29DFF8DC39FFF786FB00F0B4FE57
:10389000DFF8D419C860DFF8D00990ED030AB5EE5F
:1038A000400AF1EE10FA0DD5DFF8BC0990ED030ADD
:1038B000F3EE0E0A30EE200AB1EE400ADFF8A80956
:1038C00080ED030AA079E17951EA00200700BFB238
:1038D0004FF6FF70874227D0BFB2DFF88009C019CA
:1038E000FFF782FADFF87829DFF87839FFF754FB21
:1038F00000F082FEDFF870190861DFF86C0990EDC6
:10390000040AB5EE400AF1EE10FA0DD5DFF85809B9
:1039100090ED040AF3EE0E0A30EE200AB1EE400AF2
:10392000DFF8440980ED040A207A617A51EA002028
:103930000700BFB24FF6FF70874227D0BFB2DFF853
:103940001C09C019FFF750FADFF81429DFF8143901
:10395000FFF722FB00F050FEDFF80C194861DFF89A
:10396000080990ED050AB5EE400AF1EE10FA0DD502
:10397000DFF8F40890ED050AF3EE0E0A30EE200AA7
:10398000B1EE400ADFF8E00880ED050AA07AE17A9E
:1039900051EA00200700BFB24FF6FF7087422DD0DA
:1039A000BFB2DFF8B808C019FFF71EFADFF8B02879
:1039B000DFF8B038FFF7F0FA00F01EFEDFF8AC18C1
:1039C000C860DFF8A80890ED030AB5EE400AF1EEF2
:1039D00010FA0DD5DFF8940890ED030AF3EE0E0A05
:1039E00030EE200AB1EE400ADFF8800880ED030ACD
:1039F000DFF87C08DFF87418C968C160207B617B40
:103A000051EA00200700BFB24FF6FF7087422DD069
:103A1000BFB2DFF84808C019FFF7E6F9DFF8402821
:103A2000DFF84038FFF7B8FA00F0E6FDDFF83C18A1
:103A30000861DFF8380890ED040AB5EE400AF1EEAF
:103A400010FA0DD5DFF8240890ED040AF3EE0E0A03
:103A500030EE200AB1EE400ADFF8100880ED040ACB
:103A6000DFF80C08DFF8041809690161A07BE17B2D
:103A700051EA00200700BFB24FF6FF7087422DD0F9
:103A8000BFB2DFF8D807C019FFF7AEF9DFF8D027CB
:103A9000DFF8D037FFF780FA00F0AEFDDFF8CC1783
:103AA0004861DFF8C80790ED050AB5EE400AF1EE6F
:103AB00010FA0DD5DFF8B40790ED050AF3EE0E0A03
:103AC00030EE200AB1EE400ADFF8A00780ED050ACB
:103AD000DFF89C07DFF8941749694161A07CE17C1D
:103AE00051EA00200700BFB24FF6FF70874203D0B3
:103AF000DFF88007A0F8D270207D617D51EA0020B8
:103B00000700BFB24FF6FF70874227D0BFB2DFF881
:103B10004C07C019FFF768F9DFF85C27DFF85C375E
:103B2000FFF73AFA00F068FDDFF840174863DFF866
:103B30003C0790ED0D0AB5EE400AF1EE10FA0DD5F6
:103B4000DFF8280790ED0D0AF0EE080A30EE200AA3
:103B5000B1EE400ADFF8140780ED0D0A3100C9B25A
:103B6000A07800F0D2F9A078112840F0E480207904
:103B7000617951EA00200700BFB2B7F5FA6F19DA90
:103B8000BFB2B7F57A7F0ADABFB2784200EE100A08
:103B9000B8EEC00ADFF8E80680ED000A0AE0BFB21E
:103BA000B7F57A7000EE100AB8EEC00ADFF8D0065A
:103BB00080ED000AA079E17951EA00200700BFB248
:103BC000C82F0FDABFB2642F06DABFB27842DFF82F
:103BD000B416A1F81C0205E0B7F16400DFF8A416E2
:103BE000A1F81C02207A617A51EA00200700BFB2D6
:103BF0004FF6FF70874203D00420DFF85C16087090
:103C0000A07AE17A51EA00200700BFB24FF6FF70B8
:103C1000874227D0BFB2DFF84406C019FFF7E4F8A7
:103C2000DFF83C26DFF83C36FFF7B6F900F0E4FC9D
:103C3000DFF854168862DFF8500690ED0A0AB5EEF8
:103C4000400AF1EE10FA0DD5DFF83C0690ED0A0AB5
:103C5000F3EE0E0A30EE200AB1EE400ADFF8280635
:103C600080ED0A0AA07AE17A51EA00200700BFB28B
:103C70004FF6FF70874227D0BFB2DFF8E005C019CA
:103C8000FFF7B2F8DFF8D825DFF8D835FFF784F969
:103C900000F0B2FCDFF8F0154862DFF8EC0590EDBB
:103CA000090AB5EE400AF1EE10FA0DD5DFF8D80595
:103CB00090ED090AF3EE0E0A30EE200AB1EE400A4A
:103CC000DFF8C40580ED090AA07BE17B51EA002002
:103CD0000700BFB24FF6FF70874227D0BFB2DFF8B0
:103CE0007C05C019FFF780F8DFF87425DFF874351C
:103CF000FFF752F900F080FCDFF88C15C862DFF89E
:103D0000880590ED0B0AB5EE400AF1EE10FA0DD5DC
:103D1000DFF8740590ED0B0AF3EE0E0A30EE200A80
:103D2000B1EE400ADFF8600580ED0B0A3100C9B240
:103D3000A07800F0EAF8A078122846D12079070090
:103D4000BFB2832F02DADFF84405078060790700ED
:103D5000BFB2832F02DADFF834054780A07907006D
:103D6000BFB2832F02DADFF824058780E0790700ED
:103D7000BFB2832F02DADFF81405C780207A07006C
:103D8000BFB2832F02DADFF804050781607A0700EB
:103D9000BFB2832F02DADFF8F4044781A07A07006C
:103DA000BFB2832F02DADFF8E4048781A07CE17CD4
:103DB00051EA00200700207D617D51EA00200700C4
:103DC0003100C9B2A07800F0A0F8A078132831D152
:103DD0002079617951EA00200700A079E17951EA60
:103DE00000200700207A617A51EA00200700A07ABB
:103DF000E17A51EA00200700207B617B51EA002034
:103E00000700A07BE17B51EA00200700207C617C59
:103E100051EA00200700A07CE17C51EA0020070065
:103E2000207D617D51EA002007003100C9B2A078F1
:103E300000F06BF8A078142831D12079617951EA2B
:103E400000200700A079E17951EA00200700207ADC
:103E5000617A51EA00200700A07AE17A51EA002055
:103E60000700207B617B51EA00200700A07BE17BFB
:103E700051EA00200700207C617C51EA0020070005
:103E8000A07CE17C51EA00200700207D617D51EAA1
:103E9000002007003100C9B2A07800F036F8A07801
:103EA000152831D12079617951EA00200700A079E5
:103EB000E17951EA00200700207A617A51EA002076
:103EC0000700A07AE17A51EA00200700207B617B9D
:103ED00051EA00200700A07BE17B51EA00200700A7
:103EE000207C617C51EA00200700A07CE17C51EA43
:103EF00000200700207D617D51EA0020070031008D
:103F0000C9B2A07800F001F8F1BD70B504000D0051
:103F1000AA20CA490870AA20C8494870EF20C7499A
:103F200088700220C549C870C4480471C3484571EF
:103F300000260020C0B2062805DAC049C0B2415CA4
:103F40008E19401CF6E7BD4886710721BB48FFF774
:103F500096FB70BD38B50024AA20B849E4B260547D
:103F6000641CAA20B549E4B26054641C1020B34913
:103F7000E4B26054641C0020B049E4B26054641C94
:103F8000B94890ED030ADFEDAB0A20EE200ABDEE42
:103F9000C00A10EE100AADF800009DF80100A74914
:103FA000E4B26054641C9DF80000A449E4B260547B
:103FB000641CAD4890ED050ADFED9E0A20EE200A54
:103FC000BDEEC00A10EE100AADF800009DF8010029
:103FD0009A49E4B26054641C9DF800009749E4B229
:103FE0006054641CA14890ED030ADFED920A20EEB4
:103FF000200ABDEEC00A10EE100AADF800009DF8D0
:1040000001008E49E4B26054641C9DF800008B49A5
:10401000E4B26054641C954890ED040ADFED850A13
:1040200020EE200ABDEEC00A10EE100AADF8000026
:104030009DF801008149E4B26054641C9DF80000C1
:104040007E49E4B26054641C884890ED0D0ADFEDAF
:104050007C0A20EE200ABDEEC00A10EE100AADF870
:1040600000009DF801007549E4B26054641C9DF89D
:1040700000007249E4B26054641C814890ED000A6B
:10408000BDEEC00A10EE100AADF800009DF8010068
:104090006A49E4B26054641C9DF800006749E4B2C8
:1040A0006054641C00206549E4B26054641C002024
:1040B0006249E4B26054641C00206049E4B2605478
:1040C000641C00205D49E4B26054641C00205B491C
:1040D000E4B26054641C00205849E4B26054641C8B
:1040E000201F5649C87000250020C0B2E4B2A0428B
:1040F00005D25249C0B2415C4D19401CF5E74F480A
:10410000E4B22554641C2100C9B24C48FFF7B7FA49
:1041100031BD38B50024AA204849E4B26054641C7B
:10412000AA204649E4B26054641C12204349E4B218
:104130006054641C00204149E4B26054641C53483C
:1041400000883E49E4B26054641C504840883B49B2
:10415000E4B26054641C4D4880883849E4B260542D
:10416000641C4A48C0883549E4B26054641C47481E
:1041700000893249E4B26054641C444840892F49A4
:10418000E4B26054641C414880892C49E4B2605414
:10419000641C00202949E4B26054641C00202749B3
:1041A000E4B26054641C00202449E4B26054641CEE
:1041B00000202249E4B26054641C00201F49E4B28C
:1041C0006054641C00201D49E4B26054641C00204B
:1041D0001A49E4B26054641C00201849E4B26054E7
:1041E000641C00201549E4B26054641C002013498B
:1041F000E4B26054641C00201049E4B26054641CB2
:10420000201F0E49C87000250020C0B2E4B2A042B1
:1042100005D20A49C0B2415C4D19401CF5E7074878
:10422000E4B22554641C2100C9B20448FFF727FA00
:1042300031BD000000007A44F415FF1FC015FF1FB8
:1042400000401C465B1EFF1F1816FF1F591EFF1F54
:104250005A1EFF1F2C0EFF1F2D0EFF1FD08AFFFFBF
:10426000FCA9F1D24D62503FF414FF1F2C15FF1F23
:104270006415FF1F5817FF1F2D431CEBE2361A3F32
:10428000240EFF1F3418FF1FA410FF1FE816FF1F86
:1042900010B40100DFF81823126852F00202DFF8B0
:1042A00010331A60DFF80C23126852F00202DFF8B4
:1042B00004331A600A781000DFF8FC221268012328
:1042C00083409A43DFF8F0321A604A7812F03F02D6
:1042D000DFF8E8321B68C0B2C25491F90620002A08
:1042E00002D0012A0DD019E0DFF8D0221268C0B246
:1042F000825C12F0BF02DFF8C4321B68C0B2C25445
:104300000CE0DFF8B8221268C0B2825C52F04002C2
:10431000DFF8A8321B68C0B2C254FFE70022C0B267
:10432000430103F1804313F51043DA800022C0B249
:10433000430103F1804313F510439A834A88C0B2C6
:10434000430103F1804313F510439A608A885204B5
:10435000520CC0B2430103F1804313F51043DA82DB
:104360008A885204520CC0B2430103F1804313F512
:104370001043DA83CA68DFF84832C0B24401E25021
:104380008A68C0B2430103F1804313F510439A8059
:10439000C0B2420102F1804212F51042D28891F976
:1043A00010301B0213F4E0631A43C0B2430103F15F
:1043B000804313F51043DA80C0B2420102F180421B
:1043C00012F51042D28891F9183052EAC322C0B2D5
:1043D000430103F1804313F51043DA804A69C0B208
:1043E000430103F1804313F51043DA600A6AC0B257
:1043F000430103F1804313F510431A61CA69C0B247
:10440000430103F1804313F510439A82C0B2420185
:1044100002F1804212F51042D28891F8243013F054
:1044200007031A43C0B2430103F1804313F510435D
:10443000DA80C0B2420102F1804212F51042D28805
:1044400091F92C30DB0013F0F8031A43C0B243019A
:1044500003F1804313F51043DA808A6AC0B2430146
:1044600003F1804313F510439A61C0B2420102F197
:10447000804212F51042928B52F00802C0B2430102
:1044800003F1804313F510439A83DFF8302112685B
:10449000C0B2825C52F08002DFF820311B68C0B2EB
:1044A000C254C0B210BC7047C0B2420102F1804297
:1044B00012F51042D28A12F40042C0B2430103F155
:1044C000804313F51043DA82C0B2420102F1804208
:1044D00012F51042D28A0B005B045B0C1A43C0B287
:1044E000430103F1804313F51043DA82704710F063
:1044F0001F01DFF8D0201170704701002E480068BE
:104500000200CA40D00710D5C9B2480100F180406E
:1045100010F51040808B000605D511F01F002A4AC7
:104520001070002006E0012004E011F01F00264A70
:10453000107000207047224AC0B243019950704762
:1045400030B58DB004000D0000A8302100F09CF8BB
:104550008DF800500B208DF8010000208DF806002A
:104560000120ADF802000020ADF804000020039007
:10457000002005900120029000208DF810000020FE
:104580008DF81800114864B250F82400C01D08903E
:1045900000200A900020079000208DF824000020C1
:1045A0008DF82C0000A8FFF773FE0DB030BD0000A1
:1045B0003C800440408004400C800040908A000011
:1045C000009000401B8000401C8000400C0EFF1F2C
:1045D00070B504000D00160029002000C0B2FFF7DE
:1045E000AAFF31002000C0B2FFF75EFF2000C0B27A
:1045F000FFF77DFF002070BD4FEAF17CBCF1E04C7D
:104600002CBFBCF5001F11E05FEA4C0C34BFBCF1BD
:104610007F5F2EE05FEA9C0C4FEA0C1C4FEA3C0CDB
:10462000C10071F100414CEB50707047C90241EA82
:104630005051C00218BF41F0010141F000414FEA62
:104640006C50C0F10900212810D240EACC7CCCF19A
:10465000200C11FA0CF070F10040CCF1200C21FA82
:104660000CF00CF0004C40EB0C0070474FEACC70A3
:104670007047490011F5001F04D84FEACC10FF30F5
:10468000C0057047C8177047002200F001B800004D
:1046900000B500BF130096469446103928BFA0E825
:1046A0000C50FAD85FEA417C28BF0CC048BF40F8E4
:1046B000042BC90728BF20F8022B48BF00F8012BA4
:1046C00000BD00004000000000008040000080406D
:1046D00000004040000000C0000000C0000020407A
:1046E00000004040000080400000404000000040CA
:1046F000000080BF000000C0000000C0000000BF3C
:104700000000404000000040000040400000004029
:1047100000000000000000C0000040C00000404059
:104720000000404000004040000040400000404089
:104730000000404000004040000040C0000000C0B9
:104740000000000000000040000040400000004069
:1047500000004040000000BF000000C0000000C09A
:10476000000080BF0000004000004040000080408A
:104770000000404000002040000000C0000000C0D9
:104780000000404000008040000080400000804069
:1047900000006040000040400000004000000000B9
:1047A000000000C0000040C0000060400000404029
:1047B000000040400000803F000080BF000040C07B
:1047C000000040C00000404000000040000080BFEA
:1047D000000040C0000040C0000080BF000080BF5B
:1047E00000000000000000C0000040C0000060C0E9
:1047F000000040C0000000C000000000000080BFBA
:10480000000080BF000040C0000040C0000080BF2A
:104810000000004000004040000040C0000040C0D8
:10482000000080BF0000803F00004040000040408A
:1048300000006040000040C0000000C00000000018
:104840000000004000004040000060400000804048
:10485000000070C1000000000000F0C1000020C195
:104860000000A0400000000000007041000020C1D6
:104870000000A0C0000020C1000020410000A040B6
:10488000000000C00000204100000000000000C047
:10489000000020C10000A0400000A040000000C0B7
:1048A0000000A0400000A0400000A0400000A04088
:1048B0000000F0410000A040000040400000A04087
:1048C0000000A0400000A0400000A0400000A04068
:1048D000000020C1000000C00000000000002041D6
:1048E000000000C00000A04000002041000020C1E6
:1048F0000000A0C0000020C10000704100000000C6
:104900000000A040000020C10000F0C10000000035
:10491000000070C100B0034000B00B400000000078
:104920000000000000000000000000000000000087
:10493000000000000000000000004E6F6E4D61732B
:104940006B61626C650000000048617264466175CD
:104950006C740000000000004D656D4D616E616774
:10496000656D656E7400004275734661756C740008
:1049700000000000000055736167654661756C7446
:104980000000000000000000000000000000000027
:104990000000000000000000000000000000000017
:1049A0000000000000000000000000000000000007
:1049B00000000000000000000000000000000000F7
:1049C00000535643616C6C000000000000000000C2
:1049D00044656275674D6F6E69746F720000000008
:1049E0000000000000000000000000000000506512
:1049F0006E645356000000000000000000537973FD
:104A00005469636B0000000000000000444D413019
:104A10000000000000000000000000444D41310093
:104A200000000000000000000000444D4132000082
:104A3000000000000000000000444D413300000071
:104A40000000000000000000444D41340000000060
:104A500000000000000000444D413500000000004F
:104A6000000000000000444D41360000000000003E
:104A70000000000000444D4137000000000000002D
:104A800000000000444D413800000000000000001C
:104A9000000000444D41390000000000000000000B
:104AA0000000444D413130000000000000000000D3
:104AB00000444D41313100000000000000000000C2
:104AC000444D41313200000000000000000000446D
:104AD0004D41313300000000000000000000444D53
:104AE00041313400000000000000000000444D414E
:104AF000313500000000000000000000444D415F1F
:104B00004572726F720000000000004D434D0000BE
:104B1000000000000000000000004654464C000069
:104B2000000000000000000000526561645F436FF8
:104B30006C6C6973696F6E004C56445F4C5657003D
:104B4000000000000000004C4C5700000000000076
:104B50000000000000005761746368646F67000024
:104B60000000000000524E4700000000000000005E
:104B70000000000049324330000000000000000047
:104B80000000004932433100000000000000000036
:104B900000005350493000000000000000000000F9
:104BA00000535049310000000000000000000000E8
:104BB0005350493200000000000000000000004394
:104BC000414E305F4F525F4D425F62756600434118
:104BD0004E305F4275735F4F666600000043414E82
:104BE000305F4572726F72000000000043414E302A
:104BF0005F54785F5761726E696E6743414E305FF4
:104C000052785F5761726E696E6743414E305F57ED
:104C1000616B655F55700000005265736572766563
:104C2000643531000000000052657365727665647A
:104C30003532000000000043414E315F4F525F4D5E
:104C4000425F6275660043414E315F4275735F4F4C
:104C5000666600000043414E315F4572726F72001C
:104C60000000000043414E315F54785F5761726E1F
:104C7000696E6743414E315F52785F5761726E696A
:104C80006E6743414E315F57616B655F5570000041
:104C90000052657365727665643539000000000066
:104CA0005265736572766564363000000000005509
:104CB000415254305F52585F545800000000554133
:104CC0005254305F455252000000000000554152DE
:104CD00054315F52585F54580000000055415254FF
:104CE000315F4552520000000000005541525432DD
:104CF0005F52585F54580000000055415254325FD3
:104D000045525200000000000055415254335F529A
:104D1000585F54580000000055415254335F4552CB
:104D20005200000000000055415254345F52585F59
:104D300054580000000055415254345F455252000F
:104D4000000000000055415254355F52585F5458DE
:104D50000000000055415254355F4552520000009A
:104D6000000000414443300000000000000000004B
:104D7000000041444331000000000000000000003A
:104D800000434D5030000000000000000000000013
:104D9000434D5031000000000000000000000043BF
:104DA0004D5032000000000000000000000046549A
:104DB0004D30000000000000000000000046544D8F
:104DC00031000000000000000000000046544D3299
:104DD0000000000000000000000000434D540000EF
:104DE00000000000000000000000525443000000DA
:104DF00000000000000000000052657365727665D7
:104E000064383300000000005049543000000000B6
:104E10000000000000000050495431000000000074
:104E20000000000000005049543200000000000063
:104E30000000000000504954330000000000000052
:104E4000000000005044423000000000000000005C
:104E50000000005553423000000000000000000038
:104E6000000055534244434400000000000000008D
:104E700000454E45545F313538385F54696D657271
:104E8000454E45545F5472616E736D697400004500
:104E90004E45545F52656365697665000000454E76
:104EA00045545F4572726F72000000000049325332
:104EB00030000000000000000000000053444843A0
:104EC00000000000000000000000004441433000EA
:104ED00000000000000000000000444143310000D9
:104EE00000000000000000000054534930000000A2
:104EF00000000000000000004D43470000000000DB
:104F0000000000000000004C5054696D6572000004
:104F100000000000000052657365727665643130F0
:104F20003200000000504F525441000000000000C9
:104F300000000000504F52544200000000000000EA
:104F4000000000504F5254430000000000000000D9
:104F50000000504F525444000000000000000000C8
:104F600000504F52544500000000000000000000B7
:104F70005265736572766564313038000000005206
:104F800065736572766564313039000000005265E2
:104F900073657276656431313000000000526573CC
:104FA00065727665643131310000000052657365C9
:104FB00072766564313132000000005265736572AB
:104FC0007665643131330000000052657365727696
:104FD0006564313134000000005265736572766596
:104FE0006431313500000000526573657276656486
:104FF00031313600000000526573657276656431A8
:105000003137000000005265736572766564313196
:10501000380000000052657365727665643131397D
:1050200000000000008003400090034000800B401F
:1050300000900B4000F00F4040F00F4080F00F4018
:10504000C0F00F4000F10F400060064000700640C5
:1050500066000A1D32000701640007106E00040696
:10506000780004088200040A8C00040C9600040EE8
:10507000A0000410AA000412B4000414BE00041618
:10508000C8000418D200041ADC00041CE100041D4E
:10509000E600041EEB00041FF4000317FA000318D7
:1050A000130101062C0102140001090800900440BC
:1050B00000A0044000B0044000C0044000D0044000
:1050C00000A0064000B0064000C0064000D00640E8
:1050D00000A00E4000B00E400000C8423333333F02
:1050E000010100006A6E6B6C676D4E4F34353637C8
:1050F00002040101001EFF1F501EFF1F001EFF1FA4
:10510000001EFF1F001EFF1F790EFF1F600EFF1FF6
:10511000000000000000000000000000000000008F
:10512000000000000000000000000000000000007F
:10513000012110F01F029140DFF8C02540B2430961
:1051400042F82310704780B5DFF8B40500780028D6
:1051500013D000220321002000F0BDFC0022042116
:10516000002000F0B8FC00220521002000F0B3FC74
:1051700000220621002000F0AEFC01BD80B5012117
:105180001020FCF7A8F8DFF87C0500F00DFEDFF832
:10519000780500F05EFEDFF87425DFF86C15DFF8A7
:1051A0006405FBF7D3FBDFF8680590F8D40001280D
:1051B00006D1DFF85405B0F84002DFF85815088032
:1051C0004022DFF85005B0F90010DFF84C0500F080
:1051D0004FFFBDEEC00ADFF8440580ED000A002154
:1051E0001020FCF778F8DFF818050078002857D170
:1051F000DFF82805006800F2B1320521032000F035
:105200006AFC00F00BFADFF818050068DFF81415E7
:10521000B1F96C1088421AD2DFF804050068401C0E
:10522000DFF8FC140860DFF8F8040068DFF8F41415
:10523000B1F96C1088420AD15920FFF779FFDFF8E5
:10524000E404B0F96C00401CDFF8D4140860DFF807
:10525000D8040088DFF8CC14B1F95E1088421FDA58
:10526000DFF8C4040088401CDFF8BC140880DFF8B5
:10527000B8040088DFF8AC14B1F95E1088420FD191
:10528000DFF8A80400210160DFF8A40400214163D5
:10529000DFF89004B0F95E00401CDFF88C14088041
:1052A00001BD000080B501F018F8DFF8880490ED2A
:1052B000000ADFF88404D0ED000A30EE200AF0EE98
:1052C000000A80EE200ABDEEC00ADFF8700480ED0F
:1052D000000ADFF82C040078002840F05C81DFF839
:1052E000500490ED0D0AB1EE400ADFF82C04D0ED29
:1052F000000A20EE200ADFF8480480ED000ADFF8FB
:10530000400490ED000ADFEDA40AB4EE600AF1EE6D
:1053100010FA04DBDFF82804DFF828140160DFF856
:10532000200490ED000ADFEDB50AB4EE600AF1EE5C
:1053300010FA03D5DFF80804B0490160DFF8000473
:1053400090ED000ADFF8DC03D0ED220AB4EE600A2B
:10535000F1EE10FA12D5DFF8CC0390ED220AB1EE8F
:10536000400ADFF8DC03D0ED000AB4EE600AF1EE8B
:1053700010FA03D5DFF8C80300210160DFF8C80385
:1053800090F90000052830D1DFF88003B0F908005B
:1053900000EE100AB8EEC00AF7EE000ADFF8A0032C
:1053A00090ED001A70EEC10A20EE200ABDEEC00A90
:1053B000DFF8980380ED000ADFF85003B0F9080029
:1053C00000EE100AB8EEC00ADFF87403D0ED000A50
:1053D000B7EE001A70EE810A20EE200ABDEEC00A78
:1053E000DFF86C0380ED000AA9E0DFF85C0390F9B8
:1053F0000000062830D1DFF81403B0F90A0000EEEF
:10540000100AB8EEC00AF7EE000ADFF8340390ED98
:10541000001A70EEC10A20EE200ABDEEC00ADFF8C5
:105420002C0380ED000ADFF8E402B0F90A0000EE78
:10543000100AB8EEC00ADFF80803D0ED000AB7EE94
:10544000001A70EE810A20EE200ABDEEC00ADFF8D5
:10545000000380ED000A72E0DFF8EC0290F9000032
:10546000042830D1DFF8A402B0F9060000EE100ADB
:10547000B8EEC00AF7EE000ADFF8C40290ED001A99
:1054800070EEC10A20EE200ABDEEC00ADFF8BC02B1
:1054900080ED000ADFF87402B0F9060000EE100A91
:1054A000B8EEC00ADFF89802D0ED000AB7EE001A95
:1054B00070EE810A20EE200ABDEEC00ADFF89002ED
:1054C00080ED000A3BE0DFF88C0290ED070ABDEEAC
:1054D000C00AB8EEC00ADFF85402D0ED000A30EE80
:1054E000200AF7EE000ADFF8580290ED001A70EE7D
:1054F000C10A20EE200ABDEEC00ADFF8500280ED9E
:10550000000ADFF8500290ED070ABDEEC00AB8EEBF
:10551000C00ADFF81802D0ED000A30EE200ADFF8EA
:105520002002D0ED000AB7EE001A70EE810A20EEDC
:10553000200ABDEEC00ADFF8180280ED000ADFF88D
:105540000C0290ED000AF8EEC00ADFF8EC0190EDD5
:10555000000ADFF8DC0100F025FEDFF8FC0180ED39
:10556000000ADFF8EC0190ED000AF8EEC00A71487D
:1055700090ED000ADFF8E40100F014FEDFF8E0012E
:1055800080ED000ADFF8D801D0ED000A724890EDF6
:10559000000A00F0C1FE01BD0BD7233F5E4890ED2D
:1055A0000D0AF1EE000AB4EE600AF1EE10FA0FD522
:1055B000594890ED000AF2EE040AB4EE600AF1EEEA
:1055C00010FA05D567480068401C6649086009E084
:1055D0000020644908605C4800785B4948700220FC
:1055E000594908705F4800680A2806DB5648007869
:1055F0005549487000205449087070470AD723BFA6
:1056000080B53F480078002807D00121564800F0B7
:1056100075FC0221554800F071FC01BD80B5384889
:105620000078002866D152480078012862D13948B4
:10563000018889B20020FDF751FF40210120FDF7CC
:105640004DFF354890ED060ADFED2B0A20EE200ACB
:10565000BDEEC00A10EE101A89B20220FDF73EFF1F
:105660002D4890ED080ADFED240A20EE200ABDEE59
:10567000C00A10EE101A89B20320FDF72FFF26484A
:1056800090ED000ABDEEC00A10EE101A89B2042097
:10569000FDF724FF204890ED0D0ABDEEC00A10EE84
:1056A000101A89B20520FDF719FF2A4890ED060A65
:1056B000DFED110A20EE200ABDEEC00A10EE101A2E
:1056C00089B20620FDF70AFF224890ED080ADFEDB7
:1056D0000A0A20EE200ABDEEC00A10EE101A89B2A6
:1056E0000720FDF7FBFE01210820FDF7F7FE21480A
:1056F000FDF70CFF01BD000000007A4400E100E06E
:105700002C0EFF1F3418FF1F141BFF1FE816FF1F6E
:105710005817FF1F1004FF1FF414FF1F9C15FF1FD5
:10572000B415FF1F4C16FF1F501EFF1F240EFF1F36
:105730002C15FF1FF010FF1FEC10FF1FA815FF1FF7
:10574000B815FF1F0AD7233FDC16FF1FA015FF1F48
:10575000A415FF1FA410FF1FAC15FF1F6415FF1F2A
:10576000B015FF1FBC15FF1F3419FF1F141CFF1FAE
:105770002D0EFF1FF415FF1F38B504000D0064B295
:10578000002C06D0022C69D04CD3032C00F0828070
:10579000C7E0DFF8C005006850F08070DFF8B4158E
:1057A00008606DB2002D0BD0022D15D00ED3042D44
:1057B0001ED017D3062D27D020D3072D2AD02FE0B7
:1057C0004FF480614120FBF701FE2AE04FF4407165
:1057D0000420FBF7FBFD24E04FF440710520FBF7AC
:1057E000F5FD1EE04FF440710620FBF7EFFD18E0D9
:1057F0004FF440710720FBF7E9FD12E04FF48061A0
:105800006520FBF7E3FD0CE04FF480616620FBF7B9
:10581000DDFD06E04FF480616720FBF7D7FD00E077
:105820007FE07EE0DFF82C05006850F00070DFF8C4
:10583000241508606DB2002D02D0012D06D00BE0BA
:105840004FF440710C20FBF7C1FD06E04FF44071AE
:105850000D20FBF7BBFD00E063E062E0DFF8F80439
:10586000006850F08070DFF8F01408606DB2002D11
:1058700002D0012D06D00BE04FF440710A20FBF757
:10588000A5FD06E04FF440710B20FBF79FFD00E003
:1058900047E046E0DFF8C004006850F00070DFF831
:1058A000B81408606DB2002D0BD0022D15D00ED3A8
:1058B000042D1ED017D3062D27D020D3072D2AD094
:1058C0002EE04FF4C0618520FBF780FD28E04FF407
:1058D000C0618620FBF77AFD22E04FF4C06187208B
:1058E000FBF774FD1CE04FF4C0618820FBF76EFDF0
:1058F00016E04FF4C0618920FBF768FD10E04FF41B
:1059000040714920FBF762FD0AE04FF4C0618B2033
:10591000FBF75CFD04E04FF4C0618C20FBF756FD03
:10592000FFE731BD2DE9F84F04000D0016001F0000
:1059300064B2002C11D064B2012C02D064B2022CEB
:1059400002D16DB2022D08DB64B2032C05D040F207
:105950008511DFF80804FBF7A6FD290049B22000F5
:1059600040B2FFF709FFDFF8F80300684FF47A71DF
:10597000484380465FEA1840B0FBF6F081460020BD
:1059800082461FFA89F9484650FA0AF0012802DBDC
:105990001AF1010AF5E75FFA8AFABAF1080F05DB96
:1059A0004FF4D071DFF8B403FBF77DFD404630FAC9
:1059B0000AF0B0FBF6F081461FFA89F9DFF8A4037C
:1059C00064B240F8249064B2002C05D0022C1BD0A5
:1059D0000ED3032C24D02FE01FFA89F919F101000E
:1059E00000FB07F042F21071B0FBF1F0834623E0B8
:1059F0001FFA89F919F1010000FB07F04FF47A71E1
:105A0000B0FBF1F0834617E01FFA89F919F10100A4
:105A100000FB07F04FF47A71B0FBF1F083460BE026
:105A20001FFA89F919F1010000FB07F042F2107129
:105A3000B0FBF1F08346FFE7DFF82C0364B250F8C7
:105A400024006DB210EBC500DFF81C1364B251F8EE
:105A500024106DB211EBC501C96831F00401C160B9
:105A6000DFF8040364B250F824006DB210EBC500F7
:105A70002821C1605FFA8AFA1AF0070050F0080086
:105A8000DFF8E41264B251F8241008601FFA89F9B3
:105A9000DFF8D40264B250F82400C0F80890002067
:105AA000DFF8C41264B251F82410C864DFF8B802F9
:105AB00064B250F824006DB210EBC5001FFA8BFBE6
:105AC000C0F810B00020DFF8A01264B251F8241022
:105AD0004860BDE8F18F2DE9F04104000D0016008B
:105AE0005FF0000864B2002C11D064B2012C02D027
:105AF00064B2022C02D16DB2022D08DB64B2032C19
:105B000005D04FF4F371DFF85402FBF7CCFC64B21C
:105B1000002C05D0022C18D00DD3032C1FD029E067
:105B200042F21170864205D34FF4F671DFF82C0271
:105B3000FBF7B9FC1EE0B6F57A7F05D94FF4F87192
:105B4000DFF81802FBF7AFFC14E0B6F57A7F05D951
:105B50004FF4FA71DFF80402FBF7A5FC0AE042F209
:105B60001170864205D340F2F911DFF8F001FBF71E
:105B70009AFCFFE7DFF8EC0164B250F8240080469D
:105B800064B2002C05D0022C17D00CD3032C1ED0ED
:105B900027E018F1010000FB06F042F21071B0FBA3
:105BA000F1F007001DE018F1010000FB06F04FF4D2
:105BB0007A71B0FBF1F0070013E018F1010000FB6F
:105BC00006F04FF47A71B0FBF1F0070009E018F12C
:105BD000010000FB06F042F21071B0FBF1F007008B
:105BE000FFE7DFF8840164B250F824006DB210EBD7
:105BF000C5000761BDE8F08110B5040064B2012C56
:105C000007D064B2022C04D040F2DB215348FBF7EA
:105C10004AFC64B22000012802D0022811D021E001
:105C20004C48006850F000704A4908604FF4E06149
:105C30000C20FBF7CBFB4FF4E0610D20FBF7C6FB1C
:105C400015E04548006850F08070434908604FF403
:105C5000C0610A20FBF7BAFB4FF4C0610B20FBF7D1
:105C6000B5FB04E040F213313C48FBF71CFC3E4816
:105C700064B250F82400406D50F004003A4964B218
:105C800051F824104865384864B250F82400D0F820
:105C9000800050F00800344964B251F82410C1F873
:105CA00080000020304964B251F82410C8644FF6D7
:105CB000FF702D4964B251F8241088602A4864B2FC
:105CC00050F82400D0F8800050F00100264964B25A
:105CD00051F82410C1F88000234864B250F8240021
:105CE000406D50F00100204964B251F8241048651D
:105CF00000201D4964B251F82410486010BD38B529
:105D0000040064B2012C07D064B2022C04D04FF41A
:105D10004C711248FBF7C7FB134864B250F82400DB
:105D200040680500280000B232BD10B5040064B21E
:105D3000012C07D064B2022C04D040F23E31074857
:105D4000FBF7B1FB0020084964B251F82410486009
:105D500010BD00003C8004403080044024870000D7
:105D6000FC1DFF1FD810FF1F700DFF1F80B5012203
:105D700001219C20FBF758FA012201219A20FBF710
:105D800053FA142000F04CFB01BD80B50122012123
:105D90009820FBF749FA012201219920FBF744FAE8
:105DA000132000F03DFB01BD38B5040000250121A2
:105DB0009C20FBF790FA00F0E7F801219A20FBF70E
:105DC0008AFA00F0E1F800219C20FBF784FA00F049
:105DD000DBF800200500EDB2FA2D03DA00F0D4F86C
:105DE0006D1CF8E70021142000F021FC2070002138
:105DF0009A20FBF770FA01200500EDB2802D17DA2A
:105E000000F0C2F800F0C0F801219A20FBF763FA15
:105E100000F0BAF800F0B8F80021142000F007FCF8
:105E2000EDB2285500219A20FBF755FA6D1CE4E7E6
:105E300000F0AAF800F0A8F801219A20FBF74BFA2D
:105E400000F0A2F800F0A0F800219A20FBF743FA36
:105E500031BD38B50400002501219820FBF73BFA3D
:105E600000F092F801219920FBF735FA00F08CF848
:105E700000219820FBF72FFA00F086F8002005009B
:105E8000EDB2FA2D03DA00F07FF86D1CF8E700217F
