:10000000F8FF0020110400003B3400003B340000E6
:100010003B3400003B3400003B3400003B34000024
:100020003B3400003B3400003B3400003B34000014
:100030003B3400003B3400003B3400003B34000004
:100040003B3400003B3400003B3400003B340000F4
:10040000FFFFFFFFFFFFFFFFFFFFFFFFFEFFFFFFFD
:1004100062B605F0C9FFFEE72DE9F04FA1B08246B4
:10042000002017461D4602910B900DF1440B6FF012
:1004300000490AE017F8011B0298D04702900028F3
:1004400000F0A8820B98401C0B90387808B90B98E4
:10045000A2E22528EED10020059006900790089092
:1004600009900A9001E040F0010017F8011F2029CF
:10047000F9D023290DD02B2904D02D2906D03029DD
:100480000AD00CE040F0020080B2EEE740F0040039
:10049000FAE740F00800F7E740F01000F4E72A29F7
:1004A0000ED12968296051F8042B2960002A0D9289
:1004B00004D5514240F004000D9180B27F1C11E040
:1004C00000210D9109E00D99494505D001EB81030B
:1004D00002EB430130390D917F1C3A78A2F13001D3
:1004E0000A29F0D339782E2903D04FF0FF310C912F
:1004F0001DE017F8011F2A2907D1296829607F1CF0
:1005000051F8042B29600C9211E000210C9109E0B4
:100510000C99494505D001EB810302EB43013039C9
:100520000C917F1C3A78A2F130010A29F0D3ADF882
:1005300038000FF65C40397800F048FE08B117F833
:10054000010B8DF83A009DF83A00682802BF39780F
:100550006829622005D06C2804BF38786C2803D144
:1005600071208DF83A007F1C11A8049017F8014BF8
:10057000B4F125002AD01C3800F0CC80001F0228DE
:1005800040F2C880133800F0EE80093800F0C280D5
:10059000801E00F04F81401E00F02481401E022882
:1005A00040F2B880001F00F01D81401F00F08380E2
:1005B000401E00F0D880401E29D0C01E0CD0801EE6
:1005C00000F0D180C01E00F0CE803DE101200590FA
:1005D00025208DF8440043E12868286050F8044B3A
:1005E00028600394DDF83080B8F1000F04D5204670
:1005F00000F0F8FD804607E042460021204600F06A
:100600000DFE08B1A0EB0408CDF8188028E1296898
:1006100029604FF03C0851F8040B29600021CDE916
:10062000000111A80390DDE90001049C11B908B98B
:100630000C9AC2B10206120FA0EB02123032D2B2F3
:100640003A2AA8BF27320009A8F1010340EA017045
:1006500009091A5508BF0028984604D0039A08EBE8
:1006600004039A42E6D308EB04000390C8F13C016E
:100670000C980691814209DA401A08904FF6EF7102
:10068000BDF838000840ADF83800E9E0002840F136
:10069000E7809DF8380000F01400102840F0E0805A
:1006A0000D98059A801A089A801A401A0128C0F2FB
:1006B000D7800890D4E09DF83A0062281AD06828C4
:1006C00006D06A280CD06C281CD0712808D019E0FC
:1006D0002868286050F8041B28600B980880BFE049
:1006E0002868286050F8042B28600B98C117C2E9CD
:1006F0000001B5E02868286050F8041B28600B98BA
:100700000870ADE02868286050F8041B28600B983A
:100710000860A5E02868C01D20F007022A60D2E921
:10072000000108322A60CDE90001002903D501202B
:1007300005902D200CE0BDF83800810703D501207D
:1007400005902B2004E0C00704D50120059020204F
:100750008DF84400059911A808180390214600A8B7
:1007600000F0D8F97CE09DF83A206C2A0DD0712A6F
:1007700018BF6A2A09D12868C01D20F007032B6022
:10078000D3E9000108332B6005E02968296051F89E
:10079000040B29600021CDE90001682A08BF80B25E
:1007A00007D0622A08BFC0B203D0742A18BF7A2AC1
:1007B00002D10021CDE900019DF83800000730D5B5
:1007C000DDE90001002908BF00282AD044F02000FC
:1007D000782826D130208DF844008BF80140022083
:1007E00005901EE09DF83A00294600F0D8F8CDE9C2
:1007F0000001002904DA0598411C05912D210EE025
:10080000BDF83800810704D50598411C05912B21BE
:1008100005E0C00705D50598411C0591202100F889
:100820000B10059911A808180390214600A800F0A4
:10083000EDF815E0012005902868286050F8041BA9
:1008400028608DF844100BE0012005902520002C35
:100850008DF8440004D00598411C059100F80B4028
:100860000D980599401A0899401A0699401A099955
:10087000401A0799401A0A99A0EB01089DF8380020
:1008800040070FD420208DF84000002408E0012309
:1008900010AA00A9504600F064FC00287AD1641C1C
:1008A0004445F4DB059C11AE0AE016F8011B0298E2
:1008B000D047029000286DD00B98401C0B90641E0E
:1008C000002CF2D130208DF840000026089C08E072
:1008D000012310AA00A9504600F043FC002859D17A
:1008E000761CA642F4DB069C039E0AE016F8011B68
:1008F0000298D047029000284CD00B98401C0B90D7
:10090000641E002CF2D130208DF840000026099C96
:1009100007E0012310AA00A9504600F022FCC8BB42
:10092000761CA642F5DB03980699079C0E1809E091
:1009300016F8011B0298D047029058B30B98401C40
:100940000B90641E002CF3D130208DF8400000265F
:100950000A9C07E0012310AA00A9504600F001FC00
:10096000C0B9761CA642F5DB9DF8380040077FF53C
:100970006CAD20208DF84000002400E0641C44454C
:10098000BFF663AD012310AA00A9504600F0E9FBB1
:100990000028F3D04FF0FF3021B0BDE8F08F62287F
:1009A00026D068281DD06A2808D06C2827D0712846
:1009B00004D0742823D07A280CD020E00868C01D09
:1009C00020F007000860D0E90023083008601946CD
:1009D000104670470A680A6052F8040B0A6000214A
:1009E00070470A680A6052F8040B0A6000B20BE014
:1009F0000A680A6052F8040B0A6040B204E00A6810
:100A00000A6052F8040B0A60C11770472DE9FA4ECC
:100A100005460A462F696F2A08BF082405D041F011
:100A20002000782814BF0A2410243C26D5E90001B0
:100A3000642A18BF692A81468A4605D1002903DA4B
:100A4000D9F100096AEB4A0ABAF1000F08BFB9F1FF
:100A5000000F0CD1286B50B9082C36D195F838000E
:100A6000000732D530203B2687F83B002DE0E31706
:100A700048465146224600F0FDFBA4FB0023A9EBAB
:100A800002023032D2B2A6F1010B3A2A5E4603DBF3
:100A90009DF80030513B9A1881465FEA010A0BF835
:100AA000072008BFB9F1000F03D0E868F1198842A8
:100AB000DDD3082C09D195F83800000705D5F05D85
:100AC000302802D0761E3020F055C6F13C00A861D7
:100AD000F119E960296B884208DA081A28624FF692
:100AE000EF71288F08402887BDE8F38E00290ED5C6
:100AF00095F8381001F01401102908D1696B6A6962
:100B0000891A2A6A891A081A0128A8BF2862BDE82A
:100B1000F38E00002DE9F24F04468EB0D4E90001B7
:100B2000CDE9020104AF9DF8380040F0200BBBF185
:100B3000610F0AD0206B002848BF062004D408BFEC
:100B4000BBF1670F01D1012020636168C1F30A5036
:100B500040F2FF7290421CD1080304BF20680028B5
:100B600009D10320A0619DF8380061381A2836D3D6
:100B70000FF2306108E00320A0619DF83800613871
:100B80001A2829D30FF21461E068032200F0EAFB6F
:100B9000BEE1012816DA204600F01FFC012811DB17
:100BA00000250020BBF1610F20D1E168302201F85F
:100BB000012B4A1CE2609DF83820612A0CBF782284
:100BC00058220FE0626840F2FE3161F31E52451A6E
:100BD00062604FF0FF30E5E70FF2BC51D4E70FF24F
:100BE000C051D1E70A706169891C616110B90026A2
:100BF000002584E1BBF1610F40F09780206B002855
:100C00004CBF2126461CDDE90201D4E900AB0022DD
:100C1000002300F003FC36B23ABF8BF00040CDE970
:100C200002A0CDE902AB06F101082D1F8DF81020BE
:100C30000DF1110700E0C71DB8F1010F33DBDDE94D
:100C400002010022002300F001FC2CD21C2102A88A
:100C500000F014FCDDE9020100F09CFCA8F107089B
:100C6000B8F1010F814609DB00F0C0FC02460B46DB
:100C7000DDE9020100F0D2FCCDE90201F81D0721F7
:100C800005E009F00F0200F8012D4FEA2919B9F12A
:100C9000010F01DB491EF4D5491E5CBF002200F89C
:100CA000012DF9D5C7E70DF11100391AB142B8BFCE
:100CB0000E4636B230000DF111072FD4884206DA05
:100CC00004A9411849780829A8BF0F2100DA00219A
:100CD00004AA821800E0761E12F80139401E8B42E9
:100CE000F9D00F2904D104A941184A78521C4A703E
:100CF000002802D504AF761C2D1D36B2701E0DD40F
:100D0000C1190A783032D2B23A2A03DB9DF8383062
:100D10003A3B9A18401E01F80129F2D5206B0028B1
:100D200040F1ED80701E2063E9E0DDE90201002260
:100D3000002300F073FB3CBF81F00041CDE90201CC
:100D40002DB247F2975068434B49DFF8309190FB42
:100D5000F1F52DB2C5F1070ABAF1010F90461CDB7F
:100D6000DDE902675FEACA7007D542464B46304666
:100D7000394600F013FD06460F464FEA6A0A404620
:100D8000494642464B4600F009FDBAF1000F804645
:100D90008946E7D1CDE9026724E0CAF1000A0026BE
:100DA000374F14E05FEACA7007D542464B463046DB
:100DB000394600F0F3FC06460F464FEA6A0A404601
:100DC000494642464B4600F0E9FC80468946BAF166
:100DD000000FE7D1DDE9020132463B4600F0B0FDED
:100DE000CDE90201BBF1660F216BDFF898900CBFD3
:100DF00005F10A0006204618142EA8BF132630203D
:100E00008DF810000DF11107012E3DDBDDE9020127
:100E100000F0D6FB07F1080104220A23B0FBF3F32C
:100E200003EB8307A0EB4700303001F8010D0A20E7
:100E3000B3FBF0F000EB8007A3EB47033033521E07
:100E400001F8013DE9D1083E012E01F10807DBDB85
:100E5000DDE9020100F0B4FB00F0D2FB02460B46D4
:100E6000DDE9020100F0DAFB00224B4600F096FCBF
:100E7000CDE90201CAE700BFA086010000002440BE
:100E80000000F03F84D797410DF11100381A0DF1A1
:100E9000110702E0401E6D1E7F1C39783029F9D001
:100EA000BBF1660F02D12DB2691C04E0BBF1650FE6
:100EB0000CBF01210021226B8E1836B2B042B8BFA0
:100EC000064636B231001AD4814204DAC85D3528AC
:100ED000A8BF392000DA3020CA19521E00E0761E61
:100EE00012F80139491E8342F9D0392802D1C85D70
:100EF000401CC855002902D57F1E761C6D1C2DB2E2
:100F00009DF83810009533B23A46204600F003F8B9
:100F10000FB0BDE8F08F2DE9F04786B006468A464F
:100F200090461D4600F04DFE406A376B90F80090E9
:100F3000012D02DA01250FF270284AF02000BDF9D8
:100F40003840662808BF641C12D0672876D114F197
:100F5000040F79DBBC4277DA96F83800641C00078E
:100F600002D4BD42B8BF2F4624B23F1B48BF002762
:100F700024B2F068B169012C21DA4A1C30230B54E9
:100F8000012F03DA96F83810090702D502F800900D
:100F9000521CE742B8BF7C4224B26142E719AF421B
:100FA000B261B8BF3D4671622DB2F5612A46B369A0
:100FB0004146181800F0D6F9781BB062BAE008185C
:100FC000A54216DA2A46414600F0CCF9B169691803
:100FD000601BB161012F706203DA96F838000007D8
:100FE00005D5F06801F80090F069401CF061B76227
:100FF000A0E02246414600F0B5F9B06920182D1B4B
:10100000012F03DA96F83810090703D5F16800F8C4
:101010000190401CB0612DB2AF42B8BF3D46F068B0
:10102000B3692DB22A4604EB0801181800F09AF9AA
:10103000B0692818B061781B70627BE0BAF1610F6B
:1010400014D14FF0700A16E0BD4204DA96F8381059
:10105000090758BF2F467F1E48BF0027BAF1670F08
:1010600014BF4FF0450A4FF0650A04E0BAF1410F92
:1010700008BF4FF0500AB169F06818F8013B0B54F3
:101080004A1C012F05DA96F83810090758BFB261DB
:1010900015D502F80090531C012FB3610FDB6D1EB4
:1010A0002DB2AF42B8BF3D462DB22A464146181870
:1010B00000F058F9B0692818B061781B7062F068C8
:1010C000B16901EB0008200008F801AB03D42B2024
:1010D00008F8010B03E02D2108F8011B64420025EC
:1010E00002AF08E00A2200A800F084FD019807F88A
:1010F000010B6D1C009C21B20129F3DA022D06DAE6
:101100004AF02000652804BF302008F8010B4DB9D3
:10111000302008F8010B07E06D1E02A8285C303073
:1011200008F8010B012DF7DAF068B1690818A8EB8F
:101130000000F06196F8380000F0140010280DD17E
:101140007069B1690818716A0818F1690818B16AFC
:101150000818716B8842BCBF081A306206B0BDE83F
:10116000F087F8B504460D4616461F46002004E0F9
:10117000E86A401CE8627F1E002047B116F8011B98
:10118000A868A047A8600028F2D14FF0FF30F2BD58
:10119000686A6C747A4C00006E616E004E414E00BD
:1011A000696E6600494E4600300050F8041B61B17C
:1011B00050F8042BD30744BFA9F101039A18002368
:1011C000091F42F8043BFAD1EFE770470278C9B231
:1011D0008A421AB11CBF10F8012FF9E718BF00208E
:1011E0007047000000F10103810704D010F8011BD3
:1011F00089B18107FAD10268B2F10131914311F04E
:10120000803F04BF50F8042FF6E710F8011B11B11E
:1012100010F8011BFBE7C01A70470000C9B2830732
:1012200006D0521E22D310F8013B9942F7D11FE09D
:10123000083A13D302F1040241EA012141EA0141D3
:1012400050F8043B121F21BF4B40A3F1013C2CEA94
:10125000030C1CF0803FF3D0C9B2001F083210F815
:10126000013B521E28BF91EA030FF8D818BF012096
:10127000401E70471B4213D1094236D12AB1844621
:10128000B0FBF2F002FB10C2704700F0BBBCFCD315
:101290000022002370470B0002000021002070474D
:1012A000904271EB030CF6D370B5B1FA81F4B3FA46
:1012B00083F52C1BA340C4F1200532FA05F6334315
:1012C000A2405FF00046E64002E05B085FEA3202BF
:1012D000841A71EB030524BF204629467641F4D3D6
:1012E00002000B003000002170BD012ACFD970B57B
:1012F000140C20D0B1FA81F4B2FA82F5C4F12004C2
:101300006419B4F12006D6D3B2405FF00044F44033
:10131000002502E052085FEA3303C61A71EB020EA1
:1013200024BF3046714664416D41F3D302000B0087
:101330002000290070BD0C46B1FBF2F102FB114503
:101340002D0445EA1045B5FBF2F402FB145580B2BA
:1013500040EA0545B5FBF2F002FB105240EA0440BA
:1013600070BD000062B38B0708D0521E11F8013B1C
:1013700000F8013B00F024808B07F6D1830740F092
:10138000208000BF103A07D330B4B1E83810103ACB
:10139000A0E83810F9D230BC530724BFB1E80810D8
:1013A000A0E8081044BF51F8043B40F8043BD207C2
:1013B00024BF31F8022B20F8022B44BF0B780370B6
:1013C0007047083A07D3B1E80810083A40F8043BE0
:1013D00040F804CBF7D25307E4E730B4436803F096
:1013E000004201211B031B0B436004BF0368002B59
:1013F00008D10DE00368DD0F45EA440444605B005A
:101400000360491E4468E302F4D523031B0B4360C9
:1014100043681A434260084630BC70474FF4001CD2
:101420001CEB410F94BF1CEB430F09E041EA030C96
:1014300050EA4C0C52EA0C0C03D2994208BF90427D
:10144000704714BF8B428242704700004FF4001C6B
:101450001CEB410F94BF1CEB430F09E041EA030C66
:1014600050EA4C0C52EA0C0C03D28B4208BF824269
:10147000704714BF994290427047000070B504460F
:101480000D466068C0F30A5040F2FF71884207D1F0
:101490006068000304BF2068002817D0022070BDD8
:1014A00020B92046FFF799FF012868DA012D0FDBEC
:1014B00040F2FF71091A8D420AD3606800284CBFC0
:1014C0009FED300B9FED310B84ED000B012070BDC3
:1014D0004142A942616806DA6FF31E51401941EAA0
:1014E0000050606042E0401E63684519012205F12A
:1014F000350062F31F53352801F00041636003D3C8
:1015000061600020206070BD002215F11F0F04DA19
:1015100022682360002020356060684214D0521E8B
:1015200025689241C0F12003D2439D4045EAD27222
:10153000256825FA00F6656805FA03F3334323604E
:10154000636823FA00F5656060680843B2F1004FF4
:10155000606003D80DD12078C0070AD52068401CF0
:101560002060206828B96068401C60604FF0FF3040
:1015700070BD6068884204BF20680028F6D1002052
:1015800070BD00BF000000000000F0FF0000000080
:101590000000F07FF446400D40EAC120490006D229
:1015A00000F014F8004248BF6FF00040604700F0C0
:1015B0000DF84FF0004188428CBF0846404260471A
:1015C000400D40EAC120490080F00D8040F000400D
:1015D000490DA1F58061491C05D4D1F11F0154BF0B
:1015E000C840C01770474FF000007047010040F13D
:1015F0000980F446404200F005F851F00041604790
:10160000010000BF09D0B0FA80F18840C91CC1F5C3
:101610008461090501EBD0214005704770B44FF09B
:10162000004591EA030F44BF6B4000F0EDBA00BFE4
:10163000841A71EB030604D26E40001BB1411219EB
:1016400073414FF4001C1CEB410F34BF7CEB43068D
:1016500084E00C0DA4EB1356362E7DDC012E43DC0A
:1016600045EAC32343EA525312BFD20292025B08F7
:10167000240545EAC12141EA5051D2EBC0209941ED
:1016800025D407D1B0FA80F610FA06F164D0002014
:10169000203608E0B1FA81F6B140C6F1200220FA06
:1016A00002F21143B0404FEAF474B4EB465434F004
:1016B00001064FEA74040AD8D6F50016760D04F038
:1016C0000044F04061FA06F25040F1404840C00A40
:1016D00040EA415021F0004128BF5FEA500550F137
:1016E000000044EBD12137E045EAC323DB0A45EA99
:1016F000C121C90AB6F120050EDD42EA0242120CF0
:10170000C5F1200603FA06F6EB4042EA06056D42F3
:10171000984161F100010DE062FA06F5F240554092
:1017200063FA06FC82EA0C02F3405A406D42904193
:1017300061EB030111F4801F05D1641E620502D024
:101740006D004041494121F48011430875F1004387
:1017500050F1000041EB045170BC70471CEB410F8D
:1017600015D223F0004352EA43060BD04FEA4C0C4B
:10177000BCEB410F04D80C0D661E342EB7DDEBE731
:10178000801A994150EA410608BF0021E4E708BFEA
:101790001CEB430F28BF6FF00001DDE7B0B581EA15
:1017A000030C0CF0004C40F2FF7515EA11541DBFFC
:1017B00015EA1357AC42AF4239E0E41923EA455326
:1017C00043F48013C90241F0004141EA505EC70270
:1017D0001100A7FB020200284FF00000EEFB0120E1
:1017E0004FF00001E3FB072118BF42F0010240184F
:1017F00000214941E3FB0E01A4F580640F0302D2EE
:1018000052004041494154F101046CDD470872F136
:10181000004250F1000051EB0451A1F580115CBF72
:1018200041EA0C01B0BD4CEA05510020B0BD05EA0B
:101830001357AC4214BFAF4241E050EA410E1CBF07
:1018400052EA430E02E061460020B0BD24423C440F
:101850001BD15FEA070EF6D0090302BF0146002044
:10186000AEF1140EB1FA81F7AEEB070401FA07FEF0
:101870000C37C7F1200100FA07F7C8404EEA000E06
:1018800023EA455343F48013A2E733F00043B3FA4D
:1018900083F704BFB2FA82FE77440B3FE41BB7F133
:1018A000200E2FBF02FA0EF3BB40C7F1200E22FA22
:1018B0000EFE38BF43EA0E03BA40641C82E750EACA
:1018C000410E14BF52EA430E6FF000014FF40017AF
:1018D00017EB430F8ABF194617EB410FB5E74CEAE8
:1018E00005510020B0BDD4F10104B4F120070FDA96
:1018F000C4F12007520828BF42F0010210FA07F590
:1019000001FA07F7E1BF2A43E0403843E1400FE026
:10191000352C98DCC7F1200452EA400220FA07F285
:1019200018BF42F0010231FA07F0A1400A4300213A
:1019300072F1004250F1000051EB0C01B0BD00000B
:10194000F0B540F2FF7581EA030C0CF0004C15EA8B
:1019500011541DBF15EA1357AC42AF42E5E0BC413C
:10196000C1F31301C3F31303801A994143F48013A5
:1019700004D2641E4000494180185941C90241EA1D
:101980005051B1FBF3F603FB1611A2FB0675D7EB22
:10199000C020A94102D2761E80185941C90241EAED
:1019A0005051B1FBF3FE03FB1E11A2FB0E75D7EBEA
:1019B000C020A94103D2AEF1010E8018594189021D
:1019C00041EA9051760546EA8E2EB1FBF3F603FB11
:1019D0001611A2FB0675D7EB8020A94102D2761E14
:1019E00080185941C90241EA50514EEA060EB1FB36
:1019F000F3F603FB1611A2FB0675D7EBC020A94135
:101A000002D2761E80185941C90241EA5051B1FBF9
:101A1000F3F703FB1711A2FB0735D3EBC020A94155
:101A200067F100070CBF004247F0010766F3D527B6
:101A30004FEA1E31B80814F5806412DDBD0775F158
:101A4000004250EB0E5051EB045111F5801F5CBF6A
:101A500041EA0C01F0BD4CF07F6141F0E041002013
:101A6000F0BDBD076D0840EA0E5041F48011D4F17D
:101A70000104B4F120060ADAC4F120060200E040B5
:101A800001FA06F3E1401843B24015430EE0342C4E
:101A900013DCC6F1200445EA40056D0820FA06F281
:101AA000154321FA06F0A1400D43002175F10042D3
:101AB00050F1000051EB0C01F0BD00205FEA0C0179
:101AC000F0BDCFB992185B41B3FA83F704BFB2FA05
:101AD00082F6BF190B3FB7F120062FBF02FA06F3BB
:101AE000BB40C7F1200622FA06F638BF3343BA409E
:101AF0001CB1E419641E33E77F4231F00041B1FAB2
:101B000081F404BFB0FA80F6A4190B3CB4F12006AE
:101B10002FBF00FA06F1A140C4F1200620FA06F614
:101B200038BF3143A0403C1B1AE7AC421ABF05EA5C
:101B30001357AF4212E050EA41061CBF52EA430677
:101B4000BFE750EA4107304661461CBF41EA0551F4
:101B5000F0BD52EA430C08BFC143F0BD00204FF472
:101B6000001616EB410F98BF16EB430F08BF16EB9C
:101B7000410F24BFC14305E016EB430F0CBF614684
:101B80004CEA0551F0BD000080B5134800F0A6F8FE
:101B90000FF24801016041608160C16001614161F3
:101BA00081610FF23C0242628162C1620163416362
:101BB0000FF2300282630FF23402C26301644164A7
:101BC00001BD10B5044800F089F80446206808B942
:101BD000FFF7DAFF204610BDCC28FF1F00000000F1
:101BE0002E00000066616C736500000074727565FC
:101BF0000000000091FBF2F303FB1211C0E9003179
:101C00007047000070470000841A71EB030603D28E
:101C1000001BB141121973414FF4001C1CEB410F22
:101C200034BF7CEB430443E00C0DA4EB1356352E7C
:101C300050DC45EAC323DB0A45EAC121C912B6F1EB
:101C400020050DDD63FA05F6EB4086EA0305124236
:101C500018BF45F00105C01851F100010CD213E086
:101C600062FA06F5F2405540F3415A40B340F34062
:101C70005A408018594107D349085FEA30005FEAAB
:101C8000350528BF45F0010501F58011420875F1C1
:101C9000004250F1000041EB045170BC4FF4001CB5
:101CA0001CEB410F38BF70470020090D0905704734
:101CB0001CEB410F10D252EA43060BD0BCEB410F94
:101CC00005D80C0DAB43661E342EB5DD02E0AB43E8
:101CD0008018594170BC704770BC70477047000055
:101CE000010100000000204200002042037C40036C
:101CF0007C404040409999D20100000000B0034070
:101D000000B00B40000000000000000000000000D8
:101D100000000000000000000000000000000000C3
:101D200000004E6F6E4D61736B61626C6500000068
:101D300000486172644661756C7400000000000028
:101D40004D656D4D616E6167656D656E7400004235
:101D500075734661756C74000000000000005573D7
:101D60006167654661756C7400000000000000004A
:101D70000000000000000000000000000000000063
:101D80000000000000000000000000000000000053
:101D90000000000000000000000000000000000043
:101DA000000000000000000000535643616C6C000E
:101DB000000000000000000044656275674D6F6E12
:101DC00069746F7200000000000000000000000055
:101DD00000000000000050656E64535600000000D3
:101DE00000000000005379735469636B0000000029
:101DF00000000000444D41300000000000000000E1
:101E0000000000444D4131000000000000000000CF
:101E10000000444D413200000000000000000000BE
:101E200000444D41330000000000000000000000AD
:101E3000444D413400000000000000000000004458
:101E40004D41350000000000000000000000444D3E
:101E500041360000000000000000000000444D4139
:101E6000370000000000000000000000444D413831
:101E70000000000000000000000000444D41390057
:101E800000000000000000000000444D413130001F
:101E9000000000000000000000444D41313100000E
:101EA0000000000000000000444D413132000000FD
:101EB00000000000000000444D41313300000000EC
:101EC000000000000000444D4131340000000000DB
:101ED0000000000000444D413135000000000000CA
:101EE00000000000444D415F4572726F72000000B7
:101EF0000000004D434D0000000000000000000005
:101F000000004654464C00000000000000000000A5
:101F100000526561645F436F6C6C6973696F6E003A
:101F20004C56445F4C565700000000000000004C27
:101F30004C57000000000000000000000000576146
:101F4000746368646F6700000000000000524E4731
:101F50000000000000000000000000004932433093
:101F60000000000000000000000000493243310082
:101F70000000000000000000000053504930000045
:101F80000000000000000000005350493100000034
:101F90000000000000000000535049320000000023
:101FA0000000000000000043414E305F4F525F4D83
:101FB000425F6275660043414E305F4275735F4F0A
:101FC000666600000043414E305F4572726F7200DA
:101FD0000000000043414E305F54785F5761726EDD
:101FE000696E6743414E305F52785F5761726E6928
:101FF0006E6743414E305F57616B655F55700000FF
:10200000005265736572766564353100000000002A
:1020100052657365727665643532000000000043D6
:10202000414E315F4F525F4D425F627566004341E2
:102030004E315F4275735F4F666600000043414E4C
:10204000315F4572726F72000000000043414E31F3
:102050005F54785F5761726E696E6743414E315FBE
:1020600052785F5761726E696E6743414E315F57B8
:10207000616B655F5570000000526573657276652F
:10208000643539000000000052657365727665643E
:102090003630000000000055415254305F52585F06
:1020A00054580000000055415254305F45525200D0
:1020B000000000000055415254315F52585F54589F
:1020C0000000000055415254315F4552520000005B
:1020D00000000055415254325F52585F545800007E
:1020E000000055415254325F45525200000000003A
:1020F0000055415254335F52585F5458000000005D
:1021000055415254335F45525200000000000055C3
:10211000415254345F52585F5458000000005541FA
:102120005254345F455252000000000000554152A5
:1021300054355F52585F54580000000055415254C6
:10214000355F45525200000000000041444330001A
:102150000000000000000000000041444331000086
:10216000000000000000000000434D50300000005F
:102170000000000000000000434D5031000000004E
:1021800000000000000000434D503200000000003D
:1021900000000000000046544D3000000000000028
:1021A000000000000046544D310000000000000017
:1021B0000000000046544D32000000000000000006
:1021C000000000434D54000000000000000000002B
:1021D0000000525443000000000000000000000016
:1021E0000052657365727665643833000000000044
:1021F0005049543000000000000000000000005072
:102200004954310000000000000000000000504967
:10221000543200000000000000000000005049544B
:102220003300000000000000000000005044423075
:102230000000000000000000000000555342300084
:1022400000000000000000000000555342444344D9
:10225000000000000000000000454E45545F31358D
:1022600038385F54696D6572454E45545F547261EC
:102270006E736D69740000454E45545F5265636529
:10228000697665000000454E45545F4572726F7275
:102290000000000000493253300000000000000040
:1022A000000000005344484300000000000000000C
:1022B0000000004441433000000000000000000026
:1022C0000000444143310000000000000000000015
:1022D00000545349300000000000000000000000DE
:1022E0004D43470000000000000000000000004CCB
:1022F0005054696D657200000000000000005265D6
:1023000073657276656431303200000000504F52C0
:10231000544100000000000000000000504F5254E3
:102320004200000000000000000000504F525443E3
:1023300000000000000000000000504F5254440014
:10234000000000000000000000504F525445000003
:10235000000000000000000052657365727665643D
:102360003130380000000052657365727665643163
:102370003039000000005265736572766564313152
:10238000300000000052657365727665643131314A
:102390000000000052657365727665643131320069
:1023A0000000005265736572766564313133000058
:1023B0000000526573657276656431313400000047
:1023C0000052657365727665643131350000000036
:1023D00052657365727665643131360000000052D3
:1023E00065736572766564313137000000005265AF
:1023F0007365727665643131380000000052657390
:102400006572766564313139000000000080034058
:102410000090034000800B4000900B4000F00F4004
:1024200040F00F4080F00F40C0F00F4000F10F402F
:1024300066000A1D32000701640007106E000406E2
:10244000780004088200040A8C00040C9600040E34
:10245000A0000410AA000412B4000414BE00041664
:10246000C8000418D200041ADC00041CE100041D9A
:10247000E600041EEB00041FF4000317FA00031823
:10248000130101062C010214000109080090044008
:1024900000A0044000B0044000C0044000D004404C
:1024A00000A0064000B0064000C0064000D0064034
:1024B00000A00E4000B00E40000000000000000030
:1024C000004F000000000700070000147F147F1475
:1024D00000242A7F2A12002313086462003649551B
:1024E000225000000503000000001C2241000000F3
:1024F00041221C000014083E08140008083E080889
:102500000000503000000008080808080000606063
:102510000000002010080402003E5149453E000022
:10252000427F4000004261514946002141454B3104
:10253000001814127F10002745454539003C4A49D0
:102540004930000171090503003649494936000642
:102550004949291E000036360000000056360000AA
:102560000008142241000014141414140000412225
:10257000140800020151090600324979413E007EEB
:102580001111117E007F4949493E003E41414122DF
:10259000007F4141221C007F49494941007F0909D0
:1025A0000901003E4149497A007F0808087F000080
:1025B000417F4100002040413F01007F081422413B
:1025C000007F40404040007F0204027F007F0408FB
:1025D000107F003E4141413E007F09090906003E4F
:1025E0004151215E007F0919294600464949493178
:1025F0000001017F0101003F4040403F001F20409B
:10260000201F003F4038403F00631408146300035C
:102610000478040300615149454300007F414100B3
:102620000015167C1615000041417F0000040201D0
:10263000020400404040404000000102040000202D
:1026400054545478007F484444380038444444206B
:1026500000384444487F00385454541800087E0918
:102660000102000C5252523E007F08040478000020
:10267000447D4000002040443D00007F102844007D
:102680000000417F4000007E020C027C007E0402BC
:10269000027C003844444438007C141414080008B8
:1026A0001414187C007C0804040800485454542076
:1026B00000043F444020003C4040207C001C20405F
:1026C000201C003C4030403C004428102844000CB2
:1026D0005050503C004464544C44000008364100C3
:1026E0000000007F000000004136080000080408D8
:1026F00010080008082A1C0800081C2A0808000402
:10270000027F02040010207F2010001C2A322A1CA5
:10271000001C2244221C00000AD7A33C00004040B9
:102720000000A043010000006A6E6B6C676D4E4FA5
:1027300034353637020401016028FF1FB028FF1F1F
:102740006028FF1F6028FF1F6028FF1FA10EFF1FCA
:10275000880EFF1F000000000000000000000000C5
:102760000000000000000000000000000000000069
:10277000000000000000000089B24FF4807291FB5D
:10278000F2F2DFF87437C0B203F8102089B24FF4C8
:10279000807291FBF2F303FB1213DFF85C27C0B2E7
:1027A00012EB40025370704770B5040000260025FC
:1027B000AA20DFF84817F6B27054761CAA20DFF87A
:1027C0003C17F6B27054761C0220DFF83017F6B2D0
:1027D0007054761C0020DFF82417F6B27054761C73
:1027E0002078DFF81817F6B27054641C761C207835
:1027F000DFF80817F6B27054641C761C2078DFF8F6
:10280000FC16F6B27054641C761C2078DFF8EC16C7
:10281000F6B27054641C761C2078DFF8E016F6B22D
:102820007054641C761C2078DFF8D016F6B2705411
:10283000641C761C2078DFF8C416F6B27054641C51
:10284000761C2078DFF8B416F6B27054641C761C3F
:102850002078DFF8A816F6B27054641C761C207835
:10286000DFF89816F6B27054641C761C2078DFF8F6
:102870008C16F6B27054641C761C2078DFF87C1637
:10288000F6B27054641C761C2078DFF87016F6B22D
:102890007054641C761C2078DFF86016F6B2705411
:1028A000641C761C2078DFF85416F6B27054641C51
:1028B000761C2078DFF84416F6B27054641C761C3F
:1028C0002078DFF83816F6B27054641C761C207835
:1028D000DFF82816F6B27054641C761C301FDFF83F
:1028E0001C16C870002005000020C0B2F6B2B0422D
:1028F00006D2DFF80816C0B2415C4D19401CF4E75F
:10290000DFF8F805F6B23554761C3100C9B2DFF8AD
:10291000EC0500F001F870BD70B504000D00002654
:10292000F6B2EDB2AE4209D2DFF8D005F6B23156BA
:1029300049B2042000F026FC761CF1E770BD10B50A
:102940000400DFF8BC05007800280AD1E4B2AA2C04
:1029500007D10120DFF8A8150870DFF8A80504707A
:102960007DE0DFF89C05007801280AD1E4B2AF2CA5
:1029700007D10220DFF888150870DFF88805447059
:102980006DE0DFF87C05007802280AD1E4B2F12C72
:1029900007DA0320DFF868150870DFF8680584702F
:1029A0005DE0DFF85C050078032811D1E4B2322C39
:1029B0000EDA0420DFF848150870DFF84805C47007
:1029C000DFF8440504700020DFF84015087046E089
:1029D000DFF82C050078042823D1DFF82C050078D7
:1029E00000281ED0DFF820050078401EDFF81815FB
:1029F0000870DFF81005DFF814150978081804715D
:102A0000DFF808050078401CDFF800150870DFF8D3
:102A1000F8040078002822D10520DFF8E4140870BB
:102A20001DE0DFF8DC040078052814D10020DFF871
:102A3000D0140870DFF8CC04DFF8D0140978081837
:102A40000471DFF8C8040078411DC9B2DFF8B4048E
:102A500000F006F803E00020DFF8A414087010BDB1
:102A6000F8B504000D00002600270020C0B2EDB22A
:102A7000691E884204DAC0B2015D8E19401CF5E778
:102A8000EDB2281910F8010CF6B2864240F00D8222
:102A90002078AA2802D16078AF2800D005E2A0787B
:102AA000012825D1207902280DD1DFF864040078AF
:102AB000002804D10120DFF85814087003E000203A
:102AC000DFF84C1408702079012803D10120DFF8C9
:102AD000441408702079042803D10220DFF834144C
:102AE00008702079052803D10320DFF82814087026
:102AF000A078102840F096812079617951EA002071
:102B00000700BFB24FF6FF70874227D0BFB2DFF891
:102B10000804C019FEF76AFDDFF80024DFF800346E
:102B2000FEF73CFE00F06AFBDFF8F8130860DFF800
:102B3000F40390ED000AB5EE400AF1EE10FA0DD55F
:102B4000DFF8E00390ED000AF3EE0E0A30EE200A03
:102B5000B1EE400ADFF8CC0380ED000AA079E179FC
:102B600051EA00200700BFB24FF6FF70874227D01E
:102B7000BFB2DFF8A403C019FEF738FDDFF89C23CD
:102B8000DFF89C33FEF70AFE00F038FBDFF89813FD
:102B90000860DFF8940390ED000AB5EE400AF1EE0C
:102BA00010FA0DD5DFF8800390ED000AF3EE0E0A5F
:102BB00030EE200AB1EE400ADFF86C0380ED000A27
:102BC000207A617A51EA00200700BFB24FF6FF7009
:102BD000874220D0BFB2D048C019FEF707FDCF4AC8
:102BE000CF4BFEF7DBFD00F009FBD0494861CF4831
:102BF00090ED050AB5EE400AF1EE10FA0BD5CB4880
:102C000090ED050AF3EE0E0A30EE200AB1EE400A0E
:102C1000C64880ED050AA07AE17A51EA0020070053
:102C2000BFB24FF6FF70874220D0BFB2BA48C0197A
:102C3000FEF7DCFCB94ABA4BFEF7B0FD00F0DEFA55
:102C4000BB49C860BA4890ED030AB5EE400AF1EE00
:102C500010FA0BD5B64890ED030AF3EE0E0A30EEEB
:102C6000200AB1EE400AB24880ED030A207B617B66
:102C700051EA00200700BFB24FF6FF70874220D014
:102C8000BFB2A548C019FEF7B1FCA44AA44BFEF799
:102C900085FD00F0B3FAA6490861A54890ED040A45
:102CA000B5EE400AF1EE10FA0BD5A14890ED040AFA
:102CB000F3EE0E0A30EE200AB1EE400A9C4880ED99
:102CC000040AA07BE17B51EA00200700BFB24FF667
:102CD000FF70874220D0BFB28F48C019FEF786FC34
:102CE0008E4A8F4BFEF75AFD00F088FA90494861F2
:102CF0008F4890ED050AB5EE400AF1EE10FA0BD5BB
:102D00008B4890ED050AF3EE0E0A30EE200AB1EE84
:102D1000400A874880ED050A207C617C51EA00204A
:102D20000700BFB24FF6FF70874220D0BFB27A488B
:102D3000C019FEF75BFC794A794BFEF72FFD00F0D6
:102D40005DFA7C49C8607B4890ED030AB5EE400A05
:102D5000F1EE10FA0BD5774890ED030AF3EE0E0A68
:102D600030EE200AB1EE400A724880ED030AA07CE2
:102D7000E17C51EA00200700BFB24FF6FF708742A6
:102D800020D0BFB26448C019FEF730FC634A644BE0
:102D9000FEF704FD00F032FA66490861654890EDDF
:102DA000040AB5EE400AF1EE10FA0BD5614890ED39
:102DB000040AF3EE0E0A30EE200AB1EE400A5D4836
:102DC00080ED040A207D617D51EA00200700BFB23A
:102DD0004FF6FF70874220D0BFB24F48C019FEF7B0
:102DE00005FC4E4A4E4BFEF7D9FC00F007FA51495C
:102DF0004861504890ED040AB5EE400AF1EE10FA31
:102E00000BD54C4890ED040AF3EE0E0A30EE200A82
:102E1000B1EE400A474880ED040A3100C9B2A078FB
:102E200000F044F8A07811283FD12079617951EA67
:102E300000200700BFB2B7F5FA6F17DABFB2B7F5D7
:102E40007A7F09DABFB2784200EE100AB8EEC00A03
:102E5000394880ED000A09E0BFB2B7F57A7000EE9C
:102E6000100AB8EEC00A344880ED000AA079E17972
:102E700051EA00200700BFB24FF6FF70874202D030
:102E8000002024490870207A617A51EA0020070066
:102E9000BFB24FF6FF70874202D004201D49087070
:102EA0003100C9B2A07800F001F8F1BD70B504009E
:102EB0000D00AA2011490870AA2010494870EF207F
:102EC0000E49887002200D49C8700C4804710B48E7
:102ED000457100260020C0B2062805DA0749C0B2B5
:102EE000415C8E19401CF6E70448867107210348AF
:102EF000FFF712FD70BD0000FC27FF1FC827FF1F52
:102F0000C928FF1F2028FF1FC728FF1FC828FF1F31
:102F1000C428FF1F540EFF1FD08AFFFFFCA9F1D267
:102F20004D62503F480EFF1F4C0EFF1F3C25FF1FF8
:102F30006825FF1F9425FF1F500EFF1F012110F071
:102F40001F029140DFF8982240B2430942F8231053
:102F500070472DE9F84304000D0064B2002C08D03E
:102F6000022C2CD018D3042C4FD03BD3052C5FD08F
:102F700071E0DFF87002006850F48060DFF86412DE
:102F800008604FF44071662000F080F94FF4407102
:102F9000672000F07BF95EE0DFF84802006850F43B
:102FA0000060DFF8401208604FF44071432000F0E9
:102FB0006DF94FF44071442000F068F94BE0DFF800
:102FC0002402006850F48050DFF8181208604FF4B3
:102FD0004071632000F05AF94FF44071622000F014
:102FE00055F938E0DFF8FC01006850F40050DFF8D4
:102FF000F41108604FF44071502000F047F94FF48D
:103000004071512000F042F925E0DFF8DC01006852
:1030100050F48060DFF8D01108604FF440714E200A
:1030200000F034F94FF440714F2000F02FF912E016
:10303000DFF8B401006850F40060DFF8AC110860FC
:103040004FF44071892000F021F94FF4407188203D
:1030500000F01CF9FFE7DFF8940164B250F8240097
:10306000C07810F0F300DFF8841164B251F8241036
:10307000C870DFF8780164B250F824008078DFF877
:103080006C1164B251F82410887064B2002C02D024
:1030900064B2012C07D1DFF8580100684FF47A714F
:1030A0004843814606E0DFF84C0100684FF47A712E
:1030B000484381462801B9FBF0F00600B6B2B6F5E8
:1030C000005F02DB41F6FF700600B9FBF5F0B6B217
:1030D000B0EB06100700BFB2202F03DBDC2146480F
:1030E00000F041F9414864B250F82400007810F033
:1030F000E0008046C6F3042050EA08003B4964B271
:1031000051F824100870394864B250F82400467011
:10311000364864B250F82400807A10F0E00080460F
:1031200017F01F0050EA0800304964B251F824102B
:1031300088722E4864B250F82400007C50F0880059
:103140002A4964B251F824100874284864B250F82F
:103150002400C07850F00C00244964B251F82410C7
:10316000C870BDE8F183214A40B252F8202012799C
:103170009206F8D51D4A40B252F8202092F9072055
:103180000A707047194A40B252F82020127912068C
:10319000F8D5164A40B252F82020D171704701008C
:1031A000124849B250F82100807D002801D001204A
:1031B00000E00020704710B504000C4864B250F8DD
:1031C0002400C07850F02000084964B251F824105F
:1031D000C87064B260002D3040B2FFF7AFFE10BD82
:1031E00000E100E03480044028800440D00BFF1F41
:1031F0005428FF1F5C28FF1FF46600004FEAF17C93
:10320000BCF1E04C2CBFBCF5001F11E05FEA4C0C98
:1032100034BFBCF17F5F2EE05FEA9C0C4FEA0C1CD0
:103220004FEA3C0CC10071F100414CEB507070470B
:10323000C90241EA5051C00218BF41F0010141F0FA
:1032400000414FEA6C50C0F10900212810D240EA39
:10325000CC7CCCF1200C11FA0CF070F10040CCF1D8
:10326000200C21FA0CF00CF0004C40EB0C007047E5
:103270004FEACC707047490011F5001F04D84FEA9F
:10328000CC10FF30C0057047C817704710B4294AEA
:1032900012684FF40073C0B24409A3401A43254B8F
:1032A0001A60254AC0B2431152F82320012310F0BE
:1032B0001F04A340C2F8A0301F4AC0B2431152F805
:1032C0002320C0B210F01F0342F8231010BC704737
:1032D00010B4184A12684FF40073C0B24409A340F6
:1032E0001A43144B1A60144AC0B2431152F82320F7
:1032F000012310F01F04A340C2F8A03031F4E061B4
:103300000D4AC0B2431152F82320C0B210F01F037F
:1033100052F8232012F4E0621143074AC0B243116D
:1033200052F82320C0B210F01F0342F8231010BC43
:103330007047000038800440BC0BFF1FDFF800F02E
:10334000D50EFF1FDFF800F0F90EFF1FBFF34F8F00
:103350004648006810F4E060454908434349086066
:10336000BFF34F8FFEE738B504000D00002000F0DA
:103370008DF82A0021003F4800F0C0F8002000F03E
:10338000A2F84FF47A7000F0E6F8F2E738B50400DE
:103390000D00210049B20420FFF7F4FE200032BDE9
:1033A00010B50024042000F0EDF8042000F020F90E
:1033B000002841D1002000F069F8042000F018F93D
:1033C000012801D101200400002000F07CF82A48E7
:1033D00000F094F84FF4FA7000F0BDF8E4B2012C5C
:1033E000EBD1042000F004F90028E6D1042000F01D
:1033F000FFF8002806D1002000F065F8642000F0F6
:10340000AAF8F3E7042000F0F3F8012806D1002021
:1034100000F059F8322000F09EF8F3E7174800F06A
:103420006DF8FFF78BFF642000F095F80020FFF7A0
:1034300089FFFFF78BFFC0E710BD10B51048046887
:10344000012000F023F8012000F03DF80D48E4B21F
:103450000F2101FB0402E4B221000B4800F04EF8FA
:103460004FF47A7000F077F8EDE700000CED00E023
:103470000400FA05C0670000AC680000186800008E
:1034800004ED00E03404FF1F6465000010B5040083
:1034900064B2042C07DA01220121174864B2205CCF
:1034A00000F0BEF80EE0042004002000441E40B2EC
:1034B000002807D0012201210F4864B2205C00F0EF
:1034C000AFF8F2E710BD10B5040064B2042C05DAC1
:1034D000094864B2205C00F034F90CE004200400D8
:1034E0002000441E40B2002805D0034864B2205C8E
:1034F00000F027F9F4E710BD600EFF1F0EB400B511
:1035000082B003A90091024600AB01210348784430
:103510000A30FCF781FF06BC5DF810FB5933000050
:1035200010B50400002C15D0B4F1807F03D32921FD
:103530000F48FFF718FF00200E4908600E4804608E
:1035400000200E49086005200A4908600948006803
:10355000C003FBD510BD10B504002000441E002898
:1035600004D007480068FFF7DBFFF6E710BD000056
:10357000A065000010E000E014E000E018E000E0CA
:103580005428FF1F10B5040064B2082C0DDA002285
:103590000021224864B2205C00F042F803211F4859
:1035A00064B2205CFFF794FE14E0082004002000C1
:1035B000441E40B200280DD000220021174864B2FA
:1035C000205C00F02DF80321144864B2205CFFF762
:1035D0007FFEECE710BD10B50400104864B2205C1B
:1035E00000F0CCF8002801D1002000E0012010BD3F
:1035F00010B50400200040B2FFF7EDFF00280AD10B
:103600000A20FFF7A8FF200040B2FFF7E4FF0028E0
:1036100001D1002000E0012010BD0000580EFF1F66
:1036200070B504000D0016004FF480712000C0B288
:10363000FFF72CFE6DB2002D11D16048E4B261118C
:1036400050F821005D49E4B2621151F82210496935
:10365000012214F01F039A409143416136E057481C
:10366000E4B2611150F821005449E4B2621151F8FA
:1036700022104969012214F01F039A40114341614D
:10368000F6B2002E11D14D48E4B2611150F821007C
:103690000068012114F01F02914088434749E4B2B9
:1036A000621151F82210086010E04448E4B2611140
:1036B00050F821000068012114F01F0291400843D6
:1036C0003E49E4B2621151F82210086070BD38B56D
:1036D00004000D003948E4B2611150F8210040693E
:1036E00014F01F010200CA40D00703D463213448FC
:1036F000FFF739FEEDB2002D11D13048E4B261116F
:1037000050F821000068012114F01F029140884305
:103710002A49E4B2621151F82210086010E02748EB
:10372000E4B2611150F821000068012114F01F0279
:10373000914008432149E4B2621151F82210086017
:1037400031BD10B504001D48E4B2611150F82100EC
:10375000406914F01F010200CA40D00703D47B2146
:103760001748FFF700FE1548E4B2611150F8210038
:10377000012114F01F029140C16010BD10B504007A
:103780000E48E4B2611150F82100406914F01F01A5
:103790000200CA40D00703D58C210948FFF7E3FD9A
:1037A0000648E4B2611150F82100006914F01F01CD
:1037B0000200CA4012F0010010BD00004C0BFF1FB8
:1037C0008466000038B504000D0064B2002C06D0F9
:1037D000022C69D04CD3032C00F08280C7E0DFF8C4
:1037E000C005006850F08070DFF8B41508606DB255
:1037F000002D0BD0022D15D00ED3042D1ED017D3C3
:10380000062D27D020D3072D2AD02FE04FF480613A
:103810004120FFF73BFD2AE04FF440710420FFF701
:1038200035FD24E04FF440710520FFF72FFD1EE029
:103830004FF440710620FFF729FD18E04FF4407166
:103840000720FFF723FD12E04FF480616520FFF7AA
:103850001DFD0CE04FF480616620FFF717FD06E0C8
:103860004FF480616720FFF711FD00E07FE07EE00C
:10387000DFF82C05006850F00070DFF824150860B0
:103880006DB2002D02D0012D06D00BE04FF4407137
:103890000C20FFF7FBFC06E04FF440710D20FFF712
:1038A000F5FC00E063E062E0DFF8F804006850F047
:1038B0008070DFF8F01408606DB2002D02D0012D89
:1038C00006D00BE04FF440710A20FFF7DFFC06E062
:1038D0004FF440710B20FFF7D9FC00E047E046E0D1
:1038E000DFF8C004006850F00070DFF8B81408601A
:1038F0006DB2002D0BD0022D15D00ED3042D1ED08D
:1039000017D3062D27D020D3072D2AD02EE04FF431
:10391000C0618520FFF7BAFC28E04FF4C061862023
:10392000FFF7B4FC22E04FF4C0618720FFF7AEFC44
:103930001CE04FF4C0618820FFF7A8FC16E04FF4AC
:10394000C0618920FFF7A2FC10E04FF440714920CC
:10395000FFF79CFC0AE04FF4C0618B20FFF796FC58
:1039600004E04FF4C0618C20FFF790FCFFE731BD0D
:103970002DE9F84F04000D0016001F0064B2002C62
:1039800011D064B2012C02D064B2022C02D16DB20B
:10399000022D08DB64B2032C05D040F28511DFF85C
:1039A0000804FFF7E0FC290049B2200040B2FFF70D
:1039B00009FFDFF8F80300684FF47A714843804646
:1039C0005FEA1840B0FBF6F08146002082461FFAFD
:1039D00089F9484650FA0AF0012802DB1AF1010A77
:1039E000F5E75FFA8AFABAF1080F05DB4FF4D071F8
:1039F000DFF8B403FFF7B7FC404630FA0AF0B0FB3B
:103A0000F6F081461FFA89F9DFF8A40364B240F8A2
:103A1000249064B2002C05D0022C1BD00ED3032CB2
:103A200024D02FE01FFA89F919F1010000FB07F0FB
:103A300042F21071B0FBF1F0834623E01FFA89F9DE
:103A400019F1010000FB07F04FF47A71B0FBF1F0BF
:103A5000834617E01FFA89F919F1010000FB07F00E
:103A60004FF47A71B0FBF1F083460BE01FFA89F94D
:103A700019F1010000FB07F042F21071B0FBF1F008
:103A80008346FFE7DFF82C0364B250F824006DB2E0
:103A900010EBC500DFF81C1364B251F824106DB2AE
:103AA00011EBC501C96831F00401C160DFF80403FE
:103AB00064B250F824006DB210EBC5002821C1603B
:103AC0005FFA8AFA1AF0070050F00800DFF8E412F3
:103AD00064B251F8241008601FFA89F9DFF8D402A3
:103AE00064B250F82400C0F808900020DFF8C41237
:103AF00064B251F82410C864DFF8B80264B250F818
:103B000024006DB210EBC5001FFA8BFBC0F810B09B
:103B10000020DFF8A01264B251F824104860BDE81C
:103B2000F18F2DE9F04104000D0016005FF0000850
:103B300064B2002C11D064B2012C02D064B2022C09
:103B400002D16DB2022D08DB64B2032C05D04FF414
:103B5000F371DFF85402FFF706FC64B2002C05D0C5
:103B6000022C18D00DD3032C1FD029E042F2117083
:103B7000864205D34FF4F671DFF82C02FFF7F3FB12
:103B80001EE0B6F57A7F05D94FF4F871DFF8180218
:103B9000FFF7E9FB14E0B6F57A7F05D94FF4FA7127
:103BA000DFF80402FFF7DFFB0AE042F21170864201
:103BB00005D340F2F911DFF8F001FFF7D4FBFFE77E
:103BC000DFF8EC0164B250F82400804664B2002CA7
:103BD00005D0022C17D00CD3032C1ED027E018F1EF
:103BE000010000FB06F042F21071B0FBF1F007009B
:103BF0001DE018F1010000FB06F04FF47A71B0FBF4
:103C0000F1F0070013E018F1010000FB06F04FF49B
:103C10007A71B0FBF1F0070009E018F1010000FB38
:103C200006F042F21071B0FBF1F00700FFE7DFF899
:103C3000840164B250F824006DB210EBC500076136
:103C4000BDE8F08110B5040064B2012C07D064B265
:103C5000022C04D040F2DB215348FFF784FB64B20E
:103C60002000012802D0022811D021E04C48006831
:103C700050F000704A4908604FF4E0610C20FFF7F3
:103C800005FB4FF4E0610D20FFF700FB15E0454810
:103C9000006850F08070434908604FF4C0610A200A
:103CA000FFF7F4FA4FF4C0610B20FFF7EFFA04E0DE
:103CB00040F213313C48FFF756FB3E4864B250F8DF
:103CC0002400406D50F004003A4964B251F82410C9
:103CD0004865384864B250F82400D0F8800050F0AD
:103CE0000800344964B251F82410C1F88000002063
:103CF000304964B251F82410C8644FF6FF702D4962
:103D000064B251F8241088602A4864B250F8240044
:103D1000D0F8800050F00100264964B251F8241018
:103D2000C1F88000234864B250F82400406D50F080
:103D30000100204964B251F82410486500201D4953
:103D400064B251F82410486010BD38B5040064B264
:103D5000012C07D064B2022C04D04FF44C711248ED
:103D6000FFF701FB134864B250F8240040680500D7
:103D7000280000B232BD10B5040064B2012C07D097
:103D800064B2022C04D040F23E310748FFF7EBFA50
:103D90000020084964B251F82410486010BD0000AA
:103DA0003C800440308004404C6600005C28FF1FCB
:103DB0001C21FF1F3C0BFF1F012110F01F0291402F
:103DC000DFF8E42440B2430942F82310704780B57D
:103DD000DFF8D8040078002813D000220321002047
:103DE000FFF79FFE002204210020FFF79AFE002229
:103DF00005210020FFF795FE002206210020FFF795
:103E000090FE01BD80B5DFF8A80400F0A1FADFF84C
:103E1000A40400F0F2FADFF8A024DFF8A014DFF821
:103E2000A00400F034FCDFF89C24DFF89C14DFF8D9
:103E30009C0400F0F8FCDFF880040078DFF89014B0
:103E400008704022DFF8880490F9001009B2DFF80A
:103E5000840400F00BFEBDEEC00A10EE100A10F54F
:103E60007A70DFF874140860DFF8400400780028E6
:103E700006D1DFF86404026805210320FFF751FE34
:103E8000DFF83C040278DFF834040178DFF84C04F2
:103E900001F019F8DFF84814DFF8400400F0C7FE1D
:103EA00001BD000080B501F012F9DFF8380490ED93
:103EB000000ADFF83404D0ED000A30EE200AF0EEFC
:103EC000000A80EE200ABDEEC00ADFF8200480ED73
:103ED000000ADFF8D8030078002825D1DFED860A34
:103EE0009FED860A01F012F9DFF804040078322809
:103EF00006DADFF8FC030078401CDFF8F4130870E2
:103F0000DFF8F003007814280CDADFF8D40390F916
:103F10000000022806D1DFF8DC030078401CDFF83F
:103F2000D413087000F0EEF89FED730ADFF8B403C5
:103F300080ED000ADFF8B00380ED000A01BD00004B
:103F400080B5DA48007800280CD0DFF8B00300789C
:103F5000002803D0D64800F0CEFA0EE0D54800F095
:103F6000CAFA0AE0DFF888030078322805D1592020
:103F7000FFF722FF3320DE49087001BD80B5CB4832
:103F80000078002866D1DE480078012862D1D04848
:103F900090F9001089B20020FEF7EEFB40210120CD
:103FA000FEF7EAFBCB4890ED030ADFED550A20EE61
:103FB000200ABDEEC00A10EE101A89B20220FEF7E8
:103FC000DBFBC44890ED050ADFED4D0A20EE200A28
:103FD000BDEEC00A10EE101A89B20320FEF7CCFB2A
:103FE000BC4890ED060ADFED460A20EE200ABDEE41
:103FF000C00A10EE101A89B20420FEF7BDFBB548C6
:1040000090ED080ABDEEC00A10EE100A4FF47A7166
:1040100010FB01F189B20520FEF7AEFBAD4890ED33
:10402000090ABDEEC00A10EE100A4FF47A7110FBB7
:1040300001F189B20620FEF79FFBA748016889B20B
:104040000720FEF799FB01210820FEF795FBAD48FC
:10405000FEF7AAFB9548007800284CD1A8480078C4
:10406000042848D19D48B0F87E1589B20020FEF79B
:1040700083FB9A48B0F8801589B20120FEF77CFBDB
:104080009648B0F83A1689B20220FEF775FB9348BD
:10409000B0F83C1689B20320FEF76EFB8F48B0F8EB
:1040A000F81689B20420FEF767FB8C48B0F8561763
:1040B00089B20520FEF760FB8848934991F900100A
:1040C00010EB4100B0F89C1689B20620FEF754FBB5
:1040D00082488D4991F9001010EB4100B0F8FA16B2
:1040E00089B20720FEF748FB04210820FEF744FBB5
:1040F0008448FEF759FB01BD0000000000803B45ED
:1041000000007A4480B57E48007802285DD17F485F
:1041100090ED000ABDEEC00A10EE101A89B2002020
:10412000FEF72AFB7148016889B20120FEF724FBE3
:10413000774890ED040ADFED5B0A20EE200ABDEE21
:10414000C00A10EE101A89B20220FEF715FB704863
:1041500090ED030ADFED530A20EE200ABDEEC00AFF
:1041600010EE101A89B20320FEF706FB684890EDA6
:10417000070ABDEEC00A10EE101A89B20420FEF73D
:10418000FBFA634890ED060ABDEEC00A10EE101A65
:1041900089B20520FEF7F0FA5D4890ED090ABDEE00
:1041A000C00A10EE101A89B20620FEF7E5FA4A4856
:1041B000016889B20720FEF7DFFA02210820FEF726
:1041C000DBFA5048FEF7F0FA6AE04D480078032821
:1041D00066D1454890ED000ABDEEC00A10EE101AF7
:1041E00089B20020FEF7C8FA3E4890ED000ABDEE05
:1041F000C00A10EE101A89B20120FEF7BDFA3E483F
:1042000090ED030ADFED270A20EE200ABDEEC00A7A
:1042100010EE101A89B20220FEF7AEFA364890ED81
:10422000050ADFED200A20EE200ABDEEC00A10EEDE
:10423000101A89B20320FEF79FFA2F4890ED060A64
:10424000BDEEC00A10EE101A89B20420FEF794FAEF
:10425000294890ED070ABDEEC00A10EE101A89B287
:104260000520FEF789FA244890ED080ABDEEC00A41
:1042700010EE101A89B20620FEF77EFA1E4890ED65
:10428000090ABDEEC00A10EE101A89B20720FEF727
:1042900073FA03210820FEF76FFA1A48FEF784FA32
:1042A00001BD000000007A4400E100E0C428FF1FC7
:1042B000C825FF1FC826FF1F1E04FF1F1D04FF1F68
:1042C0001C04FF1F2104FF1F2004FF1F1F04FF1FEA
:1042D0002204FF1F3C25FF1FC025FF1F9C10FF1F4E
:1042E000E420FF1F3821FF1F3421FF1FC425FF1FBB
:1042F000C528FF1FC628FF1F9425FF1F2804FF1F86
:10430000540EFF1FFC27FF1FCA28FF1F500EFF1F60
:104310006825FF1F80B5012201219C20FFF780F94D
:10432000012201219A20FFF77BF9142000F09AFF67
:1043300001BD80B5012201219820FFF771F901220A
:1043400001219920FFF76CF9132000F08BFF01BDCC
:1043500038B5040001219C20FFF7B9F900F0FAF804
:1043600001219A20FFF7B3F900F0F4F800219C2016
:10437000FFF7ADF900F0EEF800200500EDB2FA2DE0
:1043800003DA00F0E7F86D1CF8E70021142001F0D3
:1043900070F82070641C00219A20FFF798F9002023
:1043A0000500EDB27F2D17DA00F0D4F800F0D2F856
:1043B00001219A20FFF78BF900F0CCF800F0CAF841
:1043C0000021142001F055F82070641C00219A206F
:1043D000FFF77DF96D1CE4E700F0BCF800F0BAF8D7
:1043E00001219A20FFF773F900F0B4F800F0B2F859
:1043F00000219A20FFF76BF931BD38B50400012187
:104400009820FFF764F900F0A5F801219920FFF743
:104410005EF900F09FF800219820FFF758F900F0AE
:1044200099F800200500EDB2FA2D03DA00F092F8B9
:104430006D1CF8E70021132001F01BF82070641CAC
:1044400000219920FFF743F900200500EDB27F2DF0
:1044500017DA00F07FF800F07DF801219920FFF7CE
:1044600036F900F077F800F075F80021132001F01C
:1044700000F82070641C00219920FFF728F96D1CBA
:10448000E4E700F067F800F065F801219920FFF7F4
:104490001EF900F05FF800F05DF800219920FFF7A9
:1044A00016F931BD38B50400E4B220090500EDB2BB
:1044B0000A2D06DA15F1300149B20420FEF762FE3A
:1044C00005E015F1370149B20420FEF75BFE14F058
:1044D0000F000500EDB20A2D06DA15F1300149B2E0
:1044E0000420FEF74FFE05E015F1370149B2042024
:1044F000FEF748FE31BD70B5040000262A210420D5
:10450000FEF740FE4C210420FEF73CFE442104202F
:10451000FEF738FE0020FFF7C5FF0020FFF7C2FFBF
:104520000020FFF7BFFF0020FFF7BCFF00200500C1
:10453000EDB2802D05DA2078FFF7B4FF641C6D1C06
:10454000F6E73000C0B2FFF7ADFF23210420FEF7ED
:1045500019FE70BD81B000208DF800009DF80000AC
:10456000002807D100BF00BF9DF80000401C8DF857
:104570000000F3E701B0704710B4030019781A780F
:10458000187800280DD01878C9B2814201D2187865
:1045900001001878D2B2904201D2187802005B1C58
:1045A000EEE7DFF898030170DFF894030270DFF89C
:1045B00094030078DFF888432478A04209D20120D0
:1045C000DFF8844320700020DFF880432070012052
:1045D0001AE0DFF868030078DFF874432478A0421B
:1045E00009D20020DFF8604320700120DFF85C432F
:1045F0002070022008E00020DFF84C4320700020EB
:10460000DFF848432070002010BC704710B402004F
:104610000020C0B27F280EDADFF838331B780C7820
:10462000A34202D2FF23137001E000231370491C40
:10463000521C401CEDE7012010BC704710B4010073
:10464000401C431C1A001378002B1ED00378002B4B
:104650000AD103781478A34206D003780C78A342D9
:1046600002D0FF2303700CE00378FF2B09D10378FD
:104670001478A34205D003780C78A34201D000231C
:104680000370491C401C521CDDE710BC7047F8B594
:1046900004000D0016000027AF48FFF76DFFAF497B
:1046A0000870AD49AE48FFF7B1FFAD48FFF7C6FF50
:1046B000AC4800780700FFB2042F4BDBA848FFB2DC
:1046C000381810F8020C00283AD1A548FFB2381863
:1046D00010F8010C002833D1A148FFB2385C002843
:1046E0002ED09F48FFB238184078002828D02F706D
:1046F000FFB2D7F1400000EE100AB8EEC00A9A48A7
:1047000080ED000A984890ED000AF0EE000A20EED5
:10471000200A9548D0ED000A934890ED001A93487E
:10472000D0ED001A40EE811A80EE210A904880ED0B
:10473000000A01208F49087000208F49087009E0A5
:104740000320287001208C490870002089490870D6
:104750007F1EB0E7834800780700FFB27D2F4ADA5A
:104760007F48FFB2381810F8010C002839D07C4877
:10477000FFB2385C002834D07948FFB2381840784E
:1047800000282ED17648FFB238188078002828D12A
:104790002770FFB2B7F1400000EE100AB8EEC00A71
:1047A000714880ED000A704890ED000AF0EE000AB2
:1047B00020EE200A6C48D0ED000A6B4890ED001AFC
:1047C0006A48D0ED001A40EE811A80EE210A6B484B
:1047D00080ED000A01206A490870002069490870CC
:1047E00009E07C202070012066490870002064499F
:1047F00008707F1CB1E763480078002807D05E4846
:104800000078002803D057480078307007E02878F7
:10481000217851FA80F0022190FBF1F0307030786D
:1048200050490870F1BDF8B504000D0016000027CE
:104830005548FFF7A1FE5549087053495448FFF702
:10484000E5FE5348FFF7FAFE524800780700FFB232
:10485000042F2ADB4E48FFB2381810F8020C00284B
:1048600019D14B48FFB2381810F8010C002812D1AA
:104870004748FFB2385C00280DD04548FFB23818D1
:104880004078002807D02F7001204349087000208D
:104890003949087009E00320287001203649087062
:1048A00000203D4908707F1ED1E73A480078070094
:1048B000FFB27D2F2ADA3648FFB2381810F8010C03
:1048C000002819D03248FFB2385C002814D0304894
:1048D000FFB23818407800280ED12D48FFB23818A2
:1048E0008078002808D1781E207001202B4908709C
:1048F00000202449087009E07C2020700120214913
:1049000008700020254908707F1CD1E71D480078F9
:10491000002806D018480078002802D01D480078EA
:1049200030702878217851FA80F0022190FBF1F064
:104930003070307817490870F1BD0000BA28FF1FA9
:10494000BB28FF1F2504FF1FB228FF1FB328FF1F2E
:104950002604FF1F2704FF1FC825FF1FB428FF1FC1
:104960004826FF1F2304FF1F1404FF1F1804FF1F06
:104970009410FF1FB628FF1F1004FF1F9810FF1F81
:10498000B728FF1F1104FF1FC826FF1FB528FF1FF0
:104990004827FF1F2404FF1FB828FF1FB928FF1F47
:1049A0006F487049C1606E486F4901616C480021D1
:1049B00041616B48002101606948002141606848FD
:1049C0000021816066480021416265480021016242
:1049D00063480021C1616248002181616048002173
:1049E000816262480021C1606048614901615F489D
:1049F000002141615D48002101605C480021416067
:104A00005A480021816059480021416257480021DD
:104A1000016256480021C16154480021816150481B
:104A20000021816253485449C1605248002101610C
:104A30005048524941614F48002101604D480021D2
:104A400041604C48002181604A4800214162494848
:104A50000021016247480021C1614648002181616F
:104A60003F480021816270470000000090ED031A6A
:104A7000434BD3ED061A31EE211AB0EE410A90ED08
:104A8000051A3F4BD3ED081A31EE211AF0EE410A18
:104A900012B209B2531A01EE103AB8EEC11A80ED03
:104AA000001A09B2374BB3F90030CB1A01EE103AB5
:104AB000B8EEC11A80ED011A334B93ED001AD0ED18
:104AC000001A21EE211AD0ED001A304B93ED002A86
:104AD00001EE212AB0EE420A90ED001A20EE011AF2
:104AE00080ED061A90ED011A20EE811A80ED081A69
:104AF000244B198090ED061AD0ED071A31EE211AD9
:104B0000D0ED081A31EE211A80ED091A90ED091A3C
:104B1000B1EE411A80ED091A90ED091ADFED0D1A78
:104B2000B4EE611AF1EE10FA02D59FED0A0A0DE01B
:104B300090ED090ADFED080AB4EE600AF1EE10FA12
:104B400002DB9FED060A01E090ED090A80ED090AFB
:104B5000704700000000BEC20100BE420000BE421D
:104B60006825FF1F00004041000070419425FF1F91
:104B70000000C0403C25FF1F333393400000C0BFFE
:104B8000EC20FF1FB028FF1F480EFF1F4C0EFF1F19
:104B900010B50400DFF858040078002846D194F9D5
:104BA0000000012804D1DFF84C04FEF7A7FC3DE02B
:104BB00094F90000022804D1DFF83C04FEF79EFCC3
:104BC00034E094F90000032804D1DFF83004FEF744
:104BD00095FC2BE094F90000062804D1DFF82004AE
:104BE000FEF78CFC22E094F90000072804D1DFF8DE
:104BF0001404FEF783FC19E094F90000082804D19E
:104C0000DFF80404FEF77AFC10E094F900000528B0
:104C100004D1DFF8F803FEF771FC07E094F9000017
:104C2000042803D1DFF8E803FEF768FC10BD38B5AF
:104C300004000D0095F9000001286FD1B4F97E053C
:104C40000A2803DAB4F93A060A2825DBB4F97E0506
:104C5000782803DBB4F93A0678281DDAB4F9560748
:104C6000B4F9F81610FB01F0012815DB28786870FC
:104C700002202870A878E870B4F97E05B4F93A16D5
:104C8000884202DA0120A87002E05FF0FF30A870CD
:104C90002800FFF77DFF15E1B4F97E05052807DA46
:104CA000B4F93A06152803DBB4F93A0623280BDBDE
:104CB000B4F93A0605281BDAB4F97E05152817DB86
:104CC000B4F97E05232813DA287868700520287047
:104CD000A878E870B4F93A06052803DA5FF0FF30E7
:104CE000A87001E00120A8702800FFF751FFE9E05B
:104CF00094F81808002800F0E58094F819080028B6
:104D000000F0E0802878687004202870A878E870A7
:104D10000020A8702800FFF73BFFD3E095F90000C2
:104D200002281BD1BB480078142840F0CB8000201B
:104D3000B84908702878687003202870A878E8704F
:104D4000B4F9F806012802DB0120A87002E05FF048
:104D5000FF30A8702800FFF71BFFB3E095F90000B3
:104D6000032815D1B4F97E05052880F2AB80B4F98B
:104D70003A06052880F2A6802878687001202870FD
:104D8000A878E8700020A8702800FFF701FF99E0DC
:104D900095F90000052815D194F81808002800F0AE
:104DA000918094F81908002800F08C8028786870A9
:104DB00006202870A878E8700020A8702800FFF767
:104DC000E7FE7FE095F90000042813D194F8180855
:104DD000002877D194F81908002873D128786870D2
:104DE00001202870A878E8700020A8702800FFF73C
:104DF000CFFE67E095F9000006281FD195F9020063
:104E000001280AD1B4F97E05052806DA28786870E9
:104E1000072028702800FFF7BBFE95F9020010F16B
:104E2000010F4FD1B4F93A0605284BDA287868709B
:104E3000072028702800FFF7ABFE43E095F900003B
:104E400007282CD195F9020001280FD1B4F97E056D
:104E500015280BDB2878687008202870A878E8707F
:104E60005FF0FF30A8702800FFF792FE95F902006E
:104E700010F1010F26D1B4F93A06152822DBB4F956
:104E80003A0623281EDA2878687008202870A87847
:104E9000E8700120A8702800FFF77AFE12E0B4F94C
:104EA0007E0505280EDAB4F93A0605280ADA2878CC
:104EB000687001202870A878E8700020A870280089
:104EC000FFF766FE31BD2DE9F04704000D00160026
:104ED00004F22450070004F29C6080464E4890F98A
:104EE0000000401C002801D52C200AE04A4890F917
:104EF0000000401C2D2801DB002002E0464800781D
:104F0000401C45490870EDB2434890F9000027F86D
:104F10001050414890F90000401E002801D52C2077
:104F20000BE03D4890F90000401E2D2801DB0020D9
:104F300003E0394890F90000401E374991F900100C
:104F400037F8111037F81000081A334991F900109A
:104F500028F81100380000F061F8A7F85C0038006C
:104F600000F06CF8A7F85A00404600F057F8A8F88F
:104F70005C0014F5BC60814604F2FA608246F6B229
:104F8000254890F9000029F81060234890F90000A6
:104F9000401E002801D52C200BE01F4890F900008E
:104FA000401E2D2801DB002003E01B4890F9000083
:104FB000401E194991F9001039F8111039F8100004
:104FC000081A154991F900102AF81100484600F016
:104FD00025F8A9F85C00484600F030F8A9F85A0016
:104FE000504600F01BF8AAF85C00BDE8F08700000E
:104FF000540EFF1FC0680000D06800002069000048
:10500000E0680000F0680000006900009868000097
:1050100010690000C628FF1FCA28FF1F01000020DA
:1050200000222D2A04DA31F812301818521CF8E741
:1050300000B22D2290FBF2F000B2704730B40100B4
:10504000002000222D2A0EDA31F91230B1F95C402D
:105050001B1B31F91240B1F95C50641B634303FA26
:1050600080F0521CEEE700B22D2290FBF2F000B26D
:1050700030BC704780B5002344F620620321002035
:10508000FEF776FC002344F6206204210020FEF7A0
:105090006FFC002344F6206205210020FEF768FC27
:1050A000002344F6206206210020FEF761FC4FF445
:1050B0007A73322205210320FEF75AFC01BD80B528
:1050C0000120FEF7BFFD0220FEF7BCFD01BD80B54B
:1050D0000120FEF73AFE00EE100AB8EEC00A5C4866
:1050E00080ED000A0120FEF746FE0220FEF72DFEAD
:1050F00000EE100AB8EEC00AB1EE400A554880ED45
:10510000000A0220FEF737FE01BD000080B52DED3C
:10511000028BB0EE408AF0EE608A38EE680A4E48A4
:1051200080ED000A38EE280A4C4880ED000A4A4813
:1051300090ED000ADFED440AB4EE600AF1EE10FAD9
:1051400002DB454846490160434890ED000ADFED27
:105150003F0AB4EE600AF1EE10FA02D53E483B4930
:1051600001603E4890ED000ADFED370AB4EE600AB8
:10517000F1EE10FA02DB394839490160374890ED09
:10518000000ADFED320AB4EE600AF1EE10FA02D541
:1051900032482E490160304890ED000AB5EE400AD1
:1051A000F1EE10FA10DB002203210020FEF7B9FC1B
:1051B000294890ED000ABCEEC00A10EE102A042126
:1051C0000020FEF7AEFC11E0002204210020FEF7D3
:1051D000A8FC214890ED000AB1EE400ABCEEC00ADE
:1051E00010EE102A03210020FEF79BFC1B4890EDD7
:1051F000000AB5EE400AF1EE10FA10DB002206219B
:105200000020FEF78EFC154890ED000ABCEEC00AA7
:1052100010EE102A05210020FEF783FC11E0002289
:1052200005210020FEF77DFC0C4890ED000AB1EE50
:10523000400ABCEEC00A10EE102A06210020FEF73C
:1052400070FCBDEC028B01BD01401C4600401CC639
:105250003421FF1F3821FF1F2C21FF1F3021FF1F8A
:1052600000401C4638B5040064B26511EDB2002D53
:1052700002D0012D11D021E0A348006850F0006059
:10528000A1490860A148006830F090009F4908607B
:105290009E4800689D49086014E09D48006850F0F1
:1052A00000609B4908609948006830F410409749B5
:1052B0000860964800689549086003E033219548E6
:1052C000FEF751F864B22000002800F08980012820
:1052D00000F08680032800F0838008284ED009283B
:1052E00051D00A2854D00B2857D00C285AD00D285A
:1052F0005DD00E2860D00F2863D0102870D0112800
:1053000064D0122867D013286AD0142868D01A28CD
:1053100066D01D2864D01E2862D0202861D02128A4
:105320005FD023285DD024285CD025285FD0262894
:1053300062D0272865D0282868D029286BD02A2851
:105340006ED02B2871D02C2874D02D2877D02E2801
:105350007AD02F287DD0302800F0858031287DD06C
:10536000322800F0808033287DD034287BD03A2842
:1053700079D03D2877D03E2875D075E000212020D7
:10538000FDF784FF74E000212120FDF77FFF6FE02F
:1053900000210720FDF77AFF6AE000210820FDF7D1
:1053A00075FF65E000212220FDF770FF60E000211D
:1053B0002320FDF76BFF5BE000214020FDF766FF37
:1053C00056E000214120FDF761FF51E000219820C7
:1053D000FDF75CFF4CE000219920FDF757FF47E007
:1053E00046E045E000218020FDF750FF40E000212D
:1053F0008120FDF74BFF3BE000218220FDF746FFB7
:1054000036E000218320FDF741FF31E0002120201C
:10541000FDF73CFF2CE000212120FDF737FF27E0BE
:1054200000212420FDF732FF22E000212520FDF796
:105430002DFF1DE000212620FDF728FF18E00021A8
:105440002720FDF723FF13E000212A20FDF71EFF90
:105450000EE000212B20FDF719FF09E000211120AB
:10546000FDF714FF04E003E09A212A48FDF77BFFD3
:1054700031BDF8B504000D0064B2661100272900A3
:1054800049B2200040B200F01CF8234876B250F830
:10549000260000680006F8D51F4876B250F82600AE
:1054A000006907001C4876B250F82600006830F00A
:1054B0008000194976B251F826100860380080B291
:1054C000F2BD30B440B2421110F01F0349B28C005B
:1054D00014F00C0454F050040F4D52B255F8225001
:1054E000AC6004240C4D52B255F82250EC60DBB293
:1054F00013F01F0454F04004074D52B255F82250E7
:105500002C6030BC704700003C8004401880044090
:1055100030800440DC6500002C04FF1FDFF800F041
:105520004510FF1FDFF8B41340B231F8201040B22D
:105530000128C0F2788140B2162880F274810022DE
:10554000DFF89C331A7089B2652904DA0022DFF88B
:1055500090335A707DE089B2C92904DA0122DFF85C
:1055600080335A7075E089B2B1F5967F04DC02226F
:10557000DFF86C335A706CE089B2B1F5C87F04DC97
:105580000322DFF85C335A7063E089B2B1F5FA7F29
:1055900004DC0422DFF848335A705AE089B2B1F5CE
:1055A000167F04DC0522DFF838335A7051E089B2E7
:1055B000B1F52F7F04DC0622DFF824335A7048E06F
:1055C00089B2B1F5487F04DC0722DFF814335A7042
:1055D0003FE089B2B1F5617F04DC0822DFF80033D7
:1055E0005A7036E089B2B1F57A7F04DC0922DFF81F
:1055F000F0325A702DE089B240F24D42914203DA06
:105600000A22B74B5A7024E089B2B1F5966F03DCD9
:105610000B22B34B5A701CE089B240F215529142F2
:1056200003DA0C22AE4B5A7013E089B2B1F5AF6FBA
:1056300003DC0D22AA4B5A700BE089B240F2DD5216
:10564000914203DA0E22A64B5A7002E00F22A44BBD
:105650005A7089B2332903DA0022A14B9A7071E0A3
:1056600089B2652903DA01229D4B9A706AE089B2FA
:10567000972903DA02229A4B9A7063E089B2C9290A
:1056800003DA0322964B9A705CE089B2FB2903DAB5
:105690000422934B9A7055E089B2B1F5967F03DCF2
:1056A00005228F4B9A704DE089B2B1F5AF7F03DCD4
:1056B00006228B4B9A7045E089B2B1F5C87F03DCB6
:1056C0000722874B9A703DE089B2B1F5E17F03DC98
:1056D0000822834B9A7035E089B2B1F5FA7F03DC7A
:1056E00009227F4B9A702DE089B240F22722914225
:1056F00003DA0A227A4B9A7024E089B2B1F5167F58
:1057000003DC0B22764B9A701CE089B240F28B22AC
:10571000914203DA0C22724B9A7013E089B2B1F510
:105720002F7F03DC0D226E4B9A700BE089B240F2A2
:10573000EF22914203DA0E22694B9A7002E00F22A7
:10574000674B9A7089B21A2903DA0022644BDA7027
:1057500069E089B2332903DA0122614BDA7062E031
:1057600089B24C2903DA02225D4BDA705BE089B220
:10577000652903DA03225A4BDA7054E089B27E2994
:1057800003DA0422564BDA704DE089B2972903DA26
:105790000522534BDA7046E089B2B02903DA0622BB
:1057A0004F4BDA703FE089B2C92903DA07224C4B2C
:1057B000DA7038E089B2E22903DA0822484BDA705D
:1057C00031E089B2FB2903DA0922454BDA702AE07D
:1057D00089B2B1F58A7F03DA0A22414BDA7022E0FE
:1057E00089B2B1F5967F03DC0B223D4BDA701AE0EB
:1057F00089B2B1F5A37F03DA0C22394BDA7012E0DB
:1058000089B2B1F5AF7F03DC0D22354BDA700AE0C7
:1058100089B2B1F5BC7F03DA0E22314BDA7002E0B7
:105820000F222F4BDA70704710B50400200040B2F1
:10583000FFF778FE2B48007810F0FD00294908702A
:105840002848007850F0100026490870B8202649F2
:10585000087026480078C006FBD424480078C0F3BE
:105860008100C0B20228F8D11D48C3781C48827854
:105870001B4841781A480078FFF750FE174864B279
:1058800010EB8400807810F0070019490870134865
:1058900064B210EB8400C07810F01F0050F040009C
:1058A00014490870114800788006FBD50F4800782D
:1058B0004006FBD50C48007810F03F000A490870FC
:1058C0000A480078C0F38100C0B20328F8D1034829
:1058D00064B230F82400C0B210BD0000600BFF1F9E
:1058E000B80BFF1F0140064000400640064006403E
:1058F000044006400540064080B5002201214A20B0
:10590000FDF78EFE002201214B20FDF789FE0022CB
:1059100001211320FDF784FE002201211820FDF74C
:105920007FFE012201211920FDF77AFE01BD80B51D
:10593000FFF7E2FF00F095F8AE2000F04BF8D5201D
:1059400000F048F8802000F045F8A82000F042F868
:105950003F2000F03FF8D32000F03CF8022000F098
:1059600039F8402000F036F88D2000F033F814208C
:1059700000F030F8202000F02DF8022000F02AF886
:10598000A12000F027F8C02000F024F8DA2000F071
:1059900021F8102000F01EF8812000F01BF8EF2005
:1059A00000F018F8D92000F015F8F12000F012F8F6
:1059B000DB2000F00FF8302000F00CF8A42000F0FD
:1059C00009F8A62000F006F8AF2000F003F800F078
:1059D00055F801BD38B50400002500211820FDF759
:1059E00076FE00200500EDB2082D15DA200604D55C
:1059F00001214B20FDF76BFE03E000214B20FDF75A
:105A000066FE00214A20FDF762FE01214A20FDF7D3
:105A10005EFE64006D1CE6E731BD38B5040000256C
:105A200001211820FDF753FE00200500EDB2082DDE
:105A300016DAE00704D501214B20FDF748FE03E00C
:105A400000214B20FDF743FE00214A20FDF73FFED9
:105A500001214A20FDF73BFEE4B264086D1CE5E736
:105A600031BD80B500211320FDF731FE3220FDF756
:105A700072FD01211320FDF72AFE01BD38B5002477
:105A8000002500200400E4B2082C11DA00200500F3
:105A9000EDB2802D0ADADFF8FC00E4B2802101FBD0
:105AA0000400EDB2002129546D1CF1E7641CEAE703
:105AB00000F001F831BD38B50024002500200400B5
:105AC000E4B2082C1DDAB4F15000C0B2FFF782FF37
:105AD0000220FFF77FFF1020FFF77CFF002005006A
:105AE000EDB2802D0BDADFF8AC00E4B2802101FBCF
:105AF0000400EDB2285CFFF790FF6D1CF0E7641C1A
:105B0000DEE731BDF8B504000D00160000272900BE
:105B1000C9B22000C0B200F026F800200700300013
:105B2000FBF760FBFFB2874207D2FFB2B8572038BD
:105B3000C0B200F003F87F1CF1E7F1BD38B50400F6
:105B4000002500200500EDB2062D0BDADFF8480035
:105B5000E4B2062101FB0400EDB2285CFFF75DFF13
:105B60006D1CF0E731BD38B504000D00B4F15000F4
:105B7000C0B2FFF72FFFEDB2280950F01000C0B2FD
:105B8000FFF728FF15F00F0050F00100C0B2FFF73B
:105B900021FF31BD3C21FF1FE80BFF1F80B5774877
:105BA000006850F470007549086072B6FEF7F8FEA0
:105BB00000F00AF900F036F800F025F8FEF7AAFB2D
:105BC000FEF7B7FBFFF756FAFFF779FA00F02AF96C
:105BD00000F0A6F900F05AF80020FDF757FC00F09D
:105BE000B2F800F097F8FFF7A2FE62B6644A1421FB
:105BF0000420FFF787FF4FF47A70FDF7ACFC962086
:105C000000F024FA01BD80B55FF4E1310420FDF716
:105C1000A0F90FF25901452000F079FA0420FDF7B0
:105C2000CAFA01BD80B55FF4E1310120FDF791F9B9
:105C30000FF211013F2000F06AFA0120FDF7BBFAD4
:105C400001BD000080B50120FDF7A9FA01280CD1A3
:105C50004C480078012808D100A90120FDF783FAFB
:105C60009DF900100420FDF78DFA01BD80B50420D8
:105C7000FDF795FA012808D100A90420FDF773FA71
:105C80009DF80000C0B2FCF75AFE01BD80B53E4948
:105C90004620FDF7FBFA3C494720FDF7F7FA0FF2E3
:105CA0001501692000F033FA002200214520FDF79C
:105CB000B7FC01BD80B535480068400604D54020DA
:105CC0003249086000F00AF830480068000604D540
:105CD00080202E49086000F001F801BD80B52C48F5
:105CE000006801280ED12B48006801280AD12A48F3
:105CF0000068002806D12948002101600020FDF736
:105D0000E2FBFFE701BD0021A0F85C100021A0F834
:105D10005A1070470120224908700120204948701C
:105D200000201F49887000201D49C87001201D49AE
:105D3000087001201B49487000201A498870002013
:105D40001849C870704780B51748FFF7DCFF17483F
:105D5000FFF7D9FF1648FFF7D6FF1648FFF7D3FF26
:105D60001548FFF7D0FF1548FFF7CDFF1448FFF7A0
:105D7000CAFF1448FFF7C7FF01BD000088ED00E02F
:105D80002C690000BC28FF1F00010900A0B00440DE
:105D90001812FE431C12FE431412FE43500EFF1F46
:105DA000E420FF1FE820FF1FC015FF1F7C16FF1F08
:105DB0003817FF1F9617FF1FE41DFF1FA01EFF1FB0
:105DC0005C1FFF1FBA1FFF1F0020DFF84010087282
:105DD0000020DFF838100875DFF8300000218161FD
:105DE000DFF828000021C161DFF8200000210162F6
:105DF000DFF8180000214162DFF810000021816205
:105E0000DFF808000021C16270470000EC20FF1F8E
:105E1000012110F01F029140324A40B2430942F87A
:105E20002310704780B530480068052101FB00F160
:105E3000002000F083F90FF21101542000F067F9FF
:105E40004420FFF7E5FF01BD2848006850F001003D
:105E50002649086026480078401C25490870012022
:105E60002449087022480078022190FBF1F202FBDD
:105E70001102002A02D101201F4908701C48007835
:105E8000032190FBF1F201FB1200002802D1012056
