:10000000F8FF002011040000FF290000FF29000074
:10001000FF290000FF290000FF290000FF29000040
:10002000FF290000FF290000FF290000FF29000030
:10003000FF290000FF290000FF290000FF29000020
:10004000FF290000FF290000FF290000FF29000010
:10040000FFFFFFFFFFFFFFFFFFFFFFFFFEFFFFFFFD
:1004100062B608F023F9FEE789B24FF4807291FBCF
:10042000F2F2994BC0B203F8102089B24FF48072F7
:1004300091FBF2F303FB1213934AC0B212EB40029A
:100440005370704770B5040000260025AA208F491C
:10045000F6B27054761CAA208C49F6B27054761C01
:1004600002208A49F6B27054761C00208749F6B201
:100470007054761C20788549F6B27054641C761C42
:1004800020788249F6B27054641C761C20787F492B
:10049000F6B27054641C761C20787C49F6B2705415
:1004A000641C761C20787949F6B27054641C761C62
:1004B00020787649F6B27054641C761C2078734913
:1004C000F6B27054641C761C20787049F6B27054F1
:1004D000641C761C20786D49F6B27054641C761C3E
:1004E00020786A49F6B27054641C761C20786749FB
:1004F000F6B27054641C761C20786449F6B27054CD
:10050000641C761C20786149F6B27054641C761C19
:1005100020785E49F6B27054641C761C20785B49E2
:10052000F6B27054641C761C20785849F6B27054A8
:10053000641C761C20785549F6B27054641C761CF5
:1005400020785249F6B27054641C761C301F4F4913
:10055000C870002005000020C0B2F6B2B04205D23B
:100560004A49C0B2415C4D19401CF5E74748F6B214
:100570003554761C3100C9B2444800F001F870BD12
:1005800070B504000D000026F6B2EDB2AE4208D2FE
:100590003E48F6B2315649B2042001F0DBFF761C2A
:1005A000F2E770BD10B5040039480078002808D182
:1005B000E4B2AA2C05D101203549087035480470F1
:1005C00061E033480078012808D1E4B2AF2C05D1AE
:1005D00002202F4908702F48447054E02C480078BE
:1005E000022808D1E4B2F12C05DA0320284908706A
:1005F0002848847047E02648007803280DD1E4B2EB
:10060000322C0ADA0420224908702248C470224899
:10061000047000202149087035E01D480078042846
:100620001AD11D480078002816D01B480078401EBB
:1006300019490870174819490978081804711748AA
:100640000078401C154908701348007800281AD11A
:1006500005200F49087016E00D48007805280FD1D5
:1006600000200B4908700B480C49097808180471E0
:100670000A480078411DC9B2064800F011F802E0AE
:1006800000200349087010BD5C15FF1F2815FF1FCF
:100690005920FF1F8015FF1F5720FF1F5820FF1FE5
:1006A000F8B504000D00002600270020C0B2EDB20E
:1006B000691E884204DAC0B2015D8E19401CF5E75C
:1006C000EDB2281910F8010CF6B2864241F0F0851F
:1006D0002078AA2802D16078AF2801D001F0E8BDC7
:1006E000A078012825D1207902280DD1DFF8E00D6E
:1006F0000078002804D10120DFF8D41D087003E041
:100700000020DFF8CC1D08702079012803D10120DA
:10071000DFF8C01D08702079042803D10220DFF81B
:10072000B41D08702079052803D10320DFF8A41D2B
:100730000870A078102840F083812079617951EA0F
:1007400000200700BFB24FF6FF70874227D0BFB22C
:10075000DFF8840DC01901F039FFDFF8802DDFF8D4
:10076000803D01F04BFF02F02BF8DFF8781DC860E8
:10077000DFF8700D90ED030AB5EE400AF1EE10FAC5
:100780000DD5DFF8600D90ED030AF3EE0E0A30EEA2
:10079000200AB1EE400ADFF84C0D80ED030AA07983
:1007A000E17951EA00200700BFB24FF6FF7087429F
:1007B00027D0BFB2DFF8200DC01901F007FFDFF826
:1007C0001C2DDFF81C3D01F019FF01F0F9FFDFF8E7
:1007D000141D0861DFF80C0D90ED040AB5EE400A17
:1007E000F1EE10FA0DD5DFF8FC0C90ED040AF3EEF3
:1007F0000E0A30EE200AB1EE400ADFF8E80C80ED78
:10080000040A207A617A51EA00200700BFB24FF64D
:10081000FF70874227D0BFB2DFF8BC0CC01901F0CF
:10082000D5FEDFF8B82CDFF8B83C01F0E7FE01F0A8
:10083000C7FFDFF8B01C4861DFF8A80C90ED050A8F
:10084000B5EE400AF1EE10FA0DD5DFF8980C90EDF8
:10085000050AF3EE0E0A30EE200AB1EE400ADFF888
:10086000840C80ED050AA07AE17A51EA00200700A5
:10087000BFB24FF6FF7087422DD0BFB2DFF8580CE1
:10088000C01901F0A3FEDFF8542CDFF8543C01F04E
:10089000B5FE01F095FFDFF8501CC860DFF8480C8A
:1008A00090ED030AB5EE400AF1EE10FA0DD5DFF82F
:1008B000380C90ED030AF3EE0E0A30EE200AB1EE8A
:1008C000400ADFF8240C80ED030ADFF8200CDFF883
:1008D000181CC968C160207B617B51EA00200700B9
:1008E000BFB24FF6FF7087422DD0BFB2DFF8E80BE2
:1008F000C01901F06BFEDFF8E42BDFF8E43B01F0F8
:100900007DFE01F05DFFDFF8E01B0861DFF8D80B2A
:1009100090ED040AB5EE400AF1EE10FA0DD5DFF8BD
:10092000C80B90ED040AF3EE0E0A30EE200AB1EE89
:10093000400ADFF8B40B80ED040ADFF8B00BDFF8F3
:10094000A81B09690161A07BE17B51EA0020070037
:10095000BFB24FF6FF7087422DD0BFB2DFF8780BE1
:10096000C01901F033FEDFF8742BDFF8743B01F09F
:1009700045FE01F025FFDFF8701B4861DFF8680BCA
:1009800090ED050AB5EE400AF1EE10FA0DD5DFF84C
:10099000580B90ED050AF3EE0E0A30EE200AB1EE88
:1009A000400ADFF8440B80ED050ADFF8400BDFF862
:1009B000381B49694161A07CE17C51EA00200700B5
:1009C000BFB24FF6FF70874203D0DFF8240BA0F8C8
:1009D0002271207D617D51EA00200700BFB24FF6F1
:1009E000FF70874227D0BFB2DFF8EC0AC01901F0D0
:1009F000EDFDDFF8E82ADFF8E83A01F0FFFD01F04D
:100A0000DFFEDFF8E41A4863DFF8DC0A90ED0D0A38
:100A1000B5EE400AF1EE10FA0DD5DFF8CC0A90EDF4
:100A20000D0AF3EE0E0A30EE200AB1EE400ADFF8AE
:100A3000B80A80ED0D0A3100C9B2A07801F039FC86
:100A4000A078112840F0A8802079617951EA00202F
:100A50000700BFB2B7F5FA6F19DABFB2B7F57A7F00
:100A60000ADABFB2784200EE100AB8EEC00ADFF828
:100A7000840A80ED000A0AE0BFB2B7F57A7000EE92
:100A8000100AB8EEC00ADFF86C0A80ED000AA079FF
:100A9000E17951EA00200700BFB24FF6FF708742AC
:100AA00003D00020DFF82C1A0870207A617A51EA0E
:100AB00000200700BFB24FF6FF70874203D004202A
:100AC000DFF8101A0870A07AE17A51EA00200700D6
:100AD000BFB24FF6FF70874227D0BFB2DFF8F809E8
:100AE000C01901F073FDDFF8F429DFF8F43901F0E3
:100AF00085FD01F065FEDFF8001A8862DFF8F8096D
:100B000090ED0A0AB5EE400AF1EE10FA0DD5DFF8C5
:100B1000E80990ED0A0AF3EE0E0A30EE200AB1EE73
:100B2000400ADFF8D40980ED0A0AA07BE17B51EA94
:100B300000200700BFB24FF6FF7087422CD0BFB233
:100B4000DFF89409C01901F041FDDFF89029DFF8C2
:100B5000903901F053FD01F033FEDFF89C19C862B3
:100B6000DFF8940990ED0B0AB5EE400AF1EE10FAA9
:100B70000DD5DFF8840990ED0B0AF3EE0E0A30EE86
:100B8000200AB1EE400ADFF8700980ED0B0A31004F
:100B9000C9B2A07801F08DFBA078122840F0F08255
:100BA0002079617951EA00200700BFB2152F4ADA97
:100BB000DFF8440990F83000002822D1BFB2B7F125
:100BC0000A0000EE100AB8EEC00ADFF8300980ED26
:100BD000000ADFF8280990ED000AB5EE400AF1EEB0
:100BE00010FA30D5DFF8140990ED000AF2EE040A8D
:100BF00030EE200AB1EE400ADFF8000980ED000A6D
:100C000021E0BFB2B7F10A0000EE100AB8EEC00A48
:100C1000DFF8A40980ED000ADFF89C0990ED000AD6
:100C2000B5EE400AF1EE10FA0DD5DFF88C0990ED23
:100C3000000AF2EE040A30EE200AB1EE400ADFF8B4
:100C4000780980ED000AA079E17951EA00200700D7
:100C5000BFB2152F4ADADFF8A00890F8300000285C
:100C600022D1BFB2B7F10A0000EE100AB8EEC00AF6
:100C7000DFF8880880ED010ADFF8800890ED010AAE
:100C8000B5EE400AF1EE10FA30D5DFF8700890EDBD
:100C9000010AF2EE040A30EE200AB1EE400ADFF853
:100CA0005C0880ED010A21E0BFB2B7F10A0000EE56
:100CB000100AB8EEC00ADFF8000980ED010ADFF87B
:100CC000F80890ED010AB5EE400AF1EE10FA0DD5E4
:100CD000DFF8E40890ED010AF2EE040A30EE200A93
:100CE000B1EE400ADFF8D00880ED010A207A617A7F
:100CF00051EA00200700BFB2152F4ADADFF8F807E3
:100D000090F83000002822D1BFB2B7F10A0000EEFF
:100D1000100AB8EEC00ADFF8E40780ED020ADFF837
:100D2000DC0790ED020AB5EE400AF1EE10FA30D57C
:100D3000DFF8C80790ED020AF2EE040A30EE200A4E
:100D4000B1EE400ADFF8B40780ED020A21E0BFB23D
:100D5000B7F10A0000EE100AB8EEC00ADFF8580832
:100D600080ED020ADFF8500890ED020AB5EE400A65
:100D7000F1EE10FA0DD5DFF8400890ED020AF2EE20
:100D8000040A30EE200AB1EE400ADFF82C0880EDAC
:100D9000020AA07AE17A51EA00200700BFB2152FBB
:100DA0004ADADFF8540790F83000002822D1BFB2A9
:100DB000B7F10A0000EE100AB8EEC00ADFF83C07EF
:100DC00080ED070ADFF8340790ED070AB5EE400A18
:100DD000F1EE10FA30D5DFF8240790ED070AF2EEB5
:100DE000040A30EE200AB1EE400ADFF8100780ED69
:100DF000070A21E0BFB2B7F10A0000EE100AB8EE10
:100E0000C00ADFF8B40780ED070ADFF8AC0790ED01
:100E1000070AB5EE400AF1EE10FA0DD5DFF8980793
:100E200090ED070AF2EE040A30EE200AB1EE400A15
:100E3000DFF8840780ED070A207B617B51EA002000
:100E40000700BFB2152F4ADADFF8AC0690F8300081
:100E5000002822D1BFB2B7F10A0000EE100AB8EEA6
:100E6000C00ADFF8980680ED080ADFF8900690EDDA
:100E7000080AB5EE400AF1EE10FA30D5DFF87C062C
:100E800090ED080AF2EE040A30EE200AB1EE400AB4
:100E9000DFF8680680ED080A21E0BFB2B7F10A006A
:100EA00000EE100AB8EEC00ADFF80C0780ED080A61
:100EB000DFF8040790ED080AB5EE400AF1EE10FAEB
:100EC0000DD5DFF8F40690ED080AF2EE040A30EED4
:100ED000200AB1EE400ADFF8E00680ED080AA07BA8
:100EE000E17B51EA00200700BFB2152F4ADADFF894
:100EF000080690F83000002822D1BFB2B7F10A00EE
:100F000000EE100AB8EEC00ADFF8F00580ED090A1D
:100F1000DFF8E80590ED090AB5EE400AF1EE10FAA7
:100F200030D5DFF8D80590ED090AF2EE040A30EE6C
:100F3000200AB1EE400ADFF8C40580ED090A21E07D
:100F4000BFB2B7F10A0000EE100AB8EEC00ADFF82F
:100F5000680680ED090ADFF8600690ED090AB5EE33
:100F6000400AF1EE10FA0DD5DFF84C0690ED090AB3
:100F7000F2EE040A30EE200AB1EE400ADFF838063D
:100F800080ED090A207C617C51EA00200700BFB295
:100F9000152F4ADADFF8600590F83000002822D1DA
:100FA000BFB2B7F10A0000EE100AB8EEC00ADFF8CF
:100FB0004C0580ED0E0ADFF8440590ED0E0AB5EE03
:100FC000400AF1EE10FA30D5DFF8300590ED0E0A48
:100FD000F2EE040A30EE200AB1EE400ADFF81C05FA
:100FE00080ED0E0A21E0BFB2B7F10A0000EE100A50
:100FF000B8EEC00ADFF8C00580ED0E0ADFF8B805CC
:1010000090ED0E0AB5EE400AF1EE10FA0DD5DFF8BC
:10101000A80590ED0E0AF2EE040A30EE200AB1EEB9
:10102000400ADFF8940580ED0E0AA07CE17C51EACD
:1010300000200700BFB2152F4ADADFF8BC0490F891
:101040003000002822D1BFB2B7F10A0000EE100A2A
:10105000B8EEC00ADFF8A40480ED0F0ADFF89C04A4
:1010600090ED0F0AB5EE400AF1EE10FA30D5DFF838
:101070008C0490ED0F0AF2EE040A30EE200AB1EE75
:10108000400ADFF8780480ED0F0A21E0BFB2B7F123
:101090000A0000EE100AB8EEC00ADFF81C0580ED69
:1010A0000F0ADFF8140590ED0F0AB5EE400AF1EED5
:1010B00010FA0DD5DFF8000590ED0F0AF2EE040AE4
:1010C00030EE200AB1EE400ADFF8EC0480ED0F0AA2
:1010D000207D617D51EA00200700BFB2152F4ADA5A
:1010E000DFF8140490F83000002822D1BFB2B7F125
:1010F0000A0000EE100AB8EEC00ADFF8000480ED26
:10110000100ADFF8F80390ED100AB5EE400AF1EE90
:1011100010FA30D5DFF8E40390ED100AF2EE040A7D
:1011200030EE200AB1EE400ADFF8D00380ED100A5D
:1011300021E0BFB2B7F10A0000EE100AB8EEC00A13
:10114000DFF8740480ED100ADFF86C0490ED100AEB
:10115000B5EE400AF1EE10FA0DD5DFF85C0490ED23
:10116000100AF2EE040A30EE200AB1EE400ADFF86F
:10117000480480ED100A3100C9B2A07801F099F856
:10118000A078132840F0DA822079617951EA0020B2
:101190000700BFB2152F46DADFF85C0390F8300085
:1011A00000281ED1BFB2B7F10A0000EE100AB8EE57
:1011B000C00AD24880ED1C0AD04890ED1C0AB5EE5A
:1011C000400AF1EE10FA2ED5CC4890ED1C0AF2EE52
:1011D000040A30EE200AB1EE400AC84880ED1C0A2D
:1011E00021E0BFB2B7F10A0000EE100AB8EEC00A63
:1011F000DFF8C40380ED1C0ADFF8BC0390ED1C0A85
:10120000B5EE400AF1EE10FA0DD5DFF8AC0390ED23
:101210001C0AF2EE040A30EE200AB1EE400ADFF8B2
:10122000980380ED1C0AA079E17951EA00200700BB
:10123000BFB2152F41DAB04890F8300000281ED117
:10124000BFB2B7F10A0000EE100AB8EEC00AAB4810
:1012500080ED1D0AA94890ED1D0AB5EE400AF1EE99
:1012600010FA2AD5A54890ED1D0AF2EE040A30EED8
:10127000200AB1EE400AA14880ED1D0A1DE0BFB270
:10128000B7F10A0000EE100AB8EEC00ACA4880EDB5
:101290001D0AC94890ED1D0AB5EE400AF1EE10FA9C
:1012A0000BD5C54890ED1D0AF2EE040A30EE200A77
:1012B000B1EE400AC04880ED1D0A207A617A51EAF9
:1012C00000200700BFB2152F41DA8B4890F830009C
:1012D00000281ED1BFB2B7F10A0000EE100AB8EE26
:1012E000C00A864880ED1E0A844890ED1E0AB5EEBD
:1012F000400AF1EE10FA2AD5804890ED1E0AF2EE6F
:10130000040A30EE200AB1EE400A7C4880ED1E0A45
:101310001DE0BFB2B7F10A0000EE100AB8EEC00A35
:10132000A54880ED1E0AA44890ED1E0AB5EE400ABD
:10133000F1EE10FA0BD5A04890ED1E0AF2EE040A69
:1013400030EE200AB1EE400A9B4880ED1E0AA07ADA
:10135000E17A51EA00200700BFB2152F41DA664852
:1013600090F8300000281ED1BFB2B7F10A0000EE9D
:10137000100AB8EEC00A614880ED230A5F4890ED7C
:10138000230AB5EE400AF1EE10FA2AD55B4890ED3B
:10139000230AF2EE040A30EE200AB1EE400A574862
:1013A00080ED230A1DE0BFB2B7F10A0000EE100A7B
:1013B000B8EEC00A804880ED230A7F4890ED230AEA
:1013C000B5EE400AF1EE10FA0BD57B4890ED230AFA
:1013D000F2EE040A30EE200AB1EE400A764880EDC3
:1013E000230A207B617B51EA00200700BFB2152F42
:1013F00041DA414890F8300000281ED1BFB2B7F161
:101400000A0000EE100AB8EEC00A3C4880ED240A3B
:101410003A4890ED240AB5EE400AF1EE10FA2AD5CA
:10142000364890ED240AF2EE040A30EE200AB1EEBE
:10143000400A324880ED240A1DE0BFB2B7F10A002D
:1014400000EE100AB8EEC00A5B4880ED240A5A4844
:1014500090ED240AB5EE400AF1EE10FA0BD556488D
:1014600090ED240AF2EE040A30EE200AB1EE400AB2
:10147000514880ED240AA07BE17B51EA002007005F
:10148000BFB2152F5ADA1C4890F83000002837D127
:10149000BFB2B7F10A0000EE100AB8EEC00A174852
:1014A00080ED250A154890ED250AB5EE400AF1EECB
:1014B00010FA43D5114890ED250AF2EE040A30EEF9
:1014C000200AB1EE400A0D4880ED250A36E000BF43
:1014D000680DFF1F690DFF1FD08AFFFFFCA9F1D225
:1014E0004D62503F5414FF1F9014FF1FCC14FF1F78
:1014F000D416FF1F640DFF1F0410FF1FD804FF1F29
:10150000BFB2B7F10A0000EE100AB8EEC00A2A48CE
:1015100080ED250A284890ED250AB5EE400AF1EE47
:1015200010FA0BD5244890ED250AF2EE040A30EEAD
:10153000200AB1EE400A204880ED250A207C617C1B
:1015400051EA00200700BFB2152F4CDADFF8AC0DCE
:1015500090F83000002822D1BFB2B7F10A0000EEA7
:10156000100AB8EEC00ADFF8980D80ED2A0ADFF8FD
:10157000900D90ED2A0AB5EE400AF1EE10FA32D540
:10158000DFF87C0D90ED2A0AF2EE040A30EE200A14
:10159000B1EE400ADFF8680D80ED2A0A23E0BFB201
:1015A000B7F10A0000EE100AB8EEC00A024880ED5A
:1015B0002A0A014802E000BF1404FF1F90ED2A0A26
:1015C000B5EE400AF1EE10FA0DD5DFF8380D90EDCA
:1015D0002A0AF2EE040A30EE200AB1EE400ADFF8E1
:1015E000240D80ED2A0AA07CE17C51EA002007004E
:1015F000BFB2152F4ADADFF8040D90F8300000284A
:1016000022D1BFB2B7F10A0000EE100AB8EEC00A4C
:10161000DFF8EC0C80ED2B0ADFF8E40C90ED2B0AE0
:10162000B5EE400AF1EE10FA30D5DFF8D40C90EDAB
:101630002B0AF2EE040A30EE200AB1EE400ADFF87F
:10164000C00C80ED2B0A21E0BFB2B7F10A0000EE1A
:10165000100AB8EEC00ADFF8AC0C80ED2B0ADFF8F8
:10166000A40C90ED2B0AB5EE400AF1EE10FA0DD560
:10167000DFF8900C90ED2B0AF2EE040A30EE200A0F
:10168000B1EE400ADFF87C0C80ED2B0A207D617DF5
:1016900051EA00200700BFB2152F4ADADFF85C0CD0
:1016A00090F83000002822D1BFB2B7F10A0000EE56
:1016B000100AB8EEC00ADFF8480C80ED2C0ADFF8FB
:1016C000400C90ED2C0AB5EE400AF1EE10FA30D540
:1016D000DFF82C0C90ED2C0AF2EE040A30EE200A12
:1016E000B1EE400ADFF8180C80ED2C0A21E0BFB201
:1016F000B7F10A0000EE100AB8EEC00ADFF8040CD9
:1017000080ED2C0ADFF8FC0B90ED2C0AB5EE400AB8
:10171000F1EE10FA0DD5DFF8EC0B90ED2C0AF2EE9D
:10172000040A30EE200AB1EE400ADFF8D80B80ED53
:101730002C0A3100C9B2A07800F0BBFDA0781428B3
:1017400040F0F0822079617951EA00200700BFB2B1
:10175000152F4ADADFF8A40B90F83000002822D1C8
:10176000BFB2B7F10A0000EE100AB8EEC00ADFF807
:10177000900B80ED040ADFF8880B90ED040AB5EEBB
:10178000400AF1EE10FA30D5DFF8740B90ED040A40
:10179000F2EE040A30EE200AB1EE400ADFF8600BE8
:1017A00080ED040A21E0BFB2B7F10A0000EE100A92
:1017B000B8EEC00ADFF84C0B80ED040ADFF8440BEA
:1017C00090ED040AB5EE400AF1EE10FA0DD5DFF8FF
:1017D000340B90ED040AF2EE040A30EE200AB1EE6A
:1017E000400ADFF8200B80ED040AA079E17951EA84
:1017F00000200700BFB2152F4ADADFF8000B90F87F
:101800003000002822D1BFB2B7F10A0000EE100A62
:10181000B8EEC00ADFF8E80A80ED050ADFF8E00A52
:1018200090ED050AB5EE400AF1EE10FA30D5DFF87A
:10183000D00A90ED050AF2EE040A30EE200AB1EE6D
:10184000400ADFF8BC0A80ED050A21E0BFB2B7F11B
:101850000A0000EE100AB8EEC00ADFF8A80A80ED10
:10186000050ADFF8A00A90ED050AB5EE400AF1EE90
:1018700010FA0DD5DFF88C0A90ED050AF2EE040A95
:1018800030EE200AB1EE400ADFF8780A80ED050A52
:10189000207A617A51EA00200700BFB2152F4ADA98
:1018A000DFF8580A90F83000002822D1BFB2B7F113
:1018B0000A0000EE100AB8EEC00ADFF8440A80ED14
:1018C000060ADFF83C0A90ED060AB5EE400AF1EE92
:1018D00010FA30D5DFF8280A90ED060AF2EE040A75
:1018E00030EE200AB1EE400ADFF8140A80ED060A55
:1018F00021E0BFB2B7F10A0000EE100AB8EEC00A4C
:10190000DFF8000A80ED060ADFF8F80990ED060A14
:10191000B5EE400AF1EE10FA0DD5DFF8E80990EDCA
:10192000060AF2EE040A30EE200AB1EE400ADFF8B1
:10193000D40980ED060AA07AE17A51EA0020070076
:10194000BFB2152F4ADADFF8B40990F8300000284A
:1019500022D1BFB2B7F10A0000EE100AB8EEC00AF9
:10196000DFF89C0980ED0B0ADFF8940990ED0B0A73
:10197000B5EE400AF1EE10FA30D5DFF8840990EDAB
:101980000B0AF2EE040A30EE200AB1EE400ADFF84C
:10199000700980ED0B0A21E0BFB2B7F10A0000EE3A
:1019A000100AB8EEC00ADFF85C0980ED0B0ADFF818
:1019B000540990ED0B0AB5EE400AF1EE10FA0DD580
:1019C000DFF8400990ED0B0AF2EE040A30EE200A2F
:1019D000B1EE400ADFF82C0980ED0B0A207B617B19
:1019E00051EA00200700BFB2152F4ADADFF80C09D0
:1019F00090F83000002822D1BFB2B7F10A0000EE03
:101A0000100AB8EEC00ADFF8F80880ED0C0ADFF81B
:101A1000F00890ED0C0AB5EE400AF1EE10FA30D560
:101A2000DFF8DC0890ED0C0AF2EE040A30EE200A32
:101A3000B1EE400ADFF8C80880ED0C0A21E0BFB221
:101A4000B7F10A0000EE100AB8EEC00ADFF8B408D9
:101A500080ED0C0ADFF8AC0890ED0C0AB5EE400AF8
:101A6000F1EE10FA0DD5DFF89C0890ED0C0AF2EEBD
:101A7000040A30EE200AB1EE400ADFF8880880ED53
:101A80000C0AA07BE17B51EA00200700BFB2152FB2
:101A90004ADADFF8680890F83000002822D1BFB297
:101AA000B7F10A0000EE100AB8EEC00ADFF85008DD
:101AB00080ED0D0ADFF8480890ED0D0AB5EE400AFA
:101AC000F1EE10FA30D5DFF8380890ED0D0AF2EE9D
:101AD000040A30EE200AB1EE400ADFF8240880ED57
:101AE0000D0A21E0BFB2B7F10A0000EE100AB8EE0D
:101AF000C00ADFF8100880ED0D0ADFF8080890ED45
:101B00000D0AB5EE400AF1EE10FA0DD5DFF8F40734
:101B100090ED0D0AF2EE040A30EE200AB1EE400A12
:101B2000DFF8E00780ED0D0A207C617C51EA00209F
:101B30000700BFB2152F4ADADFF8C00790F830006F
:101B4000002822D1BFB2B7F10A0000EE100AB8EEA9
:101B5000C00ADFF8AC0780ED120ADFF8A40790EDA9
:101B6000120AB5EE400AF1EE10FA30D5DFF8900710
:101B700090ED120AF2EE040A30EE200AB1EE400AAD
:101B8000DFF87C0780ED120A21E0BFB2B7F10A004E
:101B900000EE100AB8EEC00ADFF8680780ED120AFE
:101BA000DFF8600790ED120AB5EE400AF1EE10FA88
:101BB0000DD5DFF8500790ED120AF2EE040A30EE70
:101BC000200AB1EE400ADFF83C0780ED120AA07C43
:101BD000E17C51EA00200700BFB2152F4ADADFF896
:101BE0001C0790F83000002822D1BFB2B7F10A00DC
:101BF00000EE100AB8EEC00ADFF8040780ED130A01
:101C0000DFF8FC0690ED130AB5EE400AF1EE10FA8B
:101C100030D5DFF8EC0690ED130AF2EE040A30EE50
:101C2000200AB1EE400ADFF8D80680ED130A21E061
:101C3000BFB2B7F10A0000EE100AB8EEC00ADFF832
:101C4000C40680ED130ADFF8BC0690ED130AB5EE6A
:101C5000400AF1EE10FA0DD5DFF8A80690ED130A50
:101C6000F2EE040A30EE200AB1EE400ADFF89406E4
:101C700080ED130A207D617D51EA00200700BFB28C
:101C8000152F4ADADFF8740690F83000002822D1C8
:101C9000BFB2B7F10A0000EE100AB8EEC00ADFF8D2
:101CA000600680ED140ADFF8580690ED140AB5EED0
:101CB000400AF1EE10FA30D5DFF8440690ED140A30
:101CC000F2EE040A30EE200AB1EE400ADFF83006E8
:101CD00080ED140A21E0BFB2B7F10A0000EE100A4D
:101CE000B8EEC00ADFF81C0680ED140ADFF814060F
:101CF00090ED140AB5EE400AF1EE10FA0DD5DFF8BA
:101D0000040690ED140AF2EE040A30EE200AB1EE59
:101D1000400ADFF8F00580ED140A3100C9B2A0785E
:101D200000F0C7FAA078152840F0C28220796179C6
:101D300051EA00200700BFB2152F4ADADFF8BC05D0
:101D400090F83000002822D1BFB2B7F10A0000EEAF
:101D5000100AB8EEC00ADFF8A80580ED200ADFF807
:101D6000A00590ED200AB5EE400AF1EE10FA30D54C
:101D7000DFF88C0590ED200AF2EE040A30EE200A1E
:101D8000B1EE400ADFF8780580ED200A21E0BFB20D
:101D9000B7F10A0000EE100AB8EEC00ADFF86405D9
:101DA00080ED200ADFF85C0590ED200AB5EE400AD0
:101DB000F1EE10FA0DD5DFF84C0590ED200AF2EEA9
:101DC000040A30EE200AB1EE400ADFF8380580ED53
:101DD000200AA079E17951EA00200700BFB2152F4F
:101DE0004ADADFF8180590F83000002822D1BFB297
:101DF000B7F10A0000EE100AB8EEC00ADFF80005DD
:101E000080ED210ADFF8F80490ED210AB5EE400AD2
:101E1000F1EE10FA30D5DFF8E80490ED210AF2EE89
:101E2000040A30EE200AB1EE400ADFF8D40480ED57
:101E3000210A21E0BFB2B7F10A0000EE100AB8EEA5
:101E4000C00ADFF8C00480ED210ADFF8B80490ED85
:101E5000210AB5EE400AF1EE10FA0DD5DFF8A40420
:101E600090ED210AF2EE040A30EE200AB1EE400AAB
:101E7000DFF8900480ED210A207A617A51EA00208F
:101E80000700BFB2152F4ADADFF8700490F830006F
:101E9000002822D1BFB2B7F10A0000EE100AB8EE56
:101EA000C00ADFF85C0480ED220ADFF8540490EDEC
:101EB000220AB5EE400AF1EE10FA30D5DFF8400400
:101EC00090ED220AF2EE040A30EE200AB1EE400A4A
:101ED000DFF82C0480ED220A21E0BFB2B7F10A003E
:101EE00000EE100AB8EEC00ADFF8180480ED220AEE
:101EF000DFF8100490ED220AB5EE400AF1EE10FA78
:101F00000DD5DFF8000490ED220AF2EE040A30EE5F
:101F1000200AB1EE400ADFF8EC0380ED220AA07A35
:101F2000E17A51EA00200700BFB2152F49DADFF845
:101F3000CC0390F83000002822D1BFB2B7F10A00DC
:101F400000EE100AB8EEC00ADFF8B40380ED270AED
:101F5000DFF8AC0390ED270AB5EE400AF1EE10FA77
:101F60002FD5DFF89C0390ED270AF2EE040A30EE3D
:101F7000200AB1EE400ADFF8880380ED270A20E04E
:101F8000BFB2B7F10A0000EE100AB8EEC00ADFF8DF
:101F9000740380ED270ADFF86C0390ED270AB5EE95
:101FA000400AF1EE10FA0CD5DFF8580390ED270A3D
:101FB000F2EE040A30EE200AB1EE400AD14880ED7C
:101FC000270A207B617B51EA00200700BFB2152F52
:101FD00041DACA4890F8300000281ED1BFB2B7F1EC
:101FE0000A0000EE100AB8EEC00AC54880ED280AC3
:101FF000C34890ED280AB5EE400AF1EE10FA2AD552
:10200000BF4890ED280AF2EE040A30EE200AB1EE45
:10201000400ABB4880ED280A1DE0BFB2B7F10A00B4
:1020200000EE100AB8EEC00AB64880ED280AB5489E
:1020300090ED280AB5EE400AF1EE10FA0BD5B14842
:1020400090ED280AF2EE040A30EE200AB1EE400AC2
:10205000AC4880ED280AA07BE17B51EA0020070014
:10206000BFB2152F41DAA54890F8300000281ED1E4
:10207000BFB2B7F10A0000EE100AB8EEC00AA048DD
:1020800080ED290A9E4890ED290AB5EE400AF1EE4E
:1020900010FA2AD59A4890ED290AF2EE040A30EE99
:1020A000200AB1EE400A964880ED290A1DE0BFB231
:1020B000B7F10A0000EE100AB8EEC00A914880EDB0
:1020C000290A904890ED290AB5EE400AF1EE10FA7F
:1020D0000BD58C4890ED290AF2EE040A30EE200A66
:1020E000B1EE400A874880ED290A207C617C51EAE4
:1020F00000200700BFB2152F41DA804890F8300069
:1021000000281ED1BFB2B7F10A0000EE100AB8EEE7
:10211000C00A7B4880ED2E0A794890ED2E0AB5EE74
:10212000400AF1EE10FA2AD5754890ED2E0AF2EE2B
:10213000040A30EE200AB1EE400A714880ED2E0A02
:102140001DE0BFB2B7F10A0000EE100AB8EEC00AF7
:102150006C4880ED2E0A6B4890ED2E0AB5EE400AD1
:10216000F1EE10FA0BD5674890ED2E0AF2EE040A54
:1021700030EE200AB1EE400A624880ED2E0AA07CC3
:10218000E17C51EA00200700BFB2152F41DA5B481D
:1021900090F8300000281ED1BFB2B7F10A0000EE5F
:1021A000100AB8EEC00A564880ED2F0A544890ED48
:1021B0002F0AB5EE400AF1EE10FA2AD5504890EDFC
:1021C0002F0AF2EE040A30EE200AB1EE400A4C4823
:1021D00080ED2F0A1DE0BFB2B7F10A0000EE100A31
:1021E000B8EEC00A474880ED2F0A464890ED2F0A06
:1021F000B5EE400AF1EE10FA0BD5424890ED2F0AE9
:10220000F2EE040A30EE200AB1EE400A3D4880EDBD
:102210002F0A207D617D51EA00200700BFB2152FF3
:1022200041DA364890F8300000281ED1BFB2B7F12D
:102230000A0000EE100AB8EEC00A314880ED300AFC
:102240002F4890ED300AB5EE400AF1EE10FA2AD58B
:102250002B4890ED300AF2EE040A30EE200AB1EE7F
:10226000400A274880ED300A1DE0BFB2B7F10A00EE
:1022700000EE100AB8EEC00A224880ED300A21486C
:1022800090ED300AB5EE400AF1EE10FA0BD51D487C
:1022900090ED300AF2EE040A30EE200AB1EE400A68
:1022A000184880ED300A3100C9B2A07800F001F87A
:1022B000F1BD70B504000D00AA2013490870AA20D2
:1022C00011494870EF201049887002200E49C870EB
:1022D0000D4804710C48457100260020C0B2062844
:1022E00005DA0949C0B2415C8E19401CF6E7064880
:1022F000867107210448FEF743F970BD0410FF1FE3
:10230000D804FF1F1404FF1F2815FF1F012110F020
:102310001F029140DFF8982240B2430942F823108F
:1023200070472DE9F84304000D0064B2002C08D07A
:10233000022C2CD018D3042C4FD03BD3052C5FD0CB
:1023400071E0DFF87002006850F48060DFF864121A
:1023500008604FF44071662000F07AFA4FF4407143
:10236000672000F075FA5EE0DFF84802006850F47C
:102370000060DFF8401208604FF44071432000F025
:1023800067FA4FF44071442000F062FA4BE0DFF846
:102390002402006850F48050DFF8181208604FF4EF
:1023A0004071632000F054FA4FF44071622000F055
:1023B0004FFA38E0DFF8FC01006850F40050DFF815
:1023C000F41108604FF44071502000F041FA4FF4CE
:1023D0004071512000F03CFA25E0DFF8DC01006894
:1023E00050F48060DFF8D01108604FF440714E2047
:1023F00000F02EFA4FF440714F2000F029FA12E05D
:10240000DFF8B401006850F40060DFF8AC11086038
:102410004FF44071892000F01BFA4FF4407188207E
:1024200000F016FAFFE7DFF8940164B250F82400D8
:10243000C07810F0F300DFF8841164B251F8241072
:10244000C870DFF8780164B250F824008078DFF8B3
:102450006C1164B251F82410887064B2002C02D060
:1024600064B2012C07D1DFF8580100684FF47A718B
:102470004843814606E0DFF84C0100684FF47A716A
:10248000484381462801B9FBF0F00600B6B2B6F524
:10249000005F02DB41F6FF700600B9FBF5F0B6B253
:1024A000B0EB06100700BFB2202F03DBDC2146484B
:1024B00000F03BFA414864B250F82400007810F074
:1024C000E0008046C6F3042050EA08003B4964B2AD
:1024D00051F824100870394864B250F8240046704E
:1024E000364864B250F82400807A10F0E00080464C
:1024F00017F01F0050EA0800304964B251F8241068
:1025000088722E4864B250F82400007C50F0880095
:102510002A4964B251F824100874284864B250F86B
:102520002400C07850F00C00244964B251F8241003
:10253000C870BDE8F183214A40B252F820201279D8
:102540009206F8D51D4A40B252F8202092F9072091
:102550000A707047194A40B252F8202012791206C8
:10256000F8D5164A40B252F82020D17170470100C8
:10257000124849B250F82100807D002801D0012086
:1025800000E00020704710B504000C4864B250F819
:102590002400C07850F02000084964B251F824109B
:1025A000C87064B260002D3040B2FFF7AFFE10BDBE
:1025B00000E100E034800440288004404C0DFF1FFF
:1025C000F41FFF1FFC1FFF1FC88A0000010040F11D
:1025D0000980F446404200F005F851F000416047A0
:1025E000010000BF09D0B0FA80F18840C91CC1F5D4
:1025F0008461090501EBD02140057047B0B581EA3F
:10260000030C0CF0004C40F2FF7515EA11541DBF8D
:1026100015EA1357AC42AF4239E0E41923EA4553B7
:1026200043F48013C90241F0004141EA505EC70201
:102630001100A7FB020200284FF00000EEFB012072
:102640004FF00001E3FB072118BF42F001024018E0
:1026500000214941E3FB0E01A4F580640F0302D27F
:1026600052004041494154F101046CDD470872F1C8
:10267000004250F1000051EB0451A1F580115CBF04
:1026800041EA0C01B0BD4CEA05510020B0BD05EA9D
:102690001357AC4214BFAF4241E050EA410E1CBF99
:1026A00052EA430E02E061460020B0BD24423C44A1
:1026B0001BD15FEA070EF6D0090302BF01460020D6
:1026C000AEF1140EB1FA81F7AEEB070401FA07FE82
:1026D0000C37C7F1200100FA07F7C8404EEA000E98
:1026E00023EA455343F48013A2E733F00043B3FADF
:1026F00083F704BFB2FA82FE77440B3FE41BB7F1C5
:10270000200E2FBF02FA0EF3BB40C7F1200E22FAB3
:102710000EFE38BF43EA0E03BA40641C82E750EA5B
:10272000410E14BF52EA430E6FF000014FF4001740
:1027300017EB430F8ABF194617EB410FB5E74CEA79
:1027400005510020B0BDD4F10104B4F120070FDA27
:10275000C4F12007520828BF42F0010210FA07F521
:1027600001FA07F7E1BF2A43E0403843E1400FE0B8
:10277000352C98DCC7F1200452EA400220FA07F217
:1027800018BF42F0010231FA07F0A1400A430021CC
:1027900072F1004250F1000051EB0C01B0BD50F855
:1027A000041B61B150F8042BD30744BFA9F1010306
:1027B0009A180023091F42F8043BFAD1EFE770474B
:1027C0004FEAF17CBCF1E04C2CBFBCF5001F11E0DE
:1027D0005FEA4C0C34BFBCF17F5F2EE05FEA9C0CDB
:1027E0004FEA0C1C4FEA3C0CC10071F100414CEB6C
:1027F00050707047C90241EA5051C00218BF41F001
:10280000010141F000414FEA6C50C0F1090021285C
:1028100010D240EACC7CCCF1200C11FA0CF070F113
:102820000040CCF1200C21FA0CF00CF0004C40EBF5
:102830000C0070474FEACC707047490011F5001F3B
:1028400004D84FEACC10FF30C0057047C817704756
:1028500010B4294A12684FF40073C0B24409A3406F
:102860001A43254B1A60254AC0B2431152F823205F
:10287000012310F01F04A340C2F8A0301F4AC0B2C9
:10288000431152F82320C0B210F01F0342F8231066
:1028900010BC704710B4184A12684FF40073C0B2ED
:1028A0004409A3401A43144B1A60144AC0B243119E
:1028B00052F82320012310F01F04A340C2F8A030D7
:1028C00031F4E0610D4AC0B2431152F82320C0B286
:1028D00010F01F0352F8232012F4E0621143074A5C
:1028E000C0B2431152F82320C0B210F01F0342F8C7
:1028F000231010BC7047000038800440380DFF1FC3
:10290000DFF800F0E90DFF1FDFF800F00D0EFF1FEC
:10291000BFF34F8F4648006810F4E0604549084314
:1029200043490860BFF34F8FFEE738B504000D0040
:10293000002000F08DF82A0021003F4800F0C0F888
:10294000002000F0A2F84FF47A7000F0E6F8F2E709
:1029500038B504000D00210049B20420FFF7FAFD4C
:10296000200032BD10B50024042000F0EDF8042052
:1029700000F020F9002841D1002000F069F804207F
:1029800000F018F9012801D101200400002000F016
:102990007CF82A4800F094F84FF4FA7000F0BDF883
:1029A000E4B2012CEBD1042000F004F90028E6D1B8
:1029B000042000F0FFF8002806D1002000F065F8A0
:1029C000642000F0AAF8F3E7042000F0F3F80128EF
:1029D00006D1002000F059F8322000F09EF8F3E70D
:1029E000174800F06DF8FFF78BFF642000F095F8B2
:1029F0000020FFF789FFFFF78BFFC0E710BD10B580
:102A000010480468012000F023F8012000F03DF890
:102A10000D48E4B20F2101FB0402E4B221000B488F
:102A200000F04EF84FF47A7000F077F8EDE7000010
:102A30000CED00E00400FA055C8B0000348C000013
:102A4000B48B000004ED00E0A805FF1F30890000F2
:102A500010B5040064B2042C07DA012201211748E2
:102A600064B2205C00F0BEF80EE0042004002000F8
:102A7000441E40B2002807D0012201210F4864B251
:102A8000205C00F0AFF8F2E710BD10B5040064B2AE
:102A9000042C05DA094864B2205C00F034F90CE03B
:102AA000042004002000441E40B2002805D0034842
:102AB00064B2205C00F027F9F4E710BD740DFF1F2D
:102AC0000EB400B582B003A90091024600AB01210B
:102AD000034878440A3000F057F906BC5DF810FB53
:102AE0003161000010B50400002C15D0B4F1807FD6
:102AF00003D329210F48FFF718FF00200E49086073
:102B00000E48046000200E49086005200A4908604C
:102B100009480068C003FBD510BD10B504002000B3
:102B2000441E002804D007480068FFF7DBFFF6E7E3
:102B300010BD0000E489000010E000E014E000E0B7
:102B400018E000E0F41FFF1F10B5040064B2082C69
:102B50000DDA00220021224864B2205C00F042F825
:102B600003211F4864B2205CFFF794FE14E00820A4
:102B700004002000441E40B200280DD00022002195
:102B8000174864B2205C00F02DF80321144864B2A9
:102B9000205CFFF77FFEECE710BD10B50400104885
:102BA00064B2205C00F0CCF8002801D1002000E0E5
:102BB000012010BD10B50400200040B2FFF7EDFF6A
:102BC00000280AD10A20FFF7A8FF200040B2FFF733
:102BD000E4FF002801D1002000E0012010BD00002A
:102BE0006C0DFF1F70B504000D0016004FF48071CE
:102BF0002000C0B2FFF72CFE6DB2002D11D160484D
:102C0000E4B2611150F821005D49E4B2621151F85B
:102C100022104969012214F01F039A409143416137
:102C200036E05748E4B2611150F821005449E4B24B
:102C3000621151F822104969012214F01F039A40D1
:102C400011434161F6B2002E11D14D48E4B2611139
:102C500050F821000068012114F01F0291408843C0
:102C60004749E4B2621151F82210086010E044486C
:102C7000E4B2611150F821000068012114F01F0234
:102C8000914008433E49E4B2621151F822100860B5
:102C900070BD38B504000D003948E4B2611150F838
:102CA0002100406914F01F010200CA40D00703D47C
:102CB00063213448FFF739FEEDB2002D11D13048C1
:102CC000E4B2611150F821000068012114F01F02E4
:102CD000914088432A49E4B2621151F822100860F9
:102CE00010E02748E4B2611150F82100006801218A
:102CF00014F01F02914008432149E4B2621151F8D7
:102D00002210086031BD10B504001D48E4B2611105
:102D100050F82100406914F01F010200CA40D0079A
:102D200003D47B211748FFF700FE1548E4B2611178
:102D300050F82100012114F01F029140C16010BD24
:102D400010B504000E48E4B2611150F8210040694A
:102D500014F01F010200CA40D00703D58C21094896
:102D6000FFF7E3FD0648E4B2611150F82100006965
:102D700014F01F010200CA4012F0010010BD000053
:102D8000C00CFF1F588A00002DE9F04FA1B0824609
:102D9000002017461D4602910B900DF1440B6FF079
:102DA00000490AE017F8011B0298D047029000285A
:102DB00000F0A8820B98401C0B90387808B90B984B
:102DC000A2E22528EED100200590069007900890F9
:102DD00009900A9001E040F0010017F8011F202936
:102DE000F9D023290DD02B2904D02D2906D0302944
:102DF0000AD00CE040F0020080B2EEE740F00400A0
:102E0000FAE740F00800F7E740F01000F4E72A295D
:102E10000ED12968296051F8042B2960002A0D92EF
:102E200004D5514240F004000D9180B27F1C11E0A6
:102E300000210D9109E00D99494505D001EB810371
:102E400002EB430130390D917F1C3A78A2F1300139
:102E50000A29F0D339782E2903D04FF0FF310C9195
:102E60001DE017F8011F2A2907D1296829607F1C56
:102E700051F8042B29600C9211E000210C9109E01B
:102E80000C99494505D001EB810302EB4301303930
:102E90000C917F1C3A78A2F130010A29F0D3ADF8E9
:102EA00038000FF65C40397800F038FE08B117F8AA
:102EB000010B8DF83A009DF83A00682802BF397876
:102EC0006829622005D06C2804BF38786C2803D1AB
:102ED00071208DF83A007F1C11A8049017F8014B5F
:102EE000B4F125002AD01C3800F0CC80001F022845
:102EF00040F2C880133800F0EE80093800F0C2803C
:102F0000801E00F04F81401E00F02481401E0228E8
:102F100040F2B880001F00F01D81401F00F0838048
:102F2000401E00F0D880401E29D0C01E0CD0801E4C
:102F300000F0D180C01E00F0CE803DE10120059060
:102F400025208DF8440043E12868286050F8044BA0
:102F500028600394DDF83080B8F1000F04D52046D6
:102F600000F0E8FD804607E042460021204600F0E0
:102F7000FDFD08B1A0EB0408CDF8188028E1296810
:102F800029604FF03C0851F8040B29600021CDE97D
:102F9000000111A80390DDE90001049C11B908B9F2
:102FA0000C9AC2B10206120FA0EB02123032D2B25A
:102FB0003A2AA8BF27320009A8F1010340EA0170AC
:102FC00009091A5508BF0028984604D0039A08EB4F
:102FD00004039A42E6D308EB04000390C8F13C01D5
:102FE0000C980691814209DA401A08904FF6EF7169
:102FF000BDF838000840ADF83800E9E0002840F19D
:10300000E7809DF8380000F01400102840F0E080C0
:103010000D98059A801A089A801A401A0128C0F261
:10302000D7800890D4E09DF83A0062281AD068282A
:1030300006D06A280CD06C281CD0712808D019E062
:103040002868286050F8041B28600B980880BFE0AF
:103050002868286050F8042B28600B98C117C2E933
:103060000001B5E02868286050F8041B28600B9820
:103070000870ADE02868286050F8041B28600B98A1
:103080000860A5E02868C01D20F007022A60D2E988
:10309000000108322A60CDE90001002903D5012092
:1030A00005902D200CE0BDF83800810703D50120E4
:1030B00005902B2004E0C00704D5012005902020B6
:1030C0008DF84400059911A808180390214600A81E
:1030D00000F0D8F97CE09DF83A206C2A0DD0712AD6
:1030E00018BF6A2A09D12868C01D20F007032B6089
:1030F000D3E9000108332B6005E02968296051F805
:10310000040B29600021CDE90001682A08BF80B2C4
:1031100007D0622A08BFC0B203D0742A18BF7A2A27
:1031200002D10021CDE900019DF83800000730D51B
:10313000DDE90001002908BF00282AD044F0200062
:10314000782826D130208DF844008BF801400220E9
:1031500005901EE09DF83A00294600F0D8F8CDE928
:103160000001002904DA0598411C05912D210EE08B
:10317000BDF83800810704D50598411C05912B2125
:1031800005E0C00705D50598411C0591202100F8F0
:103190000B10059911A808180390214600A800F00B
:1031A000EDF815E0012005902868286050F8041B10
:1031B00028608DF844100BE0012005902520002C9C
:1031C0008DF8440004D00598411C059100F80B408F
:1031D0000D980599401A0899401A0699401A0999BC
:1031E000401A0799401A0A99A0EB01089DF8380087
:1031F00040070FD420208DF84000002408E0012370
:1032000010AA00A9504600F064FC00287AD1641C82
:103210004445F4DB059C11AE0AE016F8011B029848
:10322000D047029000286DD00B98401C0B90641E74
:10323000002CF2D130208DF840000026089C08E0D8
:10324000012310AA00A9504600F043FC002859D1E0
:10325000761CA642F4DB069C039E0AE016F8011BCE
:103260000298D047029000284CD00B98401C0B903D
:10327000641E002CF2D130208DF840000026099CFD
:1032800007E0012310AA00A9504600F022FCC8BBA9
:10329000761CA642F5DB03980699079C0E1809E0F8
:1032A00016F8011B0298D047029058B30B98401CA7
:1032B0000B90641E002CF3D130208DF840000026C6
:1032C0000A9C07E0012310AA00A9504600F001FC67
:1032D000C0B9761CA642F5DB9DF8380040077FF5A3
:1032E0006CAD20208DF84000002400E0641C4445B3
:1032F000BFF663AD012310AA00A9504600F0E9FB18
:103300000028F3D04FF0FF3021B0BDE8F08F6228E5
:1033100026D068281DD06A2808D06C2827D07128AC
:1033200004D0742823D07A280CD020E00868C01D6F
:1033300020F007000860D0E9002308300860194633
:10334000104670470A680A6052F8040B0A600021B0
:1033500070470A680A6052F8040B0A6000B20BE07A
:103360000A680A6052F8040B0A6040B204E00A6876
:103370000A6052F8040B0A60C11770472DE9FA4E33
:1033800005460A462F696F2A08BF082405D041F078
:103390002000782814BF0A2410243C26D5E9000117
:1033A000642A18BF692A81468A4605D1002903DAB2
:1033B000D9F100096AEB4A0ABAF1000F08BFB9F166
:1033C000000F0CD1286B50B9082C36D195F8380075
:1033D000000732D530203B2687F83B002DE0E3176D
:1033E00048465146224600F0EDFBA4FB0023A9EB22
:1033F00002023032D2B2A6F1010B3A2A5E4603DB5A
:103400009DF80030513B9A1881465FEA010A0BF89B
:10341000072008BFB9F1000F03D0E868F11988420E
:10342000DDD3082C09D195F83800000705D5F05DEB
:10343000302802D0761E3020F055C6F13C00A8613D
:10344000F119E960296B884208DA081A28624FF6F8
:10345000EF71288F08402887BDE8F38E00290ED52C
:1034600095F8381001F01401102908D1696B6A69C8
:10347000891A2A6A891A081A0128A8BF2862BDE891
:10348000F38E00002DE9F24F04468EB0D4E900011E
:10349000CDE9020104AF9DF8380040F0200BBBF1EC
:1034A000610F0AD0206B002848BF062004D408BF53
:1034B000BBF1670F01D1012020636168C1F30A509D
:1034C00040F2FF7290421CD1080304BF206800281C
:1034D00009D10320A0619DF8380061381A2836D33D
:1034E0000FF2306108E00320A0619DF838006138D8
:1034F0001A2829D30FF21461E068032200F0DAFBE6
:10350000BEE1012816DA204600F00FFC012811DB8D
:1035100000250020BBF1610F20D1E168302201F8C5
:10352000012B4A1CE2609DF83820612A0CBF7822EA
:1035300058220FE0626840F2FE3161F31E52451AD4
:1035400062604FF0FF30E5E70FF2BC51D4E70FF2B5
:10355000C051D1E70A706169891C616110B9002608
:10356000002584E1BBF1610F40F09780206B0028BB
:103570004CBF2126461CDDE90201D4E900AB002244
:10358000002300F0F3FB36B23ABF8BF00040CDE9E8
:1035900002A0CDE902AB06F101082D1F8DF8102025
:1035A0000DF1110700E0C71DB8F1010F33DBDDE9B4
:1035B00002010022002300F0F1FB2CD21C2102A802
:1035C00000F004FCDDE9020100F08CFCA8F1070822
:1035D000B8F1010F814609DBFEF7F8FF02460B4602
:1035E000DDE9020100F0AAFCCDE90201F81D072186
:1035F00005E009F00F0200F8012D4FEA2919B9F191
:10360000010F01DB491EF4D5491E5CBF002200F802
:10361000012DF9D5C7E70DF11100391AB142B8BF34
:103620000E4636B230000DF111072FD4884206DA6B
:1036300004A9411849780829A8BF0F2100DA002100
:1036400004AA821800E0761E12F80139401E8B424F
:10365000F9D00F2904D104A941184A78521C4A70A4
:10366000002802D504AF761C2D1D36B2701E0DD475
:10367000C1190A783032D2B23A2A03DB9DF83830C9
:103680003A3B9A18401E01F80129F2D5206B002818
:1036900040F1ED80701E2063E9E0DDE902010022C7
:1036A000002300F063FB3CBF81F00041CDE9020143
:1036B0002DB247F2975068434B49DFF8309190FBA9
:1036C000F1F52DB2C5F1070ABAF1010F90461CDBE6
:1036D000DDE902675FEACA7007D542464B463046CD
:1036E0003946FEF78BFF06460F464FEA6A0A404608
:1036F000494642464B46FEF781FFBAF1000F80462D
:103700008946E7D1CDE9026724E0CAF1000A002624
:10371000374F14E05FEACA7007D542464B46304641
:103720003946FEF76BFF06460F464FEA6A0A4046E7
:10373000494642464B46FEF761FF80468946BAF14C
:10374000000FE7D1DDE9020132463B4600F0B6FC4E
:10375000CDE90201BBF1660F216BDFF898900CBF39
:1037600005F10A0006204618142EA8BF13263020A3
:103770008DF810000DF11107012E3DDBDDE902018E
:1037800000F0C6FB07F1080104220A23B0FBF3F3A3
:1037900003EB8307A0EB4700303001F8010D0A204E
:1037A000B3FBF0F000EB8007A3EB47033033521E6E
:1037B00001F8013DE9D1083E012E01F10807DBDBEC
:1037C000DDE9020100F0A4FBFEF70AFF02460B460A
:1037D000DDE9020100F0B2FB00224B46FEF70EFFCE
:1037E000CDE90201CAE700BFA08601000000244025
:1037F0000000F03F84D797410DF11100381A0DF108
:10380000110702E0401E6D1E7F1C39783029F9D067
:10381000BBF1660F02D12DB2691C04E0BBF1650F4C
:103820000CBF01210021226B8E1836B2B042B8BF06
:10383000064636B231001AD4814204DAC85D352812
:10384000A8BF392000DA3020CA19521E00E0761EC7
:1038500012F80139491E8342F9D0392802D1C85DD6
:10386000401CC855002902D57F1E761C6D1C2DB248
:103870009DF83810009533B23A46204600F003F820
:103880000FB0BDE8F08F2DE9F04786B006468A46B6
:1038900090461D4600F053FD406A376B90F800904B
:1038A000012D02DA01250FF270284AF02000BDF93F
:1038B0003840662808BF641C12D0672876D114F1FE
:1038C000040F79DBBC4277DA96F83800641C0007F5
:1038D00002D4BD42B8BF2F4624B23F1B48BF0027C9
:1038E00024B2F068B169012C21DA4A1C30230B5450
:1038F000012F03DA96F83810090702D502F8009074
:10390000521CE742B8BF7C4224B26142E719AF4281
:10391000B261B8BF3D4671622DB2F5612A46B36906
:103920004146181800F0C6F9781BB062BAE00818D2
:10393000A54216DA2A46414600F0BCF9B169691879
:10394000601BB161012F706203DA96F8380000073E
:1039500005D5F06801F80090F069401CF061B7628D
:10396000A0E02246414600F0A5F9B06920182D1BC1
:10397000012F03DA96F83810090703D5F16800F82B
:103980000190401CB0612DB2AF42B8BF3D46F06817
:10399000B3692DB22A4604EB0801181800F08AF921
:1039A000B0692818B061781B70627BE0BAF1610FD2
:1039B00014D14FF0700A16E0BD4204DA96F83810C0
:1039C000090758BF2F467F1E48BF0027BAF1670F6F
:1039D00014BF4FF0450A4FF0650A04E0BAF1410FF9
:1039E00008BF4FF0500AB169F06818F8013B0B545A
:1039F0004A1C012F05DA96F83810090758BFB26142
:103A000015D502F80090531C012FB3610FDB6D1E1A
:103A10002DB2AF42B8BF3D462DB22A4641461818D6
:103A200000F048F9B0692818B061781B7062F0683E
:103A3000B16901EB0008200008F801AB03D42B208A
:103A400008F8010B03E02D2108F8011B6442002552
:103A500002AF08E00A2200A800F08AFC019807F8EB
:103A6000010B6D1C009C21B20129F3DA022D06DA4C
:103A70004AF02000652804BF302008F8010B4DB93A
:103A8000302008F8010B07E06D1E02A8285C3030DA
:103A900008F8010B012DF7DAF068B1690818A8EBF6
:103AA0000000F06196F8380000F0140010280DD1E5
:103AB0007069B1690818716A0818F1690818B16A63
:103AC0000818716B8842BCBF081A306206B0BDE8A6
:103AD000F087F8B504460D4616461F46002004E060
:103AE000E86A401CE8627F1E002047B116F8011BFF
:103AF000A868A047A8600028F2D14FF0FF30F2BDBF
:103B0000686A6C747A4C00006E616E004E414E0023
:103B1000696E6600494E4600300000000278C9B266
:103B20008A421AB11CBF10F8012FF9E718BF002014
:103B30007047000000F10103810704D010F8011B59
:103B400089B18107FAD10268B2F10131914311F0D4
:103B5000803F04BF50F8042FF6E710F8011B11B1A5
:103B600010F8011BFBE7C01A70470000C9B28307B9
:103B700006D0521E22D310F8013B9942F7D11FE024
:103B8000083A13D302F1040241EA012141EA01415A
:103B900050F8043B121F21BF4B40A3F1013C2CEA1B
:103BA000030C1CF0803FF3D0C9B2001F083210F89C
:103BB000013B521E28BF91EA030FF8D818BF01201D
:103BC000401E70471B4213D1094236D12AB18446A8
:103BD000B0FBF2F002FB10C2704700F0D1BBFCD387
:103BE0000022002370470B000200002100207047D4
:103BF000904271EB030CF6D370B5B1FA81F4B3FACD
:103C000083F52C1BA340C4F1200532FA05F633439B
:103C1000A2405FF00046E64002E05B085FEA320245
:103C2000841A71EB030524BF204629467641F4D35C
:103C300002000B003000002170BD012ACFD970B501
:103C4000140C20D0B1FA81F4B2FA82F5C4F1200448
:103C50006419B4F12006D6D3B2405FF00044F440BA
:103C6000002502E052085FEA3303C61A71EB020E28
:103C700024BF3046714664416D41F3D302000B000E
:103C80002000290070BD0C46B1FBF2F102FB11458A
:103C90002D0445EA1045B5FBF2F402FB145580B241
:103CA00040EA0545B5FBF2F002FB105240EA044041
:103CB00070BD000062B38B0708D0521E11F8013BA3
:103CC00000F8013B00F024808B07F6D1830740F019
:103CD000208000BF103A07D330B4B1E83810103A52
:103CE000A0E83810F9D230BC530724BFB1E808105F
:103CF000A0E8081044BF51F8043B40F8043BD20749
:103D000024BF31F8022B20F8022B44BF0B7803703C
:103D10007047083A07D3B1E80810083A40F8043B66
:103D200040F804CBF7D25307E4E730B4436803F01C
:103D3000004201211B031B0B436004BF0368002BDF
:103D400008D10DE00368DD0F45EA440444605B00E0
:103D50000360491E4468E302F4D523031B0B436050
:103D600043681A434260084630BC70474FF4001C59
:103D70001CEB410F94BF1CEB430F09E041EA030C1D
:103D800050EA4C0C52EA0C0C03D2994208BF904204
:103D9000704714BF8B428242704700004FF4001CF2
:103DA0001CEB410F94BF1CEB430F09E041EA030CED
:103DB00050EA4C0C52EA0C0C03D28B4208BF8242F0
:103DC000704714BF994290427047000070B5044696
:103DD0000D466068C0F30A5040F2FF71884207D177
:103DE0006068000304BF2068002817D0022070BD5F
:103DF00020B92046FFF799FF012868DA012D0FDB73
:103E000040F2FF71091A8D420AD3606800284CBF46
:103E10009FED300B9FED310B84ED000B012070BD49
:103E20004142A942616806DA6FF31E51401941EA26
:103E30000050606042E0401E63684519012205F1B0
:103E4000350062F31F53352801F00041636003D34E
:103E500061600020206070BD002215F11F0F04DAA0
:103E600022682360002020356060684214D0521E12
:103E700025689241C0F12003D2439D4045EAD272A9
:103E8000256825FA00F6656805FA03F333432360D5
:103E9000636823FA00F5656060680843B2F1004F7B
:103EA000606003D80DD12078C0070AD52068401C77
:103EB0002060206828B96068401C60604FF0FF30C7
:103EC00070BD6068884204BF20680028F6D10020D9
:103ED00070BD00BF000000000000F0FF0000000007
:103EE0000000F07FF446400D40EAC120490006D2B0
:103EF00000F014F8004248BF6FF00040604700F047
:103F00000DF84FF0004188428CBF084640426047A0
:103F1000400D40EAC120490080F00D8040F0004093
:103F2000490DA1F58061491C05D4D1F11F0154BF91
:103F3000C840C01770474FF00000704770B44FF092
:103F4000004591EA030F44BF6B4000F01BBA00BF6D
:103F5000841A71EB030604D26E40001BB1411219A2
:103F600073414FF4001C1CEB410F34BF7CEB430644
:103F700084E00C0DA4EB1356362E7DDC012E43DCC1
:103F800045EAC32343EA525312BFD20292025B08AE
:103F9000240545EAC12141EA5051D2EBC0209941A4
:103FA00025D407D1B0FA80F610FA06F164D00020CB
:103FB000203608E0B1FA81F6B140C6F1200220FABD
:103FC00002F21143B0404FEAF474B4EB465434F0BB
:103FD00001064FEA74040AD8D6F50016760D04F0EF
:103FE0000044F04061FA06F25040F1404840C00AF7
:103FF00040EA415021F0004128BF5FEA500550F1EE
:10400000000044EBD12137E045EAC323DB0A45EA4F
:10401000C121C90AB6F120050EDD42EA0242120CA6
:10402000C5F1200603FA06F6EB4042EA06056D42AA
:10403000984161F100010DE062FA06F5F240554049
:1040400063FA06FC82EA0C02F3405A406D4290414A
:1040500061EB030111F4801F05D1641E620502D0DB
:104060006D004041494121F48011430875F100433E
:1040700050F1000041EB045170BC70471CEB410F44
:1040800015D223F0004352EA43060BD04FEA4C0C02
:10409000BCEB410F04D80C0D661E342EB7DDEBE7E8
:1040A000801A994150EA410608BF0021E4E708BFA1
:1040B0001CEB430F28BF6FF00001DDE7F0B540F2C5
:1040C000FF7581EA030C0CF0004C15EA11541DBF7A
:1040D00015EA1357AC42AF42E5E0BC41C1F313010E
:1040E000C3F31303801A994143F4801304D2641E6E
:1040F0004000494180185941C90241EA5051B1FB81
:10410000F3F603FB1611A2FB0675D7EBC020A941FD
:1041100002D2761E80185941C90241EA5051B1FBC2
:10412000F3FE03FB1E11A2FB0E75D7EBC020A941C5
:1041300003D2AEF1010E80185941890241EA905133
:10414000760546EA8E2EB1FBF3F603FB1611A2FBB1
:104150000675D7EB8020A94102D2761E80185941FE
:10416000C90241EA50514EEA060EB1FBF3F603FBD9
:104170001611A2FB0675D7EBC020A94102D2761E0C
:1041800080185941C90241EA5051B1FBF3F703FBD2
:104190001711A2FB0735D3EBC020A94167F1000737
:1041A0000CBF004247F0010766F3D5274FEA1E31E6
:1041B000B80814F5806412DDBD0775F1004250EBBC
:1041C0000E5051EB045111F5801F5CBF41EA0C0108
:1041D000F0BD4CF07F6141F0E0410020F0BDBD0733
:1041E0006D0840EA0E5041F48011D4F10104B4F19D
:1041F00020060ADAC4F120060200E04001FA06F3C4
:10420000E1401843B24015430EE0342C13DCC6F1F4
:10421000200445EA40056D0820FA06F2154321FA0C
:1042200006F0A1400D43002175F1004250F100005D
:1042300051EB0C01F0BD00205FEA0C01F0BDCFB9DD
:1042400092185B41B3FA83F704BFB2FA82F6BF1942
:104250000B3FB7F120062FBF02FA06F3BB40C7F1B0
:10426000200622FA06F638BF3343BA401CB1E419DF
:10427000641E33E77F4231F00041B1FA81F404BF9C
:10428000B0FA80F6A4190B3CB4F120062FBF00FA57
:1042900006F1A140C4F1200620FA06F638BF3143EA
:1042A000A0403C1B1AE7AC421ABF05EA1357AF42C5
:1042B00012E050EA41061CBF52EA4306BFE750EA4B
:1042C0004107304661461CBF41EA0551F0BD52EA44
:1042D000430C08BFC143F0BD00204FF4001616EB9D
:1042E000410F98BF16EB430F08BF16EB410F24BFD9
:1042F000C14305E016EB430F0CBF61464CEA055184
:10430000F0BD000080B5134800F0A6F80FF2480198
:10431000016041608160C1600161416181610FF2B2
:104320003C0242628162C162016341630FF230026A
:1043300082630FF23402C2630164416401BD10B5AF
:10434000044800F089F80446206808B9FFF7DAFF4E
:10435000204610BD5C20FF1F000000002E00000062
:1043600066616C7365000000747275650000000082
:1043700091FBF2F303FB1211C0E90031704700001A
:1043800070470000841A71EB030603D2001BB14191
:10439000121973414FF4001C1CEB410F34BF7CEB2E
:1043A000430443E00C0DA4EB1356352E50DC45EAD4
:1043B000C323DB0A45EAC121C912B6F120050DDD90
:1043C00063FA05F6EB4086EA0305124218BF45F092
:1043D0000105C01851F100010CD213E062FA06F594
:1043E000F2405540F3415A40B340F3405A408018E0
:1043F000594107D349085FEA30005FEA350528BF15
:1044000045F0010501F58011420875F1004250F1B7
:10441000000041EB045170BC4FF4001C1CEB410F39
:1044200038BF70470020090D090570471CEB410F8C
:1044300010D252EA43060BD0BCEB410F05D80C0D4D
:10444000AB43661E342EB5DD02E0AB438018594104
:1044500070BC704770BC704770470000400000009F
:104460000000C0400000A04000004040000040C0EC
:10447000000000C000000040000000400000A0401C
:104480000000404000000040000000C0000000C0EC
:10449000000000C0000080C000004040000000C0DC
:1044A0000000804000000040000000C0000000C08C
:1044B0000000C0C00000A0400000404000000040DC
:1044C0000000804000000040000040400000A0408C
:1044D0000000C0C0000000C0000000C0000000409C
:1044E00000008040000000C000004040000080C08C
:1044F000000000C0000000C0000000C0000000403C
:10450000000040400000A0400000004000000040CB
:10451000000000C0000040C0000040400000A0407B
:104520000000C0400000A04000008040000040406B
:104530000000004000000000000000C0000040C07B
:104540000000804000004040000040400000803FEC
:10455000000080BF000040C0000040C0000040409C
:1045600000000040000000C0000040C0000040C04B
:10457000000080BF000080BF00000000000000C0FD
:10458000000040C0000080C0000040C0000000C02B
:1045900000000000000080BF000080BF000040C09D
:1045A000000040C0000000C000000040000040408B
:1045B000000040C0000040C0000080BF0000803FFD
:1045C000000040400000404000008040000040C02B
:1045D000000000C00000000000000040000040405B
:1045E000000080400000A0400100000000B0034037
:1045F00000B00B40000000000000000000000000C0
:1046000000000000000000000000000000000000AA
:1046100000004E6F6E4D61736B61626C650000004F
:1046200000486172644661756C740000000000000F
:104630004D656D4D616E6167656D656E740000421C
:1046400075734661756C74000000000000005573BE
:104650006167654661756C74000000000000000031
:10466000000000000000000000000000000000004A
:10467000000000000000000000000000000000003A
:10468000000000000000000000000000000000002A
:10469000000000000000000000535643616C6C00F5
:1046A000000000000000000044656275674D6F6EF9
:1046B00069746F720000000000000000000000003C
:1046C00000000000000050656E64535600000000BA
:1046D00000000000005379735469636B0000000010
:1046E00000000000444D41300000000000000000C8
:1046F000000000444D4131000000000000000000B7
:104700000000444D413200000000000000000000A5
:1047100000444D4133000000000000000000000094
:10472000444D41340000000000000000000000443F
:104730004D41350000000000000000000000444D25
:1047400041360000000000000000000000444D4120
:10475000370000000000000000000000444D413818
:104760000000000000000000000000444D4139003E
:1047700000000000000000000000444D4131300006
:10478000000000000000000000444D4131310000F5
:104790000000000000000000444D413132000000E4
:1047A00000000000000000444D41313300000000D3
:1047B000000000000000444D4131340000000000C2
:1047C0000000000000444D413135000000000000B1
:1047D00000000000444D415F4572726F720000009E
:1047E0000000004D434D00000000000000000000EC
:1047F00000004654464C000000000000000000008D
:1048000000526561645F436F6C6C6973696F6E0021
:104810004C56445F4C565700000000000000004C0E
:104820004C5700000000000000000000000057612D
:10483000746368646F6700000000000000524E4718
:10484000000000000000000000000000493243307A
:104850000000000000000000000000493243310069
:10486000000000000000000000005350493000002C
:10487000000000000000000000535049310000001B
:10488000000000000000000053504932000000000A
:104890000000000000000043414E305F4F525F4D6A
:1048A000425F6275660043414E305F4275735F4FF1
:1048B000666600000043414E305F4572726F7200C1
:1048C0000000000043414E305F54785F5761726EC4
:1048D000696E6743414E305F52785F5761726E690F
:1048E0006E6743414E305F57616B655F55700000E6
:1048F0000052657365727665643531000000000012
:1049000052657365727665643532000000000043BD
:10491000414E315F4F525F4D425F627566004341C9
:104920004E315F4275735F4F666600000043414E33
:10493000315F4572726F72000000000043414E31DA
:104940005F54785F5761726E696E6743414E315FA5
:1049500052785F5761726E696E6743414E315F579F
:10496000616B655F55700000005265736572766516
:104970006435390000000000526573657276656425
:104980003630000000000055415254305F52585FED
:1049900054580000000055415254305F45525200B7
:1049A000000000000055415254315F52585F545886
:1049B0000000000055415254315F45525200000042
:1049C00000000055415254325F52585F5458000065
:1049D000000055415254325F455252000000000021
:1049E0000055415254335F52585F54580000000044
:1049F00055415254335F45525200000000000055AB
:104A0000415254345F52585F5458000000005541E1
:104A10005254345F4552520000000000005541528C
:104A200054355F52585F54580000000055415254AD
:104A3000355F455252000000000000414443300001
:104A4000000000000000000000004144433100006D
:104A5000000000000000000000434D503000000046
:104A60000000000000000000434D50310000000035
:104A700000000000000000434D5032000000000024
:104A800000000000000046544D300000000000000F
:104A9000000000000046544D3100000000000000FE
:104AA0000000000046544D320000000000000000ED
:104AB000000000434D540000000000000000000012
:104AC00000005254430000000000000000000000FD
:104AD000005265736572766564383300000000002B
:104AE0005049543000000000000000000000005059
:104AF000495431000000000000000000000050494F
:104B00005432000000000000000000000050495432
:104B1000330000000000000000000000504442305C
:104B2000000000000000000000000055534230006B
:104B300000000000000000000000555342444344C0
:104B4000000000000000000000454E45545F313574
:104B500038385F54696D6572454E45545F547261D3
:104B60006E736D69740000454E45545F5265636510
:104B7000697665000000454E45545F4572726F725C
:104B80000000000000493253300000000000000027
:104B900000000000534448430000000000000000F3
:104BA000000000444143300000000000000000000D
:104BB00000004441433100000000000000000000FC
:104BC00000545349300000000000000000000000C5
:104BD0004D43470000000000000000000000004CB2
:104BE0005054696D657200000000000000005265BD
:104BF00073657276656431303200000000504F52A8
:104C0000544100000000000000000000504F5254CA
:104C10004200000000000000000000504F525443CA
:104C200000000000000000000000504F52544400FB
:104C3000000000000000000000504F5254450000EA
:104C40000000000000000000526573657276656424
:104C5000313038000000005265736572766564314A
:104C60003039000000005265736572766564313139
:104C70003000000000526573657276656431313131
:104C80000000000052657365727665643131320050
:104C9000000000526573657276656431313300003F
:104CA000000052657365727665643131340000002E
:104CB000005265736572766564313135000000001D
:104CC00052657365727665643131360000000052BA
:104CD0006573657276656431313700000000526596
:104CE0007365727665643131380000000052657377
:104CF0006572766564313139000000000080034040
:104D00000090034000800B4000900B4000F00F40EB
:104D100040F00F4080F00F40C0F00F4000F10F4016
:104D2000006006400070064066000A1D3200070160
:104D3000640007106E000406780004088200040A6C
:104D40008C00040C9600040EA0000410AA000412AB
:104D5000B4000414BE000416C8000418D200041ADB
:104D6000DC00041CE100041DE600041EEB00041F2F
:104D7000F4000317FA000318130101062C010214B2
:104D8000000109080090044000A0044000B0044065
:104D900000C0044000D0044000A0064000B006401F
:104DA00000C0064000D0064000A00E4000B00E40FB
:104DB00000002042010200006A6E6B6C676D4E4F6E
:104DC00034353637020401010020FF1F5020FF1F39
:104DD0000020FF1F0020FF1F0020FF1FB50DFF1F39
:104DE0009C0DFF1F000000000000000000000000FC
:104DF00000000000000000000000000000000000B3
:104E00000000000010B40021002200231900C9B2E4
:104E1000022926DA00231A00D2B2142A11DAC9B202
:104E2000802303FB0103D2B20024D454C9B28023EF
:104E300003FB0103D2B29B1A002483F87F40521C6B
:104E4000EAE714231A00D2B26B2A08DAC9B2802327
:104E500003FB0103D2B2FF24D454521CF3E7491CD4
:104E6000D5E700231900C9B280290BDAFF23C9B2A4
:104E70000C1884F800310023C9B20C1884F8803172
:104E8000491CF0E74023A0F818320223A0F81A3298
:104E900000231900C9B22D291FDA0023C9B210EB73
:104EA0004104A4F81C320023C9B210EB4104A4F859
:104EB000D0324023C9B210EB4104A4F8763200236B
:104EC000C9B210EB4104A4F82A330023C9B210EB95
:104ED0004104A4F88433491CDCE7002380F8F23352
:104EE000002380F8F33300231900C9B20A2907DA36
:104EF0003223C9B210EB4104A4F8DE33491CF4E7B5
:104F00004623A0F8F4331C23A0F81C326423A0F835
:104F1000D03200231900C9B204290BDAFF23C9B229
:104F20000C1884F810320023C9B20C1884F814321B
:104F3000491CF0E700231900C9B2102906DA002342
:104F4000C9B20C1884F80032491CF5E7002380F838
:104F5000F633002380F8F733002380F8F83300237A
:104F600080F8F933002380F8FA3310BC7047F0B4AE
:104F700000220023FF240025962600273A00D2B203
:104F8000802A47DAD2B2175CD2B212EB000C9CF83E
:104F900080C01CEB0707BFB27F08D2B212EB000C37
:104FA0008CF80071D2B2171897F80071DBB2BB42CF
:104FB00004D2D2B2171897F800713B00D2B217187A
:104FC00097F80071E4B2A74204D2D2B2171897F84A
:104FD00000713C00D2B2575CD2B212EB010C9CF8CB
:104FE00080C01CEB0707BFB27F08D2B212EB010CE6
:104FF0008CF80071D2B2175CD2B212EB000C8CF8B4
:105000008070D2B2575CD2B212EB010C8CF8807077
:10501000521CB4E790F8127280F8137290F8117273
:1050200080F8127290F8107280F8117290F816726F
:1050300080F8177290F8157280F8167290F8147252
:1050400080F8157280F8103280F8144290F81372CC
:1050500090F812C21CEB070790F811C217EB0C076F
:1050600090F810C217EB0C0790F817C217EB0C075B
:1050700090F816C217EB0C0790F815C217EB0C0747
:1050800090F814C217EB0C07BFB2FF083D00ADB299
:10509000FF2D02DA2F003E0001E0FF273E00F6B2AE
:1050A000B42E01DAB4273E00F6B2C42E01DBC327CA
:1050B0003E0000273A00D2B2802A1FDAD2B2171877
:1050C00097F80071F6B2B74201D3012700E000273C
:1050D000D2B212EB000C8CF88071D2B2571897F84C
:1050E0000071F6B2B74201D3012700E00027D2B227
:1050F00012EB010C8CF88071521CDCE7F0BC70479D
:1051000010B4002200231A00D2B27F2A40DAD2B2B1
:10511000131893F88131002B19D1D2B2131893F8D8
:105120008131D2B2141894F88041A3420FD0D2B288
:10513000131893F88131D2B2141894F88241A34223
:1051400005D00123D2B2141884F881311EE0D2B206
:10515000131893F88131012B18D1D2B2131893F898
:105160008131D2B2141894F88041A3420ED0D2B249
:10517000131893F88131D2B2141894F88241A342E3
:1051800004D00023D2B2141884F88131521CBBE73A
:1051900010BC704710B4002200231A0012B2802AFB
:1051A0000DDA12B2135C12B2141884F8803012B205
:1051B000535C12B2541884F88030521CEEE710BCD5
:1051C0007047F8B504000D00160000270520070001
:1051D00029002000FFF7DEFF7F1EFFB2002FF7D16E
:1051E0002D20070029002000FFF7C1FE2900200024
:1051F000FFF786FF3100200000F02EF83200290072
:10520000200000F097F97F1EFFB2002FEAD1B4F81A
:10521000D002B4F81C12401AA4F8F403B5F8D00276
:10522000B5F81C12401AA5F8F403F1BD70B50400DE
:105230000D00160029002000FFF799FE290020002C
:10524000FFF75EFF3100200000F006F83200290071
:10525000200000F06FF970BDF0B5B0F976221300B0
:10526000002400250026002780F8F873002780F826
:10527000F973002780F8F773012780F8F27301278C
:1052800080F8F3731E0036B2042E18DB36B23718DE
:1052900097F87E71002F10D136B2371897F87F71CA
:1052A000002F0AD136B2371897F88071012F04D138
:1052B0003400002780F8F27301E0761EE3E724B2A1
:1052C000032C02D1012780F8F2731E0036B27D2E26
:1052D00018DA36B2371897F88071012F10D136B22C
:1052E000371897F88171002F0AD136B2371897F81E
:1052F0008271002F04D13500002780F8F37301E09C
:10530000761CE3E72DB27D2D02D1012780F8F373DF
:105310002C273E0036B2012E33DB36B210EB4607A7
:10532000B7F81A7236B210EB460CACF81C7236B2F3
:1053300010EB4607B7F8CE7236B210EB460CACF85D
:10534000D07236B210EB4607B7F8747236B210EB73
:10535000460CACF8767236B210EB4607B7F82873F5
:1053600036B210EB460CACF82A7336B210EB460797
:10537000B7F8827336B210EB460CACF88473761E25
:10538000C8E790F8F273012F20D190F8F373002F43
:105390001CD1012780F8F773B0F8DE73EF1BA0F87B
:1053A0001C72A0F8D052B0F91872B0F91CC2B0F952
:1053B000D0E21EEB0C0CB7EB6C0F07DAB0F81E72E4
:1053C000A0F81C72B0F8D272A0F8D07290F8F27304
:1053D000002F20D190F8F373012F1CD1012780F802
:1053E000F773B0F8DE733F19A0F8D072A0F81C4232
:1053F000B0F91C72B0F9D0C21CEB07077F10B0F9EE
:1054000018C2674507DAB0F81E72A0F81C72B0F82F
:10541000D272A0F8D07290F8F773002F30D190F8C4
:10542000F273002F08D190F8F373002F04D1A0F885
:105430001C42A0F8D05223E0012780F8F8731BB279
:105440001F1897F88071012F17D11BB21F1897F8FA
:105450007D71012F11D11BB21F1897F88371012F95
:105460000BD1012780F8F973B0F82072A0F81C72F4
:10547000B0F8D472A0F8D07202E0002780F8F6737A
:1054800090F8F873012F54D0B0F9D072B0F91CC263
:10549000B7EB0C07142F4CDBB0F91C72B0F9D0C27B
:1054A0001CEB07075FF0020C97FBFCF7A0F8767285
:1054B000B0F87672B0F818C2B7EB0C07A0F82A73F0
:1054C000B0F82A73B0F83AC3B7EB0C07A0F88473AE
:1054D0002DB224B22F1B5B2F2BDAB0F8EE73A0F89D
:1054E000F073B0F8EC73A0F8EE73B0F8EA73A0F8BC
:1054F000EC73B0F8E873A0F8EA73B0F8E673A0F8BC
:10550000E873B0F8E473A0F8E673B0F8E273A0F8BB
:10551000E473B0F8E073A0F8E273B0F8DE73A0F8BB
:10552000E073B0F8D072B0F81CC2B7EB0C07A0F86B
:10553000DE73F0BD7047000038B504000D0064B2A2
:10554000002C06D0022C69D04CD3032C00F08280B2
:10555000C7E0DFF8C005006850F08070DFF8B415D0
:1055600008606DB2002D0BD0022D15D00ED3042D86
:105570001ED017D3062D27D020D3072D2AD02FE0F9
:105580004FF480614120FDF763F92AE04FF4407148
:105590000420FDF75DF924E04FF440710520FDF78C
:1055A00057F91EE04FF440710620FDF751F918E05D
:1055B0004FF440710720FDF74BF912E04FF4806182
:1055C0006520FDF745F90CE04FF480616620FDF79A
:1055D0003FF906E04FF480616720FDF739F900E0FC
:1055E0007FE07EE0DFF82C05006850F00070DFF807
:1055F000241508606DB2002D02D0012D06D00BE0FD
:105600004FF440710C20FDF723F906E04FF4407190
:105610000D20FDF71DF900E063E062E0DFF8F8041B
:10562000006850F08070DFF8F01408606DB2002D53
:1056300002D0012D06D00BE04FF440710A20FDF797
:1056400007F906E04FF440710B20FDF701F900E087
:1056500047E046E0DFF8C004006850F00070DFF873
:10566000B81408606DB2002D0BD0022D15D00ED3EA
:10567000042D1ED017D3062D27D020D3072D2AD0D6
:105680002EE04FF4C0618520FDF7E2F828E04FF4EA
:10569000C0618620FDF7DCF822E04FF4C06187206E
:1056A000FDF7D6F81CE04FF4C0618820FDF7D0F874
:1056B00016E04FF4C0618920FDF7CAF810E04FF4FE
:1056C00040714920FDF7C4F80AE04FF4C0618B2017
:1056D000FDF7BEF804E04FF4C0618C20FDF7B8F888
:1056E000FFE731BD2DE9F84F04000D0016001F0043
:1056F00064B2002C11D064B2012C02D064B2022C2E
:1057000002D16DB2022D08DB64B2032C05D040F249
:105710008511DFF80804FDF708F9290049B22000D7
:1057200040B2FFF709FFDFF8F80300684FF47A7121
:10573000484380465FEA1840B0FBF6F081460020FF
:1057400082461FFA89F9484650FA0AF0012802DB1E
:105750001AF1010AF5E75FFA8AFABAF1080F05DBD8
:105760004FF4D071DFF8B403FDF7DFF8404630FAAC
:105770000AF0B0FBF6F081461FFA89F9DFF8A403BE
:1057800064B240F8249064B2002C05D0022C1BD0E7
:105790000ED3032C24D02FE01FFA89F919F1010050
:1057A00000FB07F042F21071B0FBF1F0834623E0FA
:1057B0001FFA89F919F1010000FB07F04FF47A7123
:1057C000B0FBF1F0834617E01FFA89F919F10100E7
:1057D00000FB07F04FF47A71B0FBF1F083460BE069
:1057E0001FFA89F919F1010000FB07F042F210716C
:1057F000B0FBF1F08346FFE7DFF82C0364B250F80A
:1058000024006DB210EBC500DFF81C1364B251F830
:1058100024106DB211EBC501C96831F00401C160FB
:10582000DFF8040364B250F824006DB210EBC50039
:105830002821C1605FFA8AFA1AF0070050F00800C8
:10584000DFF8E41264B251F8241008601FFA89F9F5
:10585000DFF8D40264B250F82400C0F808900020A9
:10586000DFF8C41264B251F82410C864DFF8B8023B
:1058700064B250F824006DB210EBC5001FFA8BFB28
:10588000C0F810B00020DFF8A01264B251F8241064
:105890004860BDE8F18F2DE9F04104000D001600CD
:1058A0005FF0000864B2002C11D064B2012C02D069
:1058B00064B2022C02D16DB2022D08DB64B2032C5B
:1058C00005D04FF4F371DFF85402FDF72EF864B2FF
:1058D000002C05D0022C18D00DD3032C1FD029E0AA
:1058E00042F21170864205D34FF4F671DFF82C02B4
:1058F000FDF71BF81EE0B6F57A7F05D94FF4F87175
:10590000DFF81802FDF711F814E0B6F57A7F05D933
:105910004FF4FA71DFF80402FDF707F80AE042F2EB
:105920001170864205D340F2F911DFF8F001FCF75F
:10593000FCFFFFE7DFF8EC0164B250F8240080467A
:1059400064B2002C05D0022C17D00CD3032C1ED02F
:1059500027E018F1010000FB06F042F21071B0FBE5
:10596000F1F007001DE018F1010000FB06F04FF414
:105970007A71B0FBF1F0070013E018F1010000FBB1
:1059800006F04FF47A71B0FBF1F0070009E018F16E
:10599000010000FB06F042F21071B0FBF1F00700CD
:1059A000FFE7DFF8840164B250F824006DB210EB19
:1059B000C5000761BDE8F08110B5040064B2012C98
:1059C00007D064B2022C04D040F2DB215348FCF72C
:1059D000ACFF64B22000012802D0022811D021E0DF
:1059E0004C48006850F000704A4908604FF4E0618C
:1059F0000C20FCF72DFF4FF4E0610D20FCF728FF91
:105A000015E04548006850F08070434908604FF445
:105A1000C0610A20FCF71CFF4FF4C0610B20FCF7AB
:105A200017FF04E040F213313C48FCF77EFF3E488C
:105A300064B250F82400406D50F004003A4964B25A
:105A400051F824104865384864B250F82400D0F862
:105A5000800050F00800344964B251F82410C1F8B5
:105A600080000020304964B251F82410C8644FF619
:105A7000FF702D4964B251F8241088602A4864B23E
:105A800050F82400D0F8800050F00100264964B29C
:105A900051F82410C1F88000234864B250F8240063
:105AA000406D50F00100204964B251F8241048655F
:105AB00000201D4964B251F82410486010BD38B56B
:105AC000040064B2012C07D064B2022C04D04FF45D
:105AD0004C711248FCF729FF134864B250F82400B7
:105AE00040680500280000B232BD10B5040064B261
:105AF000012C07D064B2022C04D040F23E3107489A
:105B0000FCF713FF0020084964B251F824104860E4
:105B100010BD00003C80044030800440F08800004C
:105B2000FC1FFF1F3810FF1FB00CFF1F2DE9F04FA7
:105B3000A1B004000D0064B2002C12D1DFF8C00542
:105B4000006850F04000DFF8B815086040F22321EB
:105B50006820FCF77DFE40F223216920FCF778FEE7
:105B600011E0DFF89C05006850F08000DFF8901528
:105B7000086040F223214A20FCF76AFE40F223210C
:105B80004B20FCF765FE00A8DFF878158022FEF7B1
:105B9000A1F8DFF8740500684CF25131884202DA4E
:105BA000002006000BE0DFF860050068DFF85C15F8
:105BB000884202DA0120060001E002200600DFF838
:105BC000480500684FF47A7148430121B1406943A8
:105BD000B0FBF1F75FF0400B4FF6FF7A5FFA8BFBFB
:105BE000BBF1000F1BD0BBF1010BBFB200A85FFAE5
:105BF0008BFB30F81B00381A00F090FA81461FFA30
:105C000089F9B9F1000F01D1D84608E01FFA89F9E6
:105C10001FFA8AFAD145E1D2D846CA46DEE718F023
:105C20003F0050EA8610DFF8E81464B251F82410FF
:105C300048708020DFF8D81464B251F824108870BE
:105C4000DFF8C40400684FF47A7148430121B14081
:105C500000AA5FFA88F832F81820514390FBF1F05F
:105C600021B0BDE8F08F000081B05020ADF80000F9
:105C7000BDF80000411EADF8001080B2002801D030
:105C800000BFF5E701B07047F8B504000D0016003D
:105C9000280604D5CD21DFF87C04FCF746FEDFF8AA
:105CA000700464B250F82400807850F03000DFF8BF
:105CB000601464B251F8241088706800DFF8501442
:105CC00064B251F8241008710020DFF84C14086009
:105CD000DFF83C0464B250F82400C07880070ED48A
:105CE000DFF83404006844F62061884207D2DFF808
:105CF00028040068401CDFF820140860E8E7DFF89B
:105D0000100464B250F82400C07850F00200DFF8AC
:105D1000001464B251F82410C870DFF8FC03006866
:105D200044F6206188420FD3DFF8E40364B250F8F0
:105D30002400807810F0CF00DFF8D41364B251F85B
:105D400024108870002008E1DFF8C40364B250F822
:105D5000240006710020DFF8C0130860DFF8B003EC
:105D600064B250F82400C07880070ED4DFF8A8038E
:105D7000006844F62061884207D2DFF89C0300687F
:105D8000401CDFF894130860E8E7DFF8840364B28E
:105D900050F82400C07850F00200DFF8741364B2A9
:105DA00051F82410C870DFF87003006844F62061D1
:105DB00088420FD3DFF8580364B250F8240080788B
:105DC00010F0CF00DFF8481364B251F82410887047
:105DD0000020C2E0DFF8380364B250F82400807875
:105DE00050F00400DFF8281364B251F824108870D2
:105DF000680050F00100DFF8181364B251F8241065
:105E000008710020DFF810130860DFF8040364B2A3
:105E100050F82400C07880070ED4DFF8FC02006838
:105E200044F62061884207D2DFF8EC020068401C8B
:105E3000DFF8E4120860E8E7DFF8D40264B250F853
:105E40002400C07850F00200DFF8C41264B251F8A8
:105E50002410C870DFF8C002006844F62061884250
:105E60000FD3DFF8AC0264B250F82400807810F051
:105E7000CF00DFF89C1264B251F824108870002023
:105E80006BE0DFF88C0264B250F82400807810F0E8
