:10000000F8FF0020110400005B4200005B4200008A
:100010005B4200005B4200005B4200005B4200006C
:100020005B4200005B4200005B4200005B4200005C
:100030005B4200005B4200005B4200005B4200004C
:100040005B4200005B4200005B4200005B4200003C
:10040000FFFFFFFFFFFFFFFFFFFFFFFFFEFFFFFFFD
:1004100062B608F00DFFFEE780B5002201214A20F8
:1004200003F0C2F8002201214B2003F0BDF80022A6
:100430000121132003F0B8F800220121182003F055
:10044000B3F800220121192003F0AEF801BD80B5F8
:10045000FFF7E2FF00F095F8AE2000F04BF8D52052
:1004600000F048F8802000F045F8A82000F042F89D
:100470003F2000F03FF8D32000F03CF8022000F0CD
:1004800039F8402000F036F88D2000F033F81420C1
:1004900000F030F8202000F02DF8022000F02AF8BB
:1004A000A12000F027F8C02000F024F8DA2000F0A6
:1004B00021F8102000F01EF8812000F01BF8EF203A
:1004C00000F018F8D92000F015F8F12000F012F82B
:1004D000DB2000F00FF8302000F00CF8A42000F032
:1004E00009F8A62000F006F8AF2000F003F800F0AD
:1004F00055F801BD38B5040000250021182003F08F
:10050000AAF800200500EDB2082D15DA200604D562
:1005100001214B2003F09FF803E000214B2003F062
:100520009AF800214A2003F096F801214A2003F0AE
:1005300092F864006D1CE6E731BD38B50400002573
:100540000121182003F087F800200500EDB2082DE6
:1005500016DAE00704D501214B2003F07CF803E014
:1005600000214B2003F077F800214A2003F073F8B4
:1005700001214A2003F06FF8E4B264086D1CE5E73E
:1005800031BD80B50021132003F065F8322003F05F
:10059000F8F80121132003F05EF801BD38B50024FE
:1005A000002500200400E4B2082C11DA0020050028
:1005B000EDB2802D0ADADFF84003E4B2802101FBBE
:1005C0000400EDB2002129546D1CF1E7641CEAE738
:1005D00000F001F831BD38B50024002500200400EA
:1005E000E4B2082C1DDAB4F15000C0B2FFF782FF6C
:1005F0000220FFF77FFF1020FFF77CFF002005009F
:10060000EDB2802D0BDADFF8F002E4B2802101FBBD
:100610000400EDB2285CFFF790FF6D1CF0E7641C4E
:10062000DEE731BDF8B504000D00160000272900F3
:10063000C9B22000C0B200F026F800200700300048
:1006400003F0B6F8FFB2874207D2FFB2B85720389E
:10065000C0B200F003F87F1CF1E7F1BD38B504002B
:10066000002500200500EDB2062D0BDADFF88C0224
:10067000E4B2062101FB0400EDB2285CFFF75DFF48
:100680006D1CF0E731BD38B504000D00B4F1500029
:10069000C0B2FFF72FFFEDB2280950F01000C0B232
:1006A000FFF728FF15F00F0050F00100C0B2FFF770
:1006B00021FF31BD2DE9F14F0C00934600250026A6
:1006C00000275FF000085FF000095FF0000A1FFAE2
:1006D0008BFB42F210709BFBF0F0103005001FFA0C
:1006E0008BFB42F210709BFBF0F100FB11B04FF45A
:1006F0007A7190FBF1F0103006001FFA8BFB4FF47B
:100700007A709BFBF0F100FB11B0642190FBF1F0DB
:10071000103007001FFA8BFB64209BFBF0F100FBFD
:1007200011B00A2190FBF1F0103080461FFA8BFBCC
:100730000A209BFBF0F100FB11B010308146210034
:10074000C9B29DF80000FFF79EFF002082465FFAC5
:100750008AFABAF1060F0EDADFF8A001EDB206212F
:1007600001FB05005FFA8AFA1AF80000FFF7E5FEC0
:100770001AF1010AEBE7002082465FFA8AFABAF121
:10078000060F0EDADFF87401F6B2062101FB06004F
:100790005FFA8AFA1AF80000FFF7CFFE1AF1010A91
:1007A000EBE7002082465FFA8AFABAF1060F0EDA0A
:1007B000DFF84801FFB2062101FB07005FFA8AFA61
:1007C0001AF80000FFF7B9FE1AF1010AEBE7002062
:1007D00082465FFA8AFABAF1060F0FDADFF81C01D7
:1007E0005FFA88F8062101FB08005FFA8AFA1AF816
:1007F0000000FFF7A2FE1AF1010AEAE70020824694
:100800005FFA8AFABAF1060F0EDA3C485FFA89F904
:10081000062101FB09005FFA8AFA1AF80000FFF7C7
:100820008CFE1AF1010AEBE7BDE8F18F2DE9F047E4
:100830002DED028B04000D00B0EE408A002600274B
:100840005FF000085FF000095FF0000A9FED290AE1
:1008500028EE000ABDEEC00A10EE100A82461FFA0A
:100860008AFA4FF47A709AFBF0F006001FFA8AFABF
:100870004FF47A709AFBF0F100FB11A0642190FB19
:10088000F1F007001FFA8AFA64209AFBF0F100FBEE
:1008900011A00A2190FBF1F080461FFA8AFA0A2083
:1008A0009AFBF0F100FB11A0012190FBF1F08146D1
:1008B0002900C9B22000C0B2FFF7E5FE16F1100012
:1008C000C0B2FFF7CBFE17F11000C0B2FFF7C6FEB3
:1008D0000E20FFF7C3FE18F11000C0B2FFF7BEFEF6
:1008E00019F11000C0B2FFF7B9FEBDEC028BBDE8F4
:1008F000F08700000000C8423821FF1FE40BFF1FF3
:1009000010B504000120E0716088642190FBF1F0D3
:10091000002826D0022800F0608231D3042800F09D
:10092000BD85C0F08D83062801F0CE81C0F0EE8732
:10093000082801F07785C1F087830A2801F0EA854D
:10094000C1F0AC850C2801F06B86C1F020860E2822
:1009500002F03083C2F0DD800F2802F08E8402F0B6
:10096000F3BDA079002803D0FFF718FE0020A07186
:10097000DFF87C2D14210420FFF754FE02F0E6BDC1
:10098000A079002803D0FFF709FE0020A07193A2F0
:1009900001210420FFF746FEDFF8582D0A2106202A
:1009A000FFF740FE8EA232210620FFF73BFEDFF864
:1009B000480D028892B257210620FFF77BFEDFF830
:1009C0003C2D0A210420FFF72DFE86A232210520AE
:1009D000FFF728FEDFF8200D428892B2572105204C
:1009E000FFF768FEDFF8182D0A210220FFF71AFE34
:1009F0007DA232210420FFF715FEDFF8FC0C82886F
:100A000092B257210420FFF755FE78A2322103202D
:100A1000FFF708FEDFF8E00C028992B257210320AD
:100A2000FFF748FE72A232210220FFF7FBFDDFF83C
:100A3000C80C428992B257210220FFF73BFE6DA2FB
:100A400032210120FFF7EEFDDFF8AC0CC28892B234
:100A500057210120FFF72EFE6088642190FBF1F200
:100A600001FB12000A2190FBF1F001280ED0C0F02A
:100A7000B281032800F092804CD3052800F0248135
:100A8000C0F0DE80062800F06381A4E153A2282193
:100A90000620FFF7C7FD60880A2190FBF1F201FBF9
:100AA0001200002802D0012801D032E031E04BA230
:100AB0004D210620FFF7B6FD0021342002F0ABFFE8
:100AC0002072207A282801DA282005E0207A8D2853
:100AD00001DB8C2000E0207A2072207A02F0FAFFFD
:100AE0000022DFF8C83D03F003F80022DFF8C03D24
:100AF00003F072F80022DFF8BC3D03F091F9002208
:100B0000DFF8B43D02F0F4FF03F05CFADFF8E81B15
:100B1000088060E131A228210520FFF783FD60886D
:100B20000A2190FBF1F201FB1200002802D00128FB
:100B300001D032E031E029A24D210520FFF772FDFE
:100B40000021342002F067FF2072207A282801DA81
:100B5000282005E0207A8D2801DB8C2000E0207A17
:100B60002072207A02F0B6FF0022DFF8403D02F04A
:100B7000BFFF0022DFF8383D03F02EF80022DFF837
:100B8000343D03F04DF90022DFF8283D02F0B0FFBC
:100B900003F018FADFF8601B48801CE10FA228213F
:100BA0000420FFF73FFD60880A2190FBF1F201FB72
:100BB0001200002802D0012801D040E03FE007A247
:100BC0004D210420FFF72EFD0021342002F023FFE9
:100BD0002072207A28280FDA282013E02A0000004B
:100BE0005A68690057616E00582D53005570000017
:100BF000446E00004C755A00207A8D2801DB8C2051
:100C000000E0207A2072207A02F064FF0022DFF8F0
:100C10009C3C02F06DFF0022DFF8943C02F0DCFF08
:100C20000022DFF8903C03F0FBF80022DFF8843C60
:100C300002F05EFF03F0C6F9DFF8BC1A8880CAE054
:100C4000B7A228210320FFF7EDFC60880A2190FB62
:100C5000F1F201FB1200002802D0012801D032E09D
:100C600031E0AFA24D210320FFF7DCFC002134204E
:100C700002F0D1FE2072207A282801DA282005E02F
:100C8000207A8D2801DB8C2000E0207A2072207AE7
:100C900002F020FF0022DFF8143C02F029FF0022BE
:100CA000DFF80C3C02F098FF0022DFF8083C03F06C
:100CB000B7F80022DFF8FC3B02F01AFF03F082F9DC
:100CC000DFF8341A088186E095A228210220FFF778
:100CD000A9FC60880A2190FBF1F201FB12000028B8
:100CE00002D0012801D032E031E08DA24D21022056
:100CF000FFF798FC0021342002F08DFE2072207A4C
:100D0000282801DA282005E0207A8D2801DB8C20B4
:100D100000E0207A2072207A02F0DCFE0022DFF868
:100D20008C3B02F0E5FE0022DFF8843B02F054FF2A
:100D30000022DFF8803B03F073F80022DFF8743BF9
:100D400002F0D6FE03F03EF9DFF8AC19488142E02C
:100D500073A228210120FFF765FC60880A2190FB1F
:100D6000F1F201FB1200002802D0012801D032E08C
:100D700031E06BA24D210120FFF754FC002134200B
:100D800002F049FE2072207A282801DA282005E0A6
:100D9000207A8D2801DB8C2000E0207A2072207AD6
:100DA00002F098FE0022DFF8043B02F0A1FE0022D0
:100DB000DFF8FC3A02F010FF0022DFF8F83A03F007
:100DC0002FF80022DFF8EC3A02F092FE03F0FAF876
:100DD000DFF82419C88002F0B9BBA079002803D03D
:100DE000FFF7DCFB0020A0714DA201210420FFF7DA
:100DF00019FCDFF808290A210620FFF713FCDFF8A9
:100E0000882D32210620FFF70DFCDFF8800D90EDD4
:100E1000000ABDEEC00A10EE102A92B25721062039
:100E2000FFF748FCDFF8D8280A210420FFF7FAFB77
:100E3000DFF85C2D32210520FFF7F4FBDFF8B8085E
:100E4000828992B257210520FFF734FCDFF8442D48
:100E50000A210220FFF7E6FB77A232210420FFF7E8
:100E6000E1FBDFF89408B0F8742092B25721042017
:100E7000FFF720FC6088642190FBF1F201FB120077
:100E80000A2190FBF1F0012806D0C0F0D78003289A
:100E900000F08C8046D3D1E021A228210620FFF764
:100EA000C1FB60880A2190FBF1F201FB12000028CF
:100EB00002D0012801D032E031E019A24D210620F4
:100EC000FFF7B0FB0021342002F0A5FD2072207A4C
:100ED000282801DA282005E0207A8D2801DB8C20E3
:100EE00000E0207A2072207A02F0F4FD0022DFF880
:100EF000BC3902F0FDFD0022DFF8B43902F06CFECF
:100F00000022DFF8B03902F08BFF0022DFF8A439AD
:100F100002F0EEFD03F082F8DFF8701C08608DE04F
:100F20002A000000DFA228210520FFF77BFB608854
:100F30000A2190FBF1F201FB1200002802D00128E7
:100F400001D032E031E0D7A24D210520FFF76AFB46
:100F50000021342002F05FFD2072207A282801DA77
:100F6000282005E0207A8D2801DB8C2000E0207A03
:100F70002072207A02F0AEFD0022DFF8303902F054
:100F8000B7FD0022DFF8283902F026FE0022DFF844
:100F9000243902F045FF0022DFF8203D02F0A8FDD1
:100FA00003F010F8DFF85017888147E0BDA2282130
:100FB0000420FFF737FB60880A2190FBF1F201FB68
:100FC0001200002802D0012801D033E032E0B5A29F
:100FD0004D210420FFF726FB0021342002F01BFDE9
:100FE0002072207A282801DA282005E0207A8D282E
:100FF00001DB8C2000E0207A2072207A02F06AFD6A
:101000000022DFF8A83802F073FD0022DFF8A038D4
:1010100002F0E2FD0022DFF89C3802F001FF00221E
:10102000DFF8943802F064FD02F0CCFFDFF8C81658
:10103000A1F8740002E000BF455F4B0002F086BAE1
:10104000A079002803D0FFF7A9FA0020A07195A28B
:1010500001210420FFF7E6FADFF8502D0A210620CF
:10106000FFF7E0FA90A232210620FFF7DBFADFF863
:10107000400D90ED030A57210620FFF7D7FBDFF85C
:10108000142B0A210220FFF7CDFA88A23221052075
:10109000FFF7C8FADFF8180D90ED040A5721052074
:1010A000FFF7C4FBDFF80C2D0A210420FFF7BAFA82
:1010B0007FA232210420FFF7B5FADFF8F40C90ED9F
:1010C000050A57210420FFF7B1FBDFF8C42D3221B8
:1010D0000320FFF7A7FADFF8D80C90ED060A572196
:1010E0000320FFF7A3FBDFF8AC2D32210220FFF72E
:1010F00099FADFF8BC0C90ED070A57210220FFF7A0
:1011000095FBDFF8942D32210120FFF78BFADFF8F1
:10111000A00C90ED080A57210120FFF787FB60889B
:10112000642190FBF1F201FB12000A2190FBF1F027
:1011300001280ED0C0F0B081032800F092804CD37B
:10114000052800F01F81C0F0D980062800F05E81DC
:10115000A2E154A228210620FFF764FA60880A2140
:1011600090FBF1F201FB1200002802D0012801D00F
:1011700032E031E04BA24D210620FFF753FA002167
:10118000342002F048FC2072207A282801DA282036
:1011900005E0207A8D2801DB8C2000E0207A207287
:1011A000207A02F097FC0022DFF8003702F0A0FC62
:1011B0000022DFF8FC3602F00FFD0022DFF8DC3CF5
:1011C00002F02EFE0022DFF8D83C02F091FC02F083
:1011D00025FFDFF8DC1BC8605EE132A22821052074
:1011E000FFF720FA60880A2190FBF1F201FB120060
:1011F000002802D0012801D032E031E029A24D219F
:101200000520FFF70FFA0021342002F004FC2072C1
:10121000207A282801DA282005E0207A8D2801DBB1
:101220008C2000E0207A2072207A02F053FC002209
:10123000DFF8783602F05CFC0022DFF8743602F04A
:10124000CBFC0022DFF8543C02F0EAFD0022DFF87C
:10125000503C02F04DFC02F0E1FEDFF8541B086147
:101260001AE110A228210420FFF7DCF960880A2186
:1012700090FBF1F201FB1200002802D0012801D0FE
:101280003BE03AE007A24D210420FFF7CBF9002113
:10129000342002F0C0FB2072207A28280ADA2820A5
:1012A0000EE000BF2A000000535F5000535F49006A
:1012B000535F4400207A8D2801DB8C2000E0207AE7
:1012C0002072207A02F006FC0022DFF8E03502F0FE
:1012D0000FFC0022DFF8D83502F07EFC0022DFF898
:1012E000BC3B02F09DFD0022DFF8B43B02F000FCA5
:1012F00002F094FEDFF8B81A4861CDE065A228211B
:101300000320FFF78FF960880A2190FBF1F201FBBF
:101310001200002802D0012801D032E031E05DA2A5
:101320004D210320FFF77EF90021342002F073FBEA
:101330002072207A282801DA282005E0207A8D28DA
:1013400001DB8C2000E0207A2072207A02F0C2FBC0
:101350000022DFF8583502F0CBFB0022DFF85035D1
:1013600002F03AFC0022DFF8343B02F059FD002283
:10137000DFF82C3B02F0BCFB02F050FEDFF8301A25
:10138000886189E043A228210220FFF74BF9608899
:101390000A2190FBF1F201FB1200002802D0012883
:1013A00001D032E031E03BA24D210220FFF73AF9B3
:1013B0000021342002F02FFB2072207A282801DA45
:1013C000282005E0207A8D2801DB8C2000E0207A9F
:1013D0002072207A02F07EFB0022DFF8D03402F087
:1013E00087FB0022DFF8C83402F0F6FB0022DFF8AA
:1013F000AC3A02F015FD0022DFF8A43A02F078FBC7
:1014000002F00CFEDFF8A819C86145E021A22821EE
:101410000120FFF707F960880A2190FBF1F201FB38
:101420001200002802D0012801D032E031E019A2D8
:101430004D210120FFF7F6F80021342002F0EBFAED
:101440002072207A282801DA282005E0207A8D28C9
:1014500001DB8C2000E0207A2072207A02F03AFB37
:101460000022DFF8483402F043FB0022DFF840346A
:1014700002F0B2FB0022DFF8243A02F0D1FC002295
:10148000DFF81C3A02F034FB02F0C8FDDFF8201947
:10149000486101E02A00000002F058B8A079002855
:1014A00003D0FFF77BF80020A07196A20121042051
:1014B000FFF7B8F8DFF8DC260A210620FFF7B2F8BC
:1014C00091A232210620FFF7ADF8DFF8A00C90EDD5
:1014D000030A57210620FFF7A9F9DFF8D8280A21C7
:1014E0000420FFF79FF889A232210520FFF79AF820
:1014F000DFF8780C90ED040A57210520FFF796F9E4
:10150000DFF86C2C0A210220FFF78CF880A2322130
:101510000420FFF787F8DFF8540C90ED050A5721F7
:101520000420FFF783F97BA232210320FFF77AF82A
:10153000DFF8380C90ED060A57210320FFF776F903
:1015400075A232210220FFF76DF8DFF8200C90ED34
:10155000070A57210220FFF769F970A23221012002
:10156000FFF760F8DFF8040C90ED080A572101201E
:10157000FFF75CF96088642190FBF1F201FB120037
:101580000A2190FBF1F000280DD002284ED00BD399
:10159000042800F0E780C0F08B80062800F0668108
:1015A000C0F02281B0E1AFE156A228210620FFF76A
:1015B00039F860880A2190FBF1F201FB1200002843
:1015C00002D0012801D030E02FE04EA24D210420AE
:1015D000FFF728F80021342002F01DFA2072207A4B
:1015E000282801DA282005E0207A8D2801DB8C20CC
:1015F00000E0207A2072207A02F06CFA0022AB4BD5
:1016000002F076FA0022AA4B02F0E6FA0022DFF896
:101610008C3802F005FC0022DFF8843802F068FA0A
:1016200002F0FCFCDFF8441BC8606DE135A2282104
:101630000520FEF7F7FF60880A2190FBF1F201FB1D
:101640001200002802D0012801D030E02FE02DA2A6
:101650004D210520FEF7E6FF0021342002F0DBF9E2
:101660002072207A282801DA282005E0207A8D28A7
:1016700001DB8C2000E0207A2072207A02F02AFA26
:1016800000228A4B02F034FA0022894B02F0A4FABD
:101690000022DFF8083802F0C3FB0022DFF8003830
:1016A00002F026FA02F0BAFCDFF8C01A08612BE15A
:1016B00014A228210420FEF7B5FF60880A2190FBC0
:1016C000F1F201FB1200002802D0012801D048E00D
:1016D00047E00CA24D210420FEF7A4FF0021342096
:1016E00002F099F92072207A282819DA28201DE0C2
:1016F0008C980000CC980000CC29FF1FD4980000E3
:10170000DC9800002A0000005650000056490000F6
:101710005644000056504900564949005644490075
:10172000207A8D2801DB8C2000E0207A2072207A3C
:1017300002F0D0F900225D4B02F0DAF900225C4B96
:1017400002F04AFA0022DFF8543702F069FB002267
:10175000DFF84C3702F0CCF902F060FCDFF80C1A2D
:101760004861D1E067A228210320FEF75BFF608873
:101770000A2190FBF1F201FB1200002802D001289F
:1017800001D030E02FE05FA24D210320FEF74AFF99
:101790000021342002F03FF92072207A282801DA53
:1017A000282005E0207A8D2801DB8C2000E0207ABB
:1017B0002072207A02F08EF900223C4B02F098F958
:1017C00000223B4B02F008FA0022DFF8D03602F08C
:1017D00027FB0022DFF8C83602F08AF902F01EFC6F
:1017E000DFF8881988618FE046A228210220FEF7E1
:1017F00019FF60880A2190FBF1F201FB120000281A
:1018000002D0012801D030E02FE03EA24D2102207D
:10181000FEF708FF0021342002F0FDF82072207A44
:10182000282801DA282005E0207A8D2801DB8C2089
:1018300000E0207A2072207A02F04CF900221B4B43
:1018400002F056F900221A4B02F0C6F90022DFF826
:101850004C3602F0E5FA0022DFF8443602F048F98F
:1018600002F0DCFBDFF80419C8614DE025A2282155
:101870000120FEF7D7FE60880A2190FBF1F201FB00
:101880001200002802D0012801D03AE039E01DA260
:101890004D210120FEF7C6FE0021342002F0BBF8E6
:1018A0002072207A282809DA28200DE0000044C0A0
:1018B000000059400000694000406F40207A8D28A8
:1018C00001DB8C2000E0207A2072207A02F002F9FD
:1018D0000022DFF8303D02F00BF90022DFF8283D4E
:1018E00002F07AF90022DFF8B43502F099FA00220A
:1018F000DFF8AC3502F0FCF802F090FBDFF86C1872
:10190000086201E02A00000001F020BEA079002852
:1019100003D0FEF743FE0020A071D3A201210420D2
:10192000FEF780FEDFF88C240A210620FEF77AFEFF
:10193000CEA232210620FEF775FEDFF8D00C90ED26
:10194000200ABDEEC00A10EE102A92B257210620DE
:10195000FEF7B0FEC6A232210520FEF763FEDFF8D7
:10196000AC0C90ED1E0ABDEEC00A10EE102A92B229
:1019700057210520FEF79EFEDFF8F4270A210420F8
:10198000FEF750FEDFF88C2C0A210220FEF74AFEFB
:10199000C8A232210320FEF745FEDFF8700C90ED5F
:1019A0001F0ABDEEC00A10EE102A92B25721032082
:1019B000FEF780FEC0A232210220FEF733FEDFF8E0
:1019C0004C0C90ED1D0ABDEEC00A10EE102A92B22A
:1019D00057210220FEF76EFE6088642190FBF1F231
:1019E00001FB12000A2190FBF1F0012808D0022827
:1019F00059D0042800F0AA80052800F0038161E195
:101A000099A228210620FEF70DFE60880A2190FB8E
:101A1000F1F201FB1200002802D0012801D041E0C0
:101A200040E091A24D210620FEF7FCFD2079002820
:101A300003D0022816D001D333E032E0DFF8CC0B1C
:101A400090ED200AF7EE000A30EE200ADFF8BC0B1A
:101A500080ED200AD3A279210620FEF7E3FD0020C5
:101A600020711EE0DFF8A40B90ED200AF7EE000ACB
:101A7000B4EE600AF1EE10FA0BDBDFF8900B90ED9C
:101A8000200AFFEE000A30EE200ADFF8800B80ED1E
:101A9000200AC5A279210620FEF7C4FD002020718E
:101AA000FFE7FFE70EE170A228210520FEF7BAFD4F
:101AB00060880A2190FBF1F201FB1200002802D09D
:101AC000012801D041E040E067A24D210520FEF74A
:101AD000A9FD2079002803D0022816D001D333E0D5
:101AE00032E0DFF8280B90ED1E0AF7EE000A30EE28
:101AF000200ADFF8180B80ED1E0AAAA27921052022
:101B0000FEF790FD002020711EE0DFF8000B90ED45
:101B10001E0AF7EE000AB4EE600AF1EE10FA0BDBD3
:101B2000DFF8E80A90ED1E0AFFEE000A30EE200A08
:101B3000DFF8D80A80ED1E0A9BA279210520FEF766
:101B400071FD00202071FFE7FFE7BBE046A22821DE
:101B50000320FEF767FD60880A2190FBF1F201FB8C
:101B60001200002802D0012801D04AE049E03EA23C
:101B70004D210320FEF756FD207900280CD00228C5
:101B80001FD00AD33CE000BFE49800004C0EFF1FBA
:101B9000EC980000F498000032E0DFF8700A90ED55
:101BA0001F0AF7EE000A30EE200ADFF8600A80ED27
:101BB0001F0A7CA279210320FEF734FD002020714A
:101BC0001EE0DFF8480A90ED1F0AF7EE000AB4EEB7
:101BD000600AF1EE10FA0BDBDFF8300A90ED1F0A15
:101BE000FFEE000A30EE200ADFF8200A80ED1F0A1F
:101BF0006DA279210320FEF715FD00202071FFE77B
:101C0000FFE75FE018A228210220FEF70BFD6088A5
:101C10000A2190FBF1F201FB1200002802D00128FA
:101C200001D04EE04DE010A24D210220FEF7FAFC5B
:101C30002079002803D002281CD001D340E03FE0E7
:101C4000DFF8C80990ED1D0AF7EE000A30EE200A11
:101C5000DFF8B80980ED1D0A52A279210220FEF7B3
:101C6000E1FC002020712BE02A000000442D5400EC
:101C7000506F0000DFF8940990ED1D0AF7EE000A9E
:101C8000B4EE600AF1EE10FA0BDBDFF8800990ED9C
:101C90001D0AFFEE000A30EE200ADFF8700980ED21
:101CA0001D0A41A279210220FEF7BCFC0020207110
:101CB00006E000BF4C755A00535F540000C07240EC
:101CC000FFE7FFE701F042BCA079002803D0FEF750
:101CD00065FC0020A071CEA201210420FEF7A2FC29
:101CE000DFF88C240A210620FEF79CFCDFF8C82CC4
:101CF00032210620FEF796FCDFF8C00CB0F86C200D
:101D000092B257210620FEF7D5FCDFF808290A21F8
:101D10000420FEF787FCDFF87C2D0A210220FEF765
:101D200081FCDFF8742D32210320FEF77BFCDFF805
:101D30008C0CB0F8602092B257210320FEF7BAFC59
:101D4000DFF8582D32210220FEF76CFCDFF86C0C16
:101D5000B0F8622092B257210220FEF7ABFCDFF808
:101D6000442D32210120FEF75DFCDFF8500CB0F865
:101D7000642092B257210120FEF79CFC6088642108
:101D800090FBF1F201FB12000A2190FBF1F0012817
:101D900012D004285ED0052800F0B580062800F097
:101DA00000814FE12B0000002D000000FC98000096
:101DB0002029FF1F0499000095A228210620FEF784
:101DC00031FC60880A2190FBF1F201FB120000282F
:101DD00002D0012801D03CE03BE08DA24D2106203D
:101DE000FEF720FC2079002803D002281AD001D366
:101DF0002FE02EE0DFF8C40BB0F96C00B0F5966F61
:101E000008DADFF8B80BB0F86C003230DFF8AC1B42
:101E1000A1F86C00D3A279210620FEF703FC002074
:101E2000207116E0DFF8940BB0F96C00322808DB63
:101E3000DFF8880BB0F86C003238DFF8801BA1F8AF
:101E40006C00C9A279210620FEF7ECFB002020716E
:101E5000FFE7F7E06EA228210320FEF7E3FB60888E
:101E60000A2190FBF1F201FB1200002802D00128A8
:101E700001D047E046E066A24D210320FEF7D2FBE9
:101E8000207900280ED0022825D00CD33AE000BFDC
:101E90000C990000149900001C99000000004E40AD
:101EA00000003EC02EE0DFF8140BB0F96000B0F582
:101EB000967F08DADFF8040BB0F86000401DDFF809
:101EC000FC1AA1F86000A7A279210320FEF7AAFB63
:101ED0000020207116E0DFF8E40AB0F96000052860
:101EE00008DBDFF8D80AB0F86000401FDFF8CC1A32
:101EF000A1F860009CA279210320FEF793FB00204B
:101F00002071FFE79EE042A228210220FEF78AFB13
:101F100060880A2190FBF1F201FB1200002802D038
:101F2000012801D03CE03BE039A24D210220FEF720
:101F300079FB2079002803D002281AD001D32FE0A2
:101F40002EE0DFF8780AB0F96200B0F5967F08DA83
:101F5000DFF8680AB0F86200401DDFF8601AA1F8E7
:101F6000620080A279210220FEF75CFB0020207134
:101F700016E0DFF8480AB0F96200052808DBDFF850
:101F80003C0AB0F86200401FDFF8301AA1F8620086
:101F900075A279210220FEF745FB00202071FFE7A2
:101FA00050E01BA228210120FEF73CFB60880A219B
:101FB00090FBF1F201FB1200002802D0012801D0B1
:101FC0003FE03EE012A24D210120FEF72BFB2079DD
:101FD000002803D002281DD001D332E031E0DFF821
:101FE000DC09B0F96400B0F5967F08DADFF8CC09B7
:101FF000B0F86400401DDFF8C419A1F8640059A2CC
:1020000079210120FEF70EFB0020207119E000BFAE
:102010002A000000DFF8A409B0F96400052808DBF5
:10202000DFF89809B0F86400401FDFF89019A1F8B4
:1020300064004DA279210120FEF7F4FA00202071FE
:10204000FFE7FFE701F082BAA079002803D0FEF78E
:10205000A5FA0020A071C2A201210420FEF7E2FA35
:10206000DFF8B0250A210620FEF7DCFADFF8042DA0
:1020700032210620FEF7D6FADFF8FC0C90F900209A
:1020800092B257210620FEF715FBDFF8082A0A2135
:102090000420FEF7C7FADFF8E42C32210520FEF712
:1020A000C1FADFF8E00C028D92B257210520FEF74D
:1020B00001FBC4A20A210220FEF7B4FADFF8C82C03
:1020C00032210420FEF7AEFADFF8400590F86420D4
:1020D00092B257210420FEF7EDFAC4A23221022069
:1020E000FEF7A0FADFF8240590F8622092B257219B
:1020F0000220FEF7DFFADFF8982C32210120FEF7EC
:1021000091FADFF8080590F8662092B25721012075
:10211000FEF7D0FA6088642190FBF1F201FB120017
:102120000A2190FBF1F001280BD002285CD0032893
:1021300000F0A580052800F0E480062800F0258145
:102140006EE187A228210620FEF76CFA60880A213A
:1021500090FBF1F201FB120000280BD001280AD0FD
:1021600041E000BF2B0000002D0000008C29FF1F64
:102170002499000037E07AA24D210620FEF752FA9A
:102180002079002803D0022817D001D32AE029E0C3
:10219000DFF8E40B90F90000022806DADFF8D80B2C
:1021A0000078401CDFF8D01B08709AA27921062025
:1021B000FEF738FA0020207114E0DFF8BC0B90F92C
:1021C0000000012806DBDFF8B00B0078401EDFF8C6
:1021D000A81B087090A279210620FEF723FA0020A0
:1021E0002071FFE7FFE71BE15DA228210520FEF734
:1021F00019FA60880A2190FBF1F201FB1200002815
:1022000002D0012801D039E038E055A24D21052047
:10221000FEF708FA2079002803D0022818D001D34D
:102220002BE02AE0DFF85C0BB0F92800B0F5FA6F7C
:1022300006DADFF8500B008D3230DFF8481B0885D6
:1022400074A279210520FEF7EDF90020207114E039
:10225000DFF8300BB0F92800332806DBDFF8240B59
:10226000008D3238DFF81C1B08856BA27921052010
:10227000FEF7D8F900202071FFE7FFE7D0E038A291
:1022800028210420FEF7CEF960880A2190FBF1F2A4
:1022900001FB1200002802D0012801D030E02FE01D
:1022A0002FA24D210420FEF7BDF92079002803D08C
:1022B000022813D001D322E021E0D44890F8640032
:1022C000012803D00120D14981F8640051A279216D
:1022D0000420FEF7A7F90020207110E0CB4890F809
:1022E0006400002803D00020C84981F864004AA295
:1022F00079210420FEF796F900202071FFE7FFE71F
:102300008EE017A228210220FEF78CF960880A21AE
:1023100090FBF1F201FB1200002802D0012801D04D
:1023200032E031E00EA24D210220FEF77BF9207948
:10233000002803D0022815D001D324E023E0B348BD
:1023400090F86200002803D10120B04981F86200B2
:1023500030A279210220FEF765F90020207112E0F9
:102360002A000000A94890F86200012803D100204B
:10237000A64981F8620028A279210220FEF752F9CD
:1023800000202071FFE7FFE74AE0A1A228210120F9
:10239000FEF748F960880A2190FBF1F201FB120078
:1023A000002802D0012801D039E038E098A24D2160
:1023B0000120FEF737F92079002805D0022817D030
:1023C00003D32BE0476F000028E0904890F86600A8
:1023D000002803D101208D4981F866000DA27921E2
:1023E0000120FEF71FF90020207117E0535F4C0019
:1023F000864890F86600012803D10020834981F8BF
:10240000660005A279210120FEF70CF90020207159
:1024100004E000BF2B0000002D000000FFE7FFE7F5
:1024200001F094B8A079002803D0FEF7B7F8002097
:10243000A07177A201210420FEF7F4F8DFF85426FA
:102440000A210620FEF7EEF873A20A210420FEF707
:10245000E9F8DFF8682D0A210220FEF7E3F8DFF83B
:10246000602D32210420FEF7DDF86088642190FBA6
:10247000F1F201FB12000A2190FBF1F001280BD1CF
:1024800063A228210420FEF7CDF80020E07105208A
:10249000DFF8601D0870FFE701F058B8A079002848
:1024A00003D0FEF77BF80020A07159A2012104207F
:1024B000FEF7B8F858A20A210620FEF7B3F8DFF8B5
:1024C000FC2C0A210420FEF7ADF8DFF82C2D0A21A0
:1024D0000220FEF7A7F8DFF8542D32210420FEF782
:1024E000A1F86088642190FBF1F201FB12000A213F
:1024F00090FBF1F001280BD145A228210420FEF722
:1025000091F80020E0710620DFF8E81C0870FFE772
:1025100001F01CB8A079002803D0FEF73FF8002096
:10252000A0713BA201210420FEF77CF8DFF88C2C7F
:102530000A210620FEF776F8DFF8BC2C0A210420D9
:10254000FEF770F8DFF8E82C0A210220FEF76AF89F
:10255000DFF8E02C32210420FEF764F86088642163
:1025600090FBF1F201FB12000A2190FBF1F001282F
:102570000BD127A228210420FEF754F80020E07197
:102580000720DFF8701C0870FFE700F0DFBFA079BC
:10259000002803D0FEF702F80020A0711CA2012140
:1025A0000420FEF73FF8DFF8502C0A210620FEF742
:1025B00039F8DFF87C2C0A210420FEF733F8DFF825
:1025C0007C2C0A210220FEF72DF8DFF8742C322132
:1025D0000420FEF727F86088642190FBF1F201FBEC
:1025E00012000A2190FBF1F0012817D108A228213E
:1025F0000420FEF717F80020E0710820DFF8F41B34
:1026000008700BE0000044C0000059407428FF1F10
:102610002A0000002C990000476F000000F096BFD0
:10262000A079002803D0FDF7B9FF0020A071D5A242
:1026300001210420FDF7F6FFDFF8F42B0A21062024
:10264000FDF7F0FFDFF8042C32210620FDF7EAFF4A
:10265000DFF8FC0B90F87A2092B257210620FEF7A3
:1026600029F8DFF8D82B0A210420FDF7DBFFDFF87B
:10267000E42B32210520FDF7D5FFDFF8D40BB0F8AD
:102680007C2092B257210520FEF714F8DFF8C82B02
:102690000A210220FDF7C6FFDFF8C02B32210420FB
:1026A000FDF7C0FFDFF8A80BB0F87E2092B25721EB
:1026B0000420FDF7FFFFDFF8AC2B32210320FDF7EC
:1026C000B1FFDFF88C0B90F87B2092B257210320EA
:1026D000FDF7F0FFDFF8942B32210220FDF7A2FF77
:1026E000DFF86C0BB0F8802092B257210220FDF782
:1026F000E1FFDFF87C2B32210120FDF793FFDFF8AB
:10270000500BB0F8822092B257210120FDF7D2FF82
:102710006088642190FBF1F201FB12000A2190FB1A
:10272000F1F001280ED0C0F0F281032800F0A5805E
:1027300054D3052800F04481C0F0EE80062800F054
:102740008C81E4E18FA228210620FDF76BFF6088D1
:102750000A2190FBF1F201FB1200002802D00128AF
:1027600001D03AE039E087A24D210620FDF75AFF5B
:102770002079002803D0022819D001D32DE02CE0C5
:10278000DFF8CC0A90F87A00102808DADFF8C00ADF
:1027900090F87A00401CDFF8B81A81F87A00C0A2DD
:1027A00079210620FDF73EFF0020207115E0DFF8BB
:1027B000A00A90F87A00022808DBDFF8940A90F863
:1027C0007A00401EDFF8881A81F87A00B6A27921D3
:1027D0000620FDF727FF0020207198E169A228213B
:1027E0000520FDF71FFF60880A2190FBF1F201FB35
:1027F0001200002802D0012801D03DE03CE061A297
:102800004D210520FDF70EFF2079002803D0022876
:102810001AD001D32FE02EE0DFF8340AB0F97C00A3
:10282000B0F5487F08DADFF8280AB0F87C003230CB
:10283000DFF81C1AA1F87C0099A279210520FDF788
:10284000F1FE0020207116E0DFF8040AB0F97C00E8
:10285000322808DBDFF8F809B0F87C003238DFF8FE
:10286000F019A1F87C0090A279210520FDF7DAFE8D
:1028700000202071FFE7FFE749E142A22821042060
:10288000FDF7D0FE60880A2190FBF1F201FB1200F7
:10289000002802D0012801D03DE03CE039A24D21C2
:1028A0000420FDF7BFFE2079002803D002281AD0AB
:1028B00001D32FE02EE0DFF89809B0F97E00B0F5E3
:1028C000487F08DADFF88809B0F87E003230DFF898
:1028D0008019A1F87E0072A279210420FDF7A2FEE2
:1028E0000020207116E0DFF86809B0F97E00322878
:1028F00008DBDFF85C09B0F87E003238DFF85019E9
:10290000A1F87E0068A279210420FDF78BFE00204B
:102910002071FFE7FFE7FAE01AA228210320FDF764
:1029200081FE60880A2190FBF1F201FB1200002871
:1029300002D0012801D03DE03CE012A24D2103204D
:10294000FDF770FE2079002803D002281CD001D3A7
:1029500030E02FE0DFF8F80890F87B00102808DA64
:10296000DFF8EC0890F87B00401CDFF8E41881F8F1
:102970007B004BA279210320FDF754FE002020713B
:1029800018E000BF2A000000DFF8C40890F87B00C0
:10299000022808DBDFF8B80890F87B00401EDFF85B
:1029A000B01881F87B0040A279210320FDF73AFEA0
:1029B00000202071ABE000BF34990000CC29FF1F3C
:1029C000BDA228210220FDF72DFE60880A2190FB80
:1029D000F1F201FB1200002802D0012801D03BE0F7
:1029E0003AE0B5A24D210220FDF71CFE2079002817
:1029F00003D002281AD001D32EE02DE0DFF85008D2
:102A0000B0F98000B0F5487F08DADFF84408B0F884
:102A100080003230DFF83818A1F8800020A2792138
:102A20000220FDF7FFFD0020207115E0DFF82008EF
:102A3000B0F98000322808DBDFF81408B0F8800015
:102A40003238DFF80C18A1F8800017A27921022093
:102A5000FDF7E8FD0020207159E097A22821012010
:102A6000FDF7E0FD60880A2190FBF1F201FB120006
:102A7000002802D0012801D048E047E08EA24D2175
:102A80000120FDF7CFFD207900280FD0022826D0A5
:102A90000DD33AE03C990000449900004C990000A5
:102AA0002B000000549900002D0000002DE0DFF8FD
:102AB000A007B0F98200B0F5487F08DADFF8900788
:102AC000B0F882003230DFF88817A1F88200ACA29B
:102AD00079210120FDF7A6FD0020207115E0DFF827
:102AE0007007B0F98200322808DBDFF86407B0F81D
:102AF00082003238DFF85817A1F88200A3A27921AA
:102B00000120FDF78FFD00202071FFE7FFE700F0B7
:102B10001DBDA079002803D0FDF740FD0020A07165
:102B200065A201210420FDF77DFDDFF82C270A2195
:102B30000620FDF777FDDFF8282A32210620FDF771
:102B400071FDDFF80C07827B92B257210620FDF75A
:102B5000B1FDDFF8102A0A210420FDF763FDDFF83C
:102B6000082A32210520FDF75DFDDFF8E406028A20
:102B700092B257210520FDF79DFDDFF8F0290A21CB
:102B80000220FDF74FFDDFF8E82932210420FDF790
:102B900049FDDFF8BC06428A92B257210420FDF7B6
:102BA00089FDDFF8D02932210320FDF73BFDDFF856
:102BB000A006C27B92B257210320FDF77BFDDFF810
:102BC000B82932210220FDF72DFDDFF88406828A24
:102BD00092B257210220FDF76DFDDFF8A0293221C6
:102BE0000120FDF71FFDDFF86806C28A92B2572167
:102BF0000120FDF75FFD6088642190FBF1F201FB8D
:102C000012000A2190FBF1F001280ED0C0F0D18112
:102C1000032800F09E8051D3052800F03C81C0F0CD
:102C2000F480062800F07E81C3E123A2282106203B
:102C3000FDF7F8FC60880A2190FBF1F201FB12001D
:102C4000002802D0012801D034E033E01AA24D213F
:102C50000620FDF7E7FC2079002803D0022816D0D3
:102C600001D327E026E0DFF8E805807B022806DABA
:102C7000DFF8DC05807B401CDFF8D415887340A2A8
:102C800079210620FDF7CEFC0020207112E0DFF84C
:102C9000C005807B022806DBDFF8B405807B401E80
:102CA000DFF8AC15887339A279210620FDF7BAFC4C
:102CB000002020717DE100BF2A000000A8A2282189
:102CC0000520FDF7AFFC60880A2190FBF1F201FBC3
:102CD0001200002802D0012801D039E038E0A0A27B
:102CE0004D210520FDF79EFC2079002803D0022805
:102CF00018D001D32BE02AE0DFF85405B0F910001A
:102D0000B0F5487F06DADFF84805008A3230DFF890
:102D1000401508821AA279210520FDF783FC0020C6
:102D2000207114E0DFF82805B0F91000322806DB26
:102D3000DFF81C05008A3238DFF81415088213A268
:102D400079210520FDF76EFC00202071FFE7FFE7E9
:102D50002FE183A228210420FDF764FC60880A216A
:102D600090FBF1F201FB1200002813D0012812D0D1
:102D70004AE000BF5C990000530EFF1F64990000F9
:102D80002B000000442AFF1F6C9900002D0000005A
:102D90007499000038E072A24D210420FDF742FC36
:102DA0002079002803D0022818D001D32BE02AE094
:102DB000DFF89C04B0F91200B0F5487F06DADFF8BE
:102DC0009004408A3230DFF888144882A6A2792124
:102DD0000420FDF727FC0020207114E0DFF87004C8
:102DE000B0F91200322806DBDFF86404408A32387A
:102DF000DFF85C1448829DA279210420FDF712FCC3
:102E000000202071FFE7FFE7D3E055A2282103202F
:102E1000FDF708FC60880A2190FBF1F201FB12002B
:102E2000002802D0012801D034E033E04CA24D212B
:102E30000320FDF7F7FB2079002803D0022816D0E5
:102E400001D327E026E0DFF80804C07B022806DA79
:102E5000DFF8FC03C07B401CDFF8F413C87382A2C8
:102E600079210320FDF7DEFB0020207112E0DFF85E
:102E7000E003C07B022806DBDFF8D403C07B401EE2
:102E8000DFF8CC13C87379A279210320FDF7CAFBC0
:102E9000002020718DE032A228210220FDF7C2FB24
:102EA00060880A2190FBF1F201FB1200002802D099
:102EB000012801D035E034E029A24D210220FDF7A0
:102EC000B1FB2079002803D0022818D001D328E0D4
:102ED00027E0DFF87C03B0F91400B0F5487F06DA8C
:102EE000DFF86C03808A3230DFF8641388825EA2D8
:102EF00079210220FDF796FB0020207111E0DFF818
:102F00005003B0F91400322804DBD148808A3238EB
:102F1000CF49888255A279210220FDF783FB00204A
:102F2000207146E00EA228210120FDF77BFB60887E
:102F30000A2190FBF1F201FB1200002802D00128C7
:102F400001D035E034E006A24D210120FDF76AFBF7
:102F50002079002806D0022818D004D327E000BF2B
:102F60002A00000023E0BA48B0F91600B0F5487F07
:102F700004DAB748C08A3230B549C8823AA279210A
:102F80000120FDF74FFB0020207110E0B048B0F9A0
:102F90001600322804DBAE48C08A3238AC49C882F9
:102FA00032A279210120FDF73DFB00202071FFE7CF
:102FB000FFE7CBE2A079002803D0FDF7EFFA00206D
:102FC000A0719DA201210420FDF72CFBDFF89425C0
:102FD0000A210620FDF726FBDFF8A4253221062072
:102FE000FDF720FB9A4890F89C2092B257210620CA
:102FF000FDF760FBDFF874250A210420FDF712FBC2
:10300000DFF880250A210220FDF70CFB8DA232217A
:103010000420FDF707FBDFF8700590F8672092B2F7
:1030200057210420FDF746FB87A232210320FDF73C
:10303000F9FADFF85805B0F8222592B2572103209B
:10304000FDF738FB6088642190FBF1F201FB120070
:103050000A2190FBF1F001280AD003284AD0042865
:1030600000F08E8008E100BF2B0000002D00000062
:1030700071A228210620FDF7D5FA60880A2190FB6D
:10308000F1F201FB1200002802D0012801D030E04B
:103090002FE069A24D210620FDF7C4FA207900280F
:1030A00003D0022813D001D322E021E0684890F831
:1030B0009C00012803D00120654981F89C0068A28A
:1030C00079210620FDF7AEFA0020207110E060485B
:1030D00090F89C00002803D000205D4981F89C00F6
:1030E00061A279210620FDF79DFA00202071FFE7FB
:1030F000FFE7C1E050A228210420FDF793FA608881
:103100000A2190FBF1F201FB1200002802D00128F5
:1031100001D034E033E048A24D210420FDF782FACB
:103120002079002803D0022815D001D326E025E01D
:10313000DFF8540490F86700012804D00120DFF87C
:10314000481481F8670046A279210420FDF76AFA45
:103150000020207112E0DFF8300490F867000028AA
:1031600004D00020DFF8201481F867003EA2792106
:103170000420FDF757FA00202071FFE7FFE77BE00E
:103180002DA228210320FDF74DFA60880A2190FB2B
:10319000F1F201FB1200002802D0012801D06AE000
:1031A00069E025A24D210320FDF73CFA2079002893
:1031B00008D0022822D006D35CE000BF7C99000032
:1031C000A898000056E0DFF8C403B0F922050528EE
:1031D00008DADFF8B803B0F82205401CDFF8AC13BA
:1031E000A1F822051EA279210320FDF71BFA002079
:1031F00020713FE0520EFF1F84990000DFF88C031E
:10320000B0F92205012808DBDFF88003B0F82205B9
:10321000401EDFF87813A1F8220513A279210320BC
:10322000FDF700FA0020207124E000BFB4980000F0
:103230008C990000949900002A0000009C990000DD
:10324000A4990000435F4A00505F5900AC99000008
:10325000702AFF1FB4990000BC990000C4990000B7
:103260002B000000CC9900002D000000D499000034
:10327000DC990000FFE7FFE768E1A079002803D0B0
:10328000FDF78CF90020A071B1A201210420FDF707
:10329000C9F9B64A0A210620FDF7C4F9ADA23221C8
:1032A0000620FDF7BFF9B84890ED160ABDEEC00A3A
:1032B00010EE102A92B257210620FDF7FBF9B14A11
:1032C0000A210420FDF7AEF9A3A232210520FDF763
:1032D000A9F9AD48B0F85E2092B257210520FDF75C
:1032E000E9F9AB4A0A210220FDF79CF99BA23221A1
:1032F0000420FDF797F9A448B0F85C2092B257215A
:103300000420FDF7D7F9A34A32210320FDF78AF9FB
:103310009D48B0F86C2092B257210320FDF7CAF9FE
:103320006088642190FBF1F201FB12000A2190FBFE
:10333000F1F0012809D0C0F00681032800F0848054
:1033400042D3042800F0BF80FDE081A2282106209E
:10335000FDF768F960880A2190FBF1F201FB120089
:10336000002802D0012801D02DE02CE078A24D21C8
:103370000620FDF757F90021342000F04CFB2072A5
:10338000207A282801DA282005E0207A8D2801DB20
:103390008C2000E0207A2072207A00F09BFB002233
:1033A0007D4B00F0A5FB00227C4B00F015FC0022B9
:1033B0007B4B00F035FD00227A4B00F099FB00F0CA
:1033C0002DFE71498865BEE061A228210520FDF728
:1033D00029F960880A2190FBF1F201FB1200002814
:1033E00002D0012801D02EE02DE059A24D21052068
:1033F000FDF718F90021342000F00DFB2072207A2F
:10340000282801DA282005E0207A8D2801DB8C208D
:1034100000E0207A2072207A00F05CFB00225E4BF4
:1034200000F066FB00225D4B00F0D6FB00225C4BF7
:1034300000F0F6FC00225B4B00F05AFB00F0C2FDEE
:103440005149A1F85E007EE041A228210420FDF749
:10345000E9F860880A2190FBF1F201FB12000028D4
:1034600002D0012801D02DE02CE039A24D2104200A
:10347000FDF7D8F80021342000F0CDFA2072207A30
:10348000282801DA282005E0207A8D2801DB8C200D
:1034900000E0207A2072207A00F01CFB00223E4BD4
:1034A00000F026FB00223D4B00F096FB00223C4B37
:1034B00000F0B6FC00223B4B00F01AFB00F0AEFD22
:1034C000314988653FE022A228210320FDF7AAF8B0
:1034D00060880A2190FBF1F201FB1200002802D063
:1034E000012801D02EE02DE019A24D210320FDF787
:1034F00099F80021342000F08EFA2072207A2828D2
:1035000001DA282005E0207A8D2801DB8C2000E0FC
:10351000207A2072207A00F0DDFA00221E4B00F0A3
:10352000E7FA00221D4B00F057FB00221C4B00F075
:1035300077FC00221B4B00F0DBFA00F043FD124940
:10354000A1F86C00FFE701E000206080E07910BD89
:103550002A000000425F5400625F6D00425F4D0030
:10356000E4990000EC990000F4990000FC99000037
:10357000049A00000C9A0000149A00001C9A0000A3
:10358000249A0000CC9800007428FF1F102BFF1F06
:103590002C9A0000349A0000000044C000005940FA
:1035A0000000694000406F4070B504000D00160037
:1035B0004FF480712000C0B200F078FD6DB2002D94
:1035C00011D16048E4B2611150F821005D49E4B2C4
:1035D000621151F822104969012214F01F039A4028
:1035E0009143416136E05748E4B2611150F821003F
:1035F0005449E4B2621151F822104969012214F0D1
:103600001F039A4011434161F6B2002E11D14D487B
:10361000E4B2611150F821000068012114F01F028A
:10362000914088434749E4B2621151F82210086082
:1036300010E04448E4B2611150F821000068012113
:1036400014F01F02914008433E49E4B2621151F860
:103650002210086070BD38B504000D003948E4B28E
:10366000611150F82100406914F01F010200CA40A6
:10367000D00703D46321344800F085FDEDB2002D5E
:1036800011D13048E4B2611150F8210000680121E5
:1036900014F01F02914088432A49E4B2621151F8A4
:1036A0002210086010E02748E4B2611150F82100B0
:1036B0000068012114F01F02914008432149E4B23F
:1036C000621151F82210086031BD10B504001D4888
:1036D000E4B2611150F82100406914F01F010200AA
:1036E000CA40D00703D47B21174800F04CFD154891
:1036F000E4B2611150F82100012114F01F02914041
:10370000C16010BD10B504000E48E4B2611150F85C
:103710002100406914F01F010200CA40D00703D500
:103720008C21094800F02FFD0648E4B2611150F8E1
:103730002100006914F01F010200CA4012F00100CC
:1037400010BD0000480BFF1FF095000010B50400ED
:10375000002C15D0B4F1807F03D329210F4800F04D
:1037600012FD00200E4908600E48046000200E493A
:10377000086005200A49086009480068C003FBD5B5
:1037800010BD10B504002000441E002804D00748D6
:103790000068FFF7DBFFF6E710BD00000C950000A6
:1037A00010E000E014E000E018E000E03433FF1F18
:1037B00000F10103810704D010F8011B89B18107D2
:1037C000FAD10268B2F10131914311F0803F04BF98
:1037D00050F8042FF6E710F8011B11B110F8011B87
:1037E000FBE7C01A704750F8041B61B150F8042B76
:1037F000D30744BFA9F101039A180023091F42F817
:10380000043BFAD1EFE7704738B5040064B26511A4
:10381000EDB2002D02D0012D11D021E0A3480068A7
:1038200050F00060A1490860A148006830F09000A5
:103830009F4908609E4800689D49086014E09D48C3
:10384000006850F000609B4908609948006830F4B7
:10385000104097490860964800689549086003E061
:103860003321954800F08FFC64B22000002800F05E
:103870008980012800F08680032800F083800828D2
:103880004ED0092851D00A2854D00B2857D00C28E4
:103890005AD00D285DD00E2860D00F2863D0102894
:1038A00070D0112864D0122867D013286AD0142849
:1038B00068D01A2866D01D2864D01E2862D020281F
:1038C00061D021285FD023285DD024285CD0252812
:1038D0005FD0262862D0272865D0282868D02928DC
:1038E0006BD02A286ED02B2871D02C2874D02D288C
:1038F00077D02E287AD02F287DD0302800F08580F0
:1039000031287DD0322800F0808033287DD03428C3
:103910007BD03A2879D03D2877D03E2875D075E005
:103920000021202000F0C2FB74E00021212000F0E3
:10393000BDFB6FE00021072000F0B8FB6AE000212A
:10394000082000F0B3FB65E00021222000F0AEFB70
:1039500060E00021232000F0A9FB5BE00021402073
:1039600000F0A4FB56E00021412000F09FFB51E055
:103970000021982000F09AFB4CE00021992000F0F3
:1039800095FB47E046E045E00021802000F08EFBFB
:1039900040E00021812000F089FB3BE000218220F3
:1039A00000F084FB36E00021832000F07FFB31E053
:1039B0000021202000F07AFB2CE00021212000F0E3
:1039C00075FB27E00021242000F070FB22E000219D
:1039D000252000F06BFB1DE00021262000F066FB97
:1039E00018E00021272000F061FB13E000212A20CD
:1039F00000F05CFB0EE000212B2000F057FB09E0FB
:103A00000021112000F052FB04E003E09A212A4833
:103A100000F0B9FB31BDF8B504000D0064B26611C9
:103A20000027290049B2200040B200F01CF82348CA
:103A300076B250F8260000680006F8D51F4876B226
:103A400050F82600006907001C4876B250F826009E
:103A5000006830F08000194976B251F826100860ED
:103A6000380080B2F2BD30B440B2421110F01F03F2
:103A700049B28C0014F00C0454F050040F4D52B2B3
:103A800055F82250AC6004240C4D52B255F8225027
:103A9000EC60DBB213F01F0454F04004074D52B247
:103AA00055F822502C6030BC704700003C80044028
:103AB0001880044030800440489500002804FF1F0F
:103AC000010040F10980F446404200F005F851F051
:103AD00000416047010000BF09D0B0FA80F1884082
:103AE000C91CC1F58461090501EBD021400570476F
:103AF00070B44FF0004591EA030C44BF6B4000F0F6
:103B0000DFBB00BF841A71EB030603D2001BB14177
:103B1000121973414FF4001C1CEB410F34BF7CEBB6
:103B2000430443E00C0DA4EB1356352E50DC45EA5C
:103B3000C323DB0A45EAC121C912B6F120050DDD18
:103B400063FA05F6EB4086EA0305124218BF45F01A
:103B50000105C01851F100010CD213E062FA06F51C
:103B6000F2405540F3415A40B340F3405A40801868
:103B7000594107D349085FEA30005FEA350528BF9D
:103B800045F0010501F58011420875F1004250F140
:103B9000000041EB045170BC4FF4001C1CEB410FC2
:103BA00038BF70470020090D090570471CEB410F15
:103BB00010D252EA43060BD0BCEB410F05D80C0DD6
:103BC000AB43661E342EB5DD02E0AB43801859418D
:103BD00070BC704770BC7047F0B540F2FF7581EA69
:103BE000030C0CF0004C15EA11541DBF15EA1357D5
:103BF000AC42AF42E5E0BC41C1F31301C3F3130390
:103C0000801A994143F4801304D2641E4000494154
:103C100080185941C90241EA5051B1FBF3F603FB48
:103C20001611A2FB0675D7EBC020A94102D2761E61
:103C300080185941C90241EA5051B1FBF3FE03FB20
:103C40001E11A2FB0E75D7EBC020A94103D2AEF125
:103C5000010E80185941890241EA9051760546EAE1
:103C60008E2EB1FBF3F603FB1611A2FB0675D7EB04
:103C70008020A94102D2761E80185941C90241EA2A
:103C800050514EEA060EB1FBF3F603FB1611A2FBF0
:103C90000675D7EBC020A94102D2761E8018594183
:103CA000C90241EA5051B1FBF3F703FB1711A2FB24
:103CB0000735D3EBC020A94167F100070CBF0042D4
:103CC00047F0010766F3D5274FEA1E31B80814F50F
:103CD000806412DDBD0775F1004250EB0E5051EBD0
:103CE000045111F5801F5CBF41EA0C01F0BD4CF09E
:103CF0007F6141F0E0410020F0BDBD076D0840EA62
:103D00000E5041F48011D4F10104B4F120060ADA16
:103D1000C4F120060200E04001FA06F3E140184336
:103D2000B24015430EE0342C13DCC6F1200445EA02
:103D300040056D0820FA06F2154321FA06F0A1406D
:103D40000D43002175F1004250F1000051EB0C01D0
:103D5000F0BD00205FEA0C01F0BDCFB992185B41C5
:103D6000B3FA83F704BFB2FA82F6BF190B3FB7F17B
:103D700020062FBF02FA06F3BB40C7F1200622FA45
:103D800006F638BF3343BA401CB1E419641E33E76A
:103D90007F4231F00041B1FA81F404BFB0FA80F6FD
:103DA000A4190B3CB4F120062FBF00FA06F1A14084
:103DB000C4F1200620FA06F638BF3143A0403C1B70
:103DC0001AE7AC421ABF05EA1357AF4212E050EAB5
:103DD00041061CBF52EA4306BFE750EA410730469E
:103DE00061461CBF41EA0551F0BD52EA430C08BFD1
:103DF000C143F0BD00204FF4001616EB410F98BFF1
:103E000016EB430F08BF16EB410F24BFC14305E07B
:103E100016EB430F0CBF61464CEA0551F0BD0000A4
:103E2000B0B581EA030C0CF0004C40F2FF7515EAC6
:103E300011541DBF15EA1357AC42AF4239E0E419E3
:103E400023EA455343F48013C90241F0004141EA9B
:103E5000505EC7021100A7FB020200284FF00000CD
:103E6000EEFB01204FF00001E3FB072118BF42F0F9
:103E70000102401800214941E3FB0E01A4F58064D2
:103E80000F0302D252004041494154F101046CDD5C
:103E9000470872F1004250F1000051EB0451A1F5C6
:103EA00080115CBF41EA0C01B0BD4CEA0551002015
:103EB000B0BD05EA1357AC4214BFAF4241E050EA2F
:103EC000410E1CBF52EA430E02E061460020B0BD25
:103ED00024423C441BD15FEA070EF6D0090302BF1F
:103EE00001460020AEF1140EB1FA81F7AEEB0704E3
:103EF00001FA07FE0C37C7F1200100FA07F7C840A6
:103F00004EEA000E23EA455343F48013A2E733F050
:103F10000043B3FA83F704BFB2FA82FE77440B3F43
:103F2000E41BB7F1200E2FBF02FA0EF3BB40C7F11E
:103F3000200E22FA0EFE38BF43EA0E03BA40641C7C
:103F400082E750EA410E14BF52EA430E6FF00001BF
:103F50004FF4001717EB430F8ABF194617EB410FB9
:103F6000B5E74CEA05510020B0BDD4F10104B4F12D
:103F700020070FDAC4F12007520828BF42F00102DF
:103F800010FA07F501FA07F7E1BF2A43E04038438A
:103F9000E1400FE0352C98DCC7F1200452EA4002E2
:103FA00020FA07F218BF42F0010231FA07F0A140EF
:103FB0000A43002172F1004250F1000051EB0C0164
:103FC000B0BD0000F446400D40EAC120490006D2D1
:103FD00000F014F8004248BF6FF00040604700F066
:103FE0000DF84FF0004188428CBF084640426047C0
:103FF000400D40EAC120490080F00D8040F00040B3
:10400000490DA1F58061491C05D4D1F11F0154BFB0
:10401000C840C01770474FF0000070474FEAF17C6E
:10402000BCF1E04C2CBFBCF5001F11E05FEA4C0C6A
:1040300034BFBCF17F5F2EE05FEA9C0C4FEA0C1CA2
:104040004FEA3C0CC10071F100414CEB50707047DD
:10405000C90241EA5051C00218BF41F0010141F0CC
:1040600000414FEA6C50C0F10900212810D240EA0B
:10407000CC7CCCF1200C11FA0CF070F10040CCF1AA
:10408000200C21FA0CF00CF0004C40EB0C007047B7
:104090004FEACC707047490011F5001F04D84FEA71
:1040A000CC10FF30C0057047C817704710B4294ABC
:1040B00012684FF40073C0B24409A3401A43254B61
:1040C0001A60254AC0B2431152F82320012310F090
:1040D0001F04A340C2F8A0301F4AC0B2431152F8D7
:1040E0002320C0B210F01F0342F8231010BC704709
:1040F00010B4184A12684FF40073C0B24409A340C8
:104100001A43144B1A60144AC0B2431152F82320C8
:10411000012310F01F04A340C2F8A03031F4E06185
:104120000D4AC0B2431152F82320C0B210F01F0351
:1041300052F8232012F4E0621143074AC0B243113F
:1041400052F82320C0B210F01F0342F8231010BC15
:104150007047000038800440B80BFF1FDFF800F004
:10416000D10EFF1FDFF800F0F50EFF1FBFF34F8FDA
:104170004648006810F4E060454908434349086038
:10418000BFF34F8FFEE738B504000D00002000F0AC
:104190004DF92A0021003F4800F080F9002000F08E
:1041A00062F94FF47A70FFF7ECFAF2E738B50400E1
:1041B0000D00210049B2042000F0A6FA200032BD13
:1041C00010B50024042000F0DBFA042000F00EFB00
:1041D000002841D1002000F029F9042000F006FB5E
:1041E000012801D101200400002000F03CF92A48F8
:1041F00000F054F94FF4FA70FFF7C3FAE4B2012C5F
:10420000EBD1042000F0F2FA0028E6D1042000F0FF
:10421000EDFA002806D1002000F025F96420FFF710
:10422000B0FAF3E7042000F0E1FA012806D10020FB
:1042300000F019F93220FFF7A4FAF3E7174800F06D
:104240002DF9FFF78BFF6420FFF79BFA0020FFF7A3
:1042500089FFFFF78BFFC0E710BD10B51048046859
:10426000012000F0E3F8012000F0FDF80D48E4B271
:104270000F2101FB0402E4B221000B4800F00EF90B
:104280004FF47A70FFF77DFAEDE700000CED00E0E7
:104290000400FA052C97000018980000849700008D
:1042A00004ED00E03004FF1FD094000070B44FF024
:1042B000004591EA030F44BF6B40FFF723BC00BFEA
:1042C000841A71EB030604D26E40001BB14112192F
:1042D00073414FF4001C1CEB410F34BF7CEB4306D1
:1042E00084E00C0DA4EB1356362E7DDC012E43DC4E
:1042F00045EAC32343EA525312BFD20292025B083B
:10430000240545EAC12141EA5051D2EBC020994130
:1043100025D407D1B0FA80F610FA06F164D0002057
:10432000203608E0B1FA81F6B140C6F1200220FA49
:1043300002F21143B0404FEAF474B4EB465434F047
:1043400001064FEA74040AD8D6F50016760D04F07B
:104350000044F04061FA06F25040F1404840C00A83
:1043600040EA415021F0004128BF5FEA500550F17A
:10437000000044EBD12137E045EAC323DB0A45EADC
:10438000C121C90AB6F120050EDD42EA0242120C33
:10439000C5F1200603FA06F6EB4042EA06056D4237
:1043A000984161F100010DE062FA06F5F2405540D6
:1043B00063FA06FC82EA0C02F3405A406D429041D7
:1043C00061EB030111F4801F05D1641E620502D068
:1043D0006D004041494121F48011430875F10043CB
:1043E00050F1000041EB045170BC70471CEB410FD1
:1043F00015D223F0004352EA43060BD04FEA4C0C8F
:10440000BCEB410F04D80C0D661E342EB7DDEBE774
:10441000801A994150EA410608BF0021E4E708BF2D
:104420001CEB430F28BF6FF00001DDE710B504005F
:1044300064B2042C07DA01220121174864B2205C1F
:10444000FFF7B2F80EE0042004002000441E40B242
:10445000002807D0012201210F4864B2205CFFF739
:10446000A3F8F2E710BD10B5040064B2042C05DA1D
:10447000094864B2205CFFF728F90CE0042004002E
:104480002000441E40B2002805D0034864B2205CDE
:10449000FFF71BF9F4E710BD5C0EFF1F0EB400B56B
:1044A00082B003A90091024600AB01210348784481
:1044B0000A3000F0B3F906BC5DF810FB255300008C
:1044C000012110F01F029140DFF8982240B2430909
:1044D00042F8231070472DE9F84304000D0064B240
:1044E000002C08D0022C2CD018D3042C4FD03BD356
:1044F000052C5FD071E0DFF87002006850F4806036
:10450000DFF8641208604FF440716620FFF7CEFDBB
:104510004FF440716720FFF7C9FD5EE0DFF8480205
:10452000006850F40060DFF8401208604FF44071FA
:104530004320FFF7BBFD4FF440714420FFF7B6FD69
:104540004BE0DFF82402006850F48050DFF81812C6
:1045500008604FF440716320FFF7A8FD4FF44071ED
:104560006220FFF7A3FD38E0DFF8FC01006850F49B
:104570000050DFF8F41108604FF440715020FFF74D
:1045800095FD4FF440715120FFF790FD25E0DFF8D5
:10459000DC01006850F48060DFF8D01108604FF44F
:1045A00040714E20FFF782FD4FF440714F20FFF71E
:1045B0007DFD12E0DFF8B401006850F40060DFF820
:1045C000AC1108604FF440718920FFF76FFD4FF484
:1045D00040718820FFF76AFDFFE7DFF8940164B2BD
:1045E00050F82400C07810F0F300DFF8841164B2B2
:1045F00051F82410C870DFF8780164B250F8240034
:104600008078DFF86C1164B251F82410887064B2BD
:10461000002C02D064B2012C07D1DFF858010068E9
:104620004FF47A714843814606E0DFF84C01006898
:104630004FF47A71484381462801B9FBF0F0060037
:10464000B6B2B6F5005F02DB41F6FF700600B9FBBB
:10465000F5F0B6B2B0EB06100700BFB2202F03DBB7
:10466000DC214648FFF78FFD414864B250F8240032
:10467000007810F0E0008046C6F3042050EA0800FD
:104680003B4964B251F824100870394864B250F8BC
:1046900024004670364864B250F82400807A10F046
:1046A000E000804617F01F0050EA0800304964B26D
:1046B00051F8241088722E4864B250F82400007C0F
:1046C00050F088002A4964B251F824100874284830
:1046D00064B250F82400C07850F00C00244964B251
:1046E00051F82410C870BDE8F183214A40B252F855
:1046F000202012799206F8D51D4A40B252F82020A7
:1047000092F907200A707047194A40B252F82020E7
:1047100012791206F8D5164A40B252F82020D1710B
:1047200070470100124849B250F82100807D0028EE
:1047300001D0012000E00020704710B504000C48B3
:1047400064B250F82400C07850F02000084964B2E8
:1047500051F82410C87064B260002D3040B2FFF7E9
:10476000AFFE10BD00E100E034800440288004402A
:10477000CC0BFF1F3433FF1F3C33FF1F609600003C
:1047800010B5040064B2082C0DDA00220021224882
:1047900064B2205CFEF708FF03211F4864B2205C6E
:1047A000FFF7A6FC14E0082004002000441E40B2DD
:1047B00000280DD000220021174864B2205CFEF7CB
:1047C000F3FE0321144864B2205CFFF791FCECE790
:1047D00010BD10B50400104864B2205CFEF792FFD3
:1047E000002801D1002000E0012010BD10B5040018
:1047F000200040B2FFF7EDFF00280AD10A20FEF7A3
:10480000C0FF200040B2FFF7E4FF002801D10020E4
:1048100000E0012010BD0000540EFF1F2DE9F04FF5
:10482000A1B08246002017461D4602910B900DF163
:10483000440B6FF000490AE017F8011B0298D047BB
:104840000290002800F0A8820B98401C0B9038784A
:1048500008B90B98A2E22528EED100200590069019
:104860000790089009900A9001E040F0010017F8C5
:10487000011F2029F9D023290DD02B2904D02D295F
:1048800006D030290AD00CE040F0020080B2EEE7FA
:1048900040F00400FAE740F00800F7E740F01000AD
:1048A000F4E72A290ED12968296051F8042B2960E0
:1048B000002A0D9204D5514240F004000D9180B2BF
:1048C0007F1C11E000210D9109E00D99494505D0AB
:1048D00001EB810302EB430130390D917F1C3A78E3
:1048E000A2F130010A29F0D339782E2903D04FF0F4
:1048F000FF310C911DE017F8011F2A2907D1296803
:1049000029607F1C51F8042B29600C9211E00021D2
:104910000C9109E00C99494505D001EB810302EBAC
:10492000430130390C917F1C3A78A2F130010A29F9
:10493000F0D3ADF838000FF65C40397800F038FE5F
:1049400008B117F8010B8DF83A009DF83A00682875
:1049500002BF39786829622005D06C2804BF3878F6
:104960006C2803D171208DF83A007F1C11A80490A7
:1049700017F8014BB4F125002AD01C3800F0CC8088
:10498000001F022840F2C880133800F0EE8009387A
:1049900000F0C280801E00F04F81401E00F0248194
:1049A000401E022840F2B880001F00F01D81401F09
:1049B00000F08380401E00F0D880401E29D0C01E29
:1049C0000CD0801E00F0D180C01E00F0CE803DE1F2
:1049D0000120059025208DF8440043E128682860D7
:1049E00050F8044B28600394DDF83080B8F1000FD4
:1049F00004D52046FEF7DCFE804607E04246002153
:104A0000204600F0E1FD08B1A0EB0408CDF81880C5
:104A100028E1296829604FF03C0851F8040B29600F
:104A20000021CDE9000111A80390DDE90001049CFB
:104A300011B908B90C9AC2B10206120FA0EB02120A
:104A40003032D2B23A2AA8BF27320009A8F10103B6
:104A500040EA017009091A5508BF0028984604D099
:104A6000039A08EB04039A42E6D308EB0400039090
:104A7000C8F13C010C980691814209DA401A08906D
:104A80004FF6EF71BDF838000840ADF83800E9E0A6
:104A9000002840F1E7809DF8380000F0140010284D
:104AA00040F0E0800D98059A801A089A801A401A02
:104AB0000128C0F2D7800890D4E09DF83A0062281F
:104AC0001AD0682806D06A280CD06C281CD071280F
:104AD00008D019E02868286050F8041B28600B985B
:104AE0000880BFE02868286050F8042B28600B98E5
:104AF000C117C2E90001B5E02868286050F8041B1E
:104B000028600B980870ADE02868286050F8041BF6
:104B100028600B980860A5E02868C01D20F00702F7
:104B20002A60D2E9000108322A60CDE9000100299B
:104B300003D5012005902D200CE0BDF83800810739
:104B400003D5012005902B2004E0C00704D50120E7
:104B5000059020208DF84400059911A808180390AD
:104B6000214600A800F0D8F97CE09DF83A206C2A94
:104B70000DD0712A18BF6A2A09D12868C01D20F0FB
:104B800007032B60D3E9000108332B6005E0296897
:104B9000296051F8040B29600021CDE90001682A41
:104BA00008BF80B207D0622A08BFC0B203D0742AFF
:104BB00018BF7A2A02D10021CDE900019DF8380002
:104BC000000730D5DDE90001002908BF00282AD000
:104BD00044F02000782826D130208DF844008BF84E
:104BE0000140022005901EE09DF83A00294600F0A1
:104BF000D8F8CDE90001002904DA0598411C059197
:104C00002D210EE0BDF83800810704D50598411C20
:104C100005912B2105E0C00705D50598411C05919C
:104C2000202100F80B10059911A8081803902146BF
:104C300000A800F0EDF815E0012005902868286034
:104C400050F8041B28608DF844100BE001200590FB
:104C50002520002C8DF8440004D00598411C0591B6
:104C600000F80B400D980599401A0899401A0699CA
:104C7000401A0999401A0799401A0A99A0EB0108AD
:104C80009DF8380040070FD420208DF84000002404
:104C900008E0012310AA00A9504600F064FC002897
:104CA0007AD1641C4445F4DB059C11AE0AE016F889
:104CB000011B0298D047029000286DD00B98401C31
:104CC0000B90641E002CF2D130208DF8400000269D
:104CD000089C08E0012310AA00A9504600F043FCFC
:104CE000002859D1761CA642F4DB069C039E0AE0FC
:104CF00016F8011B0298D047029000284CD00B9860
:104D0000401C0B90641E002CF2D130208DF8400026
:104D10000026099C07E0012310AA00A9504600F0D4
:104D200022FCC8BB761CA642F5DB03980699079CBB
:104D30000E1809E016F8011B0298D047029058B3EC
:104D40000B98401C0B90641E002CF3D130208DF882
:104D5000400000260A9C07E0012310AA00A9504643
:104D600000F001FCC0B9761CA642F5DB9DF83800C6
:104D700040077FF56CAD20208DF84000002400E056
:104D8000641C4445BFF663AD012310AA00A9504638
:104D900000F0E9FB0028F3D04FF0FF3021B0BDE870
:104DA000F08F622826D068281DD06A2808D06C2889
:104DB00027D0712804D0742823D07A280CD020E082
:104DC0000868C01D20F007000860D0E90023083003
:104DD00008601946104670470A680A6052F8040BCA
:104DE0000A60002170470A680A6052F8040B0A60E2
:104DF00000B20BE00A680A6052F8040B0A6040B285
:104E000004E00A680A6052F8040B0A60C117704790
:104E10002DE9FA4E05460A462F696F2A08BF082475
:104E200005D041F02000782814BF0A2410243C2625
:104E3000D5E90001642A18BF692A81468A4605D14E
:104E4000002903DAD9F100096AEB4A0ABAF1000F26
:104E500008BFB9F1000F0CD1286B50B9082C36D11E
:104E600095F83800000732D530203B2687F83B0004
:104E70002DE0E31748465146224600F0D1FBA4FB43
:104E80000023A9EB02023032D2B2A6F1010B3A2A7A
:104E90005E4603DB9DF80030513B9A1881465FEA7D
:104EA000010A0BF8072008BFB9F1000F03D0E8682A
:104EB000F1198842DDD3082C09D195F83800000794
:104EC00005D5F05D302802D0761E3020F055C6F1B1
:104ED0003C00A861F119E960296B884208DA081AD8
:104EE00028624FF6EF71288F08402887BDE8F38EBF
:104EF00000290ED595F8381001F01401102908D1B9
:104F0000696B6A69891A2A6A891A081A0128A8BF6E
:104F10002862BDE8F38E00002DE9F24F04468EB002
:104F2000D4E90001CDE9020104AF9DF8380040F05A
:104F3000200BBBF1610F0AD0206B002848BF062070
:104F400004D408BFBBF1670F01D101202063616861
:104F5000C1F30A5040F2FF7290421CD1080304BF13
:104F60002068002809D10320A0619DF8380061382D
:104F70001A2836D30FF2306108E00320A0619DF8B3
:104F8000380061381A2829D30FF21461E06803222F
:104F900000F0BEFBBEE1012816DA204600F0F3FB6C
:104FA000012811DB00250020BBF1610F20D1E16851
:104FB000302201F8012B4A1CE2609DF83820612A5A
:104FC0000CBF782258220FE0626840F2FE3161F394
:104FD0001E52451A62604FF0FF30E5E70FF2BC51F8
:104FE000D4E70FF2C051D1E70A706169891C616191
:104FF00010B90026002584E1BBF1610F40F09780D5
:10500000206B00284CBF2126461CDDE90201D4E9B3
:1050100000AB0022002300F0D7FB36B23ABF8BF082
:105020000040CDE902A0CDE902AB06F101082D1F39
:105030008DF810200DF1110700E0C71DB8F1010F28
:1050400033DBDDE902010022002300F0D5FB2CD286
:105050001C2102A800F0E8FBDDE90201FEF7B2FF27
:10506000A8F10708B8F1010F814609DBFEF728FD1A
:1050700002460B46DDE90201FFF718F9CDE902010E
:10508000F81D072105E009F00F0200F8012D4FEA95
:105090002919B9F1010F01DB491EF4D5491E5CBF86
:1050A000002200F8012DF9D5C7E70DF11100391ADA
:1050B000B142B8BF0E4636B230000DF111072FD401
:1050C000884206DA04A9411849780829A8BF0F21A7
:1050D00000DA002104AA821800E0761E12F80139D5
:1050E000401E8B42F9D00F2904D104A941184A78F7
:1050F000521C4A70002802D504AF761C2D1D36B212
:10510000701E0DD4C1190A783032D2B23A2A03DBAC
:105110009DF838303A3B9A18401E01F80129F2D523
:10512000206B002840F1ED80701E2063E9E0DDE98E
:1051300002010022002300F047FB3CBF81F0004148
:10514000CDE902012DB247F2975068434B49DFF891
:10515000309190FBF1F52DB2C5F1070ABAF1010FBC
:1051600090461CDBDDE902675FEACA7007D542465C
:105170004B4630463946FEF753FE06460F464FEA89
:105180006A0A4046494642464B46FEF749FEBAF196
:10519000000F80468946E7D1CDE9026724E0CAF1D5
:1051A000000A0026374F14E05FEACA7007D542466E
:1051B0004B4630463946FEF733FE06460F464FEA69
:1051C0006A0A4046494642464B46FEF729FE80465B
:1051D0008946BAF1000FE7D1DDE9020132463B46CC
:1051E000FEF7FAFCCDE90201BBF1660F216BDFF897
:1051F00098900CBF05F10A0006204618142EA8BF8F
:10520000132630208DF810000DF11107012E3DDB23
:10521000DDE90201FEF7ECFE07F1080104220A2392
:10522000B0FBF3F303EB8307A0EB4700303001F84A
:10523000010D0A20B3FBF0F000EB8007A3EB47035E
:105240003033521E01F8013DE9D1083E012E01F133
:105250000807DBDBDDE90201FEF7CAFEFEF73AFCD8
:1052600002460B46DDE90201FFF720F800224B461B
:10527000FEF7D6FDCDE90201CAE700BFA086010016
:10528000000024400000F03F84D797410DF1110049
:10529000381A0DF1110702E0401E6D1E7F1C39788F
:1052A0003029F9D0BBF1660F02D12DB2691C04E0A0
:1052B000BBF1650F0CBF01210021226B8E1836B2A5
:1052C000B042B8BF064636B231001AD4814204DA81
:1052D000C85D3528A8BF392000DA3020CA19521E0F
:1052E00000E0761E12F80139491E8342F9D03928B0
:1052F00002D1C85D401CC855002902D57F1E761C0E
:105300006D1C2DB29DF83810009533B23A462046F8
:1053100000F003F80FB0BDE8F08F2DE9F04786B03C
:1053200006468A4690461D4600F027FB406A376BCA
:1053300090F80090012D02DA01250FF270284AF052
:105340002000BDF93840662808BF641C12D06728C9
:1053500076D114F1040F79DBBC4277DA96F8380085
:10536000641C000702D4BD42B8BF2F4624B23F1BC5
:1053700048BF002724B2F068B169012C21DA4A1C29
:1053800030230B54012F03DA96F83810090702D5A1
:1053900002F80090521CE742B8BF7C4224B261423E
:1053A000E719AF42B261B8BF3D4671622DB2F561F7
:1053B0002A46B3694146181800F0AAF9781BB06272
:1053C000BAE00818A54216DA2A46414600F0A0F9CC
:1053D000B1696918601BB161012F706203DA96F838
:1053E0003800000705D5F06801F80090F069401C0E
:1053F000F061B762A0E02246414600F089F9B06949
:1054000020182D1B012F03DA96F83810090703D551
:10541000F16800F80190401CB0612DB2AF42B8BFF6
:105420003D46F068B3692DB22A4604EB080118180E
:1054300000F06EF9B0692818B061781B70627BE0EB
:10544000BAF1610F14D14FF0700A16E0BD4204DAD0
:1054500096F83810090758BF2F467F1E48BF00270F
:10546000BAF1670F14BF4FF0450A4FF0650A04E028
:10547000BAF1410F08BF4FF0500AB169F06818F84F
:10548000013B0B544A1C012F05DA96F83810090726
:1054900058BFB26115D502F80090531C012FB361BB
:1054A0000FDB6D1E2DB2AF42B8BF3D462DB22A466E
:1054B0004146181800F02CF9B0692818B061781B23
:1054C0007062F068B16901EB0008200008F801ABD8
:1054D00003D42B2008F8010B03E02D2108F8011B51
:1054E0006442002502AF08E00A2200A800F05EFA3C
:1054F000019807F8010B6D1C009C21B20129F3DA19
:10550000022D06DA4AF02000652804BF302008F892
:10551000010B4DB9302008F8010B07E06D1E02A801
:10552000285C303008F8010B012DF7DAF068B1691A
:105530000818A8EB0000F06196F8380000F014009D
:1055400010280DD17069B1690818716A0818F169DD
:105550000818B16A0818716B8842BCBF081A30621B
:1055600006B0BDE8F087F8B504460D4616461F465E
:10557000002004E0E86A401CE8627F1E002047B17A
:1055800016F8011BA868A047A8600028F2D14FF0C8
:10559000FF30F2BD686A6C747A4C00006E616E0078
:1055A0004E414E00696E6600494E460030000000D4
:1055B0000278C9B28A421AB11CBF10F8012FF9E76C
:1055C00018BF002070470000C9B2830706D0521EE2
:1055D00022D310F8013B9942F7D11FE0083A13D3C8
:1055E00002F1040241EA012141EA014150F8043B81
:1055F000121F21BF4B40A3F1013C2CEA030C1CF00D
:10560000803FF3D0C9B2001F083210F8013B521E90
:1056100028BF91EA030FF8D818BF0120401E704739
:105620001B4213D1094236D12AB18446B0FBF2F0B5
:1056300002FB10C2704700F0C1B9FCD30022002366
:1056400070470B000200002100207047904271EB70
:10565000030CF6D370B5B1FA81F4B3FA83F52C1BC1
:10566000A340C4F1200532FA05F63343A2405FF0AF
:105670000046E64002E05B085FEA3202841A71EB02
:10568000030524BF204629467641F4D302000B00CF
:105690003000002170BD012ACFD970B5140C20D084
:1056A000B1FA81F4B2FA82F5C4F120046419B4F1BC
:1056B0002006D6D3B2405FF00044F440002502E05B
:1056C00052085FEA3303C61A71EB020E24BF30465C
:1056D000714664416D41F3D302000B0020002900A4
:1056E00070BD0C46B1FBF2F102FB11452D0445EAF9
:1056F0001045B5FBF2F402FB145580B240EA0545B3
:10570000B5FBF2F002FB105240EA044070BD00000D
:1057100062B38B0708D0521E11F8013B00F8013B21
:1057200000F024808B07F6D1830740F0208000BF73
:10573000103A07D330B4B1E83810103AA0E8381066
:10574000F9D230BC530724BFB1E80810A0E8081014
:1057500044BF51F8043B40F8043BD20724BF31F862
:10576000022B20F8022B44BF0B7803707047083AD5
:1057700007D3B1E80810083A40F8043B40F804CBDE
:10578000F7D25307E4E730B4436803F00042012145
:105790001B031B0B436004BF0368002B08D10DE003
:1057A0000368DD0F45EA440444605B000360491E62
:1057B0004468E302F4D523031B0B436043681A4398
:1057C0004260084630BC70474FF4001C1CEB410F90
:1057D00094BF1CEB430F09E041EA030C50EA4C0C68
:1057E00052EA0C0C03D2994208BF9042704714BF92
:1057F0008B428242704700004FF4001C1CEB410FAB
:1058000094BF1CEB430F09E041EA030C50EA4C0C37
:1058100052EA0C0C03D28B4208BF8242704714BF7D
:10582000994290427047000070B504460D4660688A
:10583000C0F30A5040F2FF71884207D1606800034C
:1058400004BF2068002817D0022070BD20B9204670
:10585000FFF799FF012868DA012D0FDB40F2FF7195
:10586000091A8D420AD3606800284CBF9FED300BA7
:105870009FED310B84ED000B012070BD4142A94228
:10588000616806DA6FF31E51401941EA005060600A
:1058900042E0401E63684519012205F1350062F3BC
:1058A0001F53352801F00041636003D3616000207D
:1058B000206070BD002215F11F0F04DA22682360FA
:1058C000002020356060684214D0521E2568924145
:1058D000C0F12003D2439D4045EAD272256825FAE3
:1058E00000F6656805FA03F333432360636823FA1F
:1058F00000F5656060680843B2F1004F606003D84E
:105900000DD12078C0070AD52068401C206020688F
:1059100028B96068401C60604FF0FF3070BD60685F
:10592000884204BF20680028F6D1002070BD00BF67
:10593000000000000000F0FF000000000000F07F09
:1059400080B5134800F03BF80FF248010160416058
:105950008160C1600161416181610FF23C0242627C
:105960008162C162016341630FF2300282630FF210
:105970003402C2630164416401BD10B5044800F003
:105980001EF80446206808B9FFF7DAFF204610BD6C
:10599000AC33FF1F000000002E00000066616C7336
:1059A00065000000747275650000000091FBF2F361
:1059B00003FB1211C0E900317047000070477047C7
:1059C000010100000000204200002042037C40034F
:1059D0007C404040409999D200B0034000B00B4059
:1059E00000000000000000000000000000000000B7
:1059F00000000000000000000000000000004E6FEA
:105A00006E4D61736B61626C6500000000486172ED
:105A1000644661756C740000000000004D656D4DBA
:105A2000616E6167656D656E7400004275734661F5
:105A3000756C7400000000000000557361676546D6
:105A400061756C74000000000000000000000000A0
:105A50000000000000000000000000000000000046
:105A60000000000000000000000000000000000036
:105A70000000000000000000000000000000000026
:105A80000000000000535643616C6C0000000000F1
:105A90000000000044656275674D6F6E69746F7237
:105AA00000000000000000000000000000000000F6
:105AB000000050656E6453560000000000000000B6
:105AC000005379735469636B00000000000000000C
:105AD000444D413000000000000000000000004480
:105AE0004D41310000000000000000000000444D66
:105AF00041320000000000000000000000444D4161
:105B0000330000000000000000000000444D41345C
:105B10000000000000000000000000444D4135007E
:105B200000000000000000000000444D413600006D
:105B3000000000000000000000444D41370000005C
:105B40000000000000000000444D4138000000004B
:105B500000000000000000444D413900000000003A
:105B6000000000000000444D413130000000000002
:105B70000000000000444D413131000000000000F1
:105B800000000000444D41313200000000000000E0
:105B9000000000444D4131330000000000000000CF
:105BA0000000444D413134000000000000000000BE
:105BB00000444D41313500000000000000000000AD
:105BC000444D415F4572726F720000000000004D4D
:105BD000434D00000000000000000000000046549B
:105BE000464C00000000000000000000005265610B
:105BF000645F436F6C6C6973696F6E004C56445FF1
:105C00004C565700000000000000004C4C570000AC
:105C10000000000000000000000057617463686429
:105C20006F6700000000000000524E4700000000B7
:105C30000000000000000000493243300000000076
:105C40000000000000000049324331000000000065
:105C50000000000000005350493000000000000028
:105C60000000000000535049310000000000000017
:105C70000000000053504932000000000000000006
:105C800000000043414E305F4F525F4D425F6275EE
:105C9000660043414E305F4275735F4F6666000099
:105CA0000043414E305F4572726F72000000000089
:105CB00043414E305F54785F5761726E696E67433F
:105CC000414E305F52785F5761726E696E67434133
:105CD0004E305F57616B655F557000000052657311
:105CE00065727665643531000000000052657365A9
:105CF000727665643532000000000043414E315F2A
:105D00004F525F4D425F6275660043414E315F42C4
:105D100075735F4F666600000043414E315F457208
:105D2000726F72000000000043414E315F54785F93
:105D30005761726E696E6743414E315F52785F57AB
:105D400061726E696E6743414E315F57616B655F8B
:105D500055700000005265736572766564353900D0
:105D6000000000005265736572766564363000008D
:105D700000000055415254305F52585F54580000A3
:105D8000000055415254305F45525200000000005F
:105D90000055415254315F52585F54580000000082
:105DA00055415254315F45525200000000000055E9
:105DB000415254325F52585F545800000000554120
:105DC0005254325F455252000000000000554152CB
:105DD00054335F52585F54580000000055415254EC
:105DE000335F4552520000000000005541525434C8
:105DF0005F52585F54580000000055415254345FC0
:105E000045525200000000000055415254355F5287
:105E1000585F54580000000055415254355F4552B8
:105E20005200000000000041444330000000000028
:105E30000000000000004144433100000000000069
:105E40000000000000434D50300000000000000042
:105E500000000000434D5031000000000000000031
:105E6000000000434D503200000000000000000020
:105E7000000046544D30000000000000000000000B
:105E80000046544D310000000000000000000000FA
