:10000000F8FF002011040000172900001729000044
:1000100017290000172900001729000017290000E0
:1000200017290000172900001729000017290000D0
:1000300017290000172900001729000017290000C0
:1000400017290000172900001729000017290000B0
:10040000FFFFFFFFFFFFFFFFFFFFFFFFFEFFFFFFFD
:1004100062B608F0F3FBFEE770B504000D0000269D
:10042000F6B2EDB2AE4208D23D48F6B2315649B20C
:10043000042002F01BF8761CF2E770BD10B5040032
:1004400038480078002808D1E4B2AA2C05D1012050
:10045000344908703448047061E03248007801285B
:1004600008D1E4B2AF2C05D102202E4908702E48E5
:10047000447054E02B480078022808D1E4B2F12CF3
:1004800005DA0320274908702748847047E025488B
:10049000007803280DD1E4B2322C0ADA0420214975
:1004A00008702148C4702148047000202049087059
:1004B00035E01C48007804281AD11C480078002830
:1004C00016D01A480078401E184908701648184976
:1004D00009780818047116480078401C14490870FF
:1004E0001248007800281AD105200E49087016E03D
:1004F0000C48007805280FD100200A4908700A48E6
:100500000B4909780818047109480078411DC9B2DF
:10051000054800F00FF802E000200249087010BD05
:10052000BC15FF1F7920FF1FF015FF1F7720FF1F4D
:100530007820FF1FF8B504000D00002600270020DA
:10054000C0B2EDB2691E884204DAC0B2015D8E19F4
:10055000401CF5E7EDB2281910F8010CF6B28642FE
:1005600041F032862078AA2802D16078AF2801D0E5
:1005700001F02ABEA078012824D1207902280CD1CC
:10058000DFF8C0030078002804D10120DFF8B4139D
:10059000087002E00020EB4908702079012803D19F
:1005A0000120DFF8601D08702079042803D10220A3
:1005B000DFF8501D08702079052803D10320DFF8EB
:1005C000441D0870A078102840F08381207961795B
:1005D00051EA00200700BFB24FF6FF70874227D0D4
:1005E000BFB2DFF8000EC01901F07CFFDFF8F82D74
:1005F000DFF8F83D01F08EFF02F06EF8DFF8F01D35
:10060000C860DFF8EC0D90ED030AB5EE400AF1EE9C
:1006100010FA0DD5DFF8D80D90ED030AF3EE0E0AAF
:1006200030EE200AB1EE400ADFF8C40D80ED030A77
:10063000A079E17951EA00200700BFB24FF6FF70C0
:10064000874227D0BFB2DFF89C0DC01901F04AFFE6
:10065000DFF8942DDFF8943D01F05CFF02F03CF8E8
:10066000DFF88C1D0861DFF8880D90ED040AB5EE07
:10067000400AF1EE10FA0DD5DFF8740D90ED040A82
:10068000F3EE0E0A30EE200AB1EE400ADFF8600DFC
:1006900080ED040A207A617A51EA00200700BFB297
:1006A0004FF6FF70874227D0BFB2DFF8380DC01970
:1006B00001F018FFDFF8302DDFF8303D01F02AFFA0
:1006C00002F00AF8DFF8281D4861DFF8240D90EDEC
:1006D000050AB5EE400AF1EE10FA0DD5DFF8100D5F
:1006E00090ED050AF3EE0E0A30EE200AB1EE400A54
:1006F000DFF8FC0C80ED050AA07AE17A51EA0020CF
:100700000700BFB24FF6FF7087422DD0BFB2DFF8AF
:10071000D40CC01901F0E6FEDFF8CC2CDFF8CC3C9D
:1007200001F0F8FE01F0D8FFDFF8C81CC860DFF860
:10073000C40C90ED030AB5EE400AF1EE10FA0DD5A7
:10074000DFF8B00C90ED030AF3EE0E0A30EE200A4B
:10075000B1EE400ADFF89C0C80ED030ADFF8980C3C
:10076000DFF8901CC968C160207B617B51EA0020E2
:100770000700BFB24FF6FF7087422DD0BFB2DFF83F
:10078000640CC01901F0AEFEDFF85C2CDFF85C3CB5
:1007900001F0C0FE01F0A0FFDFF8581C0861DFF88F
:1007A000540C90ED040AB5EE400AF1EE10FA0DD5A6
:1007B000DFF8400C90ED040AF3EE0E0A30EE200A4A
:1007C000B1EE400ADFF82C0C80ED040ADFF8280CAB
:1007D000DFF8201C09690161A07BE17B51EA002060
:1007E0000700BFB24FF6FF7087422DD0BFB2DFF8CF
:1007F000F40BC01901F076FEDFF8EC2BDFF8EC3BD0
:1008000001F088FE01F068FFDFF8E81B4861DFF8BF
:10081000E40B90ED050AB5EE400AF1EE10FA0DD5A5
:10082000DFF8D00B90ED050AF3EE0E0A30EE200A49
:10083000B1EE400ADFF8BC0B80ED050ADFF8B80B1B
:10084000DFF8B01B49694161A07CE17C51EA0020DE
:100850000700BFB24FF6FF70874203D0DFF89C0B52
:10086000A0F8D270207D617D51EA00200700BFB260
:100870004FF6FF70874227D0BFB2DFF8680BC01970
:1008800001F030FEDFF8782BDFF8783B01F042FE14
:1008900001F022FFDFF85C1B4863DFF8580B90ED96
:1008A0000D0AB5EE400AF1EE10FA0DD5DFF8440B53
:1008B00090ED0D0AF0EE080A30EE200AB1EE400A83
:1008C000DFF8300B80ED0D0A3100C9B2A07801F0DD
:1008D0007CFCA078112840F0E6802079617951EA0B
:1008E00000200700BFB2B7F5FA6F19DABFB2B7F54B
:1008F0007A7F0ADABFB2784200EE100AB8EEC00A78
:10090000DFF8040B80ED000A0AE0BFB2B7F57A7099
:1009100000EE100AB8EEC00ADFF8EC0A80ED000A1B
:10092000A079E17951EA00200700BFB2C82F11DA9F
:10093000BFB2642F08DABFB27842DFF8D01AA1F84C
:100940001C0207E0280EFF1FB7F16400DFF8BC1A95
:10095000A1F81C02207A617A51EA00200700BFB298
:100960004FF6FF70874203D00420DFF89819087013
:10097000A07AE17A51EA00200700BFB24FF6FF707B
:10098000874227D0BFB2DFF85C0AC01901F0AAFD88
:10099000DFF8542ADFF8543A01F0BCFD01F09CFE68
:1009A000DFF86C1A8862DFF8680A90ED0A0AB5EE83
:1009B000400AF1EE10FA0DD5DFF8540A90ED0A0A5C
:1009C000F3EE0E0A30EE200AB1EE400ADFF8400ADC
:1009D00080ED0A0AA07AE17A51EA00200700BFB24E
:1009E0004FF6FF70874227D0BFB2DFF8F809C01971
:1009F00001F078FDDFF8F029DFF8F03901F08AFD29
:100A000001F06AFEDFF8081A4862DFF8040A90ED88
:100A1000090AB5EE400AF1EE10FA0DD5DFF8F0093B
:100A200090ED090AF3EE0E0A30EE200AB1EE400A0C
:100A3000DFF8DC0980ED090AA07BE17B51EA0020A8
:100A40000700BFB24FF6FF7087422CD0BFB2DFF86D
:100A50009409C01901F046FDDFF88C29DFF88C39C4
:100A600001F058FD01F038FEDFF8A419C862DFF884
:100A7000A00990ED0B0AB5EE400AF1EE10FA0DD583
:100A8000DFF88C0990ED0B0AF3EE0E0A30EE200A27
:100A9000B1EE400ADFF8780980ED0B0A3100C9B2E7
:100AA000A07801F092FBA078122840F0F082207923
:100AB000617951EA00200700BFB2152F4ADADFF84A
:100AC000500990F83000002822D1BFB2B7F10A00D7
:100AD00000EE100AB8EEC00ADFF8380980ED000A0F
:100AE000DFF8300990ED000AB5EE400AF1EE10FA99
:100AF00030D5DFF8200990ED000AF2EE040A30EE5E
:100B0000200AB1EE400ADFF80C0980ED000A21E06E
:100B1000BFB2B7F10A0000EE100AB8EEC00ADFF863
:100B2000B00980ED000ADFF8A80990ED000AB5EEE3
:100B3000400AF1EE10FA0DD5DFF8940990ED000AA5
:100B4000F2EE040A30EE200AB1EE400ADFF8800926
:100B500080ED000AA079E17951EA00200700BFB2D8
:100B6000152F4ADADFF8A80890F83000002822D1C3
:100B7000BFB2B7F10A0000EE100AB8EEC00ADFF803
:100B8000940880ED010ADFF88C0890ED010AB5EEBB
:100B9000400AF1EE10FA30D5DFF8780890ED010A3E
:100BA000F2EE040A30EE200AB1EE400ADFF86408E3
:100BB00080ED010A21E0BFB2B7F10A0000EE100A91
:100BC000B8EEC00ADFF8080980ED010ADFF8000975
:100BD00090ED010AB5EE400AF1EE10FA0DD5DFF8FE
:100BE000F00890ED010AF2EE040A30EE200AB1EEB0
:100BF000400ADFF8DC0880ED010A207A617A51EAC8
:100C000000200700BFB2152F4ADADFF8040890F879
:100C10003000002822D1BFB2B7F10A0000EE100A5E
:100C2000B8EEC00ADFF8EC0780ED020ADFF8E4074F
:100C300090ED020AB5EE400AF1EE10FA30D5DFF879
:100C4000D40790ED020AF2EE040A30EE200AB1EE6B
:100C5000400ADFF8C00780ED020A21E0BFB2B7F119
:100C60000A0000EE100AB8EEC00ADFF8640880ED52
:100C7000020ADFF85C0890ED020AB5EE400AF1EED8
:100C800010FA0DD5DFF8480890ED020AF2EE040ADA
:100C900030EE200AB1EE400ADFF8340880ED020A97
:100CA000A07AE17A51EA00200700BFB2152F4ADA94
:100CB000DFF85C0790F83000002822D1BFB2B7F10E
:100CC0000A0000EE100AB8EEC00ADFF8480780ED0F
:100CD000070ADFF8400790ED070AB5EE400AF1EE8B
:100CE00010FA30D5DFF82C0790ED070AF2EE040A6F
:100CF00030EE200AB1EE400ADFF8180780ED070A4F
:100D000021E0BFB2B7F10A0000EE100AB8EEC00A47
:100D1000DFF8BC0780ED070ADFF8B40790ED070A9B
:100D2000B5EE400AF1EE10FA0DD5DFF8A40790ED0C
:100D3000070AF2EE040A30EE200AB1EE400ADFF8AC
:100D4000900780ED070A207B617B51EA00200700B5
:100D5000BFB2152F4ADADFF8B80690F83000002845
:100D600022D1BFB2B7F10A0000EE100AB8EEC00AF5
:100D7000DFF8A00680ED080ADFF8980690ED080A73
:100D8000B5EE400AF1EE10FA30D5DFF8880690EDA6
:100D9000080AF2EE040A30EE200AB1EE400ADFF84B
:100DA000740680ED080A21E0BFB2B7F10A0000EE38
:100DB000100AB8EEC00ADFF8180780ED080ADFF85D
:100DC000100790ED080AB5EE400AF1EE10FA0DD5C5
:100DD000DFF8FC0690ED080AF2EE040A30EE200A75
:100DE000B1EE400ADFF8E80680ED080AA07BE17B5F
:100DF00051EA00200700BFB2152F4ADADFF81006CB
:100E000090F83000002822D1BFB2B7F10A0000EEFE
:100E1000100AB8EEC00ADFF8FC0580ED090ADFF819
:100E2000F40590ED090AB5EE400AF1EE10FA30D55E
:100E3000DFF8E00590ED090AF2EE040A30EE200A30
:100E4000B1EE400ADFF8CC0580ED090A21E0BFB21F
:100E5000B7F10A0000EE100AB8EEC00ADFF870061B
:100E600080ED090ADFF8680690ED090AB5EE400A40
:100E7000F1EE10FA0DD5DFF8580690ED090AF2EE02
:100E8000040A30EE200AB1EE400ADFF8440680ED95
:100E9000090A207C617C51EA00200700BFB2152FAF
:100EA0004ADADFF86C0590F83000002822D1BFB292
:100EB000B7F10A0000EE100AB8EEC00ADFF85405D8
:100EC00080ED0E0ADFF84C0590ED0E0AB5EE400AF3
:100ED000F1EE10FA30D5DFF83C0590ED0E0AF2EE97
:100EE000040A30EE200AB1EE400ADFF8280580ED52
:100EF0000E0A21E0BFB2B7F10A0000EE100AB8EE08
:100F0000C00ADFF8CC0580ED0E0ADFF8C40590EDCD
:100F10000E0AB5EE400AF1EE10FA0DD5DFF8B00575
:100F200090ED0E0AF2EE040A30EE200AB1EE400A0D
:100F3000DFF89C0580ED0E0AA07CE17C51EA0020E0
:100F40000700BFB2152F4ADADFF8C40490F830006A
:100F5000002822D1BFB2B7F10A0000EE100AB8EEA5
:100F6000C00ADFF8B00480ED0F0ADFF8A80490EDA6
:100F70000F0AB5EE400AF1EE10FA30D5DFF894040E
:100F800090ED0F0AF2EE040A30EE200AB1EE400AAC
:100F9000DFF8800480ED0F0A21E0BFB2B7F10A004C
:100FA00000EE100AB8EEC00ADFF8240580ED0F0A43
:100FB000DFF81C0590ED0F0AB5EE400AF1EE10FACD
:100FC0000DD5DFF80C0590ED0F0AF2EE040A30EEB5
:100FD000200AB1EE400ADFF8F80480ED0F0A207D08
:100FE000617D51EA00200700BFB2152F4ADADFF811
:100FF000200490F83000002822D1BFB2B7F10A00D7
:1010000000EE100AB8EEC00ADFF8080480ED100AFE
:10101000DFF8000490ED100AB5EE400AF1EE10FA88
:1010200030D5DFF8F00390ED100AF2EE040A30EE4E
:10103000200AB1EE400ADFF8DC0380ED100A21E05F
:10104000BFB2B7F10A0000EE100AB8EEC00ADFF82E
:10105000800480ED100ADFF8780490ED100AB5EEF8
:10106000400AF1EE10FA0DD5DFF8640490ED100A95
:10107000F2EE040A30EE200AB1EE400ADFF8500426
:1010800080ED100A3100C9B2A07801F09EF8A07876
:10109000132840F0DF822079617951EA00200700AF
:1010A000BFB2152F46DADFF8680390F83000002849
:1010B0001ED1BFB2B7F10A0000EE100AB8EEC00AA6
:1010C000D44880ED1C0AD34890ED1C0AB5EE400AC6
:1010D000F1EE10FA2ED5CF4890ED1C0AF2EE040A7C
:1010E00030EE200AB1EE400ACA4880ED1C0A21E029
:1010F000BFB2B7F10A0000EE100AB8EEC00ADFF87E
:10110000D00380ED1C0ADFF8C80390ED1C0AB5EE91
:10111000400AF1EE10FA0DD5DFF8B40390ED1C0A89
:10112000F2EE040A30EE200AB1EE400ADFF8A00326
:1011300080ED1C0AA079E17951EA00200700BFB2D6
:10114000152F41DAB24890F8300000281ED1BFB206
:10115000B7F10A0000EE100AB8EEC00AAD4880ED03
:101160001D0AAC4890ED1D0AB5EE400AF1EE10FAEA
:101170002AD5A84890ED1D0AF2EE040A30EE200AA6
:10118000B1EE400AA34880ED1D0A1DE0BFB2B7F1E1
:101190000A0000EE100AB8EEC00ACD4880ED1D0A24
:1011A000CB4890ED1D0AB5EE400AF1EE10FA0BD5D2
:1011B000C74890ED1D0AF2EE040A30EE200AB1EEA7
:1011C000400AC34880ED1D0A207A617A51EA002066
:1011D0000700BFB2152F41DA8D4890F83000002883
:1011E0001ED1BFB2B7F10A0000EE100AB8EEC00A75
:1011F000884880ED1E0A874890ED1E0AB5EE400A29
:10120000F1EE10FA2AD5834890ED1E0AF2EE040A98
:1012100030EE200AB1EE400A7E4880ED1E0A1DE045
:10122000BFB2B7F10A0000EE100AB8EEC00AA84833
:1012300080ED1E0AA64890ED1E0AB5EE400AF1EEBA
:1012400010FA0BD5A24890ED1E0AF2EE040A30EE19
:10125000200AB1EE400A9E4880ED1E0AA07AE17A8B
:1012600051EA00200700BFB2152F41DA684890F814
:10127000300000281ED1BFB2B7F10A0000EE100AFC
:10128000B8EEC00A634880ED230A624890ED230A55
:10129000B5EE400AF1EE10FA2AD55E4890ED230A29
:1012A000F2EE040A30EE200AB1EE400A594880ED11
:1012B000230A1DE0BFB2B7F10A0000EE100AB8EE33
:1012C000C00A834880ED230A814890ED230AB5EED9
:1012D000400AF1EE10FA0BD57D4890ED230AF2EEAC
:1012E000040A30EE200AB1EE400A794880ED230A64
:1012F000207B617B51EA00200700BFB2152F44DA42
:10130000434801E0290EFF1F90F8300000281ED14D
:10131000BFB2B7F10A0000EE100AB8EEC00A3D48AD
:1013200080ED240A3B4890ED240AB5EE400AF1EE28
:1013300010FA2AD5374890ED240AF2EE040A30EE6E
:10134000200AB1EE400A334880ED240A1DE0BFB206
:10135000B7F10A0000EE100AB8EEC00A5C4880ED52
:10136000240A5B4890ED240AB5EE400AF1EE10FA2B
:101370000BD5574890ED240AF2EE040A30EE200A0D
:10138000B1EE400A524880ED240AA07BE17B51EA8D
:1013900000200700BFB2152F5CDA1D4890F830001E
:1013A000002839D1BFB2B7F10A0000EE100AB8EE3A
:1013B000C00A184880ED250A164890ED250AB5EEBA
:1013C000400AF1EE10FA45D5124890ED250AF2EEEA
:1013D000040A30EE200AB1EE400A0E4880ED250ADC
:1013E00038E000BFD08AFFFFFCA9F1D24D62503F28
:1013F000F014FF1F2815FF1F6015FF1F3017FF1F78
:101400002D431CEBE2361A3F240EFF1F0C18FF1F62
:10141000A010FF1FD804FF1FBFB2B7F10A0000EEF3
:10142000100AB8EEC00A2A4880ED250A284890ED37
:10143000250AB5EE400AF1EE10FA0BD5244890EDDE
:10144000250AF2EE040A30EE200AB1EE400A2048E6
:1014500080ED250A207C617C51EA00200700BFB2A4
:10146000152F4CDADFF8AC0D90F83000002822D1AF
:10147000BFB2B7F10A0000EE100AB8EEC00ADFF8FA
:10148000980D80ED2A0ADFF8900D90ED2A0AB5EE4E
:10149000400AF1EE10FA32D5DFF87C0D90ED2A0A01
:1014A000F2EE040A30EE200AB1EE400ADFF8680DD1
:1014B00080ED2A0A23E0BFB2B7F10A0000EE100A5D
:1014C000B8EEC00A024880ED2A0A014802E000BFD7
:1014D0001404FF1F90ED2A0AB5EE400AF1EE10FA4F
:1014E0000DD5DFF8380D90ED2A0AF2EE040A30EE41
:1014F000200AB1EE400ADFF8240D80ED2A0AA07C14
:10150000E17C51EA00200700BFB2152F4ADADFF86C
:10151000040D90F83000002822D1BFB2B7F10A00C4
:1015200000EE100AB8EEC00ADFF8EC0C80ED2B0AD2
:10153000DFF8E40C90ED2B0AB5EE400AF1EE10FA5C
:1015400030D5DFF8D40C90ED2B0AF2EE040A30EE21
:10155000200AB1EE400ADFF8C00C80ED2B0A21E032
:10156000BFB2B7F10A0000EE100AB8EEC00ADFF809
:10157000AC0C80ED2B0ADFF8A40C90ED2B0AB5EE35
:10158000400AF1EE10FA0DD5DFF8900C90ED2B0A21
:10159000F2EE040A30EE200AB1EE400ADFF87C0CCD
:1015A00080ED2B0A207D617D51EA00200700BFB24B
:1015B000152F4ADADFF85C0C90F83000002822D1B1
:1015C000BFB2B7F10A0000EE100AB8EEC00ADFF8A9
:1015D000480C80ED2C0ADFF8400C90ED2C0AB5EE9B
:1015E000400AF1EE10FA30D5DFF82C0C90ED2C0A01
:1015F000F2EE040A30EE200AB1EE400ADFF8180CD1
:1016000080ED2C0A21E0BFB2B7F10A0000EE100A0B
:10161000B8EEC00ADFF8040C80ED2C0ADFF8FC0BF2
:1016200090ED2C0AB5EE400AF1EE10FA0DD5DFF878
:10163000EC0B90ED2C0AF2EE040A30EE200AB1EE2B
:10164000400ADFF8D80B80ED2C0A3100C9B2A0782F
:1016500000F0BBFDA078142840F0F0822079617979
:1016600051EA00200700BFB2152F4ADADFF8A40BB9
:1016700090F83000002822D1BFB2B7F10A0000EE86
:10168000100AB8EEC00ADFF8900B80ED040ADFF80C
:10169000880B90ED040AB5EE400AF1EE10FA30D551
:1016A000DFF8740B90ED040AF2EE040A30EE200A23
:1016B000B1EE400ADFF8600B80ED040A21E0BFB212
:1016C000B7F10A0000EE100AB8EEC00ADFF84C0BC2
:1016D00080ED040ADFF8440B90ED040AB5EE400AF1
:1016E000F1EE10FA0DD5DFF8340B90ED040AF2EEAE
:1016F000040A30EE200AB1EE400ADFF8200B80ED3C
:10170000040AA079E17951EA00200700BFB2152F41
:101710004ADADFF8000B90F83000002822D1BFB27F
:10172000B7F10A0000EE100AB8EEC00ADFF8E80AC6
:1017300080ED050ADFF8E00A90ED050AB5EE400AF3
:10174000F1EE10FA30D5DFF8D00A90ED050AF2EE8E
:10175000040A30EE200AB1EE400ADFF8BC0A80ED40
:10176000050A21E0BFB2B7F10A0000EE100AB8EE98
:10177000C00ADFF8A80A80ED050ADFF8A00A90ED9C
:10178000050AB5EE400AF1EE10FA0DD5DFF88C0A25
:1017900090ED050AF2EE040A30EE200AB1EE400A9E
:1017A000DFF8780A80ED050A207A617A51EA002094
:1017B0000700BFB2152F4ADADFF8580A90F8300058
:1017C000002822D1BFB2B7F10A0000EE100AB8EE2D
:1017D000C00ADFF8440A80ED060ADFF83C0A90ED03
:1017E000060AB5EE400AF1EE10FA30D5DFF8280A05
:1017F00090ED060AF2EE040A30EE200AB1EE400A3D
:10180000DFF8140A80ED060A21E0BFB2B7F10A0042
:1018100000EE100AB8EEC00ADFF8000A80ED060AF2
:10182000DFF8F80990ED060AB5EE400AF1EE10FA7D
:101830000DD5DFF8E80990ED060AF2EE040A30EE65
:10184000200AB1EE400ADFF8D40980ED060AA07A3A
:10185000E17A51EA00200700BFB2152F4ADADFF81B
:10186000B40990F83000002822D1BFB2B7F10A00C5
:1018700000EE100AB8EEC00ADFF89C0980ED0B0AF2
:10188000DFF8940990ED0B0AB5EE400AF1EE10FA7C
:1018900030D5DFF8840990ED0B0AF2EE040A30EE41
:1018A000200AB1EE400ADFF8700980ED0B0A21E052
:1018B000BFB2B7F10A0000EE100AB8EEC00ADFF8B6
:1018C0005C0980ED0B0ADFF8540990ED0B0AB5EEC8
:1018D000400AF1EE10FA0DD5DFF8400990ED0B0A41
:1018E000F2EE040A30EE200AB1EE400ADFF82C09CD
:1018F00080ED0B0A207B617B51EA00200700BFB21C
:10190000152F4ADADFF80C0990F83000002822D1B0
:10191000BFB2B7F10A0000EE100AB8EEC00ADFF855
:10192000F80880ED0C0ADFF8F00890ED0C0AB5EE2F
:10193000400AF1EE10FA30D5DFF8DC0890ED0C0A21
:10194000F2EE040A30EE200AB1EE400ADFF8C808D1
:1019500080ED0C0A21E0BFB2B7F10A0000EE100AD8
:10196000B8EEC00ADFF8B40880ED0C0ADFF8AC0866
:1019700090ED0C0AB5EE400AF1EE10FA0DD5DFF845
:101980009C0890ED0C0AF2EE040A30EE200AB1EE4B
:10199000400ADFF8880880ED0C0AA07BE17B51EA61
:1019A00000200700BFB2152F4ADADFF8680890F868
:1019B0003000002822D1BFB2B7F10A0000EE100AB1
:1019C000B8EEC00ADFF8500880ED0D0ADFF84808CD
:1019D00090ED0D0AB5EE400AF1EE10FA30D5DFF8C1
:1019E000380890ED0D0AF2EE040A30EE200AB1EE4E
:1019F000400ADFF8240880ED0D0A21E0BFB2B7F1FC
:101A00000A0000EE100AB8EEC00ADFF8100880EDF8
:101A10000D0ADFF8080890ED0D0AB5EE400AF1EE68
:101A200010FA0DD5DFF8F40790ED0D0AF2EE040A76
:101A300030EE200AB1EE400ADFF8E00780ED0D0A33
:101A4000207C617C51EA00200700BFB2152F4ADAE2
:101A5000DFF8C00790F83000002822D1BFB2B7F1FC
:101A60000A0000EE100AB8EEC00ADFF8AC0780EDFD
:101A7000120ADFF8A40790ED120AB5EE400AF1EE63
:101A800010FA30D5DFF8900790ED120AF2EE040A52
:101A900030EE200AB1EE400ADFF87C0780ED120A32
:101AA00021E0BFB2B7F10A0000EE100AB8EEC00A9A
:101AB000DFF8680780ED120ADFF8600790ED120A80
:101AC000B5EE400AF1EE10FA0DD5DFF8500790EDB3
:101AD000120AF2EE040A30EE200AB1EE400ADFF8F4
:101AE0003C0780ED120AA07CE17C51EA002007004F
:101AF000BFB2152F4ADADFF81C0790F83000002833
:101B000022D1BFB2B7F10A0000EE100AB8EEC00A47
:101B1000DFF8040780ED130ADFF8FC0690ED130AE6
:101B2000B5EE400AF1EE10FA30D5DFF8EC0690ED94
:101B3000130AF2EE040A30EE200AB1EE400ADFF892
:101B4000D80680ED130A21E0BFB2B7F10A0000EE1B
:101B5000100AB8EEC00ADFF8C40680ED130ADFF8F9
:101B6000BC0690ED130AB5EE400AF1EE10FA0DD561
:101B7000DFF8A80690ED130AF2EE040A30EE200A10
:101B8000B1EE400ADFF8940680ED130A207D617DF6
:101B900051EA00200700BFB2152F4ADADFF87406B9
:101BA00090F83000002822D1BFB2B7F10A0000EE51
:101BB000100AB8EEC00ADFF8600680ED140ADFF8FC
:101BC000580690ED140AB5EE400AF1EE10FA30D541
:101BD000DFF8440690ED140AF2EE040A30EE200A13
:101BE000B1EE400ADFF8300680ED140A21E0BFB202
:101BF000B7F10A0000EE100AB8EEC00ADFF81C06C2
:101C000080ED140ADFF8140690ED140AB5EE400AD0
:101C1000F1EE10FA0DD5DFF8040690ED140AF2EE9D
:101C2000040A30EE200AB1EE400ADFF8F00580ED3C
:101C3000140A3100C9B2A07800F0C7FAA0781528BC
:101C400040F0C2822079617951EA00200700BFB2DA
:101C5000152F4ADADFF8BC0590F83000002822D1B1
:101C6000BFB2B7F10A0000EE100AB8EEC00ADFF802
:101C7000A80580ED200ADFF8A00590ED200AB5EE5A
:101C8000400AF1EE10FA30D5DFF88C0590ED200A0D
:101C9000F2EE040A30EE200AB1EE400ADFF87805D1
:101CA00080ED200A21E0BFB2B7F10A0000EE100A71
:101CB000B8EEC00ADFF8640580ED200ADFF85C05A5
:101CC00090ED200AB5EE400AF1EE10FA0DD5DFF8DE
:101CD0004C0590ED200AF2EE040A30EE200AB1EE37
:101CE000400ADFF8380580ED200AA079E17951EA51
:101CF00000200700BFB2152F4ADADFF8180590F868
:101D00003000002822D1BFB2B7F10A0000EE100A5D
:101D1000B8EEC00ADFF8000580ED210ADFF8F8040C
:101D200090ED210AB5EE400AF1EE10FA30D5DFF859
:101D3000E80490ED210AF2EE040A30EE200AB1EE3A
:101D4000400ADFF8D40480ED210A21E0BFB2B7F1E8
:101D50000A0000EE100AB8EEC00ADFF8C00480EDF9
:101D6000210ADFF8B80490ED210AB5EE400AF1EE41
:101D700010FA0DD5DFF8A40490ED210AF2EE040A62
:101D800030EE200AB1EE400ADFF8900480ED210A1F
:101D9000207A617A51EA00200700BFB2152F4ADA93
:101DA000DFF8700490F83000002822D1BFB2B7F1FC
:101DB0000A0000EE100AB8EEC00ADFF85C0480EDFD
:101DC000220ADFF8540490ED220AB5EE400AF1EE43
:101DD00010FA30D5DFF8400490ED220AF2EE040A42
:101DE00030EE200AB1EE400ADFF82C0480ED220A22
:101DF00021E0BFB2B7F10A0000EE100AB8EEC00A47
:101E0000DFF8180480ED220ADFF8100490ED220AB2
:101E1000B5EE400AF1EE10FA0DD5DFF8000490EDB2
:101E2000220AF2EE040A30EE200AB1EE400ADFF890
:101E3000EC0380ED220AA07AE17A51EA0020070043
:101E4000BFB2152F49DADFF8CC0390F83000002834
:101E500022D1BFB2B7F10A0000EE100AB8EEC00AF4
:101E6000DFF8B40380ED270ADFF8AC0390ED270A12
:101E7000B5EE400AF1EE10FA2FD5DFF89C0390ED95
:101E8000270AF2EE040A30EE200AB1EE400ADFF82B
:101E9000880380ED270A20E0BFB2B7F10A0000EE08
:101EA000100AB8EEC00ADFF8740380ED270ADFF8E5
:101EB0006C0390ED270AB5EE400AF1EE10FA0CD54E
:101EC000DFF8580390ED270AF2EE040A30EE200AFC
:101ED000B1EE400AD14880ED270A207B617B51EAB0
:101EE00000200700BFB2152F41DACA4890F8300031
:101EF00000281ED1BFB2B7F10A0000EE100AB8EEFA
:101F0000C00AC54880ED280AC34890ED280AB5EEFE
:101F1000400AF1EE10FA2AD5BF4890ED280AF2EEF9
:101F2000040A30EE200AB1EE400ABB4880ED280AD0
:101F30001DE0BFB2B7F10A0000EE100AB8EEC00A09
:101F4000B64880ED280AB54890ED280AB5EE400A5B
:101F5000F1EE10FA0BD5B14890ED280AF2EE040A22
:101F600030EE200AB1EE400AAC4880ED280AA07B92
:101F7000E17B51EA00200700BFB2152F41DAA548E6
:101F800090F8300000281ED1BFB2B7F10A0000EE71
:101F9000100AB8EEC00AA04880ED290A9E4890EDCC
:101FA000290AB5EE400AF1EE10FA2AD59A4890EDCA
:101FB000290AF2EE040A30EE200AB1EE400A9648F1
:101FC00080ED290A1DE0BFB2B7F10A0000EE100A49
:101FD000B8EEC00A914880ED290A904890ED290A90
:101FE000B5EE400AF1EE10FA0BD58C4890ED290AB7
:101FF000F2EE040A30EE200AB1EE400A874880ED86
:10200000290A207C617C51EA00200700BFB2152F0D
:1020100041DA804890F8300000281ED1BFB2B7F1F5
:102020000A0000EE100AB8EEC00A7B4880ED2E0AC6
:10203000794890ED2E0AB5EE400AF1EE10FA2AD555
:10204000754890ED2E0AF2EE040A30EE200AB1EE49
:10205000400A714880ED2E0A1DE0BFB2B7F10A00B8
:1020600000EE100AB8EEC00A6C4880ED2E0A6B48EC
:1020700090ED2E0AB5EE400AF1EE10FA0BD5674846
:1020800090ED2E0AF2EE040A30EE200AB1EE400A7C
:10209000624880ED2E0AA07CE17C51EA0020070016
:1020A000BFB2152F41DA5B4890F8300000281ED1EE
:1020B000BFB2B7F10A0000EE100AB8EEC00A5648E7
:1020C00080ED2F0A544890ED2F0AB5EE400AF1EE4C
:1020D00010FA2AD5504890ED2F0AF2EE040A30EE9D
:1020E000200AB1EE400A4C4880ED2F0A1DE0BFB235
:1020F000B7F10A0000EE100AB8EEC00A474880EDBA
:102100002F0A464890ED2F0AB5EE400AF1EE10FA7C
:102110000BD5424890ED2F0AF2EE040A30EE200A69
:10212000B1EE400A3D4880ED2F0A207D617D51EAE5
:1021300000200700BFB2152F41DA364890F8300072
:1021400000281ED1BFB2B7F10A0000EE100AB8EEA7
:10215000C00A314880ED300A2F4890ED300AB5EEC4
:10216000400AF1EE10FA2AD52B4890ED300AF2EE33
:10217000040A30EE200AB1EE400A274880ED300A0A
:102180001DE0BFB2B7F10A0000EE100AB8EEC00AB7
:10219000224880ED300A214890ED300AB5EE400A21
:1021A000F1EE10FA0BD51D4890ED300AF2EE040A5C
:1021B00030EE200AB1EE400A184880ED300A3100B6
:1021C000C9B2A07800F001F8F1BD70B504000D00AF
:1021D000AA2013490870AA2011494870EF2010491D
:1021E000887002200E49C8700D4804710C48457172
:1021F00000260020C0B2062805DA0949C0B2415CB9
:102200008E19401CF6E70648867107210448FEF740
:1022100003F970BDA010FF1FD804FF1F1404FF1F97
:10222000BC15FF1F012110F01F029140DFF898221A
:1022300040B2430942F8231070472DE9F8430400E7
:102240000D0064B2002C08D0022C2CD018D3042C22
:102250004FD03BD3052C5FD071E0DFF870020068EF
:1022600050F48060DFF8641208604FF4407166201B
:1022700000F07AFA4FF44071672000F075FA5EE0E2
:10228000DFF84802006850F40060DFF84012086090
:102290004FF44071432000F067FA4FF4407144203E
:1022A00000F062FA4BE0DFF82402006850F480503E
:1022B000DFF8181208604FF44071632000F054FA00
:1022C0004FF44071622000F04FFA38E0DFF8FC0173
:1022D000006850F40050DFF8F41108604FF44071CA
:1022E000502000F041FA4FF44071512000F03CFAC8
:1022F00025E0DFF8DC01006850F48060DFF8D011E1
:1023000008604FF440714E2000F02EFA4FF44071F7
:102310004F2000F029FA12E0DFF8B401006850F411
:102320000060DFF8AC1108604FF44071892000F0C4
:102330001BFA4FF44071882000F016FAFFE7DFF82F
:10234000940164B250F82400C07810F0F300DFF874
:10235000841164B251F82410C870DFF8780164B2B7
:1023600050F824008078DFF86C1164B251F8241022
:10237000887064B2002C02D064B2012C07D1DFF85F
:10238000580100684FF47A714843814606E0DFF84F
:102390004C0100684FF47A71484381462801B9FB2B
:1023A000F0F00600B6B2B6F5005F02DB41F6FF7052
:1023B0000600B9FBF5F0B6B2B0EB06100700BFB2ED
:1023C000202F03DBDC21464800F03BFA414864B291
:1023D00050F82400007810F0E0008046C6F3042096
:1023E00050EA08003B4964B251F82410087039489B
:1023F00064B250F824004670364864B250F82400A5
:10240000807A10F0E000804617F01F0050EA0800C4
:10241000304964B251F8241088722E4864B250F8E2
:102420002400007C50F088002A4964B251F824103E
:102430000874284864B250F82400C07850F00C00AA
:10244000244964B251F82410C870BDE8F183214AD0
:1024500040B252F8202012799206F8D51D4A40B2B7
:1024600052F8202092F907200A707047194A40B2AA
:1024700052F8202012791206F8D5164A40B252F8C6
:102480002020D17170470100124849B250F8210054
:10249000807D002801D0012000E00020704710B5A9
:1024A00004000C4864B250F82400C07850F02000BA
:1024B000084964B251F82410C87064B260002D302D
:1024C00040B2FFF7AFFE10BD00E100E034800440F1
:1024D000288004400C0EFF1F1420FF1F1C20FF1F2C
:1024E00068900000010040F10980F446404200F08D
:1024F00005F851F000416047010000BF09D0B0FA73
:1025000080F18840C91CC1F58461090501EBD02127
:1025100040057047B0B581EA030C0CF0004C40F266
:10252000FF7515EA11541DBF15EA1357AC42AF42AF
:1025300039E0E41923EA455343F48013C90241F01A
:10254000004141EA505EC7021100A7FB02020028C9
:102550004FF00000EEFB01204FF00001E3FB0721EC
:1025600018BF42F00102401800214941E3FB0E016F
:10257000A4F580640F0302D252004041494154F156
:1025800001046CDD470872F1004250F1000051EB8C
:102590000451A1F580115CBF41EA0C01B0BD4CEAC9
:1025A00005510020B0BD05EA1357AC4214BFAF423D
:1025B00041E050EA410E1CBF52EA430E02E0614680
:1025C0000020B0BD24423C441BD15FEA070EF6D088
:1025D000090302BF01460020AEF1140EB1FA81F7E3
:1025E000AEEB070401FA07FE0C37C7F1200100FA31
:1025F00007F7C8404EEA000E23EA455343F4801320
:10260000A2E733F00043B3FA83F704BFB2FA82FEC5
:1026100077440B3FE41BB7F1200E2FBF02FA0EF3F5
:10262000BB40C7F1200E22FA0EFE38BF43EA0E036C
:10263000BA40641C82E750EA410E14BF52EA430ECE
:102640006FF000014FF4001717EB430F8ABF1946D4
:1026500017EB410FB5E74CEA05510020B0BDD4F1AE
:102660000104B4F120070FDAC4F12007520828BF93
:1026700042F0010210FA07F501FA07F7E1BF2A4319
:10268000E0403843E1400FE0352C98DCC7F12004EE
:1026900052EA400220FA07F218BF42F0010231FA72
:1026A00007F0A1400A43002172F1004250F10000FE
:1026B00051EB0C01B0BD50F8041B61B150F8042B74
:1026C000D30744BFA9F101039A180023091F42F858
:1026D000043BFAD1EFE770474FEAF17CBCF1E04CE4
:1026E0002CBFBCF5001F11E05FEA4C0C34BFBCF1FD
:1026F0007F5F2EE05FEA9C0C4FEA0C1C4FEA3C0C1B
:10270000C10071F100414CEB50707047C90241EAC1
:102710005051C00218BF41F0010141F000414FEAA1
:102720006C50C0F10900212810D240EACC7CCCF1D9
:10273000200C11FA0CF070F10040CCF1200C21FAC1
:102740000CF00CF0004C40EB0C0070474FEACC70E2
:102750007047490011F5001F04D84FEACC10FF3034
:10276000C0057047C817704710B4294A12684FF463
:102770000073C0B24409A3401A43254B1A60254A8E
:10278000C0B2431152F82320012310F01F04A340CC
:10279000C2F8A0301F4AC0B2431152F82320C0B281
:1027A00010F01F0342F8231010BC704710B4184AF1
:1027B00012684FF40073C0B24409A3401A43144B8B
:1027C0001A60144AC0B2431152F82320012310F0BA
:1027D0001F04A340C2F8A03031F4E0610D4AC0B23A
:1027E000431152F82320C0B210F01F0352F82320E7
:1027F00012F4E0621143074AC0B2431152F8232099
:10280000C0B210F01F0342F8231010BC7047000044
:1028100038800440F80DFF1FDFF800F0A90EFF1FFD
:10282000DFF800F0CD0EFF1FBFF34F8F4648006862
:1028300010F4E0604549084343490860BFF34F8FF7
:10284000FEE738B504000D00002000F08DF82A00E6
:1028500021003F4800F0C0F8002000F0A2F84FF43B
:102860007A7000F0E6F8F2E738B504000D002100B8
:1028700049B20420FFF7FAFD200032BD10B5002454
:10288000042000F0EDF8042000F020F9002841D1E8
:10289000002000F069F8042000F018F9012801D1A7
:1028A00001200400002000F07CF82A4800F094F891
:1028B0004FF4FA7000F0BDF8E4B2012CEBD1042023
:1028C00000F004F90028E6D1042000F0FFF8002809
:1028D00006D1002000F065F8642000F0AAF8F3E7C4
:1028E000042000F0F3F8012806D1002000F059F888
:1028F000322000F09EF8F3E7174800F06DF8FFF77C
:102900008BFF642000F095F80020FFF789FFFFF7A8
:102910008BFFC0E710BD10B510480468012000F01F
:1029200023F8012000F03DF80D48E4B20F2101FB2F
:102930000402E4B221000B4800F04EF84FF47A7024
:1029400000F077F8EDE700000CED00E00400FA0578
:10295000FC900000D49100005491000004ED00E0D0
:102960006806FF1FD08E000010B5040064B2042C6E
:1029700007DA01220121174864B2205C00F0BEF89A
:102980000EE0042004002000441E40B2002807D0BE
:10299000012201210F4864B2205C00F0AFF8F2E799
:1029A00010BD10B5040064B2042C05DA094864B205
:1029B000205C00F034F90CE0042004002000441EE8
:1029C00040B2002805D0034864B2205C00F027F92B
:1029D000F4E710BD340EFF1F0EB400B582B003A99A
:1029E0000091024600AB0121034878440A3000F010
:1029F00057F906BC5DF810FBB967000010B504007C
:102A0000002C15D0B4F1807F03D329210F48FFF7A4
:102A100018FF00200E4908600E48046000200E498F
:102A2000086005200A49086009480068C003FBD512
:102A300010BD10B504002000441E002804D0074833
:102A40000068FFF7DBFFF6E710BD0000848F000091
:102A500010E000E014E000E018E000E01420FF1FA8
:102A600010B5040064B2082C0DDA002200212248BF
:102A700064B2205C00F042F803211F4864B2205C7D
:102A8000FFF794FE14E0082004002000441E40B22A
:102A900000280DD000220021174864B2205C00F00D
:102AA0002DF80321144864B2205CFFF77FFEECE7A9
:102AB00010BD10B50400104864B2205C00F0CCF8E2
:102AC000002801D1002000E0012010BD10B5040055
:102AD000200040B2FFF7EDFF00280AD10A20FFF7DF
:102AE000A8FF200040B2FFF7E4FF002801D100203A
:102AF00000E0012010BD00002C0EFF1F70B5040087
:102B00000D0016004FF480712000C0B2FFF72CFEBC
:102B10006DB2002D11D16048E4B2611150F821006E
:102B20005D49E4B2621151F822104969012214F0A2
:102B30001F039A409143416136E05748E4B2611166
:102B400050F821005449E4B2621151F82210496949
:102B5000012214F01F039A4011434161F6B2002E86
:102B600011D14D48E4B2611150F8210000680121F3
:102B700014F01F02914088434749E4B2621151F8B2
:102B80002210086010E04448E4B2611150F82100BE
:102B90000068012114F01F02914008433E49E4B24D
:102BA000621151F82210086070BD38B504000D00A4
:102BB0003948E4B2611150F82100406914F01F0156
:102BC0000200CA40D00703D463213448FFF739FE1E
:102BD000EDB2002D11D13048E4B2611150F821005E
:102BE0000068012114F01F02914088432A49E4B291
:102BF000621151F82210086010E02748E4B2611118
:102C000050F821000068012114F01F029140084390
:102C10002149E4B2621151F82210086031BD10B5AB
:102C200004001D48E4B2611150F82100406914F01D
:102C30001F010200CA40D00703D47B211748FFF7C9
:102C400000FE1548E4B2611150F82100012114F092
:102C50001F029140C16010BD10B504000E48E4B2DF
:102C6000611150F82100406914F01F010200CA40B0
:102C7000D00703D58C210948FFF7E3FD0648E4B2ED
:102C8000611150F82100006914F01F010200CA40D0
:102C900012F0010010BD0000800DFF1FF88F000032
:102CA0002DE9F04FA1B08246002017461D46029143
:102CB0000B900DF1440B6FF000490AE017F8011B6F
:102CC0000298D0470290002800F0A8820B98401C80
:102CD0000B90387808B90B98A2E22528EED1002095
:102CE000059006900790089009900A9001E040F046
:102CF000010017F8011F2029F9D023290DD02B2915
:102D000004D02D2906D030290AD00CE040F0020072
:102D100080B2EEE740F00400FAE740F00800F7E781
:102D200040F01000F4E72A290ED12968296051F8F3
:102D3000042B2960002A0D9204D5514240F0040072
:102D40000D9180B27F1C11E000210D9109E00D99D9
:102D5000494505D001EB810302EB430130390D9168
:102D60007F1C3A78A2F130010A29F0D339782E2954
:102D700003D04FF0FF310C911DE017F8011F2A29F5
:102D800007D1296829607F1C51F8042B29600C9217
:102D900011E000210C9109E00C99494505D001EBA7
:102DA000810302EB430130390C917F1C3A78A2F188
:102DB00030010A29F0D3ADF838000FF65C403978BD
:102DC00000F038FE08B117F8010B8DF83A009DF8B5
:102DD0003A00682802BF39786829622005D06C283B
:102DE00004BF38786C2803D171208DF83A007F1C1D
:102DF00011A8049017F8014BB4F125002AD01C3813
:102E000000F0CC80001F022840F2C880133800F088
:102E1000EE80093800F0C280801E00F04F81401E15
:102E200000F02481401E022840F2B880001F00F00C
:102E30001D81401F00F08380401E00F0D880401E9E
:102E400029D0C01E0CD0801E00F0D180C01E00F022
:102E5000CE803DE10120059025208DF8440043E11E
:102E60002868286050F8044B28600394DDF830800F
:102E7000B8F1000F04D5204600F0E8FD804607E0D9
:102E800042460021204600F0FDFD08B1A0EB0408F9
:102E9000CDF8188028E1296829604FF03C0851F8E6
:102EA000040B29600021CDE9000111A80390DDE9A0
:102EB0000001049C11B908B90C9AC2B10206120FA4
:102EC000A0EB02123032D2B23A2AA8BF2732000950
:102ED000A8F1010340EA017009091A5508BF00284A
:102EE000984604D0039A08EB04039A42E6D308EB11
:102EF00004000390C8F13C010C980691814209DA64
:102F0000401A08904FF6EF71BDF838000840ADF850
:102F10003800E9E0002840F1E7809DF8380000F033
:102F20001400102840F0E0800D98059A801A089A45
:102F3000801A401A0128C0F2D7800890D4E09DF88A
:102F40003A0062281AD0682806D06A280CD06C286B
:102F50001CD0712808D019E02868286050F8041B9C
:102F600028600B980880BFE02868286050F8042B80
:102F700028600B98C117C2E90001B5E028682860F5
:102F800050F8041B28600B980870ADE02868286092
:102F900050F8041B28600B980860A5E02868C01D45
:102FA00020F007022A60D2E9000108322A60CDE948
:102FB0000001002903D5012005902D200CE0BDF86B
:102FC0003800810703D5012005902B2004E0C007BD
:102FD00004D50120059020208DF84400059911A802
:102FE00008180390214600A800F0D8F97CE09DF86D
:102FF0003A206C2A0DD0712A18BF6A2A09D1286894
:10300000C01D20F007032B60D3E9000108332B60BB
:1030100005E02968296051F8040B29600021CDE9F9
:103020000001682A08BF80B207D0622A08BFC0B278
:1030300003D0742A18BF7A2A02D10021CDE90001F9
:103040009DF83800000730D5DDE90001002908BFF0
:1030500000282AD044F02000782826D130208DF88E
:1030600044008BF80140022005901EE09DF83A00D4
:10307000294600F0D8F8CDE90001002904DA0598C6
:10308000411C05912D210EE0BDF83800810704D5C3
:103090000598411C05912B2105E0C00705D5059831
:1030A000411C0591202100F80B10059911A8081862
:1030B0000390214600A800F0EDF815E001200590EE
:1030C0002868286050F8041B28608DF844100BE035
:1030D000012005902520002C8DF8440004D005988F
:1030E000411C059100F80B400D980599401A08996C
:1030F000401A0699401A0999401A0799401A0A99E4
:10310000A0EB01089DF8380040070FD420208DF86F
:103110004000002408E0012310AA00A9504600F056
:1031200064FC00287AD1641C4445F4DB059C11AE94
:103130000AE016F8011B0298D047029000286DD0D3
:103140000B98401C0B90641E002CF2D130208DF89F
:1031500040000026089C08E0012310AA00A9504660
:1031600000F043FC002859D1761CA642F4DB069CF3
:10317000039E0AE016F8011B0298D047029000282F
:103180004CD00B98401C0B90641E002CF2D13020C8
:103190008DF840000026099C07E0012310AA00A931
:1031A000504600F022FCC8BB761CA642F5DB039813
:1031B0000699079C0E1809E016F8011B0298D047E3
:1031C000029058B30B98401C0B90641E002CF3D156
:1031D00030208DF8400000260A9C07E0012310AA49
:1031E00000A9504600F001FCC0B9761CA642F5DBF0
:1031F0009DF8380040077FF56CAD20208DF8400029
:10320000002400E0641C4445BFF663AD012310AA0E
:1032100000A9504600F0E9FB0028F3D04FF0FF3042
:1032200021B0BDE8F08F622826D068281DD06A281A
:1032300008D06C2827D0712804D0742823D07A288D
:103240000CD020E00868C01D20F007000860D0E91D
:103250000023083008601946104670470A680A6063
:1032600052F8040B0A60002170470A680A6052F89D
:10327000040B0A6000B20BE00A680A6052F8040B03
:103280000A6040B204E00A680A6052F8040B0A605F
:10329000C11770472DE9FA4E05460A462F696F2A75
:1032A00008BF082405D041F02000782814BF0A2464
:1032B00010243C26D5E90001642A18BF692A8146FA
:1032C0008A4605D1002903DAD9F100096AEB4A0AD6
:1032D000BAF1000F08BFB9F1000F0CD1286B50B93B
:1032E000082C36D195F83800000732D530203B261F
:1032F00087F83B002DE0E31748465146224600F090
:10330000EDFBA4FB0023A9EB02023032D2B2A6F1FE
:10331000010B3A2A5E4603DB9DF80030513B9A18B8
:1033200081465FEA010A0BF8072008BFB9F1000FD8
:1033300003D0E868F1198842DDD3082C09D195F84B
:103340003800000705D5F05D302802D0761E302009
:10335000F055C6F13C00A861F119E960296B88427B
:1033600008DA081A28624FF6EF71288F084028877C
:10337000BDE8F38E00290ED595F8381001F0140140
:10338000102908D1696B6A69891A2A6A891A081A88
:103390000128A8BF2862BDE8F38E00002DE9F24F96
:1033A00004468EB0D4E90001CDE9020104AF9DF8D6
:1033B000380040F0200BBBF1610F0AD0206B0028D1
:1033C00048BF062004D408BFBBF1670F01D101201C
:1033D00020636168C1F30A5040F2FF7290421CD131
:1033E000080304BF2068002809D10320A0619DF8CC
:1033F000380061381A2836D30FF2306108E0032014
:10340000A0619DF8380061381A2829D30FF21461A1
:10341000E068032200F0DAFBBEE1012816DA20465C
:1034200000F00FFC012811DB00250020BBF1610F2B
:1034300020D1E168302201F8012B4A1CE2609DF89E
:103440003820612A0CBF782258220FE0626840F2CF
:10345000FE3161F31E52451A62604FF0FF30E5E71E
:103460000FF2BC51D4E70FF2C051D1E70A70616985
:10347000891C616110B90026002584E1BBF1610F50
:1034800040F09780206B00284CBF2126461CDDE9C8
:103490000201D4E900AB0022002300F0F3FB36B2B6
:1034A0003ABF8BF00040CDE902A0CDE902AB06F1B6
:1034B00001082D1F8DF810200DF1110700E0C71D28
:1034C000B8F1010F33DBDDE902010022002300F037
:1034D000F1FB2CD21C2102A800F004FCDDE9020162
:1034E00000F08CFCA8F10708B8F1010F814609DB58
:1034F000FEF7F8FF02460B46DDE9020100F0AAFCE8
:10350000CDE90201F81D072105E009F00F0200F8DE
:10351000012D4FEA2919B9F1010F01DB491EF4D53C
:10352000491E5CBF002200F8012DF9D5C7E70DF157
:103530001100391AB142B8BF0E4636B230000DF153
:1035400011072FD4884206DA04A9411849780829BE
:10355000A8BF0F2100DA002104AA821800E0761E1D
:1035600012F80139401E8B42F9D00F2904D104A969
:1035700041184A78521C4A70002802D504AF761CC4
:103580002D1D36B2701E0DD4C1190A783032D2B258
:103590003A2A03DB9DF838303A3B9A18401E01F86E
:1035A0000129F2D5206B002840F1ED80701E2063C8
:1035B000E9E0DDE902010022002300F063FB3CBFEB
:1035C00081F00041CDE902012DB247F297506843E6
:1035D0004B49DFF8309190FBF1F52DB2C5F1070AA8
:1035E000BAF1010F90461CDBDDE902675FEACA70A1
:1035F00007D542464B4630463946FEF78BFF064616
:103600000F464FEA6A0A4046494642464B46FEF795
:1036100081FFBAF1000F80468946E7D1CDE9026704
:1036200024E0CAF1000A0026374F14E05FEACA70AE
:1036300007D542464B4630463946FEF76BFF0646F5
:103640000F464FEA6A0A4046494642464B46FEF755
:1036500061FF80468946BAF1000FE7D1DDE902013A
:1036600032463B4600F0B6FCCDE90201BBF1660FE5
:10367000216BDFF898900CBF05F10A000620461870
:10368000142EA8BF132630208DF810000DF111075D
:10369000012E3DDBDDE9020100F0C6FB07F1080168
:1036A00004220A23B0FBF3F303EB8307A0EB4700EC
:1036B000303001F8010D0A20B3FBF0F000EB800779
:1036C000A3EB47033033521E01F8013DE9D1083E18
:1036D000012E01F10807DBDBDDE9020100F0A4FBAC
:1036E000FEF70AFF02460B46DDE9020100F0B2FBDD
:1036F00000224B46FEF70EFFCDE90201CAE700BFEC
:10370000A0860100000024400000F03F84D79741CC
:103710000DF11100381A0DF1110702E0401E6D1E67
:103720007F1C39783029F9D0BBF1660F02D12DB258
:10373000691C04E0BBF1650F0CBF01210021226B65
:103740008E1836B2B042B8BF064636B231001AD42F
:10375000814204DAC85D3528A8BF392000DA30205C
:10376000CA19521E00E0761E12F80139491E834222
:10377000F9D0392802D1C85D401CC855002902D5AE
:103780007F1E761C6D1C2DB29DF83810009533B24B
:103790003A46204600F003F80FB0BDE8F08F2DE95F
:1037A000F04786B006468A4690461D4600F053FD17
:1037B000406A376B90F80090012D02DA01250FF274
:1037C00070284AF02000BDF93840662808BF641C04
:1037D00012D0672876D114F1040F79DBBC4277DA76
:1037E00096F83800641C000702D4BD42B8BF2F46CB
:1037F00024B23F1B48BF002724B2F068B169012CF6
:1038000021DA4A1C30230B54012F03DA96F83810C2
:10381000090702D502F80090521CE742B8BF7C426B
:1038200024B26142E719AF42B261B8BF3D4671624E
:103830002DB2F5612A46B3694146181800F0C6F961
:10384000781BB062BAE00818A54216DA2A4641464B
:1038500000F0BCF9B1696918601BB161012F706299
:1038600003DA96F83800000705D5F06801F80090F3
:10387000F069401CF061B762A0E02246414600F0CA
:10388000A5F9B06920182D1B012F03DA96F838101E
:10389000090703D5F16800F80190401CB0612DB212
:1038A000AF42B8BF3D46F068B3692DB22A4604EB7B
:1038B0000801181800F08AF9B0692818B061781B5F
:1038C00070627BE0BAF1610F14D14FF0700A16E01C
:1038D000BD4204DA96F83810090758BF2F467F1EFC
:1038E00048BF0027BAF1670F14BF4FF0450A4FF0E9
:1038F000650A04E0BAF1410F08BF4FF0500AB16900
:10390000F06818F8013B0B544A1C012F05DA96F8B1
:103910003810090758BFB26115D502F80090531C42
:10392000012FB3610FDB6D1E2DB2AF42B8BF3D4614
:103930002DB22A464146181800F048F9B0692818F7
:10394000B061781B7062F068B16901EB000820007B
:1039500008F801AB03D42B2008F8010B03E02D215C
:1039600008F8011B6442002502AF08E00A2200A803
:1039700000F08AFC019807F8010B6D1C009C21B235
:103980000129F3DA022D06DA4AF02000652804BF87
:10399000302008F8010B4DB9302008F8010B07E082
:1039A0006D1E02A8285C303008F8010B012DF7DAF3
:1039B000F068B1690818A8EB0000F06196F83800CB
:1039C00000F0140010280DD17069B1690818716AEF
:1039D0000818F1690818B16A0818716B8842BCBFF1
:1039E000081A306206B0BDE8F087F8B504460D4607
:1039F00016461F46002004E0E86A401CE8627F1E6D
:103A0000002047B116F8011BA868A047A86000284D
:103A1000F2D14FF0FF30F2BD686A6C747A4C00004E
:103A20006E616E004E414E00696E6600494E460062
:103A3000300000000278C9B28A421AB11CBF10F8E7
:103A4000012FF9E718BF00207047000000F10103C3
:103A5000810704D010F8011B89B18107FAD10268EF
:103A6000B2F10131914311F0803F04BF50F8042FAF
:103A7000F6E710F8011B11B110F8011BFBE7C01AA3
:103A800070470000C9B2830706D0521E22D310F837
:103A9000013B9942F7D11FE0083A13D302F1040227
:103AA00041EA012141EA014150F8043B121F21BFC4
:103AB0004B40A3F1013C2CEA030C1CF0803FF3D0F7
:103AC000C9B2001F083210F8013B521E28BF91EA0C
:103AD000030FF8D818BF0120401E70471B4213D1B6
:103AE000094236D12AB18446B0FBF2F002FB10C283
:103AF000704700F0D1BBFCD30022002370470B00BD
:103B00000200002100207047904271EB030CF6D3B5
:103B100070B5B1FA81F4B3FA83F52C1BA340C4F15C
:103B2000200532FA05F63343A2405FF00046E64036
:103B300002E05B085FEA3202841A71EB030524BFDE
:103B4000204629467641F4D302000B0030000021C4
:103B500070BD012ACFD970B5140C20D0B1FA81F410
:103B6000B2FA82F5C4F120046419B4F12006D6D368
:103B7000B2405FF00044F440002502E052085FEAE2
:103B80003303C61A71EB020E24BF304671466441FE
:103B90006D41F3D302000B002000290070BD0C46DC
:103BA000B1FBF2F102FB11452D0445EA1045B5FBCE
:103BB000F2F402FB145580B240EA0545B5FBF2F081
:103BC00002FB105240EA044070BD000062B38B0754
:103BD00008D0521E11F8013B00F8013B00F0248090
:103BE0008B07F6D1830740F0208000BF103A07D33F
:103BF00030B4B1E83810103AA0E83810F9D230BC2F
:103C0000530724BFB1E80810A0E8081044BF51F8DA
:103C1000043B40F8043BD20724BF31F8022B20F8C4
:103C2000022B44BF0B7803707047083A07D3B1E802
:103C30000810083A40F8043B40F804CBF7D2530789
:103C4000E4E730B4436803F0004201211B031B0B7F
:103C5000436004BF0368002B08D10DE00368DD0F4B
:103C600045EA440444605B000360491E4468E30283
:103C7000F4D523031B0B436043681A434260084694
:103C800030BC70474FF4001C1CEB410F94BF1CEB81
:103C9000430F09E041EA030C50EA4C0C52EA0C0CC9
:103CA00003D2994208BF9042704714BF8B428242B0
:103CB000704700004FF4001C1CEB410F94BF1CEB3D
:103CC000430F09E041EA030C50EA4C0C52EA0C0C99
:103CD00003D28B4208BF8242704714BF9942904280
:103CE0007047000070B504460D466068C0F30A5086
:103CF00040F2FF71884207D16068000304BF20686A
:103D0000002817D0022070BD20B92046FFF799FF88
:103D1000012868DA012D0FDB40F2FF71091A8D428C
:103D20000AD3606800284CBF9FED300B9FED310B2C
:103D300084ED000B012070BD4142A942616806DAA2
:103D40006FF31E51401941EA0050606042E0401E8E
:103D500063684519012205F1350062F31F533528C8
:103D600001F00041636003D361600020206070BDFA
:103D7000002215F11F0F04DA22682360002020358D
:103D80006060684214D0521E25689241C0F1200341
:103D9000D2439D4045EAD272256825FA00F665684F
:103DA00005FA03F333432360636823FA00F5656083
:103DB00060680843B2F1004F606003D80DD12078ED
:103DC000C0070AD52068401C2060206828B96068B8
:103DD000401C60604FF0FF3070BD6068884204BFD7
:103DE00020680028F6D1002070BD00BF0000000050
:103DF0000000F0FF000000000000F07FF446400DDE
:103E000040EAC120490006D200F014F8004248BF41
:103E10006FF00040604700F00DF84FF0004188421D
:103E20008CBF084640426047400D40EAC12049002F
:103E300080F00D8040F00040490DA1F58061491CE3
:103E400005D4D1F11F0154BFC840C01770474FF0CF
:103E50000000704770B44FF0004591EA030F44BF73
:103E60006B4000F01BBA00BF841A71EB030604D24A
:103E70006E40001BB141121973414FF4001C1CEB42
:103E8000410F34BF7CEB430684E00C0DA4EB1356CA
:103E9000362E7DDC012E43DC45EAC32343EA525330
:103EA00012BFD20292025B08240545EAC12141EA11
:103EB0005051D2EBC020994125D407D1B0FA80F6F9
:103EC00010FA06F164D00020203608E0B1FA81F63D
:103ED000B140C6F1200220FA02F21143B0404FEA8D
:103EE000F474B4EB465434F001064FEA74040AD873
:103EF000D6F50016760D04F00044F04061FA06F2A3
:103F00005040F1404840C00A40EA415021F0004191
:103F100028BF5FEA500550F1000044EBD12137E0A3
:103F200045EAC323DB0A45EAC121C90AB6F12005E7
:103F30000EDD42EA0242120CC5F1200603FA06F633
:103F4000EB4042EA06056D42984161F100010DE047
:103F500062FA06F5F240554063FA06FC82EA0C026A
:103F6000F3405A406D42904161EB030111F4801F10
:103F700005D1641E620502D06D004041494121F423
:103F80008011430875F1004350F1000041EB0451EA
:103F900070BC70471CEB410F15D223F0004352EA6E
:103FA00043060BD04FEA4C0CBCEB410F04D80C0D70
:103FB000661E342EB7DDEBE7801A994150EA4106C0
:103FC00008BF0021E4E708BF1CEB430F28BF6FF0D8
:103FD0000001DDE7F0B540F2FF7581EA030C0CF05B
:103FE000004C15EA11541DBF15EA1357AC42AF42FD
:103FF000E5E0BC41C1F31301C3F31303801A9941F7
:1040000043F4801304D2641E400049418018594192
:10401000C90241EA5051B1FBF3F603FB1611A2FBB2
:104020000675D7EBC020A94102D2761E80185941EF
:10403000C90241EA5051B1FBF3FE03FB1E11A2FB82
:104040000E75D7EBC020A94103D2AEF1010E801846
:104050005941890241EA9051760546EA8E2EB1FB1C
:10406000F3F603FB1611A2FB0675D7EB8020A941DE
:1040700002D2761E80185941C90241EA50514EEAD7
:10408000060EB1FBF3F603FB1611A2FB0675D7EB88
:10409000C020A94102D2761E80185941C90241EAC6
:1040A0005051B1FBF3F703FB1711A2FB0735D3EB1C
:1040B000C020A94167F100070CBF004247F001078B
:1040C00066F3D5274FEA1E31B80814F5806412DD77
:1040D000BD0775F1004250EB0E5051EB045111F544
:1040E000801F5CBF41EA0C01F0BD4CF07F6141F0E4
:1040F000E0410020F0BDBD076D0840EA0E5041F4DC
:104100008011D4F10104B4F120060ADAC4F12006CA
:104110000200E04001FA06F3E1401843B2401543C3
:104120000EE0342C13DCC6F1200445EA40056D088E
:1041300020FA06F2154321FA06F0A1400D430021B2
:1041400075F1004250F1000051EB0C01F0BD002070
:104150005FEA0C01F0BDCFB992185B41B3FA83F767
:1041600004BFB2FA82F6BF190B3FB7F120062FBF8A
:1041700002FA06F3BB40C7F1200622FA06F638BF62
:104180003343BA401CB1E419641E33E77F4231F077
:104190000041B1FA81F404BFB0FA80F6A4190B3CD7
:1041A000B4F120062FBF00FA06F1A140C4F12006A9
:1041B00020FA06F638BF3143A0403C1B1AE7AC4258
:1041C0001ABF05EA1357AF4212E050EA41061CBF7E
:1041D00052EA4306BFE750EA4107304661461CBF3A
:1041E00041EA0551F0BD52EA430C08BFC143F0BD9E
:1041F00000204FF4001616EB410F98BF16EB430F4B
:1042000008BF16EB410F24BFC14305E016EB430F77
:104210000CBF61464CEA0551F0BD000080B5134863
:1042200000F0A6F80FF24801016041608160C160B2
:104230000161416181610FF23C0242628162C162AF
:10424000016341630FF2300282630FF23402C263F2
:104250000164416401BD10B5044800F089F80446CA
:10426000206808B9FFF7DAFF204610BD7C20FF1F49
:10427000000000002E00000066616C736500000005
:10428000747275650000000091FBF2F303FB1211DC
:10429000C0E900317047000070470000841A71EBDC
:1042A000030603D2001BB141121973414FF4001CE5
:1042B0001CEB410F34BF7CEB430443E00C0DA4EB3B
:1042C0001356352E50DC45EAC323DB0A45EAC121EB
:1042D000C912B6F120050DDD63FA05F6EB4086EA5A
:1042E0000305124218BF45F00105C01851F1000145
:1042F0000CD213E062FA06F5F2405540F3415A4001
:10430000B340F3405A408018594107D349085FEA47
:1043100030005FEA350528BF45F0010501F5801141
:10432000420875F1004250F1000041EB045170BCAD
:104330004FF4001C1CEB410F38BF70470020090DE3
:10434000090570471CEB410F10D252EA43060BD00F
:10435000BCEB410F05D80C0DAB43661E342EB5DD0A
:1043600002E0AB438018594170BC704770BC704785
:104370007047000010B40021002200231900C9B2C8
:10438000022926DA00231A00D2B2142A11DAC9B29D
:10439000802303FB0103D2B20024D454C9B280238A
:1043A00003FB0103D2B29B1A002483F87F40521C06
:1043B000EAE714231A00D2B26B2A08DAC9B28023C2
:1043C00003FB0103D2B2FF24D454521CF3E7491C6F
:1043D000D5E700231900C9B280290BDAFF23C9B23F
:1043E0000C1884F800310023C9B20C1884F880310D
:1043F000491CF0E74023A0F818321623A0F81A321F
:104400000A23A0F81C320423A0F820320023A0F8CD
:104410001E3200231900C9B22D291FDA0023C9B2A8
:1044200010EB4104A4F822320023C9B210EB41047E
:10443000A4F8D6324023C9B210EB4104A4F87C3270
:104440000023C9B210EB4104A4F830330023C9B2F1
:1044500010EB4104A4F88A33491CDCE7002380F800
:10446000F833002380F8F93300231900C9B20A2970
:1044700007DA3223C9B210EB4104A4F8E433491C33
:10448000F4E74623A0F8FA331C23A0F82232642371
:10449000A0F8D63200231900C9B204290BDAFF2391
:1044A000C9B20C1884F810320023C9B20C1884F871
:1044B0001432491CF0E700231900C9B2102906DAAA
:1044C0000023C9B20C1884F80032491CF5E7002318
:1044D00080F8FC33002380F8FD33002380F8FE339E
:1044E000002380F8FF33002380F8003410BC7047AD
:1044F0002DE9F043002200230024FF25FF2600279A
:104500005FF0960C5FF0960E5FF000084246D2B264
:10451000802A6FDAD2B212F80080D2B212EB000910
:1045200099F8809019EB08081FFA88F85FEA580894
:10453000D2B212EB000989F80081D2B212EB000866
:1045400098F80081DBB2434505D2D2B212EB0008E5
:1045500098F800814346D2B212EB000898F8008127
:10456000EDB2A84505D2D2B212EB000898F800814E
:104570004546D2B212F80180D2B212EB010999F885
:10458000809019EB08081FFA88F85FEA5808D2B241
:1045900012EB010989F80081D2B212EB010898F8F8
:1045A0000081E4B2444505D2D2B212EB010898F87A
:1045B00000814446D2B212EB010898F80081F6B2AD
:1045C000B04505D2D2B212EB010898F800814646F8
:1045D000D2B212F80080D2B212EB000989F88080C2
:1045E000D2B212F80180D2B212EB010989F88080B0
:1045F000521C8CE790F8128280F8138290F8118296
:1046000080F8128290F8108280F8118290F8168259
:1046100080F8178290F8158280F8168290F814823C
:1046200080F8158280F8103280F8145291F81282C6
:1046300081F8138291F8118281F8128291F8108228
:1046400081F8118291F8168281F8178291F815820B
:1046500081F8168291F8148281F8158281F810424F
:1046600081F8146290F8138290F8129219EB0808FE
:1046700090F8119218EB090890F8109218EB0908BD
:1046800090F8179218EB090890F8169218EB0908A1
:1046900090F8159218EB090890F8149218EB090895
:1046A0001FFA88F85FEAD8084746BFB2FF2F02DA40
:1046B000B846C44602E04FF0FF08C44691F81382A2
:1046C00091F8129219EB080891F8119218EB090869
:1046D00091F8109218EB090891F8179218EB090855
:1046E00091F8169218EB090891F8159218EB090841
:1046F00091F8149218EB09081FFA88F85FEAD808B5
:104700004746BFB2FF2F02DAB846C64602E04FF076
:10471000FF08C6465FFA8CFCBCF1B40F02DA5FF00A
:10472000B40C07E05FFA8CFCBCF1C40F02DB5FF055
:10473000C30CFFE75FF000084246D2B2802A27DAB6
:10474000D2B212EB000898F800815FFA8CFCE045C9
:1047500002D35FF0010801E05FF00008D2B212EB73
:10476000000989F88081D2B212EB010898F8008123
:104770005FFA8EFEF04502D35FF0010801E05FF0C2
:104780000008D2B212EB010989F88081521CD4E7EB
:10479000BDE8F08310B4002200231A00D2B27F2AB1
:1047A00040DAD2B2131893F88131002B19D1D2B26A
:1047B000131893F88131D2B2141894F88041A342AF
:1047C0000FD0D2B2131893F88131D2B2141894F8E2
:1047D0008241A34205D00123D2B2141884F881315A
:1047E0001EE0D2B2131893F88131012B18D1D2B246
:1047F000131893F88131D2B2141894F88041A3426F
:104800000ED0D2B2131893F88131D2B2141894F8A2
:104810008241A34204D00023D2B2141884F881311B
:10482000521CBBE710BC704710B4002200231A00D2
:1048300012B2802A0DDA12B2135C12B2141884F884
:10484000803012B2535C12B2541884F88030521C7B
:10485000EEE710BC7047F8B504000D001600002705
:104860000520070029002000FFF7DEFF7F1EFFB2B2
:10487000002FF7D12D20070029002000FFF738FE78
:1048800029002000FFF786FF3100200000F05CF8CF
:10489000280000F0CFF97F1EFFB2002FECD1B4F852
:1048A000D602B4F82212401AA4F8FA03B5F8D602D8
:1048B000B5F82212401AA5F8FA03F1BD70B504004C
:1048C0000D00160029002000FFF712FE290020002D
:1048D000FFF760FF3100200000F036F8280000F0FC
:1048E000A9F92900200000F01AFB002828D002288E
:1048F00013D026D2B4F87C02B4F81A120818A4F81F
:104900007C02104800780F49487004200D49087057
:1049100001214320FEF749F913E0B4F87C02B4F812
:104920001A12401AA4F87C0206480078054948701B
:1049300004200449087001214320FEF736F900E005
:10494000FFE770BDB416FF1FF0B5B0F97C2213006D
:10495000002400250026002780F8FE73002780F839
:10496000FF73002780F8FD73012780F8F873012793
:1049700080F8F9731E0036B2042E18DB36B23718F1
:1049800097F87E71002F10D136B2371897F87F71E3
:10499000002F0AD136B2371897F88071012F04D151
:1049A0003400002780F8F87301E0761EE3E724B2B4
:1049B000032C02D1012780F8F8731E0036B27D2E39
:1049C00018DA36B2371897F88071012F10D136B245
:1049D000371897F88171002F0AD136B2371897F837
:1049E0008271002F04D13500002780F8F97301E0AF
:1049F000761CE3E72DB27D2D02D1012780F8F973F3
:104A00002C273E0036B2012E33DB36B210EB4607C0
:104A1000B7F8207236B210EB460CACF8227236B200
:104A200010EB4607B7F8D47236B210EB460CACF870
:104A3000D67236B210EB4607B7F87A7236B210EB80
:104A4000460CACF87C7236B210EB4607B7F82E7302
:104A500036B210EB460CACF8307336B210EB4607AA
:104A6000B7F8887336B210EB460CACF88A73761E32
:104A7000C8E790F8F873012F20D190F8F973002F50
:104A80001CD1012780F8FD73B0F8E473EF1BA0F888
:104A90002272A0F8D652B0F91872B0F922C2B0F959
:104AA000D6E21EEB0C0CB7EB6C0F07DAB0F82472F1
:104AB000A0F82272B0F8D872A0F8D67290F8F87305
:104AC000002F20D190F8F973012F1CD1012780F815
:104AD000FD73B0F8E4733F19A0F8D672A0F8224233
:104AE000B0F92272B0F9D6C21CEB07077F10B0F9FB
:104AF00018C2674507DAB0F82472A0F82272B0F83D
:104B0000D872A0F8D67290F8FD73002F38D190F8C3
:104B1000F873002F10D190F8F973002F0CD1A0F882
:104B20002242A0F8D652002780F8FE7390F8FC735A
:104B30007F1C80F8FC7323E0012780F8FE731BB212
:104B40001F1897F88071012F17D11BB21F1897F803
:104B50007B71012F11D11BB21F1897F88571012F9E
:104B60000BD1012780F8FF73B0F82672A0F82272EB
:104B7000B0F8DA72A0F8D67202E0002780F8FC7371
:104B800090F8FE73012F54D0B0F9D672B0F922C25A
:104B9000B7EB0C07142F4CDBB0F92272B0F9D6C278
:104BA0001CEB07075FF0020C97FBFCF7A0F87C7288
:104BB000B0F87C72B0F818C2B7EB0C07A0F83073ED
:104BC000B0F83073B0F840C3B7EB0C07A0F88A73A5
:104BD0002DB224B22F1B5B2F2BDAB0F8F473A0F8A0
:104BE000F673B0F8F273A0F8F473B0F8F073A0F8AD
:104BF000F273B0F8EE73A0F8F073B0F8EC73A0F8AD
:104C0000EE73B0F8EA73A0F8EC73B0F8E873A0F8AC
:104C1000EA73B0F8E673A0F8E873B0F8E473A0F8AC
:104C2000E673B0F8D672B0F822C2B7EB0C07A0F862
:104C3000E473F0BDF0B4B0F97C120A000023002444
:104C40000025002680F8FE63002680F8FF6300261A
:104C500080F8FD63012680F8F863012680F8F96387
:104C600015002DB2042D18DB2DB22E1896F87E619A
:104C7000002E10D12DB22E1896F87F61002E0AD189
:104C80002DB22E1896F88061012E04D12B0000263B
:104C900080F8F86301E06D1EE3E71BB2032B02D13D
:104CA000012680F8F86315002DB27D2D18DA2DB29B
:104CB0002E1896F88061012E10D12DB22E1896F87C
:104CC0008161002E0AD12DB22E1896F88261002E35
:104CD00004D12C00002680F8F96301E06D1CE3E7A5
:104CE00024B27D2C02D1012680F8F9632C263500F0
:104CF0002DB2012D33DB2DB210EB4506B6F8206244
:104D00002DB210EB4507A7F822622DB210EB450635
:104D1000B6F8D4622DB210EB4507A7F8D6622DB2D3
:104D200010EB4506B6F87A622DB210EB4507A7F8EE
:104D30007C622DB210EB4506B6F82E632DB210EB57
:104D40004507A7F830632DB210EB4506B6F8886327
:104D50002DB210EB4507A7F88A636D1EC8E790F8DF
:104D6000F863012E20D190F8F963002E1CD10126A2
:104D700080F8FD63B0F8E463A61BA0F82262A0F8F7
:104D8000D642B0F91862B0F92272B0F9D6C21CEB63
:104D90000707B6EB670F07DAB0F82462A0F82262C3
:104DA000B0F8D862A0F8D66290F8F863002E1FD150
:104DB00090F8F963012E1BD1012680F8FD63B0F84D
:104DC000E463F618A0F8D662A0F82232B0F92262A5
:104DD000B0F9D672BE197610B0F91872BE4207DA71
:104DE000B0F82462A0F82262B0F8D862A0F8D662C7
:104DF00090F8FD63002E3DD190F8F863002E0BD1A2
:104E000090F8F963002E07D1A0F82232A0F8D6421C
:104E1000002680F8FE632DE0012680F8FE6312B2C2
:104E2000161896F88061012E0FD112B2161896F856
:104E30007D61012E09D112B2161896F88361012EF8
:104E400003D1012680F8FF6314E012B2161896F819
:104E50008061002E0ED112B2161896F87B61002EDA
:104E600008D112B2161896F88561002E02D10026DC
:104E700080F8FC6390F8FE63012E4ED0B0F9D66244
:104E8000B0F92272F61B142E47DBB0F92262B0F99A
:104E9000D672BE19022796FBF7F6A0F87C62B0F82E
:104EA0007C62B0F81872F61BA0F83063B0F830637B
:104EB000B0F84073F61BA0F88A6324B21BB2E61A5E
:104EC000792E2ADAB0F8F463A0F8F663B0F8F2634A
:104ED000A0F8F463B0F8F063A0F8F263B0F8EE6302
:104EE000A0F8F063B0F8EC63A0F8EE63B0F8EA6302
:104EF000A0F8EC63B0F8E863A0F8EA63B0F8E66302
:104F0000A0F8E863B0F8E463A0F8E663B0F8D6620E
:104F1000B0F82272F61BA0F8E463F0BC7047020000
:104F200092F8FE03002849D191F8FE03002845D1EC
:104F3000B2F9E403B2F9F033C01A10F10C0F3BDA06
:104F4000B2F92202B2F92E32C01A0A2815DBB2F9E0
:104F5000D602B2F9E232C01A012805DBB2F9D60254
:104F6000B2F9E232C01A04E0B2F9E202B2F9D63282
:104F7000C01A052801DA012021E0B2F9E202B2F9F3
:104F8000D632C01A0A2815DBB2F92202B2F92E3243
:104F9000C01A012805DBB2F92202B2F92E32C01A7A
:104FA00004E0B2F92E02B2F92232C01A052801DA61
:104FB000022004E0002002E0002000E00020704712
:104FC00040000000000080400000804000004040A1
:104FD000000000C0000000C0000020400000404071
:104FE000000080400000404000000040000080BF02
:104FF000000000C0000000C0000000BF00004040F2
:1050000000000040000040400000004000000000A0
:10501000000000C0000040C00000404000004040D0
:105020000000404000004040000040400000404080
:1050300000004040000040C0000000C00000000030
:1050400000000040000040400000004000004040E0
:10505000000000BF000000C0000000C0000080BFD2
:105060000000004000004040000080400000404040
:1050700000002040000000C0000000C000004040D0
:105080000000804000008040000080400000604040
:10509000000040400000004000000000000000C090
:1050A000000040C000006040000040400000404060
:1050B0000000803F000080BF000040C0000040C0F2
:1050C0000000404000000040000080BF000040C0E1
:1050D000000040C0000080BF000080BF0000000052
:1050E000000000C0000040C0000060C0000040C0E0
:1050F000000000C000000000000080BF000080BF72
:10510000000040C0000040C0000080BF0000004020
:1051100000004040000040C0000040C0000080BFD0
:105120000000803F00004040000040400000604020
:10513000000040C0000000C000000000000000406F
:10514000000040400000604000008040000070C14E
:10515000000000000000F0C1000020C10000A040DD
:105160000000000000007041000020C10000A0C04D
:10517000000020C1000020410000A040000000C04D
:105180000000204100000000000000C0000020C11D
:105190000000A0400000A040000000C00000A040AF
:1051A0000000A0400000A0400000A0400000F0412E
:1051B0000000A040000040400000A0400000A040CF
:1051C0000000A0400000A0400000A040000020C15E
:1051D000000000C00000000000002041000000C0EE
:1051E0000000A04000002041000020C10000A0C03D
:1051F000000020C100007041000000000000A0403D
:10520000000020C10000F0C100000000000070C1DB
:1052100000B0034000B00B400000000000000000A0
:10522000000000000000000000000000000000007E
:105230000000000000004E6F6E4D61736B61626C88
:105240006500000000486172644661756C7400007E
:10525000000000004D656D4D616E6167656D656EA6
:105260007400004275734661756C740000000000A4
:10527000000055736167654661756C74000000003D
:10528000000000000000000000000000000000001E
:10529000000000000000000000000000000000000E
:1052A00000000000000000000000000000000000FE
:1052B0000000000000000000000000000053564302
:1052C000616C6C0000000000000000004465627525
:1052D000674D6F6E69746F7200000000000000007F
:1052E0000000000000000000000050656E6453568E
:1052F0000000000000000000005379735469636BE4
:105300000000000000000000444D4130000000009B
:1053100000000000000000444D413100000000008A
:10532000000000000000444D413200000000000079
:105330000000000000444D41330000000000000068
:1053400000000000444D4134000000000000000057
:10535000000000444D413500000000000000000046
:105360000000444D41360000000000000000000035
:1053700000444D4137000000000000000000000024
:10538000444D4138000000000000000000000044CF
:105390004D41390000000000000000000000444DB5
:1053A00041313000000000000000000000444D4189
:1053B000313100000000000000000000444D413188
:1053C0003200000000000000000000444D41313375
:1053D00000000000000000000000444D4131340096
:1053E000000000000000000000444D413135000085
:1053F0000000000000000000444D415F4572726FE4
:10540000720000000000004D434D0000000000004D
:105410000000000000004654464C00000000000060
:105420000000000000526561645F436F6C6C69733B
:10543000696F6E004C56445F4C56570000000000E8
:105440000000004C4C57000000000000000000006D
:1054500000005761746368646F670000000000001B
:1054600000524E4700000000000000000000000055
:1054700049324330000000000000000000000049F5
:1054800032433100000000000000000000005350D3
:1054900049300000000000000000000000535049A7
:1054A00031000000000000000000000053504932AD
:1054B000000000000000000000000043414E305F8B
:1054C0004F525F4D425F6275660043414E305F420E
:1054D00075735F4F666600000043414E305F457252
:1054E000726F72000000000043414E305F54785FDD
:1054F0005761726E696E6743414E305F52785F57F5
:1055000061726E696E6743414E305F57616B655FD4
:105510005570000000526573657276656435310020
:1055200000000000526573657276656435320000D4
:1055300000000043414E315F4F525F4D425F627544
:10554000660043414E315F4275735F4F66660000EF
:105550000043414E315F4572726F720000000000DF
:1055600043414E315F54785F5761726E696E674395
:10557000414E315F52785F5761726E696E67434189
:105580004E315F57616B655F557000000052657367
:1055900065727665643539000000000052657365F8
:1055A0007276656436300000000000554152543078
:1055B0005F52585F54580000000055415254305F0C
:1055C00045525200000000000055415254315F52D4
:1055D000585F54580000000055415254315F455205
:1055E0005200000000000055415254325F52585F93
:1055F00054580000000055415254325F4552520049
:10560000000000000055415254335F52585F545817
:105610000000000055415254335F455252000000D3
:1056200000000055415254345F52585F54580000F6
:10563000000055415254345F4552520000000000B2
:105640000055415254355F52585F545800000000D5
:1056500055415254355F4552520000000000004150
:1056600044433000000000000000000000004144FE
:1056700043310000000000000000000000434D50D6
:10568000300000000000000000000000434D5031D9
:105690000000000000000000000000434D503200F8
:1056A0000000000000000000000046544D300000E3
:1056B00000000000000000000046544D31000000D2
:1056C000000000000000000046544D3200000000C1
:1056D00000000000000000434D54000000000000E6
:1056E00000000000000052544300000000000000D1
:1056F00000000000005265736572766564383300FF
:10570000000000005049543000000000000000007C
:10571000000000504954310000000000000000006B
:10572000000050495432000000000000000000005A
:105730000050495433000000000000000000000049
:1057400050444230000000000000000000000055FE
:1057500053423000000000000000000000005553DC
:1057600042444344000000000000000000454E4554
:10577000545F313538385F54696D6572454E455414
:105780005F5472616E736D69740000454E45545FDD
:1057900052656365697665000000454E45545F4576
:1057A00072726F7200000000004932533000000036
:1057B00000000000000000005344484300000000C7
:1057C00000000000000000444143300000000000E1
:1057D00000000000000044414331000000000000D0
:1057E0000000000000545349300000000000000099
:1057F000000000004D4347000000000000000000D2
:105800000000004C5054696D6572000000000000FB
:1058100000005265736572766564313032000000B5
:1058200000504F52544100000000000000000000F2
:10583000504F525442000000000000000000005091
:105840004F52544300000000000000000000504F81
:1058500052544400000000000000000000504F526D
:105860005445000000000000000000005265736510
:1058700072766564313038000000005265736572DD
:1058800076656431303900000000526573657276C8
:1058900065643131300000000052657365727665D1
:1058A00064313131000000005265736572766564C1
:1058B00031313200000000526573657276656431E3
:1058C00031330000000052657365727665643131D2
:1058D00034000000005265736572766564313135BD
:1058E00000000000526573657276656431313600E0
:1058F00000000052657365727665643131370000CF
:1059000000005265736572766564313138000000BD
:1059100000526573657276656431313900000000AC
:10592000008003400090034000800B4000900B403B
:1059300000F00F4040F00F4080F00F40C0F00F40EB
:1059400000F10F40006006400070064066000A1D2E
:1059500032000701640007106E0004067800040896
:105960008200040A8C00040C9600040EA0000410AF
:10597000AA000412B4000414BE000416C8000418DF
:10598000D200041ADC00041CE100041DE600041E21
:10599000EB00041FF4000317FA00031813010106BB
:1059A0002C010214000109080090044000A00440EA
:1059B00000B0044000C0044000D0044000A00640F5
:1059C00000B0064000C0064000D0064000A00E40D7
:1059D00000B00E4000009B43010200006A6E6B6C39
:1059E000676D4E4F34353637020401012020FF1F0A
:1059F0007020FF1F2020FF1F2020FF1F2020FF1FDF
:105A0000750EFF1F5C0EFF1F00000000000000006D
:105A10000000000000000000000000000000000086
:105A2000000000000000000038B504000D0064B262
:105A3000002C06D0022C69D04CD3032C00F08280BD
:105A4000C7E0DFF8C005006850F08070DFF8B415DB
:105A500008606DB2002D0BD0022D15D00ED3042D91
:105A60001ED017D3062D27D020D3072D2AD02FE004
:105A70004FF480614120FCF777FE2AE04FF440713B
:105A80000420FCF771FE24E04FF440710520FCF780
:105A90006BFE1EE04FF440710620FCF765FE18E037
:105AA0004FF440710720FCF75FFE12E04FF4806175
:105AB0006520FCF759FE0CE04FF480616620FCF78E
:105AC00053FE06E04FF480616720FCF74DFE00E0D6
:105AD0007FE07EE0DFF82C05006850F00070DFF812
:105AE000241508606DB2002D02D0012D06D00BE008
:105AF0004FF440710C20FCF737FE06E04FF4407184
:105B00000D20FCF731FE00E063E062E0DFF8F8040E
:105B1000006850F08070DFF8F01408606DB2002D5E
:105B200002D0012D06D00BE04FF440710A20FCF7A3
:105B30001BFE06E04FF440710B20FCF715FE00E061
:105B400047E046E0DFF8C004006850F00070DFF87E
:105B5000B81408606DB2002D0BD0022D15D00ED3F5
:105B6000042D1ED017D3062D27D020D3072D2AD0E1
:105B70002EE04FF4C0618520FCF7F6FD28E04FF4DD
:105B8000C0618620FCF7F0FD22E04FF4C061872061
:105B9000FCF7EAFD1CE04FF4C0618820FCF7E4FD4F
:105BA00016E04FF4C0618920FCF7DEFD10E04FF4F1
:105BB00040714920FCF7D8FD0AE04FF4C0618B200A
:105BC000FCF7D2FD04E04FF4C0618C20FCF7CCFD63
:105BD000FFE731BD2DE9F84F04000D0016001F004E
:105BE00064B2002C11D064B2012C02D064B2022C39
:105BF00002D16DB2022D08DB64B2032C05D040F255
:105C00008511DFF80804FCF71CFE290049B22000CA
:105C100040B2FFF709FFDFF8F80300684FF47A712C
:105C2000484380465FEA1840B0FBF6F0814600200A
:105C300082461FFA89F9484650FA0AF0012802DB29
:105C40001AF1010AF5E75FFA8AFABAF1080F05DBE3
:105C50004FF4D071DFF8B403FCF7F3FD404630FA9F
:105C60000AF0B0FBF6F081461FFA89F9DFF8A403C9
:105C700064B240F8249064B2002C05D0022C1BD0F2
:105C80000ED3032C24D02FE01FFA89F919F101005B
:105C900000FB07F042F21071B0FBF1F0834623E005
:105CA0001FFA89F919F1010000FB07F04FF47A712E
:105CB000B0FBF1F0834617E01FFA89F919F10100F2
:105CC00000FB07F04FF47A71B0FBF1F083460BE074
:105CD0001FFA89F919F1010000FB07F042F2107177
:105CE000B0FBF1F08346FFE7DFF82C0364B250F815
:105CF00024006DB210EBC500DFF81C1364B251F83C
:105D000024106DB211EBC501C96831F00401C16006
:105D1000DFF8040364B250F824006DB210EBC50044
:105D20002821C1605FFA8AFA1AF0070050F00800D3
:105D3000DFF8E41264B251F8241008601FFA89F900
:105D4000DFF8D40264B250F82400C0F808900020B4
:105D5000DFF8C41264B251F82410C864DFF8B80246
:105D600064B250F824006DB210EBC5001FFA8BFB33
:105D7000C0F810B00020DFF8A01264B251F824106F
:105D80004860BDE8F18F2DE9F04104000D001600D8
:105D90005FF0000864B2002C11D064B2012C02D074
:105DA00064B2022C02D16DB2022D08DB64B2032C66
:105DB00005D04FF4F371DFF85402FCF742FD64B2F2
:105DC000002C05D0022C18D00DD3032C1FD029E0B5
:105DD00042F21170864205D34FF4F671DFF82C02BF
:105DE000FCF72FFD1EE0B6F57A7F05D94FF4F87168
:105DF000DFF81802FCF725FD14E0B6F57A7F05D927
:105E00004FF4FA71DFF80402FCF71BFD0AE042F2DE
:105E10001170864205D340F2F911DFF8F001FCF76A
:105E200010FDFFE7DFF8EC0164B250F82400804673
:105E300064B2002C05D0022C17D00CD3032C1ED03A
:105E400027E018F1010000FB06F042F21071B0FBF0
:105E5000F1F007001DE018F1010000FB06F04FF41F
:105E60007A71B0FBF1F0070013E018F1010000FBBC
:105E700006F04FF47A71B0FBF1F0070009E018F179
:105E8000010000FB06F042F21071B0FBF1F00700D8
