:10000000F8FF0020110400008B3300008B33000048
:100010008B3300008B3300008B3300008B330000E8
:100020008B3300008B3300008B3300008B330000D8
:100030008B3300008B3300008B3300008B330000C8
:100040008B3300008B3300008B3300008B330000B8
:10040000FFFFFFFFFFFFFFFFFFFFFFFFFEFFFFFFFD
:1004100062B606F0A1FDFEE72DE9F04FA1B08246DD
:10042000002017461D4602910B900DF1440B6FF012
:1004300000490AE017F8011B0298D04702900028F3
:1004400000F0A8820B98401C0B90387808B90B98E4
:10045000A2E22528EED10020059006900790089092
:1004600009900A9001E040F0010017F8011F2029CF
:10047000F9D023290DD02B2904D02D2906D03029DD
:100480000AD00CE040F0020080B2EEE740F0040039
:10049000FAE740F00800F7E740F01000F4E72A29F7
:1004A0000ED12968296051F8042B2960002A0D9289
:1004B00004D5514240F004000D9180B27F1C11E040
:1004C00000210D9109E00D99494505D001EB81030B
:1004D00002EB430130390D917F1C3A78A2F13001D3
:1004E0000A29F0D339782E2903D04FF0FF310C912F
:1004F0001DE017F8011F2A2907D1296829607F1CF0
:1005000051F8042B29600C9211E000210C9109E0B4
:100510000C99494505D001EB810302EB43013039C9
:100520000C917F1C3A78A2F130010A29F0D3ADF882
:1005300038000FF65C40397800F048FE08B117F833
:10054000010B8DF83A009DF83A00682802BF39780F
:100550006829622005D06C2804BF38786C2803D144
:1005600071208DF83A007F1C11A8049017F8014BF8
:10057000B4F125002AD01C3800F0CC80001F0228DE
:1005800040F2C880133800F0EE80093800F0C280D5
:10059000801E00F04F81401E00F02481401E022882
:1005A00040F2B880001F00F01D81401F00F08380E2
:1005B000401E00F0D880401E29D0C01E0CD0801EE6
:1005C00000F0D180C01E00F0CE803DE101200590FA
:1005D00025208DF8440043E12868286050F8044B3A
:1005E00028600394DDF83080B8F1000F04D5204670
:1005F00000F0F8FD804607E042460021204600F06A
:100600000DFE08B1A0EB0408CDF8188028E1296898
:1006100029604FF03C0851F8040B29600021CDE916
:10062000000111A80390DDE90001049C11B908B98B
:100630000C9AC2B10206120FA0EB02123032D2B2F3
:100640003A2AA8BF27320009A8F1010340EA017045
:1006500009091A5508BF0028984604D0039A08EBE8
:1006600004039A42E6D308EB04000390C8F13C016E
:100670000C980691814209DA401A08904FF6EF7102
:10068000BDF838000840ADF83800E9E0002840F136
:10069000E7809DF8380000F01400102840F0E0805A
:1006A0000D98059A801A089A801A401A0128C0F2FB
:1006B000D7800890D4E09DF83A0062281AD06828C4
:1006C00006D06A280CD06C281CD0712808D019E0FC
:1006D0002868286050F8041B28600B980880BFE049
:1006E0002868286050F8042B28600B98C117C2E9CD
:1006F0000001B5E02868286050F8041B28600B98BA
:100700000870ADE02868286050F8041B28600B983A
:100710000860A5E02868C01D20F007022A60D2E921
:10072000000108322A60CDE90001002903D501202B
:1007300005902D200CE0BDF83800810703D501207D
:1007400005902B2004E0C00704D50120059020204F
:100750008DF84400059911A808180390214600A8B7
:1007600000F0D8F97CE09DF83A206C2A0DD0712A6F
:1007700018BF6A2A09D12868C01D20F007032B6022
:10078000D3E9000108332B6005E02968296051F89E
:10079000040B29600021CDE90001682A08BF80B25E
:1007A00007D0622A08BFC0B203D0742A18BF7A2AC1
:1007B00002D10021CDE900019DF83800000730D5B5
:1007C000DDE90001002908BF00282AD044F02000FC
:1007D000782826D130208DF844008BF80140022083
:1007E00005901EE09DF83A00294600F0D8F8CDE9C2
:1007F0000001002904DA0598411C05912D210EE025
:10080000BDF83800810704D50598411C05912B21BE
:1008100005E0C00705D50598411C0591202100F889
:100820000B10059911A808180390214600A800F0A4
:10083000EDF815E0012005902868286050F8041BA9
:1008400028608DF844100BE0012005902520002C35
:100850008DF8440004D00598411C059100F80B4028
:100860000D980599401A0899401A0699401A099955
:10087000401A0799401A0A99A0EB01089DF8380020
:1008800040070FD420208DF84000002408E0012309
:1008900010AA00A9504600F064FC00287AD1641C1C
:1008A0004445F4DB059C11AE0AE016F8011B0298E2
:1008B000D047029000286DD00B98401C0B90641E0E
:1008C000002CF2D130208DF840000026089C08E072
:1008D000012310AA00A9504600F043FC002859D17A
:1008E000761CA642F4DB069C039E0AE016F8011B68
:1008F0000298D047029000284CD00B98401C0B90D7
:10090000641E002CF2D130208DF840000026099C96
:1009100007E0012310AA00A9504600F022FCC8BB42
:10092000761CA642F5DB03980699079C0E1809E091
:1009300016F8011B0298D047029058B30B98401C40
:100940000B90641E002CF3D130208DF8400000265F
:100950000A9C07E0012310AA00A9504600F001FC00
:10096000C0B9761CA642F5DB9DF8380040077FF53C
:100970006CAD20208DF84000002400E0641C44454C
:10098000BFF663AD012310AA00A9504600F0E9FBB1
:100990000028F3D04FF0FF3021B0BDE8F08F62287F
:1009A00026D068281DD06A2808D06C2827D0712846
:1009B00004D0742823D07A280CD020E00868C01D09
:1009C00020F007000860D0E90023083008601946CD
:1009D000104670470A680A6052F8040B0A6000214A
:1009E00070470A680A6052F8040B0A6000B20BE014
:1009F0000A680A6052F8040B0A6040B204E00A6810
:100A00000A6052F8040B0A60C11770472DE9FA4ECC
:100A100005460A462F696F2A08BF082405D041F011
:100A20002000782814BF0A2410243C26D5E90001B0
:100A3000642A18BF692A81468A4605D1002903DA4B
:100A4000D9F100096AEB4A0ABAF1000F08BFB9F1FF
:100A5000000F0CD1286B50B9082C36D195F838000E
:100A6000000732D530203B2687F83B002DE0E31706
:100A700048465146224600F0FDFBA4FB0023A9EBAB
:100A800002023032D2B2A6F1010B3A2A5E4603DBF3
:100A90009DF80030513B9A1881465FEA010A0BF835
:100AA000072008BFB9F1000F03D0E868F1198842A8
:100AB000DDD3082C09D195F83800000705D5F05D85
:100AC000302802D0761E3020F055C6F13C00A861D7
:100AD000F119E960296B884208DA081A28624FF692
:100AE000EF71288F08402887BDE8F38E00290ED5C6
:100AF00095F8381001F01401102908D1696B6A6962
:100B0000891A2A6A891A081A0128A8BF2862BDE82A
:100B1000F38E00002DE9F24F04468EB0D4E90001B7
:100B2000CDE9020104AF9DF8380040F0200BBBF185
:100B3000610F0AD0206B002848BF062004D408BFEC
:100B4000BBF1670F01D1012020636168C1F30A5036
:100B500040F2FF7290421CD1080304BF20680028B5
:100B600009D10320A0619DF8380061381A2836D3D6
:100B70000FF2306108E00320A0619DF83800613871
:100B80001A2829D30FF21461E068032200F0EAFB6F
:100B9000BEE1012816DA204600F01FFC012811DB17
:100BA00000250020BBF1610F20D1E168302201F85F
:100BB000012B4A1CE2609DF83820612A0CBF782284
:100BC00058220FE0626840F2FE3161F31E52451A6E
:100BD00062604FF0FF30E5E70FF2BC51D4E70FF24F
:100BE000C051D1E70A706169891C616110B90026A2
:100BF000002584E1BBF1610F40F09780206B002855
:100C00004CBF2126461CDDE90201D4E900AB0022DD
:100C1000002300F003FC36B23ABF8BF00040CDE970
:100C200002A0CDE902AB06F101082D1F8DF81020BE
:100C30000DF1110700E0C71DB8F1010F33DBDDE94D
:100C400002010022002300F001FC2CD21C2102A88A
:100C500000F014FCDDE9020100F09CFCA8F107089B
:100C6000B8F1010F814609DB00F0C0FC02460B46DB
:100C7000DDE9020100F0D2FCCDE90201F81D0721F7
:100C800005E009F00F0200F8012D4FEA2919B9F12A
:100C9000010F01DB491EF4D5491E5CBF002200F89C
:100CA000012DF9D5C7E70DF11100391AB142B8BFCE
:100CB0000E4636B230000DF111072FD4884206DA05
:100CC00004A9411849780829A8BF0F2100DA00219A
:100CD00004AA821800E0761E12F80139401E8B42E9
:100CE000F9D00F2904D104A941184A78521C4A703E
:100CF000002802D504AF761C2D1D36B2701E0DD40F
:100D0000C1190A783032D2B23A2A03DB9DF8383062
:100D10003A3B9A18401E01F80129F2D5206B0028B1
:100D200040F1ED80701E2063E9E0DDE90201002260
:100D3000002300F073FB3CBF81F00041CDE90201CC
:100D40002DB247F2975068434B49DFF8309190FB42
:100D5000F1F52DB2C5F1070ABAF1010F90461CDB7F
:100D6000DDE902675FEACA7007D542464B46304666
:100D7000394600F013FD06460F464FEA6A0A404620
:100D8000494642464B4600F009FDBAF1000F804645
:100D90008946E7D1CDE9026724E0CAF1000A0026BE
:100DA000374F14E05FEACA7007D542464B463046DB
:100DB000394600F0F3FC06460F464FEA6A0A404601
:100DC000494642464B4600F0E9FC80468946BAF166
:100DD000000FE7D1DDE9020132463B4600F0B0FDED
:100DE000CDE90201BBF1660F216BDFF898900CBFD3
:100DF00005F10A0006204618142EA8BF132630203D
:100E00008DF810000DF11107012E3DDBDDE9020127
:100E100000F0D6FB07F1080104220A23B0FBF3F32C
:100E200003EB8307A0EB4700303001F8010D0A20E7
:100E3000B3FBF0F000EB8007A3EB47033033521E07
:100E400001F8013DE9D1083E012E01F10807DBDB85
:100E5000DDE9020100F0B4FB00F0D2FB02460B46D4
:100E6000DDE9020100F0DAFB00224B4600F096FCBF
:100E7000CDE90201CAE700BFA086010000002440BE
:100E80000000F03F84D797410DF11100381A0DF1A1
:100E9000110702E0401E6D1E7F1C39783029F9D001
:100EA000BBF1660F02D12DB2691C04E0BBF1650FE6
:100EB0000CBF01210021226B8E1836B2B042B8BFA0
:100EC000064636B231001AD4814204DAC85D3528AC
:100ED000A8BF392000DA3020CA19521E00E0761E61
:100EE00012F80139491E8342F9D0392802D1C85D70
:100EF000401CC855002902D57F1E761C6D1C2DB2E2
:100F00009DF83810009533B23A46204600F003F8B9
:100F10000FB0BDE8F08F2DE9F04786B006468A464F
:100F200090461D4600F04DFE406A376B90F80090E9
:100F3000012D02DA01250FF270284AF02000BDF9D8
:100F40003840662808BF641C12D0672876D114F197
:100F5000040F79DBBC4277DA96F83800641C00078E
:100F600002D4BD42B8BF2F4624B23F1B48BF002762
:100F700024B2F068B169012C21DA4A1C30230B54E9
:100F8000012F03DA96F83810090702D502F800900D
:100F9000521CE742B8BF7C4224B26142E719AF421B
:100FA000B261B8BF3D4671622DB2F5612A46B369A0
:100FB0004146181800F0D6F9781BB062BAE008185C
:100FC000A54216DA2A46414600F0CCF9B169691803
:100FD000601BB161012F706203DA96F838000007D8
:100FE00005D5F06801F80090F069401CF061B76227
:100FF000A0E02246414600F0B5F9B06920182D1B4B
:10100000012F03DA96F83810090703D5F16800F8C4
:101010000190401CB0612DB2AF42B8BF3D46F068B0
:10102000B3692DB22A4604EB0801181800F09AF9AA
:10103000B0692818B061781B70627BE0BAF1610F6B
:1010400014D14FF0700A16E0BD4204DA96F8381059
:10105000090758BF2F467F1E48BF0027BAF1670F08
:1010600014BF4FF0450A4FF0650A04E0BAF1410F92
:1010700008BF4FF0500AB169F06818F8013B0B54F3
:101080004A1C012F05DA96F83810090758BFB261DB
:1010900015D502F80090531C012FB3610FDB6D1EB4
:1010A0002DB2AF42B8BF3D462DB22A464146181870
:1010B00000F058F9B0692818B061781B7062F068C8
:1010C000B16901EB0008200008F801AB03D42B2024
:1010D00008F8010B03E02D2108F8011B64420025EC
:1010E00002AF08E00A2200A800F084FD019807F88A
:1010F000010B6D1C009C21B20129F3DA022D06DAE6
:101100004AF02000652804BF302008F8010B4DB9D3
:10111000302008F8010B07E06D1E02A8285C303073
:1011200008F8010B012DF7DAF068B1690818A8EB8F
:101130000000F06196F8380000F0140010280DD17E
:101140007069B1690818716A0818F1690818B16AFC
:101150000818716B8842BCBF081A306206B0BDE83F
:10116000F087F8B504460D4616461F46002004E0F9
:10117000E86A401CE8627F1E002047B116F8011B98
:10118000A868A047A8600028F2D14FF0FF30F2BD58
:10119000686A6C747A4C00006E616E004E414E00BD
:1011A000696E6600494E4600300050F8041B61B17C
:1011B00050F8042BD30744BFA9F101039A18002368
:1011C000091F42F8043BFAD1EFE770470278C9B231
:1011D0008A421AB11CBF10F8012FF9E718BF00208E
:1011E0007047000000F10103810704D010F8011BD3
:1011F00089B18107FAD10268B2F10131914311F04E
:10120000803F04BF50F8042FF6E710F8011B11B11E
:1012100010F8011BFBE7C01A70470000C9B2830732
:1012200006D0521E22D310F8013B9942F7D11FE09D
:10123000083A13D302F1040241EA012141EA0141D3
:1012400050F8043B121F21BF4B40A3F1013C2CEA94
:10125000030C1CF0803FF3D0C9B2001F083210F815
:10126000013B521E28BF91EA030FF8D818BF012096
:10127000401E70471B4213D1094236D12AB1844621
:10128000B0FBF2F002FB10C2704700F0BBBCFCD315
:101290000022002370470B0002000021002070474D
:1012A000904271EB030CF6D370B5B1FA81F4B3FA46
:1012B00083F52C1BA340C4F1200532FA05F6334315
:1012C000A2405FF00046E64002E05B085FEA3202BF
:1012D000841A71EB030524BF204629467641F4D3D6
:1012E00002000B003000002170BD012ACFD970B57B
:1012F000140C20D0B1FA81F4B2FA82F5C4F12004C2
:101300006419B4F12006D6D3B2405FF00044F44033
:10131000002502E052085FEA3303C61A71EB020EA1
:1013200024BF3046714664416D41F3D302000B0087
:101330002000290070BD0C46B1FBF2F102FB114503
:101340002D0445EA1045B5FBF2F402FB145580B2BA
:1013500040EA0545B5FBF2F002FB105240EA0440BA
:1013600070BD000062B38B0708D0521E11F8013B1C
:1013700000F8013B00F024808B07F6D1830740F092
:10138000208000BF103A07D330B4B1E83810103ACB
:10139000A0E83810F9D230BC530724BFB1E80810D8
:1013A000A0E8081044BF51F8043B40F8043BD207C2
:1013B00024BF31F8022B20F8022B44BF0B780370B6
:1013C0007047083A07D3B1E80810083A40F8043BE0
:1013D00040F804CBF7D25307E4E730B4436803F096
:1013E000004201211B031B0B436004BF0368002B59
:1013F00008D10DE00368DD0F45EA440444605B005A
:101400000360491E4468E302F4D523031B0B4360C9
:1014100043681A434260084630BC70474FF4001CD2
:101420001CEB410F94BF1CEB430F09E041EA030C96
:1014300050EA4C0C52EA0C0C03D2994208BF90427D
:10144000704714BF8B428242704700004FF4001C6B
:101450001CEB410F94BF1CEB430F09E041EA030C66
:1014600050EA4C0C52EA0C0C03D28B4208BF824269
:10147000704714BF994290427047000070B504460F
:101480000D466068C0F30A5040F2FF71884207D1F0
:101490006068000304BF2068002817D0022070BDD8
:1014A00020B92046FFF799FF012868DA012D0FDBEC
:1014B00040F2FF71091A8D420AD3606800284CBFC0
:1014C0009FED300B9FED310B84ED000B012070BDC3
:1014D0004142A942616806DA6FF31E51401941EAA0
:1014E0000050606042E0401E63684519012205F12A
:1014F000350062F31F53352801F00041636003D3C8
:1015000061600020206070BD002215F11F0F04DA19
:1015100022682360002020356060684214D0521E8B
:1015200025689241C0F12003D2439D4045EAD27222
:10153000256825FA00F6656805FA03F3334323604E
:10154000636823FA00F5656060680843B2F1004FF4
:10155000606003D80DD12078C0070AD52068401CF0
:101560002060206828B96068401C60604FF0FF3040
:1015700070BD6068884204BF20680028F6D1002052
:1015800070BD00BF000000000000F0FF0000000080
:101590000000F07FF446400D40EAC120490006D229
:1015A00000F014F8004248BF6FF00040604700F0C0
:1015B0000DF84FF0004188428CBF0846404260471A
:1015C000400D40EAC120490080F00D8040F000400D
:1015D000490DA1F58061491C05D4D1F11F0154BF0B
:1015E000C840C01770474FF000007047010040F13D
:1015F0000980F446404200F005F851F00041604790
:10160000010000BF09D0B0FA80F18840C91CC1F5C3
:101610008461090501EBD0214005704770B44FF09B
:10162000004591EA030F44BF6B4000F0EDBA00BFE4
:10163000841A71EB030604D26E40001BB1411219EB
:1016400073414FF4001C1CEB410F34BF7CEB43068D
:1016500084E00C0DA4EB1356362E7DDC012E43DC0A
:1016600045EAC32343EA525312BFD20292025B08F7
:10167000240545EAC12141EA5051D2EBC0209941ED
:1016800025D407D1B0FA80F610FA06F164D0002014
:10169000203608E0B1FA81F6B140C6F1200220FA06
:1016A00002F21143B0404FEAF474B4EB465434F004
:1016B00001064FEA74040AD8D6F50016760D04F038
:1016C0000044F04061FA06F25040F1404840C00A40
:1016D00040EA415021F0004128BF5FEA500550F137
:1016E000000044EBD12137E045EAC323DB0A45EA99
:1016F000C121C90AB6F120050EDD42EA0242120CF0
:10170000C5F1200603FA06F6EB4042EA06056D42F3
:10171000984161F100010DE062FA06F5F240554092
:1017200063FA06FC82EA0C02F3405A406D42904193
:1017300061EB030111F4801F05D1641E620502D024
:101740006D004041494121F48011430875F1004387
:1017500050F1000041EB045170BC70471CEB410F8D
:1017600015D223F0004352EA43060BD04FEA4C0C4B
:10177000BCEB410F04D80C0D661E342EB7DDEBE731
:10178000801A994150EA410608BF0021E4E708BFEA
:101790001CEB430F28BF6FF00001DDE7B0B581EA15
:1017A000030C0CF0004C40F2FF7515EA11541DBFFC
:1017B00015EA1357AC42AF4239E0E41923EA455326
:1017C00043F48013C90241F0004141EA505EC70270
:1017D0001100A7FB020200284FF00000EEFB0120E1
:1017E0004FF00001E3FB072118BF42F0010240184F
:1017F00000214941E3FB0E01A4F580640F0302D2EE
:1018000052004041494154F101046CDD470872F136
:10181000004250F1000051EB0451A1F580115CBF72
:1018200041EA0C01B0BD4CEA05510020B0BD05EA0B
:101830001357AC4214BFAF4241E050EA410E1CBF07
:1018400052EA430E02E061460020B0BD24423C440F
:101850001BD15FEA070EF6D0090302BF0146002044
:10186000AEF1140EB1FA81F7AEEB070401FA07FEF0
:101870000C37C7F1200100FA07F7C8404EEA000E06
:1018800023EA455343F48013A2E733F00043B3FA4D
:1018900083F704BFB2FA82FE77440B3FE41BB7F133
:1018A000200E2FBF02FA0EF3BB40C7F1200E22FA22
:1018B0000EFE38BF43EA0E03BA40641C82E750EACA
:1018C000410E14BF52EA430E6FF000014FF40017AF
:1018D00017EB430F8ABF194617EB410FB5E74CEAE8
:1018E00005510020B0BDD4F10104B4F120070FDA96
:1018F000C4F12007520828BF42F0010210FA07F590
:1019000001FA07F7E1BF2A43E0403843E1400FE026
:10191000352C98DCC7F1200452EA400220FA07F285
:1019200018BF42F0010231FA07F0A1400A4300213A
:1019300072F1004250F1000051EB0C01B0BD00000B
:10194000F0B540F2FF7581EA030C0CF0004C15EA8B
:1019500011541DBF15EA1357AC42AF42E5E0BC413C
:10196000C1F31301C3F31303801A994143F48013A5
:1019700004D2641E4000494180185941C90241EA1D
:101980005051B1FBF3F603FB1611A2FB0675D7EB22
:10199000C020A94102D2761E80185941C90241EAED
:1019A0005051B1FBF3FE03FB1E11A2FB0E75D7EBEA
:1019B000C020A94103D2AEF1010E8018594189021D
:1019C00041EA9051760546EA8E2EB1FBF3F603FB11
:1019D0001611A2FB0675D7EB8020A94102D2761E14
:1019E00080185941C90241EA50514EEA060EB1FB36
:1019F000F3F603FB1611A2FB0675D7EBC020A94135
:101A000002D2761E80185941C90241EA5051B1FBF9
:101A1000F3F703FB1711A2FB0735D3EBC020A94155
:101A200067F100070CBF004247F0010766F3D527B6
:101A30004FEA1E31B80814F5806412DDBD0775F158
:101A4000004250EB0E5051EB045111F5801F5CBF6A
:101A500041EA0C01F0BD4CF07F6141F0E041002013
:101A6000F0BDBD076D0840EA0E5041F48011D4F17D
:101A70000104B4F120060ADAC4F120060200E040B5
:101A800001FA06F3E1401843B24015430EE0342C4E
:101A900013DCC6F1200445EA40056D0820FA06F281
:101AA000154321FA06F0A1400D43002175F10042D3
:101AB00050F1000051EB0C01F0BD00205FEA0C0179
:101AC000F0BDCFB992185B41B3FA83F704BFB2FA05
:101AD00082F6BF190B3FB7F120062FBF02FA06F3BB
:101AE000BB40C7F1200622FA06F638BF3343BA409E
:101AF0001CB1E419641E33E77F4231F00041B1FAB2
:101B000081F404BFB0FA80F6A4190B3CB4F12006AE
:101B10002FBF00FA06F1A140C4F1200620FA06F614
:101B200038BF3143A0403C1B1AE7AC421ABF05EA5C
:101B30001357AF4212E050EA41061CBF52EA430677
:101B4000BFE750EA4107304661461CBF41EA0551F4
:101B5000F0BD52EA430C08BFC143F0BD00204FF472
:101B6000001616EB410F98BF16EB430F08BF16EB9C
:101B7000410F24BFC14305E016EB430F0CBF614684
:101B80004CEA0551F0BD000080B5134800F0A6F8FE
:101B90000FF24801016041608160C16001614161F3
:101BA00081610FF23C0242628162C1620163416362
:101BB0000FF2300282630FF23402C26301644164A7
:101BC00001BD10B5044800F089F80446206808B942
:101BD000FFF7DAFF204610BD5020FF1F0000000075
:101BE0002E00000066616C736500000074727565FC
:101BF0000000000091FBF2F303FB1211C0E9003179
:101C00007047000070470000841A71EB030603D28E
:101C1000001BB141121973414FF4001C1CEB410F22
:101C200034BF7CEB430443E00C0DA4EB1356352E7C
:101C300050DC45EAC323DB0A45EAC121C912B6F1EB
:101C400020050DDD63FA05F6EB4086EA0305124236
:101C500018BF45F00105C01851F100010CD213E086
:101C600062FA06F5F2405540F3415A40B340F34062
:101C70005A408018594107D349085FEA30005FEAAB
:101C8000350528BF45F0010501F58011420875F1C1
:101C9000004250F1000041EB045170BC4FF4001CB5
:101CA0001CEB410F38BF70470020090D0905704734
:101CB0001CEB410F10D252EA43060BD0BCEB410F94
:101CC00005D80C0DAB43661E342EB5DD02E0AB43E8
:101CD0008018594170BC704770BC70477047000055
:101CE00040000000000000C0000000C00000C04034
:101CF0000000C0400000C04000000040000000C0E4
:101D0000000000C0000000C00000C0400000004013
:101D100000000040000000C00000C0C00000C0C0C3
:101D2000000000C00000004000000040000000C0B3
:101D3000000000C00000C0C00000C0C0000000C023
:101D4000000000C0000000C0000000C0000000C093
:101D50000000C0C00000C0C00000C0C00000C0C083
:101D60000000C0C00000C0C00000C0C00000C0C073
:101D70000000C040000000C0000000C0000000C023
:101D8000000000C0000000C00000C0400000C040D3
:101D9000000000400000004000000040000000C0C3
:101DA000000000C00000C040000040400000404073
:101DB000000000400000803F000080BF000080BFA6
:101DC000000000C000004040000000400000803FD4
:101DD0000000803F000080BF000040C0000040C005
:101DE000000000400000803F0000803F000080BFF6
:101DF000000040C0000080BF000080BF0000803FA6
:101E0000000080BF000080BF000040C0000080BF15
:101E10000000803F0000803F000080BF000080BFC6
:101E2000000040C0000080BF000080BF0000803F75
:101E300000000040000040C0000040C0000080BF23
:101E40000000803F0000803F000000400000404054
:101E5000000000C0000080BF000080BF0000803F85
:101E60000000004000004040000040400100000031
:101E700000B0034000B00B40000000000000000074
:101E80000000000000000000000000000000000052
:101E90000000000000004E6F6E4D61736B61626C5C
:101EA0006500000000486172644661756C74000052
:101EB000000000004D656D4D616E6167656D656E7A
:101EC0007400004275734661756C74000000000078
:101ED000000055736167654661756C740000000011
:101EE00000000000000000000000000000000000F2
:101EF00000000000000000000000000000000000E2
:101F000000000000000000000000000000000000D1
:101F100000000000000000000000000000535643D5
:101F2000616C6C00000000000000000044656275F8
:101F3000674D6F6E69746F72000000000000000052
:101F40000000000000000000000050656E64535661
:101F50000000000000000000005379735469636BB7
:101F60000000000000000000444D4130000000006F
:101F700000000000000000444D413100000000005E
:101F8000000000000000444D41320000000000004D
:101F90000000000000444D4133000000000000003C
:101FA00000000000444D413400000000000000002B
:101FB000000000444D41350000000000000000001A
:101FC0000000444D41360000000000000000000009
:101FD00000444D41370000000000000000000000F8
:101FE000444D4138000000000000000000000044A3
:101FF0004D41390000000000000000000000444D89
:1020000041313000000000000000000000444D415C
:10201000313100000000000000000000444D41315B
:102020003200000000000000000000444D41313348
:1020300000000000000000000000444D4131340069
:10204000000000000000000000444D413135000058
:102050000000000000000000444D415F4572726FB7
:10206000720000000000004D434D00000000000021
:102070000000000000004654464C00000000000034
:102080000000000000526561645F436F6C6C69730F
:10209000696F6E004C56445F4C56570000000000BC
:1020A0000000004C4C570000000000000000000041
:1020B00000005761746368646F67000000000000EF
:1020C00000524E4700000000000000000000000029
:1020D00049324330000000000000000000000049C9
:1020E00032433100000000000000000000005350A7
:1020F000493000000000000000000000005350497B
:102100003100000000000000000000005350493280
:10211000000000000000000000000043414E305F5E
:102120004F525F4D425F6275660043414E305F42E1
:1021300075735F4F666600000043414E305F457225
:10214000726F72000000000043414E305F54785FB0
:102150005761726E696E6743414E305F52785F57C8
:1021600061726E696E6743414E305F57616B655FA8
:1021700055700000005265736572766564353100F4
:1021800000000000526573657276656435320000A8
:1021900000000043414E315F4F525F4D425F627518
:1021A000660043414E315F4275735F4F66660000C3
:1021B0000043414E315F4572726F720000000000B3
:1021C00043414E315F54785F5761726E696E674369
:1021D000414E315F52785F5761726E696E6743415D
:1021E0004E315F57616B655F55700000005265733B
:1021F00065727665643539000000000052657365CC
:10220000727665643630000000000055415254304B
:102210005F52585F54580000000055415254305FDF
:1022200045525200000000000055415254315F52A7
:10223000585F54580000000055415254315F4552D8
:102240005200000000000055415254325F52585F66
:1022500054580000000055415254325F455252001C
:10226000000000000055415254335F52585F5458EB
:102270000000000055415254335F455252000000A7
:1022800000000055415254345F52585F54580000CA
:10229000000055415254345F455252000000000086
:1022A0000055415254355F52585F545800000000A9
:1022B00055415254355F4552520000000000004124
:1022C00044433000000000000000000000004144D2
:1022D00043310000000000000000000000434D50AA
:1022E000300000000000000000000000434D5031AD
:1022F0000000000000000000000000434D503200CC
:102300000000000000000000000046544D300000B6
:1023100000000000000000000046544D31000000A5
:10232000000000000000000046544D320000000094
:1023300000000000000000434D54000000000000B9
:1023400000000000000052544300000000000000A4
:1023500000000000005265736572766564383300D2
:102360000000000050495430000000000000000050
:10237000000000504954310000000000000000003F
:10238000000050495432000000000000000000002E
:10239000005049543300000000000000000000001D
:1023A00050444230000000000000000000000055D2
:1023B00053423000000000000000000000005553B0
:1023C00042444344000000000000000000454E4528
:1023D000545F313538385F54696D6572454E4554E8
:1023E0005F5472616E736D69740000454E45545FB1
:1023F00052656365697665000000454E45545F454A
:1024000072726F7200000000004932533000000009
:10241000000000000000000053444843000000009A
:1024200000000000000000444143300000000000B4
:1024300000000000000044414331000000000000A3
:10244000000000000054534930000000000000006C
:10245000000000004D4347000000000000000000A5
:102460000000004C5054696D6572000000000000CF
:102470000000526573657276656431303200000089
:1024800000504F52544100000000000000000000C6
:10249000504F525442000000000000000000005065
:1024A0004F52544300000000000000000000504F55
:1024B00052544400000000000000000000504F5241
:1024C00054450000000000000000000052657365E4
:1024D00072766564313038000000005265736572B1
:1024E000766564313039000000005265736572769C
:1024F00065643131300000000052657365727665A5
:102500006431313100000000526573657276656494
:1025100031313200000000526573657276656431B6
:1025200031330000000052657365727665643131A5
:102530003400000000526573657276656431313590
:1025400000000000526573657276656431313600B3
:1025500000000052657365727665643131370000A2
:102560000000526573657276656431313800000091
:102570000052657365727665643131390000000080
:10258000008003400090034000800B4000900B400F
:1025900000F00F4040F00F4080F00F40C0F00F40BF
:1025A00000F10F40006006400070064066000A1D02
:1025B00032000701640007106E000406780004086A
:1025C0008200040A8C00040C9600040EA000041083
:1025D000AA000412B4000414BE000416C8000418B3
:1025E000D200041ADC00041CE100041DE600041EF5
:1025F000EB00041FF4000317FA000318130101068F
:102600002C010214000109080090044000A00440BD
:1026100000B0044000C0044000D0044000A00640C8
:1026200000B0064000C0064000D0064000A00E40AA
:1026300000B00E4000002042010200006A6E6B6C88
:10264000676D4E4F3435363702040101F41FFF1F0A
:102650004420FF1FF41FFF1FF41FFF1FF41FFF1F65
:10266000B50DFF1F9C0DFF1F0000000000000000C3
:10267000000000000000000000000000000000005A
:10268000000000000000000089B24FF4807291FB4E
:10269000F2F2DFF8B437C0B203F8102089B24FF479
:1026A000807291FBF2F303FB1213DFF89C27C0B298
:1026B00012EB40025370704770B5040000260025ED
:1026C000AA20DFF88817F6B27054761CAA20DFF82B
:1026D0007C17F6B27054761C0220DFF87017F6B241
:1026E0007054761C0020DFF86417F6B27054761C24
:1026F0002078DFF85817F6B27054641C761C2078E6
:10270000DFF84817F6B27054641C761C2078DFF8A6
:102710003C17F6B27054641C761C2078DFF82C1736
:10272000F6B27054641C761C2078DFF82017F6B2DD
:102730007054641C761C2078DFF81017F6B27054C1
:10274000641C761C2078DFF80417F6B27054641C01
:10275000761C2078DFF8F416F6B27054641C761CF0
:102760002078DFF8E816F6B27054641C761C2078E6
:10277000DFF8D816F6B27054641C761C2078DFF8A7
:10278000CC16F6B27054641C761C2078DFF8BC16A8
:10279000F6B27054641C761C2078DFF8B016F6B2DE
:1027A0007054641C761C2078DFF8A016F6B27054C2
:1027B000641C761C2078DFF89416F6B27054641C02
:1027C000761C2078DFF88416F6B27054641C761CF0
:1027D0002078DFF87816F6B27054641C761C2078E6
:1027E000DFF86816F6B27054641C761C301FDFF8F0
:1027F0005C16C870002005000020C0B2F6B2B042DE
:1028000006D2DFF84816C0B2415C4D19401CF4E70F
:10281000DFF83806F6B23554761C3100C9B2DFF85D
:102820002C0600F001F870BD70B504000D00002604
:10283000F6B2EDB2AE4209D2DFF81006F6B231566A
:1028400049B2042000F046FC761CF1E770BD10B5DB
:102850000400DFF8FC05007800280AD1E4B2AA2CB5
:1028600007D10120DFF8E8150870DFF8E8050470EB
:102870007DE0DFF8DC05007801280AD1E4B2AF2C56
:1028800007D10220DFF8C8150870DFF8C8054470CA
:102890006DE0DFF8BC05007802280AD1E4B2F12C23
:1028A00007DA0320DFF8A8150870DFF8A8058470A0
:1028B0005DE0DFF89C050078032811D1E4B2322CEA
:1028C0000EDA0420DFF888150870DFF88805C47078
:1028D000DFF8840504700020DFF88015087046E0FA
:1028E000DFF86C050078042823D1DFF86C05007848
:1028F00000281ED0DFF860050078401EDFF858156C
:102900000870DFF85005DFF85415097808180471CD
:10291000DFF848050078401CDFF840150870DFF844
:1029200038050078002822D10520DFF8241508702A
:102930001DE0DFF81C050078052814D10020DFF821
:1029400010150870DFF80C05DFF810150978081865
:102950000471DFF808050078411DC9B2DFF8F404FE
:1029600000F006F803E00020DFF8E414087010BD62
:10297000F8B504000D00002600270020C0B2EDB21B
:10298000691E884204DAC0B2015D8E19401CF5E769
:10299000EDB2281910F8010CF6B2864240F02D82F3
:1029A0002078AA2802D16078AF2800D025E2A0784C
:1029B000012825D1207902280DD1DFF8A404007860
:1029C000002804D10120DFF89814087003E00020EB
:1029D000DFF88C1408702079012803D10120DFF87A
:1029E000841408702079042803D10220DFF87414BD
:1029F00008702079052803D10320DFF868140870D7
:102A0000A078102840F05F812079617951EA002098
:102A10000700BFB24FF6FF70874227D0BFB2DFF882
:102A20004804C019FEF7E2FDDFF84024DFF8403427
:102A3000FEF7B4FE00F08AFBDFF83814C860DFF858
:102A4000340490ED030AB5EE400AF1EE10FA0DD50C
:102A5000DFF8200490ED030AF3EE0E0A30EE200AB0
:102A6000B1EE400ADFF80C0480ED030AA079E179A9
:102A700051EA00200700BFB24FF6FF70874227D00F
:102A8000BFB2DFF8E403C019FEF7B0FDDFF8DC23C6
:102A9000DFF8DC33FEF782FE00F058FBDFF8D413DA
:102AA0000861DFF8D00390ED040AB5EE400AF1EEBC
:102AB00010FA0DD5DFF8BC0390ED040AF3EE0E0A10
:102AC00030EE200AB1EE400ADFF8A80380ED040AD8
:102AD000207A617A51EA00200700BFB24FF6FF70FA
:102AE000874226D0BFB2DFF88003C019FEF77EFD13
:102AF000DFF87823DFF87833FEF750FE00F026FB8E
:102B0000DFF870134861DFF86C0390ED050AB5EE4D
:102B1000400AF1EE10FA0CD5DFF8580390ED050AE3
:102B2000F3EE0E0A30EE200AB1EE400AD14880EDF5
:102B3000050AA07AE17A51EA00200700BFB24FF6F9
:102B4000FF70874224D0BFB2C748C019FEF74EFDC0
:102B5000C64AC74BFEF722FE00F0F8FAC649C86025
:102B6000C54890ED030AB5EE400AF1EE10FA0BD518
:102B7000C14890ED030AF3EE0E0A30EE200AB1EEE2
:102B8000400ABD4880ED030ABC48BB49C968C16022
:102B9000207B617B51EA00200700BFB24FF6FF7037
:102BA000874224D0BFB2B048C019FEF71FFDAF4A1C
:102BB000AF4BFEF7F3FD00F0C9FAAF490861AE482C
:102BC00090ED040AB5EE400AF1EE10FA0BD5AA48D2
:102BD00090ED040AF3EE0E0A30EE200AB1EE400A40
:102BE000A54880ED040AA548A34909690161A07BB5
:102BF000E17B51EA00200700BFB24FF6FF70874229
:102C000024D0BFB29848C019FEF7F0FC974A984B01
:102C1000FEF7C4FD00F09AFA97494861964890ED96
:102C2000050AB5EE400AF1EE10FA0BD5924890ED88
:102C3000050AF3EE0E0A30EE200AB1EE400A8E4885
:102C400080ED050A8D488C4949694161A07CE17C91
:102C500051EA00200700BFB24FF6FF70874202D052
:102C60008748A0F82271207D617D51EA002007008D
:102C7000BFB24FF6FF70874220D0BFB27A48C0196A
:102C8000FEF7B4FC794A7A4BFEF788FD00F05EFA55
:102C900079494863784890ED0D0AB5EE400AF1EEA7
:102CA00010FA0BD5744890ED0D0AF3EE0E0A30EED3
:102CB000200AB1EE400A704880ED0D0A3100C9B219
:102CC000A07800F09BF8A078112840F09680207939
:102CD000617951EA00200700BFB2B7F5FA6F17DA41
:102CE000BFB2B7F57A7F09DABFB2784200EE100AB8
:102CF000B8EEC00A634880ED000A09E0BFB2B7F53C
:102D00007A7000EE100AB8EEC00A5E4880ED000A44
:102D1000A079E17951EA00200700BFB24FF6FF70B9
:102D2000874202D000204F490870207A617A51EA28
:102D300000200700BFB24FF6FF70874202D0042088
:102D400048490870A07AE17A51EA00200700BFB232
:102D50004FF6FF70874220D0BFB24348C019FEF73C
:102D600045FC424A424BFEF719FD00F0EFF9464997
:102D70008862454890ED0A0AB5EE400AF1EE10FA75
:102D80000BD5414890ED0A0AF3EE0E0A30EE200A08
:102D9000B1EE400A3C4880ED0A0AA07BE17B51EA93
:102DA00000200700BFB24FF6FF70874220D0BFB2AD
:102DB0002D48C019FEF71AFC2C4A2D4BFEF7EEFCED
:102DC00000F0C4F93049C8622F4890ED0B0AB5EE07
:102DD000400AF1EE10FA0BD52B4890ED0B0AF3EEFA
:102DE0000E0A30EE200AB1EE400A274880ED0B0AA9
:102DF0003100C9B2A07800F001F8F1BD70B504004F
:102E00000D00AA2011490870AA2010494870EF202F
:102E10000E49887002200D49C8700C4804710B4897
:102E2000457100260020C0B2062805DA0749C0B265
:102E3000415C8E19401CF6E704488671072103485F
:102E4000FFF7F2FC70BD00004C15FF1F1815FF1FA7
:102E50004D20FF1F7015FF1F4B20FF1F4C20FF1F31
:102E6000680DFF1F690DFF1FD08AFFFFFCA9F1D27B
:102E70004D62503F5014FF1F8814FF1FC014FF1FE6
:102E8000C816FF1F640DFF1F0410FF1F012110F063
:102E90001F029140DFF8982240B2430942F8231004
:102EA00070472DE9F84304000D0064B2002C08D0EF
:102EB000022C2CD018D3042C4FD03BD3052C5FD040
:102EC00071E0DFF87002006850F48060DFF864128F
:102ED00008604FF44071662000F080F94FF44071B3
:102EE000672000F07BF95EE0DFF84802006850F4EC
:102EF0000060DFF8401208604FF44071432000F09A
:102F00006DF94FF44071442000F068F94BE0DFF8B0
:102F10002402006850F48050DFF8181208604FF463
:102F20004071632000F05AF94FF44071622000F0C4
:102F300055F938E0DFF8FC01006850F40050DFF884
:102F4000F41108604FF44071502000F047F94FF43D
:102F50004071512000F042F925E0DFF8DC01006803
:102F600050F48060DFF8D01108604FF440714E20BB
:102F700000F034F94FF440714F2000F02FF912E0C7
:102F8000DFF8B401006850F40060DFF8AC110860AD
:102F90004FF44071892000F021F94FF440718820EE
:102FA00000F01CF9FFE7DFF8940164B250F8240048
:102FB000C07810F0F300DFF8841164B251F82410E7
:102FC000C870DFF8780164B250F824008078DFF828
:102FD0006C1164B251F82410887064B2002C02D0D5
:102FE00064B2012C07D1DFF8580100684FF47A7100
:102FF0004843814606E0DFF84C0100684FF47A71DF
:10300000484381462801B9FBF0F00600B6B2B6F598
:10301000005F02DB41F6FF700600B9FBF5F0B6B2C7
:10302000B0EB06100700BFB2202F03DBDC214648BF
:1030300000F041F9414864B250F82400007810F0E3
:10304000E0008046C6F3042050EA08003B4964B221
:1030500051F824100870394864B250F824004670C2
:10306000364864B250F82400807A10F0E0008046C0
:1030700017F01F0050EA0800304964B251F82410DC
:1030800088722E4864B250F82400007C50F088000A
:103090002A4964B251F824100874284864B250F8E0
:1030A0002400C07850F00C00244964B251F8241078
:1030B000C870BDE8F183214A40B252F8202012794D
:1030C0009206F8D51D4A40B252F8202092F9072006
:1030D0000A707047194A40B252F82020127912063D
:1030E000F8D5164A40B252F82020D171704701003D
:1030F000124849B250F82100807D002801D00120FB
:1031000000E00020704710B504000C4864B250F88D
:103110002400C07850F02000084964B251F824100F
:10312000C87064B260002D3040B2FFF7AFFE10BD32
:1031300000E100E034800440288004404C0DFF1F73
:10314000E81FFF1FF01FFF1FC87300004FEAF17C4C
:10315000BCF1E04C2CBFBCF5001F11E05FEA4C0C49
:1031600034BFBCF17F5F2EE05FEA9C0C4FEA0C1C81
:103170004FEA3C0CC10071F100414CEB50707047BC
:10318000C90241EA5051C00218BF41F0010141F0AB
:1031900000414FEA6C50C0F10900212810D240EAEA
:1031A000CC7CCCF1200C11FA0CF070F10040CCF189
:1031B000200C21FA0CF00CF0004C40EB0C00704796
:1031C0004FEACC707047490011F5001F04D84FEA50
:1031D000CC10FF30C0057047C817704710B4294A9B
:1031E00012684FF40073C0B24409A3401A43254B40
:1031F0001A60254AC0B2431152F82320012310F06F
:103200001F04A340C2F8A0301F4AC0B2431152F8B5
:103210002320C0B210F01F0342F8231010BC7047E7
:1032200010B4184A12684FF40073C0B24409A340A6
:103230001A43144B1A60144AC0B2431152F82320A7
:10324000012310F01F04A340C2F8A03031F4E06164
:103250000D4AC0B2431152F82320C0B210F01F0330
:1032600052F8232012F4E0621143074AC0B243111E
:1032700052F82320C0B210F01F0342F8231010BCF4
:103280007047000038800440380DFF1FDFF800F061
:10329000E90DFF1FDFF800F00D0EFF1FBFF34F8F8A
:1032A0004648006810F4E060454908434349086017
:1032B000BFF34F8FFEE738B504000D00002000F08B
:1032C0008DF82A0021003F4800F0C0F8002000F0EF
:1032D000A2F84FF47A7000F0E6F8F2E738B504008F
:1032E0000D00210049B20420FFF7F4FE200032BD9A
:1032F00010B50024042000F0EDF8042000F020F9BF
:10330000002841D1002000F069F8042000F018F9ED
:10331000012801D101200400002000F07CF82A4897
:1033200000F094F84FF4FA7000F0BDF8E4B2012C0C
:10333000EBD1042000F004F90028E6D1042000F0CD
:10334000FFF8002806D1002000F065F8642000F0A6
:10335000AAF8F3E7042000F0F3F8012806D10020D2
:1033600000F059F8322000F09EF8F3E7174800F01B
:103370006DF8FFF78BFF642000F095F80020FFF751
:1033800089FFFFF78BFFC0E710BD10B51048046838
:10339000012000F023F8012000F03DF80D48E4B2D0
:1033A0000F2101FB0402E4B221000B4800F04EF8AB
:1033B0004FF47A7000F077F8EDE700000CED00E0D4
:1033C0000400FA055C74000034750000B474000059
:1033D00004ED00E0A805FF1F6C72000010B50400AA
:1033E00064B2042C07DA01220121174864B2205C80
:1033F00000F0BEF80EE0042004002000441E40B29D
:10340000002807D0012201210F4864B2205C00F09F
:10341000AFF8F2E710BD10B5040064B2042C05DA71
:10342000094864B2205C00F034F90CE00420040088
:103430002000441E40B2002805D0034864B2205C3E
:1034400000F027F9F4E710BD740DFF1F0EB400B5AE
:1034500082B003A90091024600AB012103487844E1
:103460000A30FCF7D9FF06BC5DF810FBA540000050
:1034700010B50400002C15D0B4F1807F03D32921AE
:103480000F48FFF718FF00200E4908600E4804603F
:1034900000200E49086005200A49086009480068B4
:1034A000C003FBD510BD10B504002000441E002849
:1034B00004D007480068FFF7DBFFF6E710BD000007
:1034C000E472000010E000E014E000E018E000E02A
:1034D000E81FFF1F10B5040064B2082C0DDA0022AB
:1034E0000021224864B2205C00F042F803211F480A
:1034F00064B2205CFFF794FE14E008200400200072
:10350000441E40B200280DD000220021174864B2AA
:10351000205C00F02DF80321144864B2205CFFF712
:103520007FFEECE710BD10B50400104864B2205CCB
:1035300000F0CCF8002801D1002000E0012010BDEF
:1035400010B50400200040B2FFF7EDFF00280AD1BB
:103550000A20FFF7A8FF200040B2FFF7E4FF002891
:1035600001D1002000E0012010BD00006C0DFF1F04
:1035700070B504000D0016004FF480712000C0B239
:10358000FFF72CFE6DB2002D11D16048E4B261113D
:1035900050F821005D49E4B2621151F822104969E6
:1035A000012214F01F039A409143416136E05748CD
:1035B000E4B2611150F821005449E4B2621151F8AB
:1035C00022104969012214F01F039A4011434161FE
:1035D000F6B2002E11D14D48E4B2611150F821002D
:1035E0000068012114F01F02914088434749E4B26A
:1035F000621151F82210086010E04448E4B26111F1
:1036000050F821000068012114F01F029140084386
:103610003E49E4B2621151F82210086070BD38B51D
:1036200004000D003948E4B2611150F821004069EE
:1036300014F01F010200CA40D00703D463213448AC
:10364000FFF739FEEDB2002D11D13048E4B261111F
:1036500050F821000068012114F01F0291408843B6
:103660002A49E4B2621151F82210086010E027489C
:10367000E4B2611150F821000068012114F01F022A
:10368000914008432149E4B2621151F822100860C8
:1036900031BD10B504001D48E4B2611150F821009D
:1036A000406914F01F010200CA40D00703D47B21F7
:1036B0001748FFF700FE1548E4B2611150F82100E9
:1036C000012114F01F029140C16010BD10B504002B
:1036D0000E48E4B2611150F82100406914F01F0156
:1036E0000200CA40D00703D58C210948FFF7E3FD4B
:1036F0000648E4B2611150F82100006914F01F017E
:103700000200CA4012F0010010BD0000C00CFF1FF3
:103710005873000010B40021002200231900C9B220
:10372000022926DA00231A00D2B2142A11DAC9B209
:10373000802303FB0103D2B20024D454C9B28023F6
:1037400003FB0103D2B29B1A002483F87F40521C72
:10375000EAE714231A00D2B26B2A08DAC9B280232E
:1037600003FB0103D2B2FF24D454521CF3E7491CDB
:10377000D5E700231900C9B280290BDAFF23C9B2AB
:103780000C1884F800310023C9B20C1884F8803179
:10379000491CF0E74023A0F818320223A0F81A329F
:1037A00000231900C9B22D291FDA0023C9B210EB7A
:1037B0004104A4F81C320023C9B210EB4104A4F860
:1037C000D0324023C9B210EB4104A4F87632002372
:1037D000C9B210EB4104A4F82A330023C9B210EB9C
:1037E0004104A4F88433491CDCE7002380F8F23359
:1037F000002380F8F33300231900C9B20A2907DA3D
:103800003223C9B210EB4104A4F8DE33491CF4E7BB
:103810004623A0F8F4331C23A0F81C326423A0F83C
:10382000D03200231900C9B204290BDAFF23C9B230
:103830000C1884F810320023C9B20C1884F8143222
:10384000491CF0E700231900C9B2102906DA002349
:10385000C9B20C1884F80032491CF5E7002380F83F
:10386000F633002380F8F733002380F8F833002381
:1038700080F8F933002380F8FA3310BC7047F0B4B5
:1038800000220023FF240025962600273A00D2B20A
:10389000802A47DAD2B2175CD2B212EB000C9CF845
:1038A00080C01CEB0707BFB27F08D2B212EB000C3E
:1038B0008CF80071D2B2171897F80071DBB2BB42D6
:1038C00004D2D2B2171897F800713B00D2B2171881
:1038D00097F80071E4B2A74204D2D2B2171897F851
:1038E00000713C00D2B2575CD2B212EB010C9CF8D2
:1038F00080C01CEB0707BFB27F08D2B212EB010CED
:103900008CF80071D2B2175CD2B212EB000C8CF8BA
:103910008070D2B2575CD2B212EB010C8CF880707E
:10392000521CB4E790F8127280F8137290F811727A
:1039300080F8127290F8107280F8117290F8167276
:1039400080F8177290F8157280F8167290F8147259
:1039500080F8157280F8103280F8144290F81372D3
:1039600090F812C21CEB070790F811C217EB0C0776
:1039700090F810C217EB0C0790F817C217EB0C0762
:1039800090F816C217EB0C0790F815C217EB0C074E
:1039900090F814C217EB0C07BFB2FF083D00ADB2A0
:1039A000FF2D02DA2F003E0001E0FF273E00F6B2B5
:1039B000B42E01DAB4273E00F6B2C42E01DBC327D1
:1039C0003E0000273A00D2B2802A1FDAD2B217187E
:1039D00097F80071F6B2B74201D3012700E0002743
:1039E000D2B212EB000C8CF88071D2B2571897F853
:1039F0000071F6B2B74201D3012700E00027D2B22E
:103A000012EB010C8CF88071521CDCE7F0BC7047A3
:103A100010B4002200231A00D2B27F2A40DAD2B2B8
:103A2000131893F88131002B19D1D2B2131893F8DF
:103A30008131D2B2141894F88041A3420FD0D2B28F
:103A4000131893F88131D2B2141894F88241A3422A
:103A500005D00123D2B2141884F881311EE0D2B20D
:103A6000131893F88131012B18D1D2B2131893F89F
:103A70008131D2B2141894F88041A3420ED0D2B250
:103A8000131893F88131D2B2141894F88241A342EA
:103A900004D00023D2B2141884F88131521CBBE741
:103AA00010BC704710B4002200231A0012B2802A02
:103AB0000DDA12B2135C12B2141884F8803012B20C
:103AC000535C12B2541884F88030521CEEE710BCDC
:103AD0007047F8B504000D00160000270520070008
:103AE00029002000FFF7DEFF7F1EFFB2002FF7D175
:103AF0002D20070029002000FFF7C1FE290020002B
:103B0000FFF786FF3100200000F02EF83200290078
:103B1000200000F08FF97F1EFFB2002FEAD1B4F829
:103B2000D002B4F81C12401AA4F8F403B5F8D0027D
:103B3000B5F81C12401AA5F8F403F1BD70B50400E5
:103B40000D00160029002000FFF799FE2900200033
:103B5000FFF75EFF3100200000F006F83200290078
:103B6000200000F067F970BDF0B5B0F976221300BF
:103B7000002400250026002780F8F873002780F82D
:103B8000F973002780F8F773012780F8F273012793
:103B900080F8F3731E0036B2042E18DB36B23718E5
:103BA00097F87E71002F10D136B2371897F87F71D1
:103BB000002F0AD136B2371897F88071012F04D13F
:103BC0003400002780F8F27301E0761EE3E724B2A8
:103BD000032C02D1012780F8F2731E0036B27D2E2D
:103BE00018DA36B2371897F88071012F10D136B233
:103BF000371897F88171002F0AD136B2371897F825
:103C00008271002F04D13500002780F8F37301E0A2
:103C1000761CE3E72DB27D2D02D1012780F8F373E6
:103C20002C273E0036B2012E33DB36B210EB4607AE
:103C3000B7F81A7236B210EB460CACF81C7236B2FA
:103C400010EB4607B7F8CE7236B210EB460CACF864
:103C5000D07236B210EB4607B7F8747236B210EB7A
:103C6000460CACF8767236B210EB4607B7F82873FC
:103C700036B210EB460CACF82A7336B210EB46079E
:103C8000B7F8827336B210EB460CACF88473761E2C
:103C9000C8E790F8F273012F20D190F8F373002F4A
:103CA0001CD1012780F8F773B0F8DE73EF1BA0F882
:103CB0001C72A0F8D052B0F91872B0F91CC2B0F959
:103CC000D0E21EEB0C0CB7EB6C0F07DAB0F81E72EB
:103CD000A0F81C72B0F8D272A0F8D07290F8F2730B
:103CE000002F20D190F8F373012F1CD1012780F809
:103CF000F773B0F8DE733F19A0F8D072A0F81C4239
:103D0000B0F91C72B0F9D0C21CEB07077F10B0F9F4
:103D100018C2674507DAB0F81E72A0F81C72B0F836
:103D2000D272A0F8D07290F8F773002F28D190F8D3
:103D3000F273002F08D190F8F373002F04D1A0F88C
:103D40001C42A0F8D0521BE0012780F8F8731BB288
:103D50001F1897F88071012F0FD11BB21F1897F809
:103D60007D71012F09D11BB21F1897F88371012FA4
:103D700003D1012780F8F97302E0002780F8F67379
:103D800090F8F873012F54D0B0F9D072B0F91CC27A
:103D9000B7EB0C07142F4CDBB0F91C72B0F9D0C292
:103DA0001CEB07075FF0020C97FBFCF7A0F876729C
:103DB000B0F87672B0F818C2B7EB0C07A0F82A7307
:103DC000B0F82A73B0F83AC3B7EB0C07A0F88473C5
:103DD0002DB224B22F1B5B2F2BDAB0F8EE73A0F8B4
:103DE000F073B0F8EC73A0F8EE73B0F8EA73A0F8D3
:103DF000EC73B0F8E873A0F8EA73B0F8E673A0F8D3
:103E0000E873B0F8E473A0F8E673B0F8E273A0F8D2
:103E1000E473B0F8E073A0F8E273B0F8DE73A0F8D2
:103E2000E073B0F8D072B0F81CC2B7EB0C07A0F882
:103E3000DE73F0BD7047000038B504000D0064B2B9
:103E4000002C06D0022C69D04CD3032C00F08280C9
:103E5000C7E0DFF8C005006850F08070DFF8B415E7
:103E600008606DB2002D0BD0022D15D00ED3042D9D
:103E70001ED017D3062D27D020D3072D2AD02FE010
:103E80004FF480614120FFF7A9F92AE04FF4407117
:103E90000420FFF7A3F924E04FF440710520FFF759
:103EA0009DF91EE04FF440710620FFF797F918E0E6
:103EB0004FF440710720FFF791F912E04FF4806151
:103EC0006520FFF78BF90CE04FF480616620FFF767
:103ED00085F906E04FF480616720FFF77FF900E085
:103EE0007FE07EE0DFF82C05006850F00070DFF81E
:103EF000241508606DB2002D02D0012D06D00BE014
:103F00004FF440710C20FFF769F906E04FF440715F
:103F10000D20FFF763F900E063E062E0DFF8F804EA
:103F2000006850F08070DFF8F01408606DB2002D6A
:103F300002D0012D06D00BE04FF440710A20FFF7AC
:103F40004DF906E04FF440710B20FFF747F900E010
:103F500047E046E0DFF8C004006850F00070DFF88A
:103F6000B81408606DB2002D0BD0022D15D00ED301
:103F7000042D1ED017D3062D27D020D3072D2AD0ED
:103F80002EE04FF4C0618520FFF728F928E04FF4B8
:103F9000C0618620FFF722F922E04FF4C06187203C
:103FA000FFF71CF91CE04FF4C0618820FFF716F9F9
:103FB00016E04FF4C0618920FFF710F910E04FF4CC
:103FC00040714920FFF70AF90AE04FF4C0618B20E5
:103FD000FFF704F904E04FF4C0618C20FFF7FEF80E
:103FE000FFE731BD2DE9F84F04000D0016001F005A
:103FF00064B2002C11D064B2012C02D064B2022C45
:1040000002D16DB2022D08DB64B2032C05D040F260
:104010008511DFF80804FFF74EF9290049B22000A6
:1040200040B2FFF709FFDFF8F80300684FF47A7138
:10403000484380465FEA1840B0FBF6F08146002016
:1040400082461FFA89F9484650FA0AF0012802DB35
:104050001AF1010AF5E75FFA8AFABAF1080F05DBEF
:104060004FF4D071DFF8B403FFF725F9404630FA7A
:104070000AF0B0FBF6F081461FFA89F9DFF8A403D5
:1040800064B240F8249064B2002C05D0022C1BD0FE
:104090000ED3032C24D02FE01FFA89F919F1010067
:1040A00000FB07F042F21071B0FBF1F0834623E011
:1040B0001FFA89F919F1010000FB07F04FF47A713A
:1040C000B0FBF1F0834617E01FFA89F919F10100FE
:1040D00000FB07F04FF47A71B0FBF1F083460BE080
:1040E0001FFA89F919F1010000FB07F042F2107183
:1040F000B0FBF1F08346FFE7DFF82C0364B250F821
:1041000024006DB210EBC500DFF81C1364B251F847
:1041100024106DB211EBC501C96831F00401C16012
:10412000DFF8040364B250F824006DB210EBC50050
:104130002821C1605FFA8AFA1AF0070050F00800DF
:10414000DFF8E41264B251F8241008601FFA89F90C
:10415000DFF8D40264B250F82400C0F808900020C0
:10416000DFF8C41264B251F82410C864DFF8B80252
:1041700064B250F824006DB210EBC5001FFA8BFB3F
:10418000C0F810B00020DFF8A01264B251F824107B
:104190004860BDE8F18F2DE9F04104000D001600E4
:1041A0005FF0000864B2002C11D064B2012C02D080
:1041B00064B2022C02D16DB2022D08DB64B2032C72
:1041C00005D04FF4F371DFF85402FFF774F864B2CE
:1041D000002C05D0022C18D00DD3032C1FD029E0C1
:1041E00042F21170864205D34FF4F671DFF82C02CB
:1041F000FFF761F81EE0B6F57A7F05D94FF4F87144
:10420000DFF81802FFF757F814E0B6F57A7F05D902
:104210004FF4FA71DFF80402FFF74DF80AE042F2BA
:104220001170864205D340F2F911DFF8F001FFF773
:1042300042F8FFE7DFF8EC0164B250F82400804652
:1042400064B2002C05D0022C17D00CD3032C1ED046
:1042500027E018F1010000FB06F042F21071B0FBFC
:10426000F1F007001DE018F1010000FB06F04FF42B
:104270007A71B0FBF1F0070013E018F1010000FBC8
:1042800006F04FF47A71B0FBF1F0070009E018F185
:10429000010000FB06F042F21071B0FBF1F00700E4
:1042A000FFE7DFF8840164B250F824006DB210EB30
:1042B000C5000761BDE8F08110B5040064B2012CAF
:1042C00007D064B2022C04D040F2DB215348FEF741
:1042D000F2FF64B22000012802D0022811D021E0B0
:1042E0004C48006850F000704A4908604FF4E061A3
:1042F0000C20FEF773FF4FF4E0610D20FEF76EFF18
:1043000015E04548006850F08070434908604FF45C
:10431000C0610A20FEF762FF4FF4C0610B20FEF778
:104320005DFF04E040F213313C48FEF7C4FF3E4815
:1043300064B250F82400406D50F004003A4964B271
:1043400051F824104865384864B250F82400D0F879
:10435000800050F00800344964B251F82410C1F8CC
:1043600080000020304964B251F82410C8644FF630
:10437000FF702D4964B251F8241088602A4864B255
:1043800050F82400D0F8800050F00100264964B2B3
:1043900051F82410C1F88000234864B250F824007A
:1043A000406D50F00100204964B251F82410486576
:1043B00000201D4964B251F82410486010BD38B582
:1043C000040064B2012C07D064B2022C04D04FF474
:1043D0004C711248FEF76FFF134864B250F8240086
:1043E00040680500280000B232BD10B5040064B278
:1043F000012C07D064B2022C04D040F23E310748B1
:10440000FEF759FF0020084964B251F824104860B3
:1044100010BD00003C80044030800440EC7100007E
:10442000F01FFF1F3410FF1FB00CFF1F2DE9F04FCE
:10443000A1B004000D0064B2002C12D1DFF8C00559
:10444000006850F04000DFF8B815086040F2232102
:104450006820FEF7C3FE40F223216920FEF7BEFE6E
:1044600011E0DFF89C05006850F08000DFF890153F
:10447000086040F223214A20FEF7B0FE40F22321DB
:104480004B20FEF7ABFE00A8DFF878158022FCF782
:1044900079FFDFF8740500684CF25131884202DA86
:1044A000002006000BE0DFF860050068DFF85C150F
:1044B000884202DA0120060001E002200600DFF84F
:1044C000480500684FF47A7148430121B1406943BF
:1044D000B0FBF1F75FF0400B4FF6FF7A5FFA8BFB12
:1044E000BBF1000F1BD0BBF1010BBFB200A85FFAFC
:1044F0008BFB30F81B00381A00F090FA81461FFA47
:1045000089F9B9F1000F01D1D84608E01FFA89F9FD
:104510001FFA8AFAD145E1D2D846CA46DEE718F03A
:104520003F0050EA8610DFF8E81464B251F8241016
:1045300048708020DFF8D81464B251F824108870D5
:10454000DFF8C40400684FF47A7148430121B14098
:1045500000AA5FFA88F832F81820514390FBF1F076
:1045600021B0BDE8F08F000081B05020ADF8000010
:10457000BDF80000411EADF8001080B2002801D047
:1045800000BFF5E701B07047F8B504000D00160054
:10459000280604D5CD21DFF87C04FEF78CFEDFF879
:1045A000700464B250F82400807850F03000DFF8D6
:1045B000601464B251F8241088706800DFF8501459
:1045C00064B251F8241008710020DFF84C14086020
:1045D000DFF83C0464B250F82400C07880070ED4A1
:1045E000DFF83404006844F62061884207D2DFF81F
:1045F00028040068401CDFF820140860E8E7DFF8B2
:10460000100464B250F82400C07850F00200DFF8C3
:10461000001464B251F82410C870DFF8FC0300687D
:1046200044F6206188420FD3DFF8E40364B250F807
:104630002400807810F0CF00DFF8D41364B251F872
:1046400024108870002008E1DFF8C40364B250F839
:10465000240006710020DFF8C0130860DFF8B00303
:1046600064B250F82400C07880070ED4DFF8A803A5
:10467000006844F62061884207D2DFF89C03006896
:10468000401CDFF894130860E8E7DFF8840364B2A5
:1046900050F82400C07850F00200DFF8741364B2C0
:1046A00051F82410C870DFF87003006844F62061E8
:1046B00088420FD3DFF8580364B250F824008078A2
:1046C00010F0CF00DFF8481364B251F8241088705E
:1046D0000020C2E0DFF8380364B250F8240080788C
:1046E00050F00400DFF8281364B251F824108870E9
:1046F000680050F00100DFF8181364B251F824107C
:1047000008710020DFF810130860DFF8040364B2BA
:1047100050F82400C07880070ED4DFF8FC0200684F
:1047200044F62061884207D2DFF8EC020068401CA2
:10473000DFF8E4120860E8E7DFF8D40264B250F86A
:104740002400C07850F00200DFF8C41264B251F8BF
:104750002410C870DFF8C002006844F62061884267
:104760000FD3DFF8AC0264B250F82400807810F068
:10477000CF00DFF89C1264B251F82410887000203A
:104780006BE0DFF88C0264B250F82400807810F0FF
:10479000EF00DFF87C1264B251F8241088709C4856
:1047A00064B250F82400807850F00800984964B250
:1047B00051F824108870964864B250F824000079AB
:1047C0000700002094490860914864B250F8240022
:1047D000C07880070BD49048006844F62061884276
:1047E00005D28D480068401C8B490860ECE788487A
:1047F00064B250F82400C07850F00200844964B2DA
:1048000051F82410C8708448006844F6206188423A
:104810000DD37F4864B250F82400807810F0CF00A8
:104820007B4964B251F824108870002015E0784864
:1048300064B250F82400807810F0CF00744964B25C
:1048400051F824108870724864B250F8240000793E
:104850000700FFF789FE3800C0B2F2BDF8B50400CA
:104860000D0016001F006A4864B250F824008078DA
:1048700050F03000664964B251F824108870680026
:10488000634964B251F8241008710020624908603D
:104890005F4864B250F82400C07880070BD45E48AB
:1048A000006844F62061884205D25B480068401CDD
:1048B00059490860ECE7564864B250F82400C078C3
:1048C00050F00200524964B251F82410C8705248A6
:1048D000006844F6206188420DD34D4864B250F818
:1048E0002400807810F0CF00494964B251F82410B8
:1048F0008870002083E0464864B250F824000671B6
:10490000002045490860424864B250F82400C0784D
:1049100080070BD44048006844F62061884205D2E5
:104920003D480068401C3C490860ECE7384864B2E8
:1049300050F82400C07850F00200354964B251F8B4
:104940002410C8703448006844F6206188420DD3B2
:104950002F4864B250F82400807810F0CF002C4922
:1049600064B251F824108870002048E0284864B2EE
:1049700050F824000771002027490860244864B2D9
:1049800050F82400C07880070BD42348006844F610
:104990002061884205D220480068401C1E490860FA
:1049A000ECE71B4864B250F82400C07850F00200D5
:1049B000174964B251F82410C8701748006844F6CB
:1049C000206188420DD3124864B250F824008078E8
:1049D00010F0CF000E4964B251F824108870002006
:1049E0000DE00B4864B250F82400807810F0CF003E
:1049F000074964B251F824108870FFF7B5FDF2BD85
:104A0000348004406C710000F01FFF1FA18601007C
:104A1000D40CFF1F2C7200004410FF1F002848BF59
:104A20004042704780B5DFF8C4040078002813D0F6
:104A3000002203210020FFF7AEFB0022042100200A
:104A4000FFF7A9FB002205210020FFF7A4FB0022AD
:104A500006210020FFF79FFB01BD80B5DFF8900421
:104A600000F09EFADFF88C0400F0E5FADFF8882405
:104A7000DFF88014DFF87804FFF760F8DFF87004DF
:104A800090F8F80301280BD0DFF86404B0F8760240
:104A9000DFF86814088000214320FEF7C0FD29E0FC
:104AA000DFF84C0490F8F70301280FD1DFF8400439
:104AB000B0F91C02DFF83814B1F9D012081802213D
:104AC00090FBF1F0DFF83414088013E0DFF82004E5
:104AD00090F8F903012805D0DFF8240490F82401A8
:104AE000012807D14020DFF8141408800121432059
:104AF000FEF795FD4022DFF80404B0F90010DFF85E
:104B0000040400F0ABFBBDEEC00A10EE100A10F575
:104B10007570DFF8F4130860DFF8D0030078002820
:104B200006D1DFF8E403026805210320FFF733FB19
:104B300001BD000080B500F0BAFCDFF8D00390EDB5
:104B4000000ADFF8CC03D0ED000A30EE200AF0EEC8
:104B5000000A80EE200ABDEEC00ADFF8B80380ED3F
:104B6000000ADFF888030078002874D1DFF8A80372
:104B700090ED0D0AB1EE400ADFF88803D0ED000A8F
:104B800020EE200ADFF8940380ED000ADFF88C03A2
:104B900090ED000ADFED720AB4EE600AF1EE10FA51
:104BA00004DBDFF87803DFF878130160DB4890ED71
:104BB000000ADFED6C0AB4EE600AF1EE10FA02D5DD
:104BC000D64868490160B7EE000AD448D0ED000A23
:104BD00030EE600AD348D0ED000A20EE200ABDEE88
:104BE000C00AD14880ED000ACC4890ED000AF7EEEB
:104BF000000A30EE200ACB48D0ED000A20EE200A51
:104C0000BDEEC00AC94880ED000AC74890ED000A11
:104C1000F8EEC00ABE4890ED000ABF4800F0B0FBB5
:104C2000C34880ED000AC14890ED000AF8EEC00AC2
:104C3000B64890ED000ABF4800F0A2FBBE4880EDE8
:104C4000000ABD48D0ED000AB94890ED000A00F016
:104C50004DFC00F089F801BD80B5A448007800281B
:104C60000AD0B6480078002803D0B54800F057FABB
:104C700002E0B44800F053FA01BD000080B59B4843
:104C8000007800286AD1B0480078012866D19B4896
:104C9000018889B20020FDF7F7FC40210120FDF7D3
:104CA000F3FC984890ED060ADFED8E0A20EE200A0C
:104CB000BDEEC00A10EE101A89B20220FDF7E4FC26
:104CC000904890ED080ADFED870A20EE200ABDEE3D
:104CD000C00A10EE101A89B20320FDF7D5FC8948EE
:104CE00090ED090ADFED7F0A20EE200ABDEEC00A32
:104CF00010EE101A89B20420FDF7C6FC814890ED31
:104D00000C0ABDEEC00A10EE101A89B20520FDF79C
:104D1000BBFC8E4890ED060ADFED720A20EE200AF9
:104D2000BDEEC00A10EE101A89B20620FDF7ACFCE9
:104D3000864890ED080ADFED6B0A20EE200ABDEEF2
:104D4000C00A10EE101A89B20720FDF79DFC012160
:104D50000820FDF799FC7E48FDF7AEFC01BD000080
:104D60000BD7233F0AD723BF80B5774800780228A6
:104D700050D16C4890ED000ABDEEC00A10EE101A3A
:104D800089B20020FDF780FC6748016889B20120E4
:104D9000FDF77AFC6548016889B20220FDF774FCD2
:104DA0005C48016889B20320FDF76EFC584890ED1D
:104DB000000ABDEEC00A10EE101A89B20420FDF7F9
:104DC00063FC524890ED000ABDEEC00A10EE101AC6
:104DD00089B20520FDF758FC554890ED000ABDEE5C
:104DE000C00A10EE101A89B20620FDF74DFC4D489E
:104DF00090ED000ABDEEC00A10EE101A89B207202D
:104E0000FDF742FC02210820FDF73EFC5048FDF76B
:104E100053FC65E04C480078032861D1384890ED98
:104E2000470ABDEEC00A10EE101A89B20020FDF745
:104E30002BFC3348B0F8221189B20120FDF724FC85
:104E4000304890ED0C0ABDEEC00A10EE101A89B27F
:104E50000220FDF719FC314890ED000ADFED220A2F
:104E600020EE200ABDEEC00A10EE101A89B203200F
:104E7000FDF70AFC3748006800F0BCFB364A374BA8
:104E8000FCF78CFCFCF786FB010089B20420FDF7DF
:104E9000FBFB1C4890ED0D0ADFED130A20EE200A03
:104EA000BDEEC00A10EE101A89B20520FDF7ECFB2A
:104EB0002B48016889B20620FDF7E6FB194890ED02
:104EC000000ABDEEC00A10EE101A89B20720FDF7E5
:104ED000DBFB03210820FDF7D7FB1D48FDF7ECFBAA
:104EE00001BD000000007A440000C842680DFF1FA9
:104EF000F017FF1FEC1BFF1F5016FF1F1004FF1FB2
:104F0000C816FF1F5014FF1FF814FF1F4C10FF1F7F
:104F10004810FF1F0415FF1F8814FF1F1015FF1FE7
:104F20000AD7233F640DFF1FFC14FF1F0015FF1F4E
:104F30000815FF1FC014FF1F0C15FF1F9C05FF1F46
:104F4000F018FF1FEC1CFF1F690DFF1F0410FF1F4F
:104F50004C15FF1F1415FF1F9A9999999961B64036
:104F60004410FF1F80B5012201219C20FEF700FBA9
:104F7000012201219A20FEF7FBFA142000F062FBC7
:104F800001BD80B5012201219820FEF7F1FA01222E
:104F900001219920FEF7ECFA132000F053FB01BD2C
:104FA00038B5040001219C20FEF739FB00F0E6F83B
:104FB00001219A20FEF733FB00F0E0F800219C204D
:104FC000FEF72DFB00F0DAF800200500EDB2FA2D17
:104FD00003DA00F0D3F86D1CF8E700200500EDB20D
:104FE000802D17DA00F0CAF800F0C8F801219A20E5
:104FF000FEF715FB00F0C2F800F0C0F80021142005
:1050000000F027FCEDB2285500219A20FEF707FB9F
:105010006D1CE4E700F0B2F800F0B0F801219A202E
:10502000FEF7FDFA00F0AAF800F0A8F800219A2097
:10503000FEF7F5FA31BD38B5040001219820FEF7DE
:10504000EEFA00F09BF801219920FEF7E8FA00F053
:1050500095F800219820FEF7E2FA00F08FF8002082
:105060000500EDB2FA2D03DA00F088F86D1CF8E7C0
:1050700000200500EDB2802D17DA00F07FF800F077
:105080007DF801219920FEF7CAFA00F077F800F0C8
:1050900075F80021132000F0DCFBEDB2285500214B
:1050A0009920FEF7BCFA6D1CE4E700F067F800F009
:1050B00065F801219920FEF7B2FA00F05FF800F0E0
:1050C0005DF800219920FEF7AAFA31BD38B5040039
:1050D000E4B220090500EDB20A2D06DA15F130011F
:1050E00049B20420FDF7F6FF05E015F1370149B29A
:1050F0000420FDF7EFFF14F00F000500EDB20A2DBC
:1051000006DA15F1300149B20420FDF7E3FF05E0AE
:1051100015F1370149B20420FDF7DCFF31BD70B550
:10512000040000262A210420FDF7D4FF4C2104208E
:10513000FDF7D0FF44210420FDF7CCFF0020FFF74E
:10514000C5FF0020FFF7C2FF0020FFF7BFFF0020D0
:10515000FFF7BCFF00200500EDB2802D05DA2078B6
:10516000FFF7B4FF641C6D1CF6E73000C0B2FFF718
:10517000ADFF23210420FDF7ADFF70BD00BF00BFD0
:1051800070470000DFF8A802DFF8A812C160DFF85E
:10519000A002DFF8A4120161DFF89402002141614E
:1051A000DFF88C0200210160DFF8840200214160F9
:1051B0009F48002181609E48002101639C48002196
:1051C000C1629B4800218162994800214162984850
:1051D0009A4941639A489749C16099489649016143
:1051E00097480021416196480021016094480021C0
:1051F00041609348002181609148002101639048FB
:105200000021C1628E48002181628D4800214162E7
:105210008B488A4941638B488B49C160894800218A
:1052200001618848894941618648002101608548BB
:105230000021416083480021816082480021016390
:1052400080480021C1627F48002181627D480021A1
:1052500041627C48002141637047000070B5040042
:105260000D0016006068A0602068606036B22DB244
:10527000701B00EE100AB8EEC00A84ED000A94ED2F
:10528000000AD4ED020A30EE600A84ED0D0A94EDB6
:105290000D0AFAEE080AB4EE600AF1EE10FA02D531
:1052A000BAEE080A0DE094ED0D0ADFED5A0AB4EEED
:1052B000600AF1EE10FA02DBB2EE080A01E094EDAA
:1052C0000D0A84ED0D0AD4ED0D0A94ED000A604834
:1052D00000F038FB94ED030A5D48D0ED060A30EE8D
:1052E000200A84ED060A94ED050A5948D0ED080A13
:1052F00030EE200A84ED080A94ED060AD4ED000A87
:1053000020EE200A84ED090A94ED000AD4ED010A8A
:1053100030EE600AD4ED080A20EE200A84ED0B0A74
:1053200094ED090AD4ED0A0A30EE200AD4ED0B0AF6
:1053300030EE200A84ED0C0A94ED0C0AB1EE400A1E
:1053400084ED0C0A94ED0C0ADFED330AB4EE600A2A
:10535000F1EE10FA02D59FED300A0DE094ED0C0A43
:10536000DFED2E0AB4EE600AF1EE10FA02DB9FEDDB
:105370002C0A01E094ED0C0A84ED0C0A70BD0000CB
:1053800030EEC01A80ED001A90ED001AD0ED011A2F
:1053900031EE611AD0ED031A21EE211A80ED091ABF
:1053A00090ED041AD0ED001A21EE211A80ED0A1AB0
:1053B00090ED091AD0ED0A1A31EE211AD0ED0B1A30
:1053C00031EE211AD0ED0C1A31EE211A80ED0C1AB3
:1053D000416881600168416090ED0C1ADFED111A9F
:1053E000B4EE611AF1EE10FA02D59FED0E0A0DE04F
:1053F00090ED0C0ADFED0C0AB4EE600AF1EE10FA43
:1054000002DB9FED0A0A01E090ED0C0A80ED0C0A28
:1054100070470000010040410000C8C20100C842BE
:105420000000C84200401CC601401C4600401C460B
:105430008814FF1F0000A84100003041D7A3F03EB0
:10544000C014FF1F5014FF1FCDCC7C400000204132
:105450000410FF1F80B5002344F6206203210020C2
:10546000FEF7C0FD002344F6206204210020FEF771
:10547000B9FD002344F6206205210020FEF7B2FDAD
:10548000002344F6206206210020FEF7ABFD4FF416
:105490007573322205210320FEF7A4FD01BD80B5FE
:1054A0000120FEF709FF0220FEF706FF01BD80B5CF
:1054B0000120FEF784FF00EE100AB8EEC00A4B4848
:1054C00080ED000A0120FEF790FF0220FEF777FF33
:1054D00000EE100AB8EEC00AB1EE400A444880ED72
:1054E000000A0220FEF781FF01BD000080B52DED0E
:1054F000028BB0EE408AF0EE608A9FED390AB4EE7E
:10550000408AF1EE10FA03DB9FED360AB0EE408AD6
:105510009FED350AB4EE408AF1EE10FA03D59FED07
:10552000320AB0EE408A9FED2E0AF4EE408AF1EE88
:1055300010FA03DB9FED2B0AF0EE408A9FED2A0A5A
:10554000F4EE408AF1EE10FA03D59FED270AF0EE53
:10555000408AB5EE408AF1EE10FA0DDB00220321FD
:105560000020FEF718FEBCEEC80A10EE102A042137
:105570000020FEF710FE0EE0002204210020FEF7BE
:105580000AFEB1EE480ABCEEC00A10EE102A032152
:105590000020FEF700FEF5EE408AF1EE10FA0DDB7A
:1055A000002206210020FEF7F6FDBCEEE80A10EE10
:1055B000102A05210020FEF7EEFD0EE00022052155
:1055C0000020FEF7E8FDB1EE680ABCEEC00A10EE5E
:1055D000102A06210020FEF7DEFDBDEC028B01BD86
:1055E00001401C4600401C4600401CC64810FF1FDE
:1055F0004C10FF1F5FF0FF0C1CEAD05114BF614537
:1056000006E0C110400721F0E04101F16051704710
:1056100079B900F0004100020AD0B0FA80FC00FA2B
:105620000CF001F16051A1EB0C5101EBD0214005D0
:10563000704741020CBF40F4E0016FF00001002010
:105640007047000038B5040064B26511EDB2002D5A
:1056500002D0012D11D021E0A348006850F0006075
:10566000A1490860A148006830F090009F49086097
:105670009E4800689D49086014E09D48006850F00D
:1056800000609B4908609948006830F410409749D1
:105690000860964800689549086003E03321954802
:1056A000FDF709FE64B22000002800F0898001287F
:1056B00000F08680032800F0838008284ED0092857
:1056C00051D00A2854D00B2857D00C285AD00D2876
:1056D0005DD00E2860D00F2863D0102870D011281C
:1056E00064D0122867D013286AD0142868D01A28EA
:1056F00066D01D2864D01E2862D0202861D02128C1
:105700005FD023285DD024285CD025285FD02628B0
:1057100062D0272865D0282868D029286BD02A286D
:105720006ED02B2871D02C2874D02D2877D02E281D
:105730007AD02F287DD0302800F0858031287DD088
:10574000322800F0808033287DD034287BD03A285E
:1057500079D03D2877D03E2875D075E000212020F3
:10576000FDF73CFD74E000212120FDF737FD6FE0DF
:1057700000210720FDF732FD6AE000210820FDF737
:105780002DFD65E000212220FDF728FD60E00021CD
:105790002320FDF723FD5BE000214020FDF71EFDE7
:1057A00056E000214120FDF719FD51E0002198202D
:1057B000FDF714FD4CE000219920FDF70FFD47E0B7
:1057C00046E045E000218020FDF708FD40E0002193
:1057D0008120FDF703FD3BE000218220FDF7FEFC68
:1057E00036E000218320FDF7F9FC31E00021202084
:1057F000FDF7F4FC2CE000212120FDF7EFFC27E071
:1058000000212420FDF7EAFC22E000212520FDF7FD
:10581000E5FC1DE000212620FDF7E0FC18E000215A
:105820002720FDF7DBFC13E000212A20FDF7D6FC42
:105830000EE000212B20FDF7D1FC09E00021112012
:10584000FDF7CCFC04E003E09A212A48FDF733FD84
:1058500031BDF8B504000D0064B2661100272900BF
:1058600049B2200040B200F01CF8234876B250F84C
:10587000260000680006F8D51F4876B250F82600CA
:10588000006907001C4876B250F82600006830F026
:105890008000194976B251F826100860380080B2AD
:1058A000F2BD30B440B2421110F01F0349B28C0077
:1058B00014F00C0454F050040F4D52B255F822501D
:1058C000AC6004240C4D52B255F82250EC60DBB2AF
:1058D00013F01F0454F04004074D52B255F8225003
:1058E0002C6030BC704700003C80044018800440AD
:1058F0003080044020730000A005FF1F0020DFF867
:10590000D81408720020DFF8D0140875DFF8C80436
:1059100000218161DFF8C0040021C161DFF8B80413
:1059200000210162DFF8B00400214162DFF8A80421
:105930005FF07E518162DFF8A0045FF07E51C162AA
:105940007047000010B588B0040004A8102100F0D2
:1059500049FA00A8102100F045FA9FEDB61AB4EEFE
:10596000410AF1EE10FA07D5002020725FF07E5058
:10597000206000206060AAE09FEDAF1AB4EE410AFB
:10598000F1EE10FA14D5002020729FEDAC1A31EE22
:10599000401AF3EE011A81EE211A84ED001AB7EED7
:1059A000001AD4ED001A31EE611A84ED011A8EE06E
:1059B0009FEDA31AB4EE410AF1EE10FA14D50120BE
:1059C0002072BBEE011A31EE401AF3EE011A81EE9D
:1059D000211A84ED001AB7EE001AD4ED001A31EE48
:1059E000611A84ED011A72E0B5EE400AF1EE10FA88
:1059F00012D802202072B1EE401AF3EE011A81EEA5
:105A0000211A84ED001AB7EE001AD4ED001A31EE17
:105A1000611A84ED011A5AE09FED8A1AB4EE410A28
:105A2000F1EE10FA14D503202072B3EE011A31EE14
:105A3000401AF3EE011A81EE211A84ED001AB7EE36
:105A4000001AD4ED001A31EE611A84ED011A3EE01D
:105A50009FEDD81AB4EE410AF1EE10FA14D50420E5
:105A600020729FEDD51A31EE401AF3EE011A81EE45
:105A7000211A84ED001AB7EE001AD4ED001A31EEA7
:105A8000611A84ED011A22E09FEDCC1AB4EE410AAE
:105A9000F1EE10FA14D5052020729FEDC91A31EEEF
:105AA000401AF3EE011A81EE211A84ED001AB7EEC6
:105AB000001AD4ED001A31EE611A84ED011A06E0E5
:105AC00005202072002020605FF07E506060BAEEFA
:105AD000081AF4EE410AF1EE10FA07D500202075FD
:105AE0005FF07E50E06000202061B4E09FEDB51AC9
:105AF000F4EE410AF1EE10FA14D500202075BAEE4A
:105B0000001A31EE601AF1EE001A81EE211A84EDCE
:105B1000031AB7EE001AD4ED031A31EE611A84EDC0
:105B2000041A98E09FEDA81AF4EE410AF1EE10FA7B
:105B300014D501202075B9EE001A31EE601AF1EE8D
:105B4000001A81EE211A84ED031AB7EE001AD4ED83
:105B5000031A31EE611A84ED041A7CE0F5EE400A76
:105B6000F1EE10FA12D802202075B1EE601AF1EEB3
:105B7000001A81EE211A84ED031AB7EE001AD4ED53
:105B8000031A31EE611A84ED041A64E09FED8F1A56
:105B9000F4EE410AF1EE10FA14D503202075B1EEAF
:105BA000001A31EE601AF1EE001A81EE211A84ED2E
:105BB000031AB7EE001AD4ED031A31EE611A84ED20
:105BC000041A48E09FED821AF4EE410AF1EE10FA51
:105BD00014D504202075B2EE001A31EE601AF1EEF1
:105BE000001A81EE211A84ED031AB7EE001AD4EDE3
:105BF000031A31EE611A84ED041A2CE09FED751A38
:105C0000F4EE410AF1EE10FA1ED505202075B2EE31
:105C1000081A31EE601AF1EE001A81EE211A84EDB5
:105C2000031AB7EE001AD4ED031A31EE611A84EDAF
:105C3000041A10E0FFFF4BC2FFFF07C2000008C2BA
:105C4000FFFF87C101008841052020750020E0602A
:105C50005FF07E50206194ED001AD4ED031A21EE1E
:105C6000211A5E4894F908101C2211FB020094F9D5
:105C7000141010EB8100D0ED001A21EE211AD4EDA2
:105C8000011A94ED042A61EE821A544894F908101E
:105C90001C2211FB020094F9141010EB810090ED0E
:105CA000082A01EE821AD4ED001A94ED042A61EE5E
:105CB000821A4A4894F908101C2211FB020094F938
:105CC000141010EB810090ED012A01EE821AD4ED40
:105CD000011A94ED032A61EE821A404894F90810E3
:105CE0001C2211FB020094F9141010EB810090EDBE
:105CF000072A01EE821AD4ED0A1A21EE211A84ED48
:105D0000061A94ED001AD4ED031A21EE211A344834
:105D100094F908101C2211FB020094F9141010EBE6
:105D20008100D0ED001A21EE211AD4ED011A94ED74
:105D3000042A61EE821A2A4894F908101C2211FBE9
:105D4000020094F9141010EB810090ED082A01EE86
:105D5000821AD4ED001A94ED042A61EE821A2048CA
:105D600094F908101C2211FB020094F9141010EB96
:105D7000810090ED012A01EE821AD4ED011A94ED12
:105D8000032A61EE821A164894F908101C2211FBAE
:105D9000020094F9141010EB810090ED072A01EE37
:105DA000821AD4ED0B1A21EE211A84ED081A08B0DC
:105DB00010BD0000010008420000084201004C42F2
:105DC00000004C42FEFFFFC0FEFF7FC0010080408C
:105DD00001000041010040410410FF1FD804FF1FD3
:105DE0001404FF1F002200F001B8000000B500BF3E
:105DF000130096469446103928BFA0E80C50FAD8F4
:105E00005FEA417C28BF0CC048BF40F8042BC9079B
:105E100028BF20F8022B48BF00F8012B00BD00006E
:105E2000DFF800F0590FFF1FDFF8B41340B231F86C
:105E3000201040B20128C0F2788140B2162880F2CA
:105E400074810022DFF89C331A7089B2652904DA64
:105E50000022DFF890335A707DE089B2C92904DA54
:105E60000122DFF880335A7075E089B2B1F5967F70
:105E700004DC0222DFF86C335A706CE089B2B1F5B1
:105E8000C87F04DC0322DFF85C335A7063E089B218
