:10000000F8FF002011040000672A0000672A0000A2
:10001000672A0000672A0000672A0000672A00009C
:10002000672A0000672A0000672A0000672A00008C
:10003000672A0000672A0000672A0000672A00007C
:10004000672A0000672A0000672A0000672A00006C
:10040000FFFFFFFFFFFFFFFFFFFFFFFFFEFFFFFFFD
:1004100062B608F0FFFDFEE789B24FF4807291FBEF
:10042000F2F2994BC0B203F8102089B24FF48072F7
:1004300091FBF2F303FB1213934AC0B212EB40029A
:100440005370704770B5040000260025AA208F491C
:10045000F6B27054761CAA208C49F6B27054761C01
:1004600002208A49F6B27054761C00208749F6B201
:100470007054761C20788549F6B27054641C761C42
:1004800020788249F6B27054641C761C20787F492B
:10049000F6B27054641C761C20787C49F6B2705415
:1004A000641C761C20787949F6B27054641C761C62
:1004B00020787649F6B27054641C761C2078734913
:1004C000F6B27054641C761C20787049F6B27054F1
:1004D000641C761C20786D49F6B27054641C761C3E
:1004E00020786A49F6B27054641C761C20786749FB
:1004F000F6B27054641C761C20786449F6B27054CD
:10050000641C761C20786149F6B27054641C761C19
:1005100020785E49F6B27054641C761C20785B49E2
:10052000F6B27054641C761C20785849F6B27054A8
:10053000641C761C20785549F6B27054641C761CF5
:1005400020785249F6B27054641C761C301F4F4913
:10055000C870002005000020C0B2F6B2B04205D23B
:100560004A49C0B2415C4D19401CF5E74748F6B214
:100570003554761C3100C9B2444800F001F870BD12
:1005800070B504000D000026F6B2EDB2AE4208D2FE
:100590003E48F6B2315649B2042002F00FF8761CFC
:1005A000F2E770BD10B5040039480078002808D182
:1005B000E4B2AA2C05D101203549087035480470F1
:1005C00061E033480078012808D1E4B2AF2C05D1AE
:1005D00002202F4908702F48447054E02C480078BE
:1005E000022808D1E4B2F12C05DA0320284908706A
:1005F0002848847047E02648007803280DD1E4B2EB
:10060000322C0ADA0420224908702248C470224899
:10061000047000202149087035E01D480078042846
:100620001AD11D480078002816D01B480078401EBB
:1006300019490870174819490978081804711748AA
:100640000078401C154908701348007800281AD11A
:1006500005200F49087016E00D48007805280FD1D5
:1006600000200B4908700B480C49097808180471E0
:100670000A480078411DC9B2064800F011F802E0AE
:1006800000200349087010BD1C16FF1FE815FF1F4E
:10069000D220FF1F4016FF1FD020FF1FD120FF1FB9
:1006A000F8B504000D00002600270020C0B2EDB20E
:1006B000691E884204DAC0B2015D8E19401CF5E75C
:1006C000EDB2281910F8010CF6B2864241F02486EA
:1006D0002078AA2802D16078AF2801D001F01CBE92
:1006E000A078012822D1207902280AD1E148007897
:1006F000002803D10120DF49087002E00020DD4915
:1007000008702079012803D10120DFF8281E087025
:100710002079042803D10220DFF8181E0870207900
:10072000052803D10320DFF80C1E0870A0781028DC
:1007300040F083812079617951EA00200700BFB23F
:100740004FF6FF70874227D0BFB2DFF8EC0DC0191B
:1007500001F070FFDFF8E42DDFF8E43D01F082FFE7
:1007600002F062F8DFF8DC1DC860DFF8D80D90ED0C
:10077000030AB5EE400AF1EE10FA0DD5DFF8C40D0C
:1007800090ED030AF3EE0E0A30EE200AB1EE400AB5
:10079000DFF8B00D80ED030AA079E17951EA00207D
:1007A0000700BFB24FF6FF70874227D0BFB2DFF815
:1007B000880DC01901F03EFFDFF8802DDFF8803D85
:1007C00001F050FF02F030F8DFF8781D0861DFF823
:1007D000740D90ED040AB5EE400AF1EE10FA0DD555
:1007E000DFF8600D90ED040AF3EE0E0A30EE200AF9
:1007F000B1EE400ADFF84C0D80ED040A207A617AF0
:1008000051EA00200700BFB24FF6FF70874227D0A1
:10081000BFB2DFF8240DC01901F00CFFDFF81C2D6A
:10082000DFF81C3D01F01EFF01F0FEFFDFF8141D94
:100830004861DFF8100D90ED050AB5EE400AF1EEC3
:1008400010FA0DD5DFF8FC0C90ED050AF3EE0E0A58
:1008500030EE200AB1EE400ADFF8E80C80ED050A20
:10086000A07AE17A51EA00200700BFB24FF6FF708C
:1008700087422DD0BFB2DFF8C00CC01901F0DAFEFC
:10088000DFF8B82CDFF8B83C01F0ECFE01F0CCFF4B
:10089000DFF8B41CC860DFF8B00C90ED030AB5EEC9
:1008A000400AF1EE10FA0DD5DFF89C0C90ED030A2A
:1008B000F3EE0E0A30EE200AB1EE400ADFF8880CA3
:1008C00080ED030ADFF8840CDFF87C1CC968C16086
:1008D000207B617B51EA00200700BFB24FF6FF701A
:1008E00087422DD0BFB2DFF8500CC01901F0A2FE34
:1008F000DFF8482CDFF8483C01F0B4FE01F094FF2B
:10090000DFF8441C0861DFF8400C90ED040AB5EEF6
:10091000400AF1EE10FA0DD5DFF82C0C90ED040A28
:10092000F3EE0E0A30EE200AB1EE400ADFF8180CA2
:1009300080ED040ADFF8140CDFF80C1C0969016172
:10094000A07BE17B51EA00200700BFB24FF6FF70A9
:1009500087422DD0BFB2DFF8E00BC01901F06AFE6C
:10096000DFF8D82BDFF8D83B01F07CFE01F05CFF0C
:10097000DFF8D41B4861DFF8D00B90ED050AB5EE27
:10098000400AF1EE10FA0DD5DFF8BC0B90ED050A28
:10099000F3EE0E0A30EE200AB1EE400ADFF8A80BA3
:1009A00080ED050ADFF8A40BDFF89C1B4969416163
:1009B000A07CE17C51EA00200700BFB24FF6FF7037
:1009C000874203D0DFF8880BA0F8D270207D617DCC
:1009D00051EA00200700BFB24FF6FF70874227D0D0
:1009E000BFB2DFF8540BC01901F024FEDFF8642B0E
:1009F000DFF8643B01F036FE01F016FFDFF8481B1C
:100A00004863DFF8440B90ED0D0AB5EE400AF1EEB5
:100A100010FA0DD5DFF8300B90ED0D0AF0EE080A54
:100A200030EE200AB1EE400ADFF81C0B80ED0D0A13
:100A30003100C9B2A07801F070FCA078112840F014
:100A4000DD802079617951EA00200700BFB2B7F557
:100A5000FA6F1CDABFB2B7F57A7F0DDABFB278420F
:100A600000EE100AB8EEC00ADFF8F00A80ED000AC6
:100A70000DE000BF2C0EFF1FBFB2B7F57A7000EE7D
:100A8000100AB8EEC00ADFF8D40A80ED000AA07997
:100A9000E17951EA00200700BFB24FF6FF708742AC
:100AA00003D00020DFF88C1A0870207A617A51EAAE
:100AB00000200700BFB24FF6FF70874203D004202A
:100AC000DFF8701A0870A07AE17A51EA0020070076
:100AD000BFB24FF6FF70874227D0BFB2DFF8580A87
:100AE000C01901F0A7FDDFF8542ADFF8543A01F0ED
:100AF000B9FD01F099FEDFF8681A8862DFF8600A34
:100B000090ED0A0AB5EE400AF1EE10FA0DD5DFF8C5
:100B1000500A90ED0A0AF3EE0E0A30EE200AB1EE0A
:100B2000400ADFF83C0A80ED0A0AA07AE17A51EA2D
:100B300000200700BFB24FF6FF70874227D0BFB238
:100B4000DFF8F409C01901F075FDDFF8F029DFF8CE
:100B5000F03901F087FD01F067FEDFF8041A486202
:100B6000DFF8FC0990ED090AB5EE400AF1EE10FA43
:100B70000DD5DFF8EC0990ED090AF3EE0E0A30EE20
:100B8000200AB1EE400ADFF8D80980ED090AA07BFF
:100B9000E17B51EA00200700BFB24FF6FF708742A9
:100BA0002CD0BFB2DFF89009C01901F043FDDFF887
:100BB0008C29DFF88C3901F055FD01F035FEDFF8A6
:100BC000A019C862DFF8980990ED0B0AB5EE400A4B
:100BD000F1EE10FA0DD5DFF8880990ED0B0AF3EE6F
:100BE0000E0A30EE200AB1EE400ADFF8740980EDFB
:100BF0000B0A3100C9B2A07801F08FFBA07812284F
:100C000040F0F0822079617951EA00200700BFB2FC
:100C1000152F4ADADFF8480990F83000002822D171
:100C2000BFB2B7F10A0000EE100AB8EEC00ADFF852
:100C3000340980ED000ADFF82C0990ED000AB5EECA
:100C4000400AF1EE10FA30D5DFF8180990ED000AED
:100C5000F2EE040A30EE200AB1EE400ADFF8040991
:100C600080ED000A21E0BFB2B7F10A0000EE100AE1
:100C7000B8EEC00ADFF8A80980ED000ADFF8A00985
:100C800090ED000AB5EE400AF1EE10FA0DD5DFF84E
:100C9000900990ED000AF2EE040A30EE200AB1EE5F
:100CA000400ADFF87C0980ED000AA079E17951EA79
:100CB00000200700BFB2152F4ADADFF8A40890F829
:100CC0003000002822D1BFB2B7F10A0000EE100AAE
:100CD000B8EEC00ADFF88C0880ED010ADFF884085E
:100CE00090ED010AB5EE400AF1EE10FA30D5DFF8CA
:100CF000740890ED010AF2EE040A30EE200AB1EE1B
:100D0000400ADFF8600880ED010A21E0BFB2B7F1C8
:100D10000A0000EE100AB8EEC00ADFF8040980ED00
:100D2000010ADFF8FC0890ED010AB5EE400AF1EE89
:100D300010FA0DD5DFF8E80890ED010AF2EE040A8A
:100D400030EE200AB1EE400ADFF8D40880ED010A47
:100D5000207A617A51EA00200700BFB2152F4ADAE3
:100D6000DFF8FC0790F83000002822D1BFB2B7F1BD
:100D70000A0000EE100AB8EEC00ADFF8E80780EDBE
:100D8000020ADFF8E00790ED020AB5EE400AF1EE44
:100D900010FA30D5DFF8CC0790ED020AF2EE040A23
:100DA00030EE200AB1EE400ADFF8B80780ED020A03
:100DB00021E0BFB2B7F10A0000EE100AB8EEC00A97
:100DC000DFF85C0880ED020ADFF8540890ED020AB3
:100DD000B5EE400AF1EE10FA0DD5DFF8440890EDBB
:100DE000020AF2EE040A30EE200AB1EE400ADFF801
:100DF000300880ED020AA07AE17A51EA002007006B
:100E0000BFB2152F4ADADFF8580790F830000028F3
:100E100022D1BFB2B7F10A0000EE100AB8EEC00A44
:100E2000DFF8400780ED070ADFF8380790ED070A82
:100E3000B5EE400AF1EE10FA30D5DFF8280790ED54
:100E4000070AF2EE040A30EE200AB1EE400ADFF89B
:100E5000140780ED070A21E0BFB2B7F10A0000EEE7
:100E6000100AB8EEC00ADFF8B80780ED070ADFF80D
:100E7000B00790ED070AB5EE400AF1EE10FA0DD575
:100E8000DFF89C0790ED070AF2EE040A30EE200A24
:100E9000B1EE400ADFF8880780ED070A207B617B0E
:100EA00051EA00200700BFB2152F4ADADFF8B0067A
:100EB00090F83000002822D1BFB2B7F10A0000EE4E
:100EC000100AB8EEC00ADFF89C0680ED080ADFF8C9
:100ED000940690ED080AB5EE400AF1EE10FA30D50E
:100EE000DFF8800690ED080AF2EE040A30EE200AE0
:100EF000B1EE400ADFF86C0680ED080A21E0BFB2CF
:100F0000B7F10A0000EE100AB8EEC00ADFF81007C9
:100F100080ED080ADFF8080790ED080AB5EE400AF0
:100F2000F1EE10FA0DD5DFF8F80690ED080AF2EEB2
:100F3000040A30EE200AB1EE400ADFF8E40680ED44
:100F4000080AA07BE17B51EA00200700BFB2152F01
:100F50004ADADFF80C0690F83000002822D1BFB240
:100F6000B7F10A0000EE100AB8EEC00ADFF8F40587
:100F700080ED090ADFF8EC0590ED090AB5EE400AAC
:100F8000F1EE10FA30D5DFF8DC0590ED090AF2EE4B
:100F9000040A30EE200AB1EE400ADFF8C80580ED01
:100FA000090A21E0BFB2B7F10A0000EE100AB8EE5C
:100FB000C00ADFF86C0680ED090ADFF8640690EDE0
:100FC000090AB5EE400AF1EE10FA0DD5DFF8500629
:100FD00090ED090AF2EE040A30EE200AB1EE400A62
:100FE000DFF83C0680ED090A207C617C51EA002094
:100FF0000700BFB2152F4ADADFF8640590F8300019
:10100000002822D1BFB2B7F10A0000EE100AB8EEF4
:10101000C00ADFF8500580ED0E0ADFF8480590EDB4
:101020000E0AB5EE400AF1EE10FA30D5DFF83405BD
:1010300090ED0E0AF2EE040A30EE200AB1EE400AFC
:10104000DFF8200580ED0E0A21E0BFB2B7F10A00FB
:1010500000EE100AB8EEC00ADFF8C40580ED0E0AF3
:10106000DFF8BC0590ED0E0AB5EE400AF1EE10FA7D
:101070000DD5DFF8AC0590ED0E0AF2EE040A30EE65
:10108000200AB1EE400ADFF8980580ED0E0AA07C38
:10109000E17C51EA00200700BFB2152F4ADADFF8E1
:1010A000C00490F83000002822D1BFB2B7F10A0086
:1010B00000EE100AB8EEC00ADFF8A80480ED0F0AAF
:1010C000DFF8A00490ED0F0AB5EE400AF1EE10FA39
:1010D00030D5DFF8900490ED0F0AF2EE040A30EEFE
:1010E000200AB1EE400ADFF87C0480ED0F0A21E00F
:1010F000BFB2B7F10A0000EE100AB8EEC00ADFF87E
:10110000200580ED0F0ADFF8180590ED0F0AB5EE07
:10111000400AF1EE10FA0DD5DFF8040590ED0F0A44
:10112000F2EE040A30EE200AB1EE400ADFF8F004D5
:1011300080ED0F0A207D617D51EA00200700BFB2DB
:10114000152F4ADADFF8180490F83000002822D171
:10115000BFB2B7F10A0000EE100AB8EEC00ADFF81D
:10116000040480ED100ADFF8FC0390ED100AB5EEE0
:10117000400AF1EE10FA30D5DFF8E80390ED100ADE
:10118000F2EE040A30EE200AB1EE400ADFF8D40392
:1011900080ED100A21E0BFB2B7F10A0000EE100A9C
:1011A000B8EEC00ADFF8780480ED100ADFF87004AA
:1011B00090ED100AB5EE400AF1EE10FA0DD5DFF809
:1011C000600490ED100AF2EE040A30EE200AB1EE4F
:1011D000400ADFF84C0480ED100A3100C9B2A07853
:1011E00001F09BF8A078132840F0DC822079617927
:1011F00051EA00200700BFB2152F46DADFF860037E
:1012000090F8300000281ED1BFB2B7F10A0000EEFE
:10121000100AB8EEC00AD34880ED1C0AD14890ED00
:101220001C0AB5EE400AF1EE10FA2ED5CD4890ED2D
:101230001C0AF2EE040A30EE200AB1EE400AC94858
:1012400080ED1C0A21E0BFB2B7F10A0000EE100ADF
:10125000B8EEC00ADFF8C80380ED1C0ADFF8C0034F
:1012600090ED1C0AB5EE400AF1EE10FA0DD5DFF84C
:10127000B00390ED1C0AF2EE040A30EE200AB1EE43
:10128000400ADFF89C0380ED1C0AA079E17951EA5D
:1012900000200700BFB2152F41DAB14890F83000A6
:1012A00000281ED1BFB2B7F10A0000EE100AB8EE56
:1012B000C00AAC4880ED1D0AAA4890ED1D0AB5EEA3
:1012C000400AF1EE10FA2AD5A64890ED1D0AF2EE7A
:1012D000040A30EE200AB1EE400AA24880ED1D0A51
:1012E0001DE0BFB2B7F10A0000EE100AB8EEC00A66
:1012F000CB4880ED1D0ACA4890ED1D0AB5EE400AA4
:10130000F1EE10FA0BD5C64890ED1D0AF2EE040A74
:1013100030EE200AB1EE400AC14880ED1D0A207A65
:10132000617A51EA00200700BFB2152F41DA8C48DC
:1013300090F8300000281ED1BFB2B7F10A0000EECD
:10134000100AB8EEC00A874880ED1E0A854890ED65
:101350001E0AB5EE400AF1EE10FA2AD5814890ED4A
:101360001E0AF2EE040A30EE200AB1EE400A7D4871
:1013700080ED1E0A1DE0BFB2B7F10A0000EE100AB0
:10138000B8EEC00AA64880ED1E0AA54890ED1E0AD8
:10139000B5EE400AF1EE10FA0BD5A14890ED1E0A09
:1013A000F2EE040A30EE200AB1EE400A9C4880EDCD
:1013B0001E0AA07AE17A51EA00200700BFB2152F79
:1013C00041DA674890F8300000281ED1BFB2B7F16B
:1013D0000A0000EE100AB8EEC00A624880ED230A47
:1013E000604890ED230AB5EE400AF1EE10FA2AD5D6
:1013F0005C4890ED230AF2EE040A30EE200AB1EECA
:10140000400A584880ED230A1DE0BFB2B7F10A0038
:1014100000EE100AB8EEC00A814880ED230A804829
:1014200090ED230AB5EE400AF1EE10FA0BD57C4898
:1014300090ED230AF2EE040A30EE200AB1EE400AE3
:10144000774880ED230A207B617B51EA002007006A
:10145000BFB2152F41DA424890F8300000281ED163
:10146000BFB2B7F10A0000EE100AB8EEC00A3D485C
:1014700080ED240A3B4890ED240AB5EE400AF1EED7
:1014800010FA2AD5374890ED240AF2EE040A30EE1D
:10149000200AB1EE400A334880ED240A1DE0BFB2B5
:1014A000B7F10A0000EE100AB8EEC00A5C4880ED01
:1014B000240A5B4890ED240AB5EE400AF1EE10FADA
:1014C0000BD5574890ED240AF2EE040A30EE200ABC
:1014D000B1EE400A524880ED240AA07BE17B51EA3C
:1014E00000200700BFB2152F5CDA1D4890F83000CD
:1014F000002839D1BFB2B7F10A0000EE100AB8EEE9
:10150000C00A184880ED250A164890ED250AB5EE68
:10151000400AF1EE10FA45D5124890ED250AF2EE98
:10152000040A30EE200AB1EE400A0E4880ED250A8A
:1015300038E000BF2D0EFF1FD08AFFFFFCA9F1D2BB
:101540004D62503F1815FF1F5015FF1F8815FF1FD4
:101550009817FF1F2D431CEBE2361A3F280EFF1F82
:10156000C810FF1FD804FF1FBFB2B7F10A0000EE7A
:10157000100AB8EEC00A2A4880ED250A284890EDE6
:10158000250AB5EE400AF1EE10FA0BD5244890ED8D
:10159000250AF2EE040A30EE200AB1EE400A204895
:1015A00080ED250A207C617C51EA00200700BFB253
:1015B000152F4CDADFF8AC0D90F83000002822D15E
:1015C000BFB2B7F10A0000EE100AB8EEC00ADFF8A9
:1015D000980D80ED2A0ADFF8900D90ED2A0AB5EEFD
:1015E000400AF1EE10FA32D5DFF87C0D90ED2A0AB0
:1015F000F2EE040A30EE200AB1EE400ADFF8680D80
:1016000080ED2A0A23E0BFB2B7F10A0000EE100A0B
:10161000B8EEC00A024880ED2A0A014802E000BF85
:101620001404FF1F90ED2A0AB5EE400AF1EE10FAFD
:101630000DD5DFF8380D90ED2A0AF2EE040A30EEEF
:10164000200AB1EE400ADFF8240D80ED2A0AA07CC2
:10165000E17C51EA00200700BFB2152F4ADADFF81B
:10166000040D90F83000002822D1BFB2B7F10A0073
:1016700000EE100AB8EEC00ADFF8EC0C80ED2B0A81
:10168000DFF8E40C90ED2B0AB5EE400AF1EE10FA0B
:1016900030D5DFF8D40C90ED2B0AF2EE040A30EED0
:1016A000200AB1EE400ADFF8C00C80ED2B0A21E0E1
:1016B000BFB2B7F10A0000EE100AB8EEC00ADFF8B8
:1016C000AC0C80ED2B0ADFF8A40C90ED2B0AB5EEE4
:1016D000400AF1EE10FA0DD5DFF8900C90ED2B0AD0
:1016E000F2EE040A30EE200AB1EE400ADFF87C0C7C
:1016F00080ED2B0A207D617D51EA00200700BFB2FA
:10170000152F4ADADFF85C0C90F83000002822D15F
:10171000BFB2B7F10A0000EE100AB8EEC00ADFF857
:10172000480C80ED2C0ADFF8400C90ED2C0AB5EE49
:10173000400AF1EE10FA30D5DFF82C0C90ED2C0AAF
:10174000F2EE040A30EE200AB1EE400ADFF8180C7F
:1017500080ED2C0A21E0BFB2B7F10A0000EE100ABA
:10176000B8EEC00ADFF8040C80ED2C0ADFF8FC0BA1
:1017700090ED2C0AB5EE400AF1EE10FA0DD5DFF827
:10178000EC0B90ED2C0AF2EE040A30EE200AB1EEDA
:10179000400ADFF8D80B80ED2C0A3100C9B2A078DE
:1017A00000F0BBFDA078142840F0F0822079617928
:1017B00051EA00200700BFB2152F4ADADFF8A40B68
:1017C00090F83000002822D1BFB2B7F10A0000EE35
:1017D000100AB8EEC00ADFF8900B80ED040ADFF8BB
:1017E000880B90ED040AB5EE400AF1EE10FA30D500
:1017F000DFF8740B90ED040AF2EE040A30EE200AD2
:10180000B1EE400ADFF8600B80ED040A21E0BFB2C0
:10181000B7F10A0000EE100AB8EEC00ADFF84C0B70
:1018200080ED040ADFF8440B90ED040AB5EE400A9F
:10183000F1EE10FA0DD5DFF8340B90ED040AF2EE5C
:10184000040A30EE200AB1EE400ADFF8200B80EDEA
:10185000040AA079E17951EA00200700BFB2152FF0
:101860004ADADFF8000B90F83000002822D1BFB22E
:10187000B7F10A0000EE100AB8EEC00ADFF8E80A75
:1018800080ED050ADFF8E00A90ED050AB5EE400AA2
:10189000F1EE10FA30D5DFF8D00A90ED050AF2EE3D
:1018A000040A30EE200AB1EE400ADFF8BC0A80EDEF
:1018B000050A21E0BFB2B7F10A0000EE100AB8EE47
:1018C000C00ADFF8A80A80ED050ADFF8A00A90ED4B
:1018D000050AB5EE400AF1EE10FA0DD5DFF88C0AD4
:1018E00090ED050AF2EE040A30EE200AB1EE400A4D
:1018F000DFF8780A80ED050A207A617A51EA002043
:101900000700BFB2152F4ADADFF8580A90F8300006
:10191000002822D1BFB2B7F10A0000EE100AB8EEDB
:10192000C00ADFF8440A80ED060ADFF83C0A90EDB1
:10193000060AB5EE400AF1EE10FA30D5DFF8280AB3
:1019400090ED060AF2EE040A30EE200AB1EE400AEB
:10195000DFF8140A80ED060A21E0BFB2B7F10A00F1
:1019600000EE100AB8EEC00ADFF8000A80ED060AA1
:10197000DFF8F80990ED060AB5EE400AF1EE10FA2C
:101980000DD5DFF8E80990ED060AF2EE040A30EE14
:10199000200AB1EE400ADFF8D40980ED060AA07AE9
:1019A000E17A51EA00200700BFB2152F4ADADFF8CA
:1019B000B40990F83000002822D1BFB2B7F10A0074
:1019C00000EE100AB8EEC00ADFF89C0980ED0B0AA1
:1019D000DFF8940990ED0B0AB5EE400AF1EE10FA2B
:1019E00030D5DFF8840990ED0B0AF2EE040A30EEF0
:1019F000200AB1EE400ADFF8700980ED0B0A21E001
:101A0000BFB2B7F10A0000EE100AB8EEC00ADFF864
:101A10005C0980ED0B0ADFF8540990ED0B0AB5EE76
:101A2000400AF1EE10FA0DD5DFF8400990ED0B0AEF
:101A3000F2EE040A30EE200AB1EE400ADFF82C097B
:101A400080ED0B0A207B617B51EA00200700BFB2CA
:101A5000152F4ADADFF80C0990F83000002822D15F
:101A6000BFB2B7F10A0000EE100AB8EEC00ADFF804
:101A7000F80880ED0C0ADFF8F00890ED0C0AB5EEDE
:101A8000400AF1EE10FA30D5DFF8DC0890ED0C0AD0
:101A9000F2EE040A30EE200AB1EE400ADFF8C80880
:101AA00080ED0C0A21E0BFB2B7F10A0000EE100A87
:101AB000B8EEC00ADFF8B40880ED0C0ADFF8AC0815
:101AC00090ED0C0AB5EE400AF1EE10FA0DD5DFF8F4
:101AD0009C0890ED0C0AF2EE040A30EE200AB1EEFA
:101AE000400ADFF8880880ED0C0AA07BE17B51EA10
:101AF00000200700BFB2152F4ADADFF8680890F817
:101B00003000002822D1BFB2B7F10A0000EE100A5F
:101B1000B8EEC00ADFF8500880ED0D0ADFF848087B
:101B200090ED0D0AB5EE400AF1EE10FA30D5DFF86F
:101B3000380890ED0D0AF2EE040A30EE200AB1EEFC
:101B4000400ADFF8240880ED0D0A21E0BFB2B7F1AA
:101B50000A0000EE100AB8EEC00ADFF8100880EDA7
:101B60000D0ADFF8080890ED0D0AB5EE400AF1EE17
:101B700010FA0DD5DFF8F40790ED0D0AF2EE040A25
:101B800030EE200AB1EE400ADFF8E00780ED0D0AE2
:101B9000207C617C51EA00200700BFB2152F4ADA91
:101BA000DFF8C00790F83000002822D1BFB2B7F1AB
:101BB0000A0000EE100AB8EEC00ADFF8AC0780EDAC
:101BC000120ADFF8A40790ED120AB5EE400AF1EE12
:101BD00010FA30D5DFF8900790ED120AF2EE040A01
:101BE00030EE200AB1EE400ADFF87C0780ED120AE1
:101BF00021E0BFB2B7F10A0000EE100AB8EEC00A49
:101C0000DFF8680780ED120ADFF8600790ED120A2E
:101C1000B5EE400AF1EE10FA0DD5DFF8500790ED61
:101C2000120AF2EE040A30EE200AB1EE400ADFF8A2
:101C30003C0780ED120AA07CE17C51EA00200700FD
:101C4000BFB2152F4ADADFF81C0790F830000028E1
:101C500022D1BFB2B7F10A0000EE100AB8EEC00AF6
:101C6000DFF8040780ED130ADFF8FC0690ED130A95
:101C7000B5EE400AF1EE10FA30D5DFF8EC0690ED43
:101C8000130AF2EE040A30EE200AB1EE400ADFF841
:101C9000D80680ED130A21E0BFB2B7F10A0000EECA
:101CA000100AB8EEC00ADFF8C40680ED130ADFF8A8
:101CB000BC0690ED130AB5EE400AF1EE10FA0DD510
:101CC000DFF8A80690ED130AF2EE040A30EE200ABF
:101CD000B1EE400ADFF8940680ED130A207D617DA5
:101CE00051EA00200700BFB2152F4ADADFF8740668
:101CF00090F83000002822D1BFB2B7F10A0000EE00
:101D0000100AB8EEC00ADFF8600680ED140ADFF8AA
:101D1000580690ED140AB5EE400AF1EE10FA30D5EF
:101D2000DFF8440690ED140AF2EE040A30EE200AC1
:101D3000B1EE400ADFF8300680ED140A21E0BFB2B0
:101D4000B7F10A0000EE100AB8EEC00ADFF81C0670
:101D500080ED140ADFF8140690ED140AB5EE400A7F
:101D6000F1EE10FA0DD5DFF8040690ED140AF2EE4C
:101D7000040A30EE200AB1EE400ADFF8F00580EDEB
:101D8000140A3100C9B2A07800F0C7FAA07815286B
:101D900040F0C2822079617951EA00200700BFB289
:101DA000152F4ADADFF8BC0590F83000002822D160
:101DB000BFB2B7F10A0000EE100AB8EEC00ADFF8B1
:101DC000A80580ED200ADFF8A00590ED200AB5EE09
:101DD000400AF1EE10FA30D5DFF88C0590ED200ABC
:101DE000F2EE040A30EE200AB1EE400ADFF8780580
:101DF00080ED200A21E0BFB2B7F10A0000EE100A20
:101E0000B8EEC00ADFF8640580ED200ADFF85C0553
:101E100090ED200AB5EE400AF1EE10FA0DD5DFF88C
:101E20004C0590ED200AF2EE040A30EE200AB1EEE5
:101E3000400ADFF8380580ED200AA079E17951EAFF
:101E400000200700BFB2152F4ADADFF8180590F816
:101E50003000002822D1BFB2B7F10A0000EE100A0C
:101E6000B8EEC00ADFF8000580ED210ADFF8F804BB
:101E700090ED210AB5EE400AF1EE10FA30D5DFF808
:101E8000E80490ED210AF2EE040A30EE200AB1EEE9
:101E9000400ADFF8D40480ED210A21E0BFB2B7F197
:101EA0000A0000EE100AB8EEC00ADFF8C00480EDA8
:101EB000210ADFF8B80490ED210AB5EE400AF1EEF0
:101EC00010FA0DD5DFF8A40490ED210AF2EE040A11
:101ED00030EE200AB1EE400ADFF8900480ED210ACE
:101EE000207A617A51EA00200700BFB2152F4ADA42
:101EF000DFF8700490F83000002822D1BFB2B7F1AB
:101F00000A0000EE100AB8EEC00ADFF85C0480EDAB
:101F1000220ADFF8540490ED220AB5EE400AF1EEF1
:101F200010FA30D5DFF8400490ED220AF2EE040AF0
:101F300030EE200AB1EE400ADFF82C0480ED220AD0
:101F400021E0BFB2B7F10A0000EE100AB8EEC00AF5
:101F5000DFF8180480ED220ADFF8100490ED220A61
:101F6000B5EE400AF1EE10FA0DD5DFF8000490ED61
:101F7000220AF2EE040A30EE200AB1EE400ADFF83F
:101F8000EC0380ED220AA07AE17A51EA00200700F2
:101F9000BFB2152F49DADFF8CC0390F830000028E3
:101FA00022D1BFB2B7F10A0000EE100AB8EEC00AA3
:101FB000DFF8B40380ED270ADFF8AC0390ED270AC1
:101FC000B5EE400AF1EE10FA2FD5DFF89C0390ED44
:101FD000270AF2EE040A30EE200AB1EE400ADFF8DA
:101FE000880380ED270A20E0BFB2B7F10A0000EEB7
:101FF000100AB8EEC00ADFF8740380ED270ADFF894
:102000006C0390ED270AB5EE400AF1EE10FA0CD5FC
:10201000DFF8580390ED270AF2EE040A30EE200AAA
:10202000B1EE400AD14880ED270A207B617B51EA5E
:1020300000200700BFB2152F41DACA4890F83000DF
:1020400000281ED1BFB2B7F10A0000EE100AB8EEA8
:10205000C00AC54880ED280AC34890ED280AB5EEAD
:10206000400AF1EE10FA2AD5BF4890ED280AF2EEA8
:10207000040A30EE200AB1EE400ABB4880ED280A7F
:102080001DE0BFB2B7F10A0000EE100AB8EEC00AB8
:10209000B64880ED280AB54890ED280AB5EE400A0A
:1020A000F1EE10FA0BD5B14890ED280AF2EE040AD1
:1020B00030EE200AB1EE400AAC4880ED280AA07B41
:1020C000E17B51EA00200700BFB2152F41DAA54895
:1020D00090F8300000281ED1BFB2B7F10A0000EE20
:1020E000100AB8EEC00AA04880ED290A9E4890ED7B
:1020F000290AB5EE400AF1EE10FA2AD59A4890ED79
:10210000290AF2EE040A30EE200AB1EE400A96489F
:1021100080ED290A1DE0BFB2B7F10A0000EE100AF7
:10212000B8EEC00A914880ED290A904890ED290A3E
:10213000B5EE400AF1EE10FA0BD58C4890ED290A65
:10214000F2EE040A30EE200AB1EE400A874880ED34
:10215000290A207C617C51EA00200700BFB2152FBC
:1021600041DA804890F8300000281ED1BFB2B7F1A4
:102170000A0000EE100AB8EEC00A7B4880ED2E0A75
:10218000794890ED2E0AB5EE400AF1EE10FA2AD504
:10219000754890ED2E0AF2EE040A30EE200AB1EEF8
:1021A000400A714880ED2E0A1DE0BFB2B7F10A0067
:1021B00000EE100AB8EEC00A6C4880ED2E0A6B489B
:1021C00090ED2E0AB5EE400AF1EE10FA0BD56748F5
:1021D00090ED2E0AF2EE040A30EE200AB1EE400A2B
:1021E000624880ED2E0AA07CE17C51EA00200700C5
:1021F000BFB2152F41DA5B4890F8300000281ED19D
:10220000BFB2B7F10A0000EE100AB8EEC00A564895
:1022100080ED2F0A544890ED2F0AB5EE400AF1EEFA
:1022200010FA2AD5504890ED2F0AF2EE040A30EE4B
:10223000200AB1EE400A4C4880ED2F0A1DE0BFB2E3
:10224000B7F10A0000EE100AB8EEC00A474880ED68
:102250002F0A464890ED2F0AB5EE400AF1EE10FA2B
:102260000BD5424890ED2F0AF2EE040A30EE200A18
:10227000B1EE400A3D4880ED2F0A207D617D51EA94
:1022800000200700BFB2152F41DA364890F8300021
:1022900000281ED1BFB2B7F10A0000EE100AB8EE56
:1022A000C00A314880ED300A2F4890ED300AB5EE73
:1022B000400AF1EE10FA2AD52B4890ED300AF2EEE2
:1022C000040A30EE200AB1EE400A274880ED300AB9
:1022D0001DE0BFB2B7F10A0000EE100AB8EEC00A66
:1022E000224880ED300A214890ED300AB5EE400AD0
:1022F000F1EE10FA0BD51D4890ED300AF2EE040A0B
:1023000030EE200AB1EE400A184880ED300A310064
:10231000C9B2A07800F001F8F1BD70B504000D005D
:10232000AA2013490870AA2011494870EF201049CB
:10233000887002200E49C8700D4804710C48457120
:1023400000260020C0B2062805DA0949C0B2415C67
:102350008E19401CF6E70648867107210448FEF7EF
:102360000FF970BDC810FF1FD804FF1F1404FF1F12
:10237000E815FF1F012110F01F029140DFF898229D
:1023800040B2430942F8231070472DE9F843040096
:102390000D0064B2002C08D0022C2CD018D3042CD1
:1023A0004FD03BD3052C5FD071E0DFF8700200689E
:1023B00050F48060DFF8641208604FF440716620CA
:1023C00000F07AFA4FF44071672000F075FA5EE091
:1023D000DFF84802006850F40060DFF8401208603F
:1023E0004FF44071432000F067FA4FF440714420ED
:1023F00000F062FA4BE0DFF82402006850F48050ED
:10240000DFF8181208604FF44071632000F054FAAE
:102410004FF44071622000F04FFA38E0DFF8FC0121
:10242000006850F40050DFF8F41108604FF4407178
:10243000502000F041FA4FF44071512000F03CFA76
:1024400025E0DFF8DC01006850F48060DFF8D0118F
:1024500008604FF440714E2000F02EFA4FF44071A6
:102460004F2000F029FA12E0DFF8B401006850F4C0
:102470000060DFF8AC1108604FF44071892000F073
:102480001BFA4FF44071882000F016FAFFE7DFF8DE
:10249000940164B250F82400C07810F0F300DFF823
:1024A000841164B251F82410C870DFF8780164B266
:1024B00050F824008078DFF86C1164B251F82410D1
:1024C000887064B2002C02D064B2012C07D1DFF80E
:1024D000580100684FF47A714843814606E0DFF8FE
:1024E0004C0100684FF47A71484381462801B9FBDA
:1024F000F0F00600B6B2B6F5005F02DB41F6FF7001
:102500000600B9FBF5F0B6B2B0EB06100700BFB29B
:10251000202F03DBDC21464800F03BFA414864B23F
:1025200050F82400007810F0E0008046C6F3042044
:1025300050EA08003B4964B251F824100870394849
:1025400064B250F824004670364864B250F8240053
:10255000807A10F0E000804617F01F0050EA080073
:10256000304964B251F8241088722E4864B250F891
:102570002400007C50F088002A4964B251F82410ED
:102580000874284864B250F82400C07850F00C0059
:10259000244964B251F82410C870BDE8F183214A7F
:1025A00040B252F8202012799206F8D51D4A40B266
:1025B00052F8202092F907200A707047194A40B259
:1025C00052F8202012791206F8D5164A40B252F875
:1025D0002020D17170470100124849B250F8210003
:1025E000807D002801D0012000E00020704710B558
:1025F00004000C4864B250F82400C07850F0200069
:10260000084964B251F82410C87064B260002D30DB
:1026100040B2FFF7AFFE10BD00E100E0348004409F
:1026200028800440100EFF1F6C20FF1F7420FF1F26
:1026300084940000010040F10980F446404200F01B
:1026400005F851F000416047010000BF09D0B0FA21
:1026500080F18840C91CC1F58461090501EBD021D6
:1026600040057047B0B581EA030C0CF0004C40F215
:10267000FF7515EA11541DBF15EA1357AC42AF425E
:1026800039E0E41923EA455343F48013C90241F0C9
:10269000004141EA505EC7021100A7FB0202002878
:1026A0004FF00000EEFB01204FF00001E3FB07219B
:1026B00018BF42F00102401800214941E3FB0E011E
:1026C000A4F580640F0302D252004041494154F105
:1026D00001046CDD470872F1004250F1000051EB3B
:1026E0000451A1F580115CBF41EA0C01B0BD4CEA78
:1026F00005510020B0BD05EA1357AC4214BFAF42EC
:1027000041E050EA410E1CBF52EA430E02E061462E
:102710000020B0BD24423C441BD15FEA070EF6D036
:10272000090302BF01460020AEF1140EB1FA81F791
:10273000AEEB070401FA07FE0C37C7F1200100FADF
:1027400007F7C8404EEA000E23EA455343F48013CE
:10275000A2E733F00043B3FA83F704BFB2FA82FE74
:1027600077440B3FE41BB7F1200E2FBF02FA0EF3A4
:10277000BB40C7F1200E22FA0EFE38BF43EA0E031B
:10278000BA40641C82E750EA410E14BF52EA430E7D
:102790006FF000014FF4001717EB430F8ABF194683
:1027A00017EB410FB5E74CEA05510020B0BDD4F15D
:1027B0000104B4F120070FDAC4F12007520828BF42
:1027C00042F0010210FA07F501FA07F7E1BF2A43C8
:1027D000E0403843E1400FE0352C98DCC7F120049D
:1027E00052EA400220FA07F218BF42F0010231FA21
:1027F00007F0A1400A43002172F1004250F10000AD
:1028000051EB0C01B0BD50F8041B61B150F8042B22
:10281000D30744BFA9F101039A180023091F42F806
:10282000043BFAD1EFE770474FEAF17CBCF1E04C92
:102830002CBFBCF5001F11E05FEA4C0C34BFBCF1AB
:102840007F5F2EE05FEA9C0C4FEA0C1C4FEA3C0CC9
:10285000C10071F100414CEB50707047C90241EA70
:102860005051C00218BF41F0010141F000414FEA50
:102870006C50C0F10900212810D240EACC7CCCF188
:10288000200C11FA0CF070F10040CCF1200C21FA70
:102890000CF00CF0004C40EB0C0070474FEACC7091
:1028A0007047490011F5001F04D84FEACC10FF30E3
:1028B000C0057047C817704710B4294A12684FF412
:1028C0000073C0B24409A3401A43254B1A60254A3D
:1028D000C0B2431152F82320012310F01F04A3407B
:1028E000C2F8A0301F4AC0B2431152F82320C0B230
:1028F00010F01F0342F8231010BC704710B4184AA0
:1029000012684FF40073C0B24409A3401A43144B39
:102910001A60144AC0B2431152F82320012310F068
:102920001F04A340C2F8A03031F4E0610D4AC0B2E8
:10293000431152F82320C0B210F01F0352F8232095
:1029400012F4E0621143074AC0B2431152F8232047
:10295000C0B210F01F0342F8231010BC70470000F3
:1029600038800440FC0DFF1FDFF800F0AD0EFF1FA4
:10297000DFF800F0D10EFF1FBFF34F8F464800680D
:1029800010F4E0604549084343490860BFF34F8FA6
:10299000FEE738B504000D00002000F08DF82A0095
:1029A00021003F4800F0C0F8002000F0A2F84FF4EA
:1029B0007A7000F0E6F8F2E738B504000D00210067
:1029C00049B20420FFF7FAFD200032BD10B5002403
:1029D000042000F0EDF8042000F020F9002841D197
:1029E000002000F069F8042000F018F9012801D156
:1029F00001200400002000F07CF82A4800F094F840
:102A00004FF4FA7000F0BDF8E4B2012CEBD10420D1
:102A100000F004F90028E6D1042000F0FFF80028B7
:102A200006D1002000F065F8642000F0AAF8F3E772
:102A3000042000F0F3F8012806D1002000F059F836
:102A4000322000F09EF8F3E7174800F06DF8FFF72A
:102A50008BFF642000F095F80020FFF789FFFFF757
:102A60008BFFC0E710BD10B510480468012000F0CE
:102A700023F8012000F03DF80D48E4B20F2101FBDE
:102A80000402E4B221000B4800F04EF84FF47A70D3
:102A900000F077F8EDE700000CED00E00400FA0527
:102AA00018950000F09500007095000004ED00E01E
:102AB0006C06FF1FEC92000010B5040064B2042CF9
:102AC00007DA01220121174864B2205C00F0BEF849
:102AD0000EE0042004002000441E40B2002807D06D
:102AE000012201210F4864B2205C00F0AFF8F2E748
:102AF00010BD10B5040064B2042C05DA094864B2B4
:102B0000205C00F034F90CE0042004002000441E96
:102B100040B2002805D0034864B2205C00F027F9D9
:102B2000F4E710BD380EFF1F0EB400B582B003A944
:102B30000091024600AB0121034878440A3000F0BE
:102B400057F906BC5DF810FB856A000010B504005B
:102B5000002C15D0B4F1807F03D329210F48FFF753
:102B600018FF00200E4908600E48046000200E493E
:102B7000086005200A49086009480068C003FBD5C1
:102B800010BD10B504002000441E002804D00748E2
:102B90000068FFF7DBFFF6E710BD0000A093000020
:102BA00010E000E014E000E018E000E06C20FF1FFF
:102BB00010B5040064B2082C0DDA0022002122486E
:102BC00064B2205C00F042F803211F4864B2205C2C
:102BD000FFF794FE14E0082004002000441E40B2D9
:102BE00000280DD000220021174864B2205C00F0BC
:102BF0002DF80321144864B2205CFFF77FFEECE758
:102C000010BD10B50400104864B2205C00F0CCF890
:102C1000002801D1002000E0012010BD10B5040003
:102C2000200040B2FFF7EDFF00280AD10A20FFF78D
:102C3000A8FF200040B2FFF7E4FF002801D10020E8
:102C400000E0012010BD0000300EFF1F70B5040031
:102C50000D0016004FF480712000C0B2FFF72CFE6B
:102C60006DB2002D11D16048E4B2611150F821001D
:102C70005D49E4B2621151F822104969012214F051
:102C80001F039A409143416136E05748E4B2611115
:102C900050F821005449E4B2621151F822104969F8
:102CA000012214F01F039A4011434161F6B2002E35
:102CB00011D14D48E4B2611150F8210000680121A2
:102CC00014F01F02914088434749E4B2621151F861
:102CD0002210086010E04448E4B2611150F821006D
:102CE0000068012114F01F02914008433E49E4B2FC
:102CF000621151F82210086070BD38B504000D0053
:102D00003948E4B2611150F82100406914F01F0104
:102D10000200CA40D00703D463213448FFF739FECC
:102D2000EDB2002D11D13048E4B2611150F821000C
:102D30000068012114F01F02914088432A49E4B23F
:102D4000621151F82210086010E02748E4B26111C6
:102D500050F821000068012114F01F02914008433F
:102D60002149E4B2621151F82210086031BD10B55A
:102D700004001D48E4B2611150F82100406914F0CC
:102D80001F010200CA40D00703D47B211748FFF778
:102D900000FE1548E4B2611150F82100012114F041
:102DA0001F029140C16010BD10B504000E48E4B28E
:102DB000611150F82100406914F01F010200CA405F
:102DC000D00703D58C210948FFF7E3FD0648E4B29C
:102DD000611150F82100006914F01F010200CA407F
:102DE00012F0010010BD0000840DFF1F14940000BC
:102DF0002DE9F04FA1B08246002017461D460291F2
:102E00000B900DF1440B6FF000490AE017F8011B1D
:102E10000298D0470290002800F0A8820B98401C2E
:102E20000B90387808B90B98A2E22528EED1002043
:102E3000059006900790089009900A9001E040F0F4
:102E4000010017F8011F2029F9D023290DD02B29C3
:102E500004D02D2906D030290AD00CE040F0020021
:102E600080B2EEE740F00400FAE740F00800F7E730
:102E700040F01000F4E72A290ED12968296051F8A2
:102E8000042B2960002A0D9204D5514240F0040021
:102E90000D9180B27F1C11E000210D9109E00D9988
:102EA000494505D001EB810302EB430130390D9117
:102EB0007F1C3A78A2F130010A29F0D339782E2903
:102EC00003D04FF0FF310C911DE017F8011F2A29A4
:102ED00007D1296829607F1C51F8042B29600C92C6
:102EE00011E000210C9109E00C99494505D001EB56
:102EF000810302EB430130390C917F1C3A78A2F137
:102F000030010A29F0D3ADF838000FF65C4039786B
:102F100000F038FE08B117F8010B8DF83A009DF863
:102F20003A00682802BF39786829622005D06C28E9
:102F300004BF38786C2803D171208DF83A007F1CCB
:102F400011A8049017F8014BB4F125002AD01C38C1
:102F500000F0CC80001F022840F2C880133800F037
:102F6000EE80093800F0C280801E00F04F81401EC4
:102F700000F02481401E022840F2B880001F00F0BB
:102F80001D81401F00F08380401E00F0D880401E4D
:102F900029D0C01E0CD0801E00F0D180C01E00F0D1
:102FA000CE803DE10120059025208DF8440043E1CD
:102FB0002868286050F8044B28600394DDF83080BE
:102FC000B8F1000F04D5204600F0E8FD804607E088
:102FD00042460021204600F0FDFD08B1A0EB0408A8
:102FE000CDF8188028E1296829604FF03C0851F895
:102FF000040B29600021CDE9000111A80390DDE94F
:103000000001049C11B908B90C9AC2B10206120F52
:10301000A0EB02123032D2B23A2AA8BF27320009FE
:10302000A8F1010340EA017009091A5508BF0028F8
:10303000984604D0039A08EB04039A42E6D308EBBF
:1030400004000390C8F13C010C980691814209DA12
:10305000401A08904FF6EF71BDF838000840ADF8FF
:103060003800E9E0002840F1E7809DF8380000F0E2
:103070001400102840F0E0800D98059A801A089AF4
:10308000801A401A0128C0F2D7800890D4E09DF839
:103090003A0062281AD0682806D06A280CD06C281A
:1030A0001CD0712808D019E02868286050F8041B4B
:1030B00028600B980880BFE02868286050F8042B2F
:1030C00028600B98C117C2E90001B5E028682860A4
:1030D00050F8041B28600B980870ADE02868286041
:1030E00050F8041B28600B980860A5E02868C01DF4
:1030F00020F007022A60D2E9000108322A60CDE9F7
:103100000001002903D5012005902D200CE0BDF819
:103110003800810703D5012005902B2004E0C0076B
:1031200004D50120059020208DF84400059911A8B0
:1031300008180390214600A800F0D8F97CE09DF81B
:103140003A206C2A0DD0712A18BF6A2A09D1286842
:10315000C01D20F007032B60D3E9000108332B606A
:1031600005E02968296051F8040B29600021CDE9A8
:103170000001682A08BF80B207D0622A08BFC0B227
:1031800003D0742A18BF7A2A02D10021CDE90001A8
:103190009DF83800000730D5DDE90001002908BF9F
:1031A00000282AD044F02000782826D130208DF83D
:1031B00044008BF80140022005901EE09DF83A0083
:1031C000294600F0D8F8CDE90001002904DA059875
:1031D000411C05912D210EE0BDF83800810704D572
:1031E0000598411C05912B2105E0C00705D50598E0
:1031F000411C0591202100F80B10059911A8081811
:103200000390214600A800F0EDF815E0012005909C
:103210002868286050F8041B28608DF844100BE0E3
:10322000012005902520002C8DF8440004D005983D
:10323000411C059100F80B400D980599401A08991A
:10324000401A0699401A0999401A0799401A0A9992
:10325000A0EB01089DF8380040070FD420208DF81E
:103260004000002408E0012310AA00A9504600F005
:1032700064FC00287AD1641C4445F4DB059C11AE43
:103280000AE016F8011B0298D047029000286DD082
:103290000B98401C0B90641E002CF2D130208DF84E
:1032A00040000026089C08E0012310AA00A950460F
:1032B00000F043FC002859D1761CA642F4DB069CA2
:1032C000039E0AE016F8011B0298D04702900028DE
:1032D0004CD00B98401C0B90641E002CF2D1302077
:1032E0008DF840000026099C07E0012310AA00A9E0
:1032F000504600F022FCC8BB761CA642F5DB0398C2
:103300000699079C0E1809E016F8011B0298D04791
:10331000029058B30B98401C0B90641E002CF3D104
:1033200030208DF8400000260A9C07E0012310AAF7
:1033300000A9504600F001FCC0B9761CA642F5DB9E
:103340009DF8380040077FF56CAD20208DF84000D7
:10335000002400E0641C4445BFF663AD012310AABD
:1033600000A9504600F0E9FB0028F3D04FF0FF30F1
:1033700021B0BDE8F08F622826D068281DD06A28C9
:1033800008D06C2827D0712804D0742823D07A283C
:103390000CD020E00868C01D20F007000860D0E9CC
:1033A0000023083008601946104670470A680A6012
:1033B00052F8040B0A60002170470A680A6052F84C
:1033C000040B0A6000B20BE00A680A6052F8040BB2
:1033D0000A6040B204E00A680A6052F8040B0A600E
:1033E000C11770472DE9FA4E05460A462F696F2A24
:1033F00008BF082405D041F02000782814BF0A2413
:1034000010243C26D5E90001642A18BF692A8146A8
:103410008A4605D1002903DAD9F100096AEB4A0A84
:10342000BAF1000F08BFB9F1000F0CD1286B50B9E9
:10343000082C36D195F83800000732D530203B26CD
:1034400087F83B002DE0E31748465146224600F03E
:10345000EDFBA4FB0023A9EB02023032D2B2A6F1AD
:10346000010B3A2A5E4603DB9DF80030513B9A1867
:1034700081465FEA010A0BF8072008BFB9F1000F87
:1034800003D0E868F1198842DDD3082C09D195F8FA
:103490003800000705D5F05D302802D0761E3020B8
:1034A000F055C6F13C00A861F119E960296B88422A
:1034B00008DA081A28624FF6EF71288F084028872B
:1034C000BDE8F38E00290ED595F8381001F01401EF
:1034D000102908D1696B6A69891A2A6A891A081A37
:1034E0000128A8BF2862BDE8F38E00002DE9F24F45
:1034F00004468EB0D4E90001CDE9020104AF9DF885
:10350000380040F0200BBBF1610F0AD0206B00287F
:1035100048BF062004D408BFBBF1670F01D10120CA
:1035200020636168C1F30A5040F2FF7290421CD1DF
:10353000080304BF2068002809D10320A0619DF87A
:10354000380061381A2836D30FF2306108E00320C2
:10355000A0619DF8380061381A2829D30FF2146150
:10356000E068032200F0DAFBBEE1012816DA20460B
:1035700000F00FFC012811DB00250020BBF1610FDA
:1035800020D1E168302201F8012B4A1CE2609DF84D
:103590003820612A0CBF782258220FE0626840F27E
:1035A000FE3161F31E52451A62604FF0FF30E5E7CD
:1035B0000FF2BC51D4E70FF2C051D1E70A70616934
:1035C000891C616110B90026002584E1BBF1610FFF
:1035D00040F09780206B00284CBF2126461CDDE977
:1035E0000201D4E900AB0022002300F0F3FB36B265
:1035F0003ABF8BF00040CDE902A0CDE902AB06F165
:1036000001082D1F8DF810200DF1110700E0C71DD6
:10361000B8F1010F33DBDDE902010022002300F0E5
:10362000F1FB2CD21C2102A800F004FCDDE9020110
:1036300000F08CFCA8F10708B8F1010F814609DB06
:10364000FEF7F8FF02460B46DDE9020100F0AAFC96
:10365000CDE90201F81D072105E009F00F0200F88D
:10366000012D4FEA2919B9F1010F01DB491EF4D5EB
:10367000491E5CBF002200F8012DF9D5C7E70DF106
:103680001100391AB142B8BF0E4636B230000DF102
:1036900011072FD4884206DA04A94118497808296D
:1036A000A8BF0F2100DA002104AA821800E0761ECC
:1036B00012F80139401E8B42F9D00F2904D104A918
:1036C00041184A78521C4A70002802D504AF761C73
:1036D0002D1D36B2701E0DD4C1190A783032D2B207
:1036E0003A2A03DB9DF838303A3B9A18401E01F81D
:1036F0000129F2D5206B002840F1ED80701E206377
:10370000E9E0DDE902010022002300F063FB3CBF99
:1037100081F00041CDE902012DB247F29750684394
:103720004B49DFF8309190FBF1F52DB2C5F1070A56
:10373000BAF1010F90461CDBDDE902675FEACA704F
:1037400007D542464B4630463946FEF78BFF0646C4
:103750000F464FEA6A0A4046494642464B46FEF744
:1037600081FFBAF1000F80468946E7D1CDE90267B3
:1037700024E0CAF1000A0026374F14E05FEACA705D
:1037800007D542464B4630463946FEF76BFF0646A4
:103790000F464FEA6A0A4046494642464B46FEF704
:1037A00061FF80468946BAF1000FE7D1DDE90201E9
:1037B00032463B4600F0B6FCCDE90201BBF1660F94
:1037C000216BDFF898900CBF05F10A00062046181F
:1037D000142EA8BF132630208DF810000DF111070C
:1037E000012E3DDBDDE9020100F0C6FB07F1080117
:1037F00004220A23B0FBF3F303EB8307A0EB47009B
:10380000303001F8010D0A20B3FBF0F000EB800727
:10381000A3EB47033033521E01F8013DE9D1083EC6
:10382000012E01F10807DBDBDDE9020100F0A4FB5A
:10383000FEF70AFF02460B46DDE9020100F0B2FB8B
:1038400000224B46FEF70EFFCDE90201CAE700BF9A
:10385000A0860100000024400000F03F84D797417B
:103860000DF11100381A0DF1110702E0401E6D1E16
:103870007F1C39783029F9D0BBF1660F02D12DB207
:10388000691C04E0BBF1650F0CBF01210021226B14
:103890008E1836B2B042B8BF064636B231001AD4DE
:1038A000814204DAC85D3528A8BF392000DA30200B
:1038B000CA19521E00E0761E12F80139491E8342D1
:1038C000F9D0392802D1C85D401CC855002902D55D
:1038D0007F1E761C6D1C2DB29DF83810009533B2FA
:1038E0003A46204600F003F80FB0BDE8F08F2DE90E
:1038F000F04786B006468A4690461D4600F053FDC6
:10390000406A376B90F80090012D02DA01250FF222
:1039100070284AF02000BDF93840662808BF641CB2
:1039200012D0672876D114F1040F79DBBC4277DA24
:1039300096F83800641C000702D4BD42B8BF2F4679
:1039400024B23F1B48BF002724B2F068B169012CA4
:1039500021DA4A1C30230B54012F03DA96F8381071
:10396000090702D502F80090521CE742B8BF7C421A
:1039700024B26142E719AF42B261B8BF3D467162FD
:103980002DB2F5612A46B3694146181800F0C6F910
:10399000781BB062BAE00818A54216DA2A464146FA
:1039A00000F0BCF9B1696918601BB161012F706248
:1039B00003DA96F83800000705D5F06801F80090A2
:1039C000F069401CF061B762A0E02246414600F079
:1039D000A5F9B06920182D1B012F03DA96F83810CD
:1039E000090703D5F16800F80190401CB0612DB2C1
:1039F000AF42B8BF3D46F068B3692DB22A4604EB2A
:103A00000801181800F08AF9B0692818B061781B0D
:103A100070627BE0BAF1610F14D14FF0700A16E0CA
:103A2000BD4204DA96F83810090758BF2F467F1EAA
:103A300048BF0027BAF1670F14BF4FF0450A4FF097
:103A4000650A04E0BAF1410F08BF4FF0500AB169AE
:103A5000F06818F8013B0B544A1C012F05DA96F860
:103A60003810090758BFB26115D502F80090531CF1
:103A7000012FB3610FDB6D1E2DB2AF42B8BF3D46C3
:103A80002DB22A464146181800F048F9B0692818A6
:103A9000B061781B7062F068B16901EB000820002A
:103AA00008F801AB03D42B2008F8010B03E02D210B
:103AB00008F8011B6442002502AF08E00A2200A8B2
:103AC00000F08AFC019807F8010B6D1C009C21B2E4
:103AD0000129F3DA022D06DA4AF02000652804BF36
:103AE000302008F8010B4DB9302008F8010B07E031
:103AF0006D1E02A8285C303008F8010B012DF7DAA2
:103B0000F068B1690818A8EB0000F06196F8380079
:103B100000F0140010280DD17069B1690818716A9D
:103B20000818F1690818B16A0818716B8842BCBF9F
:103B3000081A306206B0BDE8F087F8B504460D46B5
:103B400016461F46002004E0E86A401CE8627F1E1B
:103B5000002047B116F8011BA868A047A8600028FC
:103B6000F2D14FF0FF30F2BD686A6C747A4C0000FD
:103B70006E616E004E414E00696E6600494E460011
:103B8000300000000278C9B28A421AB11CBF10F896
:103B9000012FF9E718BF00207047000000F1010372
:103BA000810704D010F8011B89B18107FAD102689E
:103BB000B2F10131914311F0803F04BF50F8042F5E
:103BC000F6E710F8011B11B110F8011BFBE7C01A52
:103BD00070470000C9B2830706D0521E22D310F8E6
:103BE000013B9942F7D11FE0083A13D302F10402D6
:103BF00041EA012141EA014150F8043B121F21BF73
:103C00004B40A3F1013C2CEA030C1CF0803FF3D0A5
:103C1000C9B2001F083210F8013B521E28BF91EABA
:103C2000030FF8D818BF0120401E70471B4213D164
:103C3000094236D12AB18446B0FBF2F002FB10C231
:103C4000704700F0D1BBFCD30022002370470B006B
:103C50000200002100207047904271EB030CF6D364
:103C600070B5B1FA81F4B3FA83F52C1BA340C4F10B
:103C7000200532FA05F63343A2405FF00046E640E5
:103C800002E05B085FEA3202841A71EB030524BF8D
:103C9000204629467641F4D302000B003000002173
:103CA00070BD012ACFD970B5140C20D0B1FA81F4BF
:103CB000B2FA82F5C4F120046419B4F12006D6D317
:103CC000B2405FF00044F440002502E052085FEA91
:103CD0003303C61A71EB020E24BF304671466441AD
:103CE0006D41F3D302000B002000290070BD0C468B
:103CF000B1FBF2F102FB11452D0445EA1045B5FB7D
:103D0000F2F402FB145580B240EA0545B5FBF2F02F
:103D100002FB105240EA044070BD000062B38B0702
:103D200008D0521E11F8013B00F8013B00F024803E
:103D30008B07F6D1830740F0208000BF103A07D3ED
:103D400030B4B1E83810103AA0E83810F9D230BCDD
:103D5000530724BFB1E80810A0E8081044BF51F889
:103D6000043B40F8043BD20724BF31F8022B20F873
:103D7000022B44BF0B7803707047083A07D3B1E8B1
:103D80000810083A40F8043B40F804CBF7D2530738
:103D9000E4E730B4436803F0004201211B031B0B2E
:103DA000436004BF0368002B08D10DE00368DD0FFA
:103DB00045EA440444605B000360491E4468E30232
:103DC000F4D523031B0B436043681A434260084643
:103DD00030BC70474FF4001C1CEB410F94BF1CEB30
:103DE000430F09E041EA030C50EA4C0C52EA0C0C78
:103DF00003D2994208BF9042704714BF8B4282425F
:103E0000704700004FF4001C1CEB410F94BF1CEBEB
:103E1000430F09E041EA030C50EA4C0C52EA0C0C47
:103E200003D28B4208BF8242704714BF994290422E
:103E30007047000070B504460D466068C0F30A5034
:103E400040F2FF71884207D16068000304BF206818
:103E5000002817D0022070BD20B92046FFF799FF37
:103E6000012868DA012D0FDB40F2FF71091A8D423B
:103E70000AD3606800284CBF9FED300B9FED310BDB
:103E800084ED000B012070BD4142A942616806DA51
:103E90006FF31E51401941EA0050606042E0401E3D
:103EA00063684519012205F1350062F31F53352877
:103EB00001F00041636003D361600020206070BDA9
:103EC000002215F11F0F04DA22682360002020353C
:103ED0006060684214D0521E25689241C0F12003F0
:103EE000D2439D4045EAD272256825FA00F66568FE
:103EF00005FA03F333432360636823FA00F5656032
:103F000060680843B2F1004F606003D80DD120789B
:103F1000C0070AD52068401C2060206828B9606866
:103F2000401C60604FF0FF3070BD6068884204BF85
:103F300020680028F6D1002070BD00BF00000000FE
:103F40000000F0FF000000000000F07FF446400D8C
:103F500040EAC120490006D200F014F8004248BFF0
:103F60006FF00040604700F00DF84FF000418842CC
:103F70008CBF084640426047400D40EAC1204900DE
:103F800080F00D8040F00040490DA1F58061491C92
:103F900005D4D1F11F0154BFC840C01770474FF07E
:103FA0000000704770B44FF0004591EA030F44BF22
:103FB0006B4000F025BA00BF841A71EB030604D2EF
:103FC0006E40001BB141121973414FF4001C1CEBF1
:103FD000410F34BF7CEB430684E00C0DA4EB135679
:103FE000362E7DDC012E43DC45EAC32343EA5253DF
:103FF00012BFD20292025B08240545EAC12141EAC0
:104000005051D2EBC020994125D407D1B0FA80F6A7
:1040100010FA06F164D00020203608E0B1FA81F6EB
:10402000B140C6F1200220FA02F21143B0404FEA3B
:10403000F474B4EB465434F001064FEA74040AD821
:10404000D6F50016760D04F00044F04061FA06F251
:104050005040F1404840C00A40EA415021F0004140
:1040600028BF5FEA500550F1000044EBD12137E052
:1040700045EAC323DB0A45EAC121C90AB6F1200596
:104080000EDD42EA0242120CC5F1200603FA06F6E2
:10409000EB4042EA06056D42984161F100010DE0F6
:1040A00062FA06F5F240554063FA06FC82EA0C0219
:1040B000F3405A406D42904161EB030111F4801FBF
:1040C00005D1641E620502D06D004041494121F4D2
:1040D0008011430875F1004350F1000041EB045199
:1040E00070BC70471CEB410F15D223F0004352EA1D
:1040F00043060BD04FEA4C0CBCEB410F04D80C0D1F
:10410000661E342EB7DDEBE7801A994150EA41066E
:1041100008BF0021E4E708BF1CEB430F28BF6FF086
:104120000001DDE7F0B540F2FF7581EA030C0CF009
:10413000004C15EA11541DBF15EA1357AC42AF42AB
:10414000E5E0BC41C1F31301C3F31303801A9941A5
:1041500043F4801304D2641E400049418018594141
:10416000C90241EA5051B1FBF3F603FB1611A2FB61
:104170000675D7EBC020A94102D2761E801859419E
:10418000C90241EA5051B1FBF3FE03FB1E11A2FB31
:104190000E75D7EBC020A94103D2AEF1010E8018F5
:1041A0005941890241EA9051760546EA8E2EB1FBCB
:1041B000F3F603FB1611A2FB0675D7EB8020A9418D
:1041C00002D2761E80185941C90241EA50514EEA86
:1041D000060EB1FBF3F603FB1611A2FB0675D7EB37
:1041E000C020A94102D2761E80185941C90241EA75
:1041F0005051B1FBF3F703FB1711A2FB0735D3EBCB
:10420000C020A94167F100070CBF004247F0010739
:1042100066F3D5274FEA1E31B80814F5806412DD25
:10422000BD0775F1004250EB0E5051EB045111F5F2
:10423000801F5CBF41EA0C01F0BD4CF07F6141F092
:10424000E0410020F0BDBD076D0840EA0E5041F48A
:104250008011D4F10104B4F120060ADAC4F1200679
:104260000200E04001FA06F3E1401843B240154372
:104270000EE0342C13DCC6F1200445EA40056D083D
:1042800020FA06F2154321FA06F0A1400D43002161
:1042900075F1004250F1000051EB0C01F0BD00201F
:1042A0005FEA0C01F0BDCFB992185B41B3FA83F716
:1042B00004BFB2FA82F6BF190B3FB7F120062FBF39
:1042C00002FA06F3BB40C7F1200622FA06F638BF11
:1042D0003343BA401CB1E419641E33E77F4231F026
:1042E0000041B1FA81F404BFB0FA80F6A4190B3C86
:1042F000B4F120062FBF00FA06F1A140C4F1200658
:1043000020FA06F638BF3143A0403C1B1AE7AC4206
:104310001ABF05EA1357AF4212E050EA41061CBF2C
:1043200052EA4306BFE750EA4107304661461CBFE8
:1043300041EA0551F0BD52EA430C08BFC143F0BD4C
:1043400000204FF4001616EB410F98BF16EB430FF9
:1043500008BF16EB410F24BFC14305E016EB430F26
:104360000CBF61464CEA0551F0BD000080B5134812
:1043700000F0B0F80FF24801016041608160C16057
:104380000161416181610FF23C0242628162C1625E
:10439000016341630FF2300282630FF23402C263A1
:1043A0000164416401BD10B5044800F093F804466F
:1043B000206808B9FFF7DAFF204610BDD420FF1FA0
:1043C000000000002E00000066616C7365000000B4
:1043D000747275650000000091FBF2F303FB12118B
:1043E000C0E90031704700007047000070B44FF022
:1043F000004591EA030C44BF6B40FFF7DDBD00BFF1
:10440000841A71EB030603D2001BB14112197341E8
:104410004FF4001C1CEB410F34BF7CEB430443E022
:104420000C0DA4EB1356352E50DC45EAC323DB0AF2
:1044300045EAC121C912B6F120050DDD63FA05F682
:10444000EB4086EA0305124218BF45F00105C0188B
:1044500051F100010CD213E062FA06F5F24055402A
:10446000F3415A40B340F3405A408018594107D3B2
:1044700049085FEA30005FEA350528BF45F00105CD
:1044800001F58011420875F1004250F1000041EB46
:10449000045170BC4FF4001C1CEB410F38BF704737
:1044A0000020090D090570471CEB410F10D252EA9C
:1044B00043060BD0BCEB410F05D80C0DAB43661E79
:1044C000342EB5DD02E0AB438018594170BC704713
:1044D00070BC70477047000010B400210022002318
:1044E0001900C9B2022926DA00231A00D2B2142A0E
:1044F00011DAC9B2802303FB0103D2B20024D454E1
:10450000C9B2802303FB0103D2B29B1A002483F8B3
:104510007F40521CEAE714231A00D2B26B2A08DA51
:10452000C9B2802303FB0103D2B2FF24D454521C2E
:10453000F3E7491CD5E700231900C9B280290BDA3B
:10454000FF23C9B20C1884F800310023C9B20C183B
:1045500084F88031491CF0E74023A0F81832162374
:10456000A0F81A3200231900C9B22D291FDA00233E
:10457000C9B210EB4104A4F81C320023C9B210EBFD
:104580004104A4F8D0324023C9B210EB4104A4F88E
:1045900076320023C9B210EB4104A4F82A33002379
:1045A000C9B210EB4104A4F88433491CDCE70023B2
:1045B00080F8F233002380F8F33300231900C9B2E6
:1045C0000A2907DA3223C9B210EB4104A4F8DE331A
:1045D000491CF4E74623A0F8F4331C23A0F81C324E
:1045E0006423A0F8D03200231900C9B204290BDAE1
:1045F000FF23C9B20C1884F810320023C9B20C187A
:1046000084F81432491CF0E700231900C9B21029BC
:1046100006DA0023C9B20C1884F80032491CF5E709
:10462000002380F8F633002380F8F733002380F866
:10463000F833002380F8F933002380F8FA3310BCF4
:1046400070472DE9F043002200230024FF25FF26B8
:1046500000275FF0960C5FF0960E5FF00008424670
:10466000D2B2802A6FDAD2B212F80080D2B212EB44
:10467000000999F8809019EB08081FFA88F85FEA9A
:104680005808D2B212EB000989F80081D2B212EBBD
:10469000000898F80081DBB2434505D2D2B212EB94
:1046A000000898F800814346D2B212EB000898F84F
:1046B0000081EDB2A84505D2D2B212EB000898F8FD
:1046C00000814546D2B212F80180D2B212EB010944
:1046D00099F8809019EB08081FFA88F85FEA5808E3
:1046E000D2B212EB010989F80081D2B212EB0108B3
:1046F00098F80081E4B2444505D2D2B212EB010829
:1047000098F800814446D2B212EB010898F8008173
:10471000F6B2B04505D2D2B212EB010898F800818A
:104720004646D2B212F80080D2B212EB000989F8E4
:104730008080D2B212F80180D2B212EB010989F85E
:104740008080521C8CE790F8128280F8138290F8D7
:10475000118280F8128290F8108280F8118290F80D
:10476000168280F8178290F8158280F8168290F8E9
:10477000148280F8158280F8103280F8145291F873
:10478000128281F8138291F8118281F8128291F8D5
:10479000108281F8118291F8168281F8178291F8BF
:1047A000158281F8168291F8148281F8158281F8B9
:1047B000104281F8146290F8138290F8129219EB6B
:1047C000080890F8119218EB090890F8109218EB6D
:1047D000090890F8179218EB090890F8169218EB50
:1047E000090890F8159218EB090890F8149218EB44
:1047F00009081FFA88F85FEAD8084746BFB2FF2FBA
:1048000002DAB846C44602E04FF0FF08C44691F809
:10481000138291F8129219EB080891F8119218EB93
:10482000090891F8109218EB090891F8179218EB03
:10483000090891F8169218EB090891F8159218EBEF
:10484000090891F8149218EB09081FFA88F85FEA32
:10485000D8084746BFB2FF2F02DAB846C64602E084
:104860004FF0FF08C6465FFA8CFCBCF1B40F02DAC9
:104870005FF0B40C07E05FFA8CFCBCF1C40F02DB04
:104880005FF0C30CFFE75FF000084246D2B2802A17
:1048900027DAD2B212EB000898F800815FFA8CFC9C
:1048A000E04502D35FF0010801E05FF00008D2B2FA
:1048B00012EB000989F88081D2B212EB010898F856
:1048C00000815FFA8EFEF04502D35FF0010801E03F
:1048D0005FF00008D2B212EB010989F88081521C06
:1048E000D4E7BDE8F08310B4002200231A00D2B24E
:1048F0007F2A40DAD2B2131893F88131002B19D1F4
:10490000D2B2131893F88131D2B2141894F88041BE
:10491000A3420FD0D2B2131893F88131D2B2141837
:1049200094F88241A34205D00123D2B2141884F82E
:1049300081311EE0D2B2131893F88131012B18D1C6
:10494000D2B2131893F88131D2B2141894F880417E
:10495000A3420ED0D2B2131893F88131D2B21418F8
:1049600094F88241A34204D00023D2B2141884F8F0
:104970008131521CBBE710BC704710B400220023E9
:104980001A0012B2802A0DDA12B2135C12B2141895
:1049900084F8803012B2535C12B2541884F880301C
:1049A000521CEEE710BC7047F8B504000D0016006D
:1049B00000270520070029002000FFF7DEFF7F1EEB
:1049C000FFB2002FF7D12D20070029002000FFF7AC
:1049D00038FE29002000FFF786FF3100200000F09C
:1049E0005DF8280000F0D0F97F1EFFB2002FECD157
:1049F000B4F8D002B4F81C12401AA4F8F403B5F8C5
:104A0000D002B5F81C12401AA5F8F403F1BD70B538
:104A100004000D00160029002000FFF712FE2900F7
:104A20002000FFF760FF3100200000F037F8280079
:104A300000F0AAF92900200000F01BFB002828D074
:104A4000022813D026D2B4F87602B4F81A12081845
:104A5000A4F87602104800780F49487004200E49E7
:104A6000087001214320FEF748F913E0B4F87602FC
:104A7000B4F81A12401AA4F87602074800780649DA
:104A8000487004200449087001214320FEF735F9DD
:104A900000E0FFE770BD00001417FF1FF0B5B0F98C
:104AA00076221300002400250026002780F8F873E2
:104AB000002780F8F973002780F8F773012780F842
:104AC000F273012780F8F3731E0036B2042E18DB50
:104AD00036B2371897F87E71002F10D136B23718DA
:104AE00097F87F71002F0AD136B2371897F8807186
:104AF000012F04D13400002780F8F27301E0761E04
:104B0000E3E724B2032C02D1012780F8F2731E00E0
:104B100036B27D2E18DA36B2371897F88071012F29
:104B200010D136B2371897F88171002F0AD136B2FA
:104B3000371897F88271002F04D13500002780F8CC
:104B4000F37301E0761CE3E72DB27D2D02D101273E
:104B500080F8F3732C273E0036B2012E33DB36B2D9
:104B600010EB4607B7F81A7236B210EB460CACF8E9
:104B70001C7236B210EB4607B7F8CE7236B210EBA5
:104B8000460CACF8D07236B210EB4607B7F8747228
:104B900036B210EB460CACF8767236B210EB460724
:104BA000B7F8287336B210EB460CACF82A7336B25D
:104BB00010EB4607B7F8827336B210EB460CACF830
:104BC0008473761EC8E790F8F273012F20D190F815
:104BD000F373002F1CD1012780F8F773B0F8DE7350
:104BE000EF1BA0F81C72A0F8D052B0F91872B0F9FF
:104BF0001CC2B0F9D0E21EEB0C0CB7EB6C0F07DA5D
:104C0000B0F81E72A0F81C72B0F8D272A0F8D07280
:104C100090F8F273002F20D190F8F373012F1CD17C
:104C2000012780F8F773B0F8DE733F19A0F8D0724F
:104C3000A0F81C42B0F91C72B0F9D0C21CEB0707F7
:104C40007F10B0F918C2674507DAB0F81E72A0F8F5
:104C50001C72B0F8D272A0F8D07290F8F773002FDF
:104C600038D190F8F273002F10D190F8F373002F21
:104C70000CD1A0F81C42A0F8D052002780F8F8739D
:104C800090F8F6737F1C80F8F67323E0012780F814
:104C9000F8731BB21F1897F88071012F17D11BB240
:104CA0001F1897F87B71012F11D11BB21F1897F8AD
:104CB0008571012F0BD1012780F8F973B0F82072AC
:104CC000A0F81C72B0F8D472A0F8D07202E00027ED
:104CD00080F8F67390F8F873012F54D0B0F9D072C1
:104CE000B0F91CC2B7EB0C07142F4CDBB0F91C72E7
:104CF000B0F9D0C21CEB07075FF0020C97FBFCF782
:104D0000A0F87672B0F87672B0F818C2B7EB0C075C
:104D1000A0F82A73B0F82A73B0F83AC3B7EB0C07BF
:104D2000A0F884732DB224B22F1B5B2F2BDAB0F8BE
:104D3000EE73A0F8F073B0F8EC73A0F8EE73B0F86F
:104D4000EA73A0F8EC73B0F8E873A0F8EA73B0F86F
:104D5000E673A0F8E873B0F8E473A0F8E673B0F86F
:104D6000E273A0F8E473B0F8E073A0F8E273B0F86F
:104D7000DE73A0F8E073B0F8D072B0F81CC2B7EBE5
:104D80000C07A0F8DE73F0BDF0B4B0F976120A009B
:104D9000002300240025002680F8F863002680F810
:104DA000F963002680F8F763012680F8F263012694
:104DB00080F8F36315002DB2042D18DB2DB22E18E8
:104DC00096F87E61002E10D12DB22E1896F87F61D4
:104DD000002E0AD12DB22E1896F88061012E04D132
:104DE0002B00002680F8F26301E06D1EE3E71BB2A2
:104DF000032B02D1012680F8F26315002DB27D2D20
:104E000018DA2DB22E1896F88061012E10D12DB22D
:104E10002E1896F88161002E0AD12DB22E1896F820
:104E20008261002E04D12C00002680F8F36301E09B
:104E30006D1CE3E724B27D2C02D1012680F8F363D8
:104E40002C2635002DB2012D33DB2DB210EB45069B
:104E5000B6F81A622DB210EB4507A7F81C622DB206
:104E600010EB4506B6F8CE622DB210EB4507A7F859
:104E7000D0622DB210EB4506B6F874622DB210EB7D
:104E80004507A7F876622DB210EB4506B6F8286301
:104E90002DB210EB4507A7F82A632DB210EB45069B
:104EA000B6F882632DB210EB4507A7F884636D1E38
:104EB000C8E790F8F263012E20D190F8F363002E3A
:104EC0001CD1012680F8F763B0F8DE63A61BA0F8BA
:104ED0001C62A0F8D042B0F91862B0F91C72B0F9A7
:104EE000D0C21CEB0707B6EB670F07DAB0F81E62FB
:104EF000A0F81C62B0F8D262A0F8D06290F8F26319
:104F0000002E1FD190F8F363012E1BD1012680F8EB
:104F1000F763B0F8DE63F618A0F8D062A0F81C3290
:104F2000B0F91C62B0F9D072BE197610B0F91872DF
:104F3000BE4207DAB0F81E62A0F81C62B0F8D26276
:104F4000A0F8D06290F8F763002E3DD190F8F2639C
:104F5000002E0BD190F8F363002E07D1A0F81C327D
:104F6000A0F8D042002680F8F8632DE0012680F8F2
:104F7000F86312B2161896F88061012E0FD112B2A2
:104F8000161896F87D61012E09D112B2161896F8FE
:104F90008361012E03D1012680F8F96314E012B277
:104FA000161896F88061002E0ED112B2161896F8D7
:104FB0007B61002E08D112B2161896F88561002E7A
:104FC00002D1002680F8F66390F8F863012E4ED0E7
:104FD000B0F9D062B0F91C72F61B142E47DBB0F9A1
:104FE0001C62B0F9D072BE19022796FBF7F6A0F842
:104FF0007662B0F87662B0F81872F61BA0F82A63F1
:10500000B0F82A63B0F83A73F61BA0F8846324B2B0
:105010001BB2E61A792E2ADAB0F8EE63A0F8F06334
:10502000B0F8EC63A0F8EE63B0F8EA63A0F8EC63C4
:10503000B0F8E863A0F8EA63B0F8E663A0F8E863C4
:10504000B0F8E463A0F8E663B0F8E263A0F8E463C4
:10505000B0F8E063A0F8E263B0F8DE63A0F8E063C4
:10506000B0F8D062B0F81C72F61BA0F8DE63F0BC9A
:105070007047020092F8F803002849D191F8F8032C
:10508000002845D1B2F9DE03B2F9EA33C01A10F1B3
:105090000C0F3BDAB2F91C02B2F92832C01A0A2806
:1050A00015DBB2F9D002B2F9DC32C01A012805DBF7
:1050B000B2F9D002B2F9DC32C01A04E0B2F9DC0273
:1050C000B2F9D032C01A052801DA012021E0B2F984
:1050D000DC02B2F9D032C01A0A2815DBB2F91C0280
:1050E000B2F92832C01A012805DBB2F91C02B2F964
:1050F0002832C01A04E0B2F92802B2F91C32C01AF0
:10510000052801DA022004E0002002E0002000E08F
:1051100000207047400000000000804000008040F8
:1051200000004040000000C0000000C0000020401F
:10513000000040400000804000004040000000406F
:10514000000080BF000000C0000000C0000000BFE1
:1051500000004040000000400000404000000040CF
:1051600000000000000000C0000040C000004040FF
:10517000000040400000404000004040000040402F
:105180000000404000004040000040C0000000C05F
:10519000000000000000004000004040000000400F
:1051A00000004040000000BF000000C0000000C040
:1051B000000080BF00000040000040400000804030
:1051C0000000404000002040000000C0000000C07F
:1051D000000040400000804000008040000080400F
:1051E000000060400000404000000040000000005F
:1051F000000000C0000040C00000604000004040CF
:10520000000040400000803F000080BF000040C020
:10521000000040C00000404000000040000000C00E
:10522000000060C0000060C0000080BF000080BFC0
:1052300000000000000000C0000060C0000080C04E
:10524000000060C0000000C000000000000080BF3F
:10525000000080BF000060C0000040C0000000C02F
:105260000000004000004040000040C0000040C07E
:10527000000080BF0000803F000040400000404030
:1052800000006040000040C0000000C000000000BE
:1052900000000040000040400000604000008040EE
:1052A0000000A0C0000000000000C8C10000A0C0B5
:1052B0000000A04000000000000070410000A0C0FD
:1052C0000000A0C00000A0C0000020410000A040DD
:1052D000000000C00000204100000000000000C0ED
:1052E000000020C10000A0400000A040000000C05D
:1052F0000000A0400000A0400000A0400000A0402E
:105300000000F0410000A040000040400000A0402C
:105310000000A0400000A0400000A0400000A0400D
:10532000000020C1000000C000000000000020417B
:10533000000000C00000A040000020410000A0C00C
:105340000000A0C00000A0C00000704100000000EC
:105350000000A0400000A0C00000C8C10000000084
:105360000000A0C00100000000B0034000B00B40EE
:10537000000000000000000000000000000000002D
:1053800000000000000000000000000000004E6F60
:105390006E4D61736B61626C650000000048617264
:1053A000644661756C740000000000004D656D4D31
:1053B000616E6167656D656E74000042757346616C
:1053C000756C74000000000000005573616765464D
:1053D00061756C7400000000000000000000000017
:1053E00000000000000000000000000000000000BD
:1053F00000000000000000000000000000000000AD
:10540000000000000000000000000000000000009C
:105410000000000000535643616C6C000000000067
:105420000000000044656275674D6F6E69746F72AD
:10543000000000000000000000000000000000006C
:10544000000050656E64535600000000000000002C
:10545000005379735469636B000000000000000082
:10546000444D4130000000000000000000000044F6
:105470004D41310000000000000000000000444DDC
:1054800041320000000000000000000000444D41D7
:10549000330000000000000000000000444D4134D3
:1054A0000000000000000000000000444D413500F5
:1054B00000000000000000000000444D41360000E4
:1054C000000000000000000000444D4137000000D3
:1054D0000000000000000000444D413800000000C2
:1054E00000000000000000444D41390000000000B1
:1054F000000000000000444D413130000000000079
:105500000000000000444D41313100000000000067
:1055100000000000444D4131320000000000000056
:10552000000000444D413133000000000000000045
:105530000000444D41313400000000000000000034
:1055400000444D4131350000000000000000000023
:10555000444D415F4572726F720000000000004DC3
:10556000434D000000000000000000000000465411
:10557000464C000000000000000000000052656181
:10558000645F436F6C6C6973696F6E004C56445F67
:105590004C565700000000000000004C4C57000023
:1055A00000000000000000000000576174636864A0
:1055B0006F6700000000000000524E47000000002E
:1055C00000000000000000004932433000000000ED
:1055D00000000000000000493243310000000000DC
:1055E000000000000000535049300000000000009F
:1055F000000000000053504931000000000000008E
:10560000000000005350493200000000000000007C
:1056100000000043414E305F4F525F4D425F627564
:10562000660043414E305F4275735F4F666600000F
:105630000043414E305F4572726F720000000000FF
:1056400043414E305F54785F5761726E696E6743B5
:10565000414E305F52785F5761726E696E674341A9
:105660004E305F57616B655F557000000052657387
:10567000657276656435310000000000526573651F
:10568000727665643532000000000043414E315FA0
:105690004F525F4D425F6275660043414E315F423B
:1056A00075735F4F666600000043414E315F45727F
:1056B000726F72000000000043414E315F54785F0A
:1056C0005761726E696E6743414E315F52785F5722
:1056D00061726E696E6743414E315F57616B655F02
:1056E0005570000000526573657276656435390047
:1056F0000000000052657365727665643630000004
:1057000000000055415254305F52585F5458000019
:10571000000055415254305F4552520000000000D5
:105720000055415254315F52585F545800000000F8
:1057300055415254315F455252000000000000555F
:10574000415254325F52585F545800000000554196
:105750005254325F45525200000000000055415241
:1057600054335F52585F5458000000005541525462
:10577000335F45525200000000000055415254343E
:105780005F52585F54580000000055415254345F36
:1057900045525200000000000055415254355F52FE
:1057A000585F54580000000055415254355F45522F
:1057B000520000000000004144433000000000009F
:1057C00000000000000041444331000000000000E0
:1057D0000000000000434D503000000000000000B9
:1057E00000000000434D50310000000000000000A8
:1057F000000000434D503200000000000000000097
:10580000000046544D300000000000000000000081
:105810000046544D31000000000000000000000070
:1058200046544D320000000000000000000000431C
:105830004D54000000000000000000000000525421
:1058400043000000000000000000000000526573EB
:1058500065727665643833000000000050495430AA
:10586000000000000000000000000050495431001A
:105870000000000000000000000050495432000009
:1058800000000000000000000050495433000000F8
:105890000000000000000000504442300000000002
:1058A00000000000000000555342300000000000DE
:1058B0000000000000005553424443440000000033
:1058C0000000000000454E45545F313538385F54C4
:1058D000696D6572454E45545F5472616E736D69B2
:1058E000740000454E45545F5265636569766500F6
:1058F0000000454E45545F4572726F720000000013
:105900000049325330000000000000000000000099
:105910005344484300000000000000000000004421
:10592000414330000000000000000000000044413E
:105930004331000000000000000000000054534903
:105940003000000000000000000000004D43470050
:1059500000000000000000000000004C5054696D81
:1059600065720000000000000000526573657276E9
:10597000656431303200000000504F525441000045
:105980000000000000000000504F52544200000090
:1059900000000000000000504F525443000000007F
:1059A000000000000000504F52544400000000006E
:1059B0000000000000504F5254450000000000005D
:1059C00000000000526573657276656431303800FE
:1059D00000000052657365727665643130390000ED
:1059E00000005265736572766564313130000000E5
:1059F00000526573657276656431313100000000D4
:105A00005265736572766564313132000000005270
:105A1000657365727665643131330000000052654C
:105A2000736572766564313134000000005265732D
:105A3000657276656431313500000000526573652A
:105A4000727665643131360000000052657365720C
:105A500076656431313700000000526573657276F7
:105A600065643131380000000052657365727665F7
:105A70006431313900000000008003400090034091
:105A800000800B4000900B4000F00F4040F00F40B2
:105A900080F00F40C0F00F4000F10F400060064062
:105AA0000070064066000A1D3200070164000710FE
:105AB0006E000406780004088200040A8C00040CBE
:105AC0009600040EA0000410AA000412B4000414EE
:105AD000BE000416C8000418D200041ADC00041C1E
:105AE000E100041DE600041EEB00041FF400031790
:105AF000FA000318130101062C0102140001090821
:105B00000090044000A0044000B0044000C00440E5
:105B100000D0044000A0064000B0064000C006408F
:105B200000D0064000A00E4000B00E40008093431D
:105B3000010200006A6E6B6C676D4E4F343536376C
:105B4000020401017820FF1FC820FF1F7820FF1FDB
:105B50007820FF1F7820FF1F790EFF1F600EFF1FA8
:105B60000000000000000000000000000000000035
:105B70000000000000000000000000000000000025
:105B800080B5DFF82C060078002813D0002203210E
:105B9000002000F004FD00220421002000F0FFFCA2
:105BA00000220521002000F0FAFC0022062100203E
:105BB00000F0F5FC01BD38B5DFF8F80500F058FE3F
:105BC000DFF8F40500F09FFEDFF8F025DFF8E815B8
:105BD000DFF8E005FEF71BFFDFF8D80590F8F803C3
:105BE00001280BD0DFF8CC05B0F87602DFF8D0152D
:105BF000088000214320FDF780F84EE0DFF8B4056F
:105C000090F8F70301280FD1DFF8A805B0F91C02BE
:105C1000DFF8A015B1F9D0120818022190FBF1F0BD
:105C2000DFF89C15088038E0DFF8880590F8F90364
:105C3000012832D1DFF88C050078DFF8881548702C
:105C40000320DFF880150870DFF86C0590F8F90381
:105C5000012813D0DFF86005B0F91C02DFF85815F1
:105C6000B1F9D0120818022190FBF1F0DFF85015BD
:105C7000088001214320FDF740F80EE0DFF83405ED
:105C8000B0F91C02DFF82C15B1F9D0120818022166
:105C900090FBF1F0DFF828150880DFF82C0590F86C
:105CA000D400012803D14020DFF8141508804022D9
:105CB000DFF80C05B0F90010DFF8100500F03EFF2A
:105CC000BDEEC00ADFF8080580ED000ADFF8040524
:105CD0000068FCF7AFFCDFF80025DFF80035FCF7C3
:105CE000C1FC04000D00DFF8E8040068FCF7A2FC2A
:105CF0005FF03332DFF8E834FCF7B4FC22002B000D
:105D0000FEF774FBFEF722F9DFF8C8140860DFF82D
:105D1000A004007800280FD1DFF8B804006800F272
:105D2000B1320521032000F03AFCDFF8B804007816
:105D3000401CDFF8B014087031BD000080B501F0E0
:105D400032F8DFF8A40490ED000ADFF8A004D0EDEB
:105D5000000A30EE200AF0EE000A80EE200ABDEEC6
:105D6000C00ADFF88C0480ED000ADFF844040078F4
:105D7000002840F09A80DFF87C0490ED0D0AB1EE27
:105D8000400ADFF84804D0ED000A20EE200ADFF8D0
:105D9000680480ED000ADFF8600490ED000ADFED92
:105DA0009B0AB4EE600AF1EE10FA04DBDFF8480457
:105DB000DFF848140160DFF8400490ED000ADFEDE1
:105DC000940AB4EE600AF1EE10FA03D5DFF8280465
:105DD0008F490160DFF8280490ED070ABDEEC00A84
:105DE000B8EEC00ADFF81C04D0ED000A30EE200A3D
:105DF000F7EE000ADFF8000490ED001A70EEC10A19
:105E000020EE200ABDEEC00ADFF8FC0380ED000A98
:105E1000DFF8EC0390ED070ABDEEC00AB8EEC00A49
:105E2000DFF8E003D0ED000A30EE200ADFF8C80307
:105E3000D0ED000AB7EE001A70EE810A20EE200ABB
:105E4000BDEEC00ADFF8C40380ED000ADFF8B80336
:105E500090ED000AF8EEC00ADFF8900390ED000A1A
:105E6000DFF8900300F006FFDFF8A40380ED000ADE
:105E7000DFF8980390ED000AF8EEC00ADA4890EDDA
:105E8000000ADFF8900300F0F5FEDFF88C0380EDE8
